:020000041800E2
:1020000010B5024B00221B68984710BDC0000000AD
:1020100010B5024B01221B68984710BDC00000009C
:1020200010B5024B00221B68984710BDC00000008D
:1020300010B5024B01221B68984710BDC00000007C
:10204000F8B50A202FF0E6FF114D2E68002E1CD1A6
:10205000F8BD3B00A3401E4203D02000C9B200F0EF
:1020600027FA0134E4B20B4B1B78023B9C4202DAA4
:1020700029890029EDD12B68002BE9D02B89002B71
:10208000E6D00A202FF0A4FFE2E700240127EAE7C8
:10209000C40000000506000010B5040001280ED0A1
:1020A000022809D0002803D10A2008492FF074FF24
:1020B000200000F047F910BD0A202FF0ABFF0C22E2
:1020C0000021034831F0FCFEF2E7C0464120001831
:1020D000C400000010B500F031F810BD024B98802C
:1020E000D98019817047C046C4000000014B18898F
:1020F0007047C046C400000070B50125094C8540FA
:10210000236800290BD01D4205D12389002B02D062
:102110000A202FF05DFF23681D43256070BDAB438F
:102120002360FBE7C400000010B504000021FFF7A6
:10213000E3FF0021200000F089F810BDF8B5184F2A
:1021400086003B6804009B59002B05D00022154BEC
:10215000110001201B689847042320021843002126
:102160002FF022FE002138202FF0C2FB041E08D1E0
:102170000C4B020001001B68012098473B689C51F2
:10218000F8BD002520C030F097FA2000E560A57664
:10219000103030F091FA0423E5762377EEE7C0465D
:1021A000DC0000005806000070B50424000204435F
:1021B000200016000D002FF065FE002E05D02843EC
:1021C000C1B220002FF0F0FD70BDA843F8E7000079
:1021D000F8B50D00110004221C0006AB1E88000299
:1021E00007AB1F880243062304482FF049FA057005
:1021F0008780468044702FF067FAF8BD040A00001B
:10220000F7B51300104A0D00126881008E580400C3
:10221000002E17D0002D15D1316800290DD00F00E8
:1022200005200C3F3A890978009001952000FFF7BE
:10223000CFFF38002FF07AFA35600022012120000C
:10224000FFF7B2FFF7BDC046DC000000F0B5384F25
:1022500087B0830004933B6882009C5804220302E9
:102260001A43050003910592002C31D0314811002A
:102270002FF064F92068002807D0039B002B2DD194
:10228000462219002800FFF7BBFF0126216900291B
:1022900028D1E068002801D02FF0B4FBFFF726FF1B
:1022A000002805D1A37E002B02D00A302FF090FE2B
:1022B000214AA37E11895B1813816668002E17D10D
:1022C0003B68049A98582FF09DFB3B68049A9E50F7
:1022D0003F2105982FF068FD07B0F0BD0C382FF0B6
:1022E00025FAD2E7039A2800724001F011FFCDE7EA
:1022F000201D30F03FFA039B0600002B0DD1828891
:102300000E4B9A420DD1039B02890193438A062109
:10231000009328004623FFF75BFF30002FF072FB8D
:10232000CBE7074B290002201B689847F5E7C0461A
:10233000DC000000140A0000C4000000120A0000C3
:102340005806000070B5040001282FD002282BD0B9
:10235000002814D11A491B4B1B4D0B601B4B04204A
:102360001B6804264B602B78023B0B81184B1B88A3
:102370004B812FF0BDFC2B78023B9C4200DB70BDF3
:1023800020023F21304301342FF00EFDE4B2F2E78A
:1023900020000121FFF75AFF0134E4B20A4B1B78F9
:1023A000023B9C42F4DBEAE70024F7E7064B0021FE
:1023B0001A78084B023A1868920031F081FDDEE786
:1023C000D0000000D82F001805060000E000000033
:1023D00040300018DC0000000F4B70B51B68820015
:1023E000D5580E4B0C001B78023B984205DB0022AF
:1023F0000B4B110001201B689847002C05D00022D0
:10240000074B110001201B689847A4006359181E50
:1024100000D0187870BDC046DC0000000506000042
:10242000580600000D4B70B51B688200D5580C4B48
:102430000C001B78023B984205DB0022094B11007F
:1024400001201B689847002C05D00022054B110085
:1024500001201B689847A400605970BDDC00000093
:1024600005060000580600000E4B70B51B681500ED
:102470008200D6580C4B0C001B78023B984205DBBF
:1024800000220A4B110001201B689847002C05D040
:102490000022064B110001201B689847A400A5519B
:1024A00070BDC046DC0000000506000058060000B4
:1024B000F0B5AB4B82001B688FB0D3580700089172
:1024C0000493002B00D143E15C68231E02D00B0073
:1024D0005A1E9341042206933B021A430B92069B19
:1024E000002B00D12CE1162308AA9B1800221A8089
:1024F0001523012508AA9B181D7014F085FA059074
:10250000002805D1974B020001001B68280098475E
:10251000954A059B944663440993A188934B99423D
:1025200035D0934B994200D0A9E0152208ABD218C0
:10253000E3892000591E8B4113700092162208A9CE
:1025400052182100099B0E31103000F0EFFD0300FE
:10255000051E03D1228A002A00D095E0002122899D
:102560000191618A380000910621FFF731FE049B3A
:10257000181D30F0FFF820002FF0D8F8002D00D102
:102580007BE0059814F098FA00230693D4E002212A
:102590003800228A01F0A0FD061E00D1DCE0431CB9
:1025A000DB7FDB0700D4D5E0438BE5890793A38A63
:1025B0000A93002D16D11D00079B02359D4200D9BC
:1025C0001D00ADB2B18B002904D1664B0A00012079
:1025D0001B689847B38B013BB383638A01336382E3
:1025E00000230EE0A81C0799FFF722FD079B0A9A1B
:1025F0005B1A551B9D4200D91D00ADB28BB200295C
:10260000E0D05A1E9341152208A9DBB2521813706C
:10261000162202932300521821000E3301950093D5
:102620003800099B103100F00DFD051E03D1E28931
:10263000A38A9A4215D1B37B618A2289380001911D
:10264000009304212B00FFF7C3FD049B181D30F0FD
:1026500091F820002FF06AF8002E8FD000237360CD
:102660008CE7B58B002D0FD102230136F27F134387
:10267000F377049B181D30F07DF8069504E0394B84
:102680003A0003201B689847380007F0E1F9082357
:1026900001000B9A37482EF0F3FF162308AA9B1867
:1026A000198805004180002904D12E4B0320A288FF
:1026B0001B689847059B38006B6007F0C9F9000B51
:1026C00008D0284B38001E6807F0C2F92A490200DA
:1026D0000320B04738002E8807F0BAF91523360BCF
:1026E000360336B2064308AA2E809B181A78234E6A
:1026F0001303334205D0C0211A4B03201B68890104
:1027000098472B8808AA1E4015239B181B78280081
:102710001B031E43B604B60C2E8010F069FD184A48
:10272000089913890139013B1381049B049A9B7E0C
:1027300001339376CBB20893089B002B00D0CEE6F2
:10274000049B380059684B1E9941C9B2FFF7D4FC6D
:102750000FB0F0BD33256EE73325237C6CE7C04610
:10276000DC00000058060000004000500D0A000088
:10277000120A000006110000FF0F0000FFCFFFFF4C
:10278000C400000010B5024B1B68984710BDC0463E
:102790001407000000207047F7B5100016000C0069
:1027A0001D002FF06FFB462302002178300A3F2ADC
:1027B00003D04B1F5A1E934142330026E279A7797A
:1027C00012023A43019600922A00FFF701FD300001
:1027D000FEBD73B510000E0015002FF053FB002452
:1027E0003F280AD0F388052B07D13378280AA34263
:1027F00005D1311D01F00CFC0400200076BD332B07
:10280000FBD0717A312B05D1012200941A3B01F0E3
:1028100097FBF2E70029F0D0230022000094F6E7AE
:10282000F0B5088889B00005000D059107F0F4F8AF
:102830000600FF2858D04E4B82001B68D558059BD8
:1028400059684C4BCB180793002904D14A4B0A0016
:1028500001201B689847059B02AA5B885382059B51
:102860001B889B049F0F002D05D1434B2A00290094
:1028700001201B689847012F04D0022F34D130006B
:1028800000F0E4FEEA7E2B7F9A4208D2122302AACD
:102890009B181A00300007A900F038FF0227EC68E7
:1028A000002C21D0A188354B994225D0344B994238
:1028B00058D1029702AB5B8A22000193079B21004B
:1028C00000932B00300018330E32103100F072FDEF
:1028D000002802D12B8B002B06D10023EB60207344
:1028E00020000C302EF0F0FE059B586880B214F0EA
:1028F00045F8002009B0F0BD2A0002AB18325B8A0F
:102900000192220021000E32029700923000079AB5
:10291000103100F0CDFB071E02D12B8B002BE3D131
:1029200001213000228A01F0D7FB011E16D0431C82
:10293000DB7FDB0712D5002F0BD1E289A38A9A42F5
:1029400004D1876020000C302EF0BEFE0023EB6027
:10295000CAE73A00300001F031FCF7E7E8682FF0F1
:1029600051F8F3E7044B320003201B689847BBE79C
:10297000DC00000000400050580600000E0A000075
:10298000130A000070B510000D0014002FF07AFA41
:102990003F2808D0240A00212000FFF71DFD012850
:1029A0000DD0022801D0002070BD01216A882000CE
:1029B00001F092FB01220100200001F0A9FB452259
:1029C00000212000FFF71CFCEDE70000F7B5150023
:1029D00010000C001F002FF055FA2D0AEEB23F2810
:1029E00038D02378042B0BD043230025A288300055
:1029F000009221783A000195FFF7EAFB280022E0D7
:102A000001213000A28801F067FB002824D0436830
:102A1000002BE9D12189028B91421FD84460638049
:102A2000C38AA380838B002B0ED021000C4BAD00FA
:102A30001B680C39E85804302FF054FE0121300097
:102A4000FFF75AFB0120FEBD02230130C27F134372
:102A5000C377F7E74623C8E73323C6E73123C4E744
:102A6000DC000000F7B5140010000D001E002FF070
:102A700009FA220A2978D7B23F2813D0432306291E
:102A800011D129000D4B92001B680C39D05804302D
:102A90002FF028FE38000121FFF72EFB0023012034
:102AA0006B80FEBD46230024EA8838000092019422
:102AB0003200FFF78DFB2000F3E7C046DC0000008A
:102AC000F7B50091132B0FD1FFF710FB0024009BEB
:102AD00001909D1C009B1B78A34207D8019B002BF3
:102AE00002D10A202FF074FA0020FEBD288806F0DB
:102AF00093FF0200FF2814D00C4F86003B689B59BF
:102B0000002B04D10A4B032029881B689847094BE6
:102B100069881A898A181A813B689A59937E5B1AC8
:102B200093760134A4B20235D4E7C046DC0000003D
:102B300058060000C4000000F0B5100087B00D007A
:102B400004922FF09FF93F2800D179E0049B0221E5
:102B50001F0A38002A8801F0BFFA041E00D16FE076
:102B6000AB783726002B36D0431CDA7F01231600C2
:102B70001E401A4200D072E02B8905930BF02AFD0B
:102B8000059B984200D26CE02B89162B00D868E098
:102B90006B8905930BF024FD059B984200D262E0FF
:102BA0006989162900D85EE0288908180130FFF7E6
:102BB0002FFAEB88984258DAAB88002B43D0AA88CA
:102BC0001300403B3F2B52D80121380001F084FA1A
:102BD000002800D03E26AB883000E3812B89238279
:102BE0006B896382EB88A38201F058FA0100208A86
:102BF000E21CE389D27F0290608A0190A08A009053
:102C0000380001F023FBAB78002B12D00C23E18BB2
:102C1000049A1B482EF034FDA38906704380E38993
:102C20008380A38BC380238B0381638B43812EF02E
:102C30004BFD002E1DD101230134E27F1343E377C6
:102C4000002007B0F0BD4023AB8001213800AA88E6
:102C500001F042FA0028B2D0AB880133F4E74326F2
:102C6000B9E73126B7E73226B5E73D26B3E7332685
:102C7000B1E700222100380001F04AFAE0E7C0463F
:102C8000080A0000190010B5030A04000A2B08D135
:102C90008A4206D00448083B2EF0F2FC04802EF055
:102CA00013FD002010BDC0460F0A0000F0B585B02E
:102CB00004000D0016000293002905D00022244BC9
:102CC000110001201B6898470820230218432FF0A9
:102CD000D9F83378070003933F2828D02900200033
:102CE000FFF7A0FB01231A00864203D02F41DA1818
:102CF0001F4208D0100005B0F0BD039A934218D0CF
:102D0000029B01330293029B1B78002BF5D14025D7
:102D100030002EF012FD0026052302000093200053
:102D20002B0003990196FFF753FA3200E2E743259F
:102D3000EEE73200012629002000FFF795FB310065
:102D4000A94032002000C9B2FFF72EFAEDE7C046D5
:102D500058060000F0B502230D00002185B0170AC7
:102D600002AA1371517138002A0003ABFFF79EFFCE
:102D70000600012826D101006A88380001F0ACF96C
:102D8000041E25D0431C0193DB7F334203D1831CF7
:102D9000DB7F002B1CD0FFF7F5FCC0B2002814D05D
:102DA0006870E38AE2893800697801F071FA0122DB
:102DB000631CDB7F134205D0A6219343019A0234A2
:102DC000E177D377300005B0F0BD01236B70E8E701
:102DD000332200213800FFF713FAF3E7F7B5032396
:102DE0000C0069460B7100216B46170A59712200CD
:102DF000380001ABFFF75AFF0600012829D1010076
:102E00006288380001F068F94722051E1DD0431C76
:102E1000DB7F334219D0A188073A002915D0808A78
:102E20000E4B1B1A994210DCFFF7ACFCC0B2002815
:102E300011D06070A388EA893800617801F059FAEE
:102E4000A288AB8A9B180022AB8200213800FFF7D2
:102E5000D7F93000FEBD6670ECE7C046FFFF00000A
:102E6000F0B58BB0079301230C0004A90B7500216A
:102E700004AB5975130A05936B461F7D2200380079
:102E800009ABFFF713FF0690012865D16388002B7B
:102E900000D17AE025890BF09DFB854200D976E0D0
:102EA00023893126162B00D866E065890BF098FB44
:102EB000854200D96DE06189162900D869E0208932
:102EC00008180130FFF7A4F8E388984200DB62E0BD
:102ED000A388002B43D0A2881300403B3F2B4AD845
:102EE0000121380001F0F8F8011E44D160880BF090
:102EF00077FC86B2002E3FD1012124202EF0F8FC71
:102F000005006388059A8381A388C682C3812389CB
:102F100092000382638929004382E38806848382C6
:102F2000079B4660C3831D4B86601B68D0581030DA
:102F30002FF00EFCFFF726FCC0B2002822D06070F4
:102F4000288AEB89AA890290688A61780190A88A08
:102F50000090380001F04CF906980BB0F0BD40230A
:102F6000A38001213800A28801F0B6F80028B2D071
:102F7000A3880133F4E7332600213800F2B2FFF7CB
:102F80003FF9E9E701236370DAE73A26F4E73126EF
:102F9000F2E73226F0E73D26EEE7C046DC0000000F
:102FA00070B50D00042114001A0004AB1B88000248
:102FB0004A3301439BB204482EF062FB0623C580CE
:102FC00004720370083070BD120A000010B5083892
:102FD0002EF07AFB10BD0000FFFF0000852C0018CA
:102FE000120A0000652A00180D0A0000CD290018F9
:102FF000100A000099270018050A0000612E001829
:10300000070A0000392B00180B0A0000DD2D0018FC
:10301000090A0000552D0018140A0000852900181F
:1030200003110000C12A0018061100002128001811
:10303000130A0000D3270018040A0000952700187F
:103040000D00000070B5180004AB20CB1C8806AB47
:103050001E7800239E420BD1230A047043700B8814
:1030600083701B0AC3702B88002B16D004230430F6
:103070000E4E1C19B688B44200D93400A4B2148094
:10308000E41A2B88A4B206332200C91830F0FCFEE3
:103090002B880020E4182C8070BD8B88023C0371C3
:1030A0001B0A4371A4B206230630E1E7C400000006
:1030B000F7B51F000AAB1B78089D099C009101928F
:1030C000012B1DD0184B2A881B688000C15804238F
:1030D000002A03D12388023B23800623CE7E288842
:1030E000009AF61AF6B21D3306301018C9183200CD
:1030F00030F0CAFE2B88F3182B8023889E1B268075
:1031000023883420BB420ED32888009B06303A0027
:103110001818019930F0B8FE00202B88FB182B807E
:103120002388DF1B2780FEBDDC000000F0B587B0E0
:103130000293002313800C9B04001B78160004915B
:103140000093002B00D00BE1038043880279052B0C
:103150000DD0062B2ED0042B00D01DE1914B522A0E
:1031600000D11DE11F21D22A03D1152105E017212D
:103170008D4B8A4200D311E111008900CB58019395
:10318000002B00D10AE1029B651D1A715F1D238887
:103190000133238033880133338000230393019B61
:1031A0001878009B002800D1ABE0002B05D00098D8
:1031B00007B0F0BD0F217D4BDBE7019B0133059389
:1031C00052280FD8402811D9413811280ED830F094
:1031D0002FFE54100D0D0D0D0D0D0D0D3A2E0D0D74
:1031E0000D8B0D4757280FD06C2853D034230093F4
:1031F00019E02B7801353B70238801370133238098
:103200003388013333800EE001226B1C9343228804
:103210009D1C023222803288023232801B883B7031
:103220001B0A7B700237019B01330193B7E701232F
:1032300001359D4323880235023323803388039769
:1032400002333380EEE729003800102230F01CFEF4
:103250002388103510332380338810371033D1E79B
:1032600029003800082230F00FFE23880835083383
:103270002380338808370833C4E729003800062242
:1032800030F002FE23880635063323803388063764
:103290000633B7E70123019A013552789D432B8805
:1032A0000235572A1BD15B009BB2414A3188908876
:1032B00022889A182280021F521A92B201929A42D0
:1032C00000D901932900019A380030F0DDFD019A00
:1032D0003388AD189B183380059B0193A3E7422ADE
:1032E000E3D0059B019381E729003800202230F0CC
:1032F000CBFD2388203520332380338820372033AB
:1033000080E7002B00D052E7039B002B06D03388C8
:10331000039A043B9BB213701B0A537063881720F7
:10332000052B04D02A30062B01D00BF053F923884B
:10333000834212D8029A13701B0A537063889370E9
:103340001B0AD3703288131D338023889B1A238075
:10335000049B04342D1B1D8029E731230093F7E7DC
:10336000134A038892889A4200D91A00049B211DAF
:103370001B880298C91895B230F086FD3388049AEC
:10338000EB183380049B1B88EB18138023885D1B8C
:103390000023258000930AE73323FBE73423F9E772
:1033A0001421EAE6EC390018A43A0018683A00182B
:1033B000C4000000F0B58DB0079312AB069204CBA9
:1033C00001911B880B92039314AB1B78022B00D046
:1033D000DFE0994B80001B68C35804930B79498840
:1033E00005290ED0062900D1F3E0042911D1934A12
:1033F000522B00D11DE11F21D22B00D0EBE0152371
:10340000EDE0049A0332D27F002A00D00EE13F277C
:1034100006E0019B03201A88894B33271B689847D5
:103420000222019B5B889343042B04D0049B019AE6
:103430000333DB7F537138000DB0F0BD029B0133C5
:10344000059352280FD8402811D9413811280ED899
:1034500030F0EEFC550F0D0D0D0D0D0D0D0D22165E
:103460000D0D0D2B0D4C57280AD06C2850D0342749
:1034700038E02B780136237001350134F6B231E0A3
:103480000123621C9A436B7829781B020B43941C1E
:10349000138002350236F1E729002000102230F0B7
:1034A000F3FC103410351036E8E7049B1B7F043B17
:1034B0009B1B09930593202B01D9202305936B4671
:1034C0001B7D29002000059A0A9330F0DDFC099B42
:1034D0001F2B01D801230893059BE418ED180A9BC4
:1034E000F318DEB2029B0133029386E0290020002C
:1034F000082230F0C9FC083408350836BEE7290038
:103500002000062230F0C0FC063406350636B5E74A
:103510000122019B01349443029A1B8852785B1A62
:103520009BB2572A1AD15B08049A2900127F238084
:10353000043AD2B2931BDEB2023420000892320069
:1035400030F0A2FC019B019A1B88A419023313805E
:10355000059B089E029301230893C3E7422AE3D008
:10356000059B02930123089381E7914251D8089B60
:10357000002B01D191424CD1079B521A1A80019B1A
:10358000069A0433E31A1488E4181480002F00D03C
:1035900046E7039B002B1AD0079B039A1B8834270E
:1035A000934200D247E7069B0198198804304018DF
:1035B0000B9930F069FC069B039A1B88D318069A76
:1035C0001380079B039A1B889B1A079A1380002776
:1035D00031E70F211B4A3F278B4200D320E79B0096
:1035E0009B580293002B00D111E7019B01265C1D23
:1035F00000231F00049D08932235029BB1B2187866
:10360000079B1A880028B0D0002F02D1914200D821
:1036100014E7019B34275B88052B00D000E7019B52
:103620001B88172B00D8FBE6033FF9E61721064A53
:10363000D1E71423D3E7C046DC000000EC390018C2
:1036400058060000683A0018A43A00182C4B820073
:103650001B6870B5D4580500E068002820D0294BBD
:1036600082889A4216D10121028A280000F034FD96
:10367000011E05D0002334228360280000F09EFD47
:10368000E0682EF053F80023E3600023E376043370
:10369000237770BD34230C3003702EF015F8F2E759
:1036A000E37E227F9A42F0D9032BEED92100042039
:1036B0001F312A024D7813B20243E07F2D020543E9
:1036C0001100342628B2052D0AD0062804D0013E68
:1036D000042805D1062100E008213426194389B2C7
:1036E0004A2309482DF0CCFF0023067043808380D5
:1036F000C580A31CDB7F03722DF0E6FFC5E7C04643
:10370000DC0000000E0A0000130A0000F0B50E00F5
:10371000A44B17001B68820085B0D5580290E87E44
:103720002C7FA04225D23B88002B01D105B0F0BDF3
:10373000241A9C4200D91C001D3022003168281830
:1037400030F0A2FBEB7E1B19DBB2EB763A88121B42
:103750003A80326814193460042BE0D1AB7F6A7F61
:103760001B021343172B00D917232A7F9B182B7793
:10377000D5E7A042DAD1AB7F6A7F1B0213430093E7
:103780002B001F335B78EA7F1B0213430193403BFE
:103790003F2B00D9A7E00121019A029800F09CFC80
:1037A000041E00D1EBE0431CDB7FDB0700D4E6E026
:1037B0008668002E3BD033000C3BEB603389708869
:1037C00003930027618A009B99426AD3A38A9C468F
:1037D000002B00D183E0228A039B9A4200D280E032
:1037E000002834D19A1C009B9A4235DB002F59D116
:1037F0006346013BA382002E30D1029A039B100244
:1038000004220A339BB20243E18B67482DF038FF54
:103810000123C380019B47808380039B03810300B6
:103820000C3BA060EB600770009B2B834AE0009B81
:10383000012B08D92B0021331A785B7830001B024A
:1038400013430393BDE7300034270396BAE7009B88
:10385000C218039B9A42C9DD342723E0F488009BF9
:1038600001340230C018A4B24B1EF480C018FEF719
:10387000CFFB80B28442D7D90421029B4B481A0265
:10388000114306230A002DF0FBFE03230370019B66
:10389000438001238380F388013BF3802DF014FFE4
:1038A000C2E7322702983A00210000F087FCE8685E
:1038B000002803D02DF03AFF0023EB600023A36023
:1038C000332F5CD0E868002800D12FE7002F00D10B
:1038D0002CE70C302DF0F8FE0023EB6026E73B27A9
:1038E000E0E73127DEE70426AB1CDB7F0393029B76
:1038F0001B021AB21E436B4604215B5E0199052927
:1039000038D0062B31D0042B39D106240298144329
:1039100003F0B2FE009B312798428041A4B20740D9
:10392000009B002B00D134270AF054FE009B9842E4
:1039300022D34A23002F02D1009B4A339BB232008C
:1039400021001B482DF09CFE00234380019B077043
:10395000C3807B427B41009A5B4213408380039B80
:103960000C3803751300E8605FE708241443A4B221
:103970000027D5E73400FBE731274A23DFE704229D
:10398000029B0B48190211434A230A002DF078FECE
:1039900033270023019A43800770C28083800C384C
:1039A000E8608FE7DC0000000E0A00000B0A000050
:1039B000130A000042574200426C42005757576CAE
:1039C00042004B00575200424100505000425757AE
:1039D0006C5700424C575700424C575757570042BC
:1039E0004C5700424C5757575757000000000000F3
:1039F000B4390018E1390018E1390018D539001838
:103A0000B8390018BC390018B9390018BD39001888
:103A1000B8390018E1390018B9390018D53900183B
:103A2000B9390018D0390018B9390018BD39001853
:103A3000B8390018BE390018C9390018BE39001845
:103A4000BE390018BD390018BD3900188C4901185D
:103A5000C939001800000000BE390018000000003D
:103A6000BE390018C9390018000000007449011857
:103A700074490118C2390018C23900188C4901185C
:103A8000C2390018C4390018C2390018C7390018E3
:103A9000C23900188C490118CA390018C2390018F7
:103AA0008C49011800000000CD390018000000000A
:103AB000000000000000000000000000D3390018E2
:103AC000D3390018000000000000000000000000D2
:103AD00000000000000000000000000000000000E6
:103AE000000000000000000000000000D8390018AD
:103AF000DF390018E3390018E3390018D33900180A
:103B0000F8B50E008A880221050000F0E5FA041ECF
:103B10000ED0471CFB7FDB070AD5818B1D4BF2883B
:103B20005B1A9A4206DD01003D22280000F046FBA8
:103B30000020F8BD002AFBD004232A02C18B1A43BF
:103B400015482DF09DFDF288A38BD318A383E3893C
:103B5000428003802DF0B8FDFA7F9307E8D56368B3
:103B6000002B04D10D4B290003201B68984702222B
:103B7000FB7F9343FB770A4BAA001B686168D05810
:103B80000C3904302EF0AEFD01212800FEF7B4FA06
:103B9000CEE7C046FFFF00000C0A000058060000F8
:103BA000DC000000F7B50D0000210600FEF73AFC2E
:103BB00000282ED06A7843789A422AD101780129C8
:103BC00027D18288300000F087FA3323041E019346
:103BD0001AD0042733021F43390026482DF0AEFCCB
:103BE000AB890B2B44D8244AD35C0193002B06D11C
:103BF000AA881300403B3F2B0DD94C230193002290
:103C00002100300000F084FA00213000019AFEF714
:103C1000F7FA0020FEBDEB88162BEED92B89162B68
:103C2000EBD90221300000F057FA0028E5D13A0024
:103C3000E18B0C2311482DF023FDAB88E382EA8849
:103C400022832B8963839C4601236989651CA18398
:103C5000EF7F3B43EB77A3894380E389C180838077
:103C6000634643810023028103702DF02DFDCBE7D5
:103C70003C23C3E7140A00004C400018080A000067
:103C800070B50D0000210400FEF7CCFB00281ED00B
:103C90006A7843789A421AD10378022B17D101210E
:103CA0004288200000F018FA4725011E04D00122A6
:103CB000200000F02DFA00250421230205481943B5
:103CC0002DF03CFC2A0000212000FEF799FA00208C
:103CD00070BDC046140A00001523F0B589B002AAD1
:103CE00005009B18162288880F0002A95218290087
:103CF0000AF05CFD84B2472C00D193E0012128003A
:103D000005F0E4FF02AB01005E7D002800D071E009
:103D1000B3070CD0280005F0D9FF002806D00221F7
:103D2000280005F0D3FF3924002800D13624E0B262
:103D300000F0B4F90590002800D07AE0FA8813006A
:103D4000403B3F2B01D9092305933B89162B00D813
:103D50006AE07B89162B00D866E00221280000F07B
:103D6000BBF90A23002800D062E00121B8880AF0DC
:103D700037FD00285BD1059B002B5AD12A02043362
:103D800002A91A43C98A04332F482DF079FC012176
:103D9000060024202DF0ACFDBB88059A8381C281EA
:103DA000FB8802AAC3823B89040003837B89AD00A0
:103DB0004383BB8921008383D38AC3830423038481
:103DC0007A78C31CDA77059B436083601F4B1B68BE
:103DD000E85810302EF0BCFCA38930003380E38A11
:103DE0007380238BB380638BF3802DF06DFC0020F8
:103DF00009B0F0BDB3070CD402AB5B7D5B0700D408
:103E000095E7280005F09CFF0F2800D98FE738249C
:103E10008DE7280005F07EFF03231E40B04200D24C
:103E200084E7E9E73A2482E70B23059395E7042327
:103E30000593002328007A78059902930193009353
:103E400000F004FAD3E7C046060A0000DC000000D8
:103E5000F8B50E00CA880221050000F03DF9041EE5
:103E600012D00127421CD37FBB43D377A322831CEC
:103E7000DA77C28AC3897178280000F027FA3A00FD
:103E80002100280000F044F90020F8BDF8B58B8827
:103E900004000D004C27022B01D8274AD75C0021D3
:103EA0002000FEF799FA431E06000021012B03D8DB
:103EB0002000FEF7B7FA41780423220210B21A4319
:103EC0006B788B422ED111001C482DF037FB012E50
:103ED00014D100212000FEF7A5FA002807D082881F
:103EE0003100200000F0F8F80022011E16D1200059
:103EF0003A000021FEF784F90020F8BD022EF6D129
:103F000000212000FEF78EFA0028F0D0012142881F
:103F1000200000F0E1F8011EE9D00122200000F0AD
:103F2000F7F8E4E708230343280099B208382DF096
:103F3000ECFB0120E1E7C04658400018140A0000DD
:103F4000F0B585B01C000AAB1E88002704231500BD
:103F5000020203911343052101220097FFF720F885
:103F60008580012D03D0022D0FD0C78003E004729D
:103F7000240AC5804472039B4370C38801335B00ED
:103F80004380FFF723F805B0F0BD04728672240A5F
:103F9000360AC5804472C672EDE773B505000E009F
:103FA00005F06CFD041E08D103000200009071783A
:103FB0002800FFF7C5FF200076BD08212A02300047
:103FC000042513B2194308382A4389B22DF09DFB0A
:103FD0000120F1E737B504000D0005F04FFD012881
:103FE00009D16978002520002B002A000095FFF7F1
:103FF000A7FF28003EBD082122022800042413B296
:1040000019430838224389B22DF07FFB0120F1E7E4
:1040100073B5082300240D790B4A1678AE4200D1FF
:104020005468013BDBB20832002BF6D1002C02D0E1
:104030000431A04776BD4979230022000094FFF7A0
:104040007FFF2000F6E7C0465C400018003C3A3C89
:104050003536373839333E403C31330001000000FB
:104060008D3E001812000000D53F0018130000001C
:104070009B3F001806000000513E0018070000009A
:10408000813C001814000000D93C00181500000005
:10409000A53B001816000000013B0018030000B506
:1040A00000280DD0353BDAB218000623052A07D8C0
:1040B000052804D82FF0BCFE0608030A0C0E0623C0
:1040C00098B200BD0423FBE70523F9E70723F7E7D0
:1040D0000823F5E70223F3E70C4B80001B68C05868
:1040E000002811D0006900280ED0012908D002292B
:1040F00008D0002902D18389934205D00068F2E7F5
:10410000C389F9E7C38AF7E77047C046DC000000BF
:10411000F0B5284B85B01B6803928200D658070083
:1041200030000C0010302EF02FFB631CD97FA089CB
:104130004907C90F0AF06EFB039B002B10D0042324
:104140003A021A43E18B1C482DF09AFAE389038066
:10415000A31CDB7F002B00D1463383702DF0B4FA13
:10416000A068002807D0F3680C38834201D10023EF
:10417000F3602DF0DBFA6568002D15D00C3D2900A9
:10418000301D2EF001FB039B002B0AD0002063683A
:104190002A89197801909B88380000934623FEF7FE
:1041A00017F828002DF0C2FA20002DF02BFC05B0E6
:1041B000F0BDC046DC0000000A0A0000042370B510
:1041C0000C0001021943150008480A002DF058FAA6
:1041D000E3894380022303702DF076FA0121621CEB
:1041E000D37F02348B43D377E57770BD090A000093
:1041F000F0B5042487B01D000CAB1B880F0003939F
:104200000DAB1B88160004930EAB1B88142205937C
:1042100003021C430023052100932300FEF7C0FE88
:10422000039B47708381049B86804381059BC580E7
:104230000381FEF7CBFE2100024A03482DF0E4F88B
:1042400007B0F0BD30750000140A0000F0B585B06D
:104250001C000AAB1F880BAB1E880CAB1B8815001B
:1042600003930423020213430022029100920521CA
:104270001532FEF795FE039B4570C380029B848038
:10428000478106818381FEF7A1FE05B0F0BD0000E5
:10429000F7B504241D0003021C4300230F00160081
:1042A0000521062200932300FEF77AFE4770C680A0
:1042B0008580FEF78BFE2100024A03482DF0A4F80A
:1042C000F7BDC04630750000140A000073B51C002D
:1042D000042315000202134300220E000092052160
:1042E0000732FEF75DFE46708580C480FEF76EFEE5
:1042F00073BD73B51C000423150002021343002292
:104300000E00009205211632FEF74AFE46708580A7
:10431000C480FEF75BFE73BD7FB505000E00140080
:10432000684610220A492FF0AFFD0C20042C03D060
:10433000022C01D0002010243100220068442FF00C
:10434000A3FD2800102269462FF09EFD7FBDC046C8
:10435000A04A001870B516001D0088B0022909D1C6
:10436000022B0BD12A0031002FF080FD434258412F
:10437000C4B206E0042907D1042BF3D00024102D89
:1043800004D0200008B070BD1029F7D10A00010048
:104390006846FFF7C1FF2A00310004A8FFF7BCFF01
:1043A0001022684604A9DFE707B513006A46063203
:1043B00013800223FFF7CEFF0EBD000030B510259D
:1043C000040085B02A00684608492FF05DFD2100F1
:1043D00002220C3103A82FF057FD2B0022002900E8
:1043E0006846FFF7B7FF05B030BDC046A04A0018C9
:1043F00030B51025040085B02A00684608492FF022
:1044000043FD210004220C3103A82FF03DFD2B00B9
:10441000220029006846FFF79DFF05B030BDC04669
:10442000A04A0018F0B587B003930CAB019204CBFF
:1044300002901E880FAB1F7804ABD98001230025A2
:10444000072118000492039A934235D31623681C5F
:10445000032158432DF04CFA029B04001B88468030
:10446000038060239F4307710126002704AB457139
:1044700002220630991D2FF007FD0E9D0835039B83
:104480009E4229D3200000F057FB051E0ED1238841
:10449000029A010013800722030094460127039823
:1044A000CAB2904202D90498002838D120002DF0D9
:1044B000A9FA280007B0F0BD019A002A07D0019C94
:1044C000DA08A25C1C000C402241024201D00135F6
:1044D000EDB20133DBB2B6E7019B002B07D0019AA6
:1044E000F308D35C072232401341DB0713D51623B0
:1044F00016207B43EA88E3181A85AA8812490137F7
:104500000A4078435A856A882900DA8420180222F2
:104510002FF0BAFCFFB20136F6B20835AFE70198CA
:10452000002807D0019ED008305C6646324010411A
:10453000384206D0029A049812889A1801334254DD
:10454000DBB20131ABE7C046FF9FFFFFF0B587B09C
:1045500003930CAB019204CB0F001B8802900593D0
:104560000FAB1D7801230026072118000492039A3F
:1045700093423AD31620731C584303212DF0B8F907
:10458000029B04001B8805710380059B6D06467124
:10459000438002220630AD0F03D09218012D00D0C7
:1045A0000C323900012600272FF06EFC0E9D1635C7
:1045B000039B9E4229D3200000F0BEFA051E0ED1B7
:1045C0002388029A010013800722030094460127E2
:1045D0000398CAB2904202D90498002843D120001F
:1045E0002DF010FA280007B0F0BD019A002A07D07C
:1045F000019CDA08A25C1C000C402241024201D05E
:104600000136F6B20133DBB2B1E7019B002B07D0D4
:10461000019AF308D35C072232401341DB071ED511
:1046200016227A43AB8AA21813856B8A781C5385AD
:10463000298A5B13D1840321162219408C46032159
:104640005043143A20180B4204D063460232012B27
:1046500000D00C3229002FF017FC0137FFB20136D1
:10466000F6B21635A4E70198002807D0019ED008BD
:10467000305C664632401041384206D0029A0498B7
:1046800012889A1801334254DBB20131A0E710B509
:1046900086B06A4603880400013968461380517168
:1046A00000F026FA6B461B88238006B010BD000080
:1046B000F0B585B001930023140002AA0F00110089
:1046C0000293137100F008FE061E07D1A02102A874
:1046D000890100F057FE002803D00626300005B0FF
:1046E000F0BD204902A800F04DFE0028F5D11E497A
:1046F00002A800F047FE0028EFD11C4902A800F0F4
:1047000041FE0028E9D1A42102A8890100F03AFE67
:104710000028E2D1164902A800F034FE0028DCD1BE
:10472000144902A800F02EFE0028D6D1029A0420D7
:10473000115E93880029D0DB1B051D0D55196B8870
:10474000A34200D207262A883B19934207DC201D8A
:104750003A00019928182FF097FB6F80BEE70D26CD
:10476000BCE7C04601280000032800000228000022
:1047700002290000032900000023F0B58FB006AE27
:1047800003913100070015000693337100F0A4FD7A
:10479000041E1BD1A0213000890100F0F3FD002888
:1047A00017D00F2702ABFF18012339003000009308
:1047B0000AAA00F043FE041E08D14B4E3A78039B30
:1047C00030001A800AA92FF05FFB2E6020000FB086
:1047D000F0BD3000454900F0D5FD0028E1D13000A2
:1047E000434900F0CFFD002826D0013708AEBFB204
:1047F000089431003471380000F06EFD041E4FD172
:1048000001230F210093030002A809180AAA30000F
:1048100000F014FE02ABDA7B0399D31C0B80089BDB
:1048200034495B8834481B0A4B77CF830AA92FF0A1
:104830002BFB2D4B2B60C9E73000304900F0A2FD67
:1048400000282FD0336808AE9A8831001205120D67
:104850009B1858791A79000208941043347100F0BB
:104860003BFD041E1CD10F2702ABFF1801233900AA
:10487000300000930AAA00F0E1FD3F78039A089EF9
:104880003B1D13803100022217482FF0FDFA02224F
:10489000B11C1B482FF0F8FA3A001A480AA9C6E7DB
:1048A000802493E7A4213000890100F06BFD31687A
:1048B000002808D08A881205130D0222CB1803990C
:1048C00004330A80B6E704200A5E8B88002A08DBDE
:1048D0001B051B0DCB181A1D2A605B88039A1380D9
:1048E00074E7062472E7C0461901000001280000A1
:1048F00003280000FC0000001C010000022800004A
:104900001B0100001D0100000023F0B587B00192DB
:1049100002AA0091110004000293137100F0DCFC64
:10492000051E07D1A02102A8890100F02BFD002857
:1049300003D00625280007B0F0BD204902A800F0EA
:1049400021FD0028F5D11E4902A800F01BFD00281A
:10495000EFD11C4902A800F015FD0028E9D1A421DF
:1049600002A8890100F00EFD0028E2D104AF013C4D
:104970003900A0B2029E04953D7100F0ADFC002804
:104980000DD138000E4900F0FDFC002807D07388D7
:10499000009A1B0A120A934201D004F0DBFD802228
:1049A000009B019952017380B388114202D01343D6
:1049B000B380BFE7044A1340FAE7C046012800006D
:1049C0000328000002280000FFEFFFFF73B500235B
:1049D00015006A460E0069460093137100F07CFCD6
:1049E000041E07D1A0216846890100F0CBFC0028F5
:1049F00002D00624200076BD68460F4900F0C2FCB4
:104A00000028F6D168460D4900F0BCFC0028F0D122
:104A100068460B4900F0B6FC0028EAD1A42168469C
:104A2000890100F0AFFC0028E3D1009B5A88B24313
:104A30002A435A80DEE7C046012800000328000010
:104A40000228000010B50C0000F0AEFA03000120AF
:104A5000002B06D060220020997A94431140214314
:104A6000997210BD10B50C0000F09EFA03000120F1
:104A7000002B04D0602200209B7A9343237010BD4A
:104A800010B5012804D0022801D100F075FA10BD3C
:104A90000022024B5A609A60F9E7C046FC00000011
:104AA000FB349B5F800000800010000000000000CD
:104AB000F7B50E4C050027680E000192002F14D0A8
:104AC000002806D1200010220C302FF0DDF9012340
:104AD00023773B68002B03D031002800019A9847C8
:104AE00020682CF08FFF00232360F7BDFC0000003E
:104AF0000288104B002A18D101221B680280002B6B
:104B000016D041790288521899888A4210DBDA88D7
:104B10000132F2E7D988914207D3417900209B887E
:104B20008A189A424041C0B270471B68002BF1D1ED
:104B30000020F9E700010000F0B589B00190FFF70F
:104B4000D7FF051E039016D1019B10241E7976060F
:104B5000B60F08D00434012E05D0022E00D1EBE1AF
:104B60004023043C0393019B5B79AB4200D8C7E030
:104B7000039B002B10D0039809B0F0BD6022019B6D
:104B800001991B7938009343019A12311371320055
:104B90002FF07AF91024E6E716236B43019AD31815
:104BA0005B8D5B049B0F38D0012B31D0022B02D0E0
:104BB00040230393DFE71027A01D83B2029316233F
:104BC000691C4B430493049A019B39009E18A02250
:104BD00030009201FFF7E8FB0028E9D139003000EE
:104BE000CC4AFFF7E1FB0028E2D139003000CA4A85
:104BF000FFF7DAFB002815D016236B43019AD31870
:104C0000A022DB8C1201134093421CD05623D0E724
:104C1000A01D83B204270293D1E7A01D83B202270F
:104C20000293CCE739003000BC4AFFF7BDFB0028F7
:104C3000E2D139003000BA4AFFF7B6FB002806D0AF
:104C40000C34A3B202930135029CEDB28BE7A4228F
:104C5000390030009201FFF7A7FB0028F0D139009E
:104C60003000B04AFFF7A0FB0028ECD1042F03D19D
:104C70000A34A3B2029316E0102F14D13000FFF7CC
:104C80009DFB002821D016236B43019AA649D31817
:104C90005A8D0A405A8502220499019B0C315918F9
:104CA00030002FF0F1F816236B43019AD3182A2114
:104CB0005A5E002AC7DB188D01230005000D053060
:104CC0009843029B181883B2BCE73000FFF790FBB3
:104CD000002813D00A34A3B2029316236B43019A1F
:104CE0009149D3185A8D1140802292010A430499A8
:104CF0005A85019B0C3104225918D1E71634B8E7C4
:104D0000039B002B00D036E7200001212CF0F0FDA2
:104D1000019B019A1B8805008380527904199B1816
:104D2000C380019B039A5B880381019B1B79C2723C
:104D300083725B069B0F17D1019B0222991D0C30D9
:104D40002FF0A2F80027019B5B79BB4220D80023FB
:104D50000120764A1168002900D1D5E0002B00D14E
:104D6000C8E004F0F7FB06E7012B0AD10422019BFF
:104D7000043C991D20002FF087F82B1DE31AAB810E
:104D8000E0E7022BDED1019B1022103C991DF1E7D8
:104D900016210B007B43019AD3187A1C51435B8D7B
:104DA000019A5B049B0F06915618002B23D1062015
:104DB00078430E300222310028182FF065F80223C4
:104DC000029306237B430793EB18049316237B433C
:104DD000019A3000D3180593049ADB8C0299138250
:104DE000504AFFF7E1FA002829D00023049A5382A1
:104DF0000137FFB2A7E7012B0ED1043C042231009A
:104E000020002FF041F806237B43EA180E33EB18FD
:104E1000E31AD3810423D3E700220292022BD0D1DC
:104E2000103C1032310020002FF02EF806237B4377
:104E3000EA180E33EB18E31AD3811023C0E73000D1
:104E4000374A0299FFF7B0FA002813D002220699D8
:104E5000019BA61F123132807280A01E59182FF0BC
:104E600013F806237B43EA180E33EB18F31A3400C9
:104E70005382BDE7A422300002999201FFF794FA11
:104E80000028E3D13000244A0299FFF78DFA002868
:104E90000DD0162206237A4301997B438A18528D3E
:104EA0002349D204D20FEB180A435A82A0E73000FC
:104EB0001A4A0299FFF778FA0028EAD1059B1D49A2
:104EC0002A229A5E059B11401B8D1B051B0D002A93
:104ED00003DA1943049B59828AE701265A1DB2431B
:104EE000A41A079A23800E32AA18A21A049B608083
:104EF0000A43DAE7AE888C88A64203D22960030011
:104F0000156027E70A0025E7002B00D029E7156088
:104F10002B6026E701280000022900000329000079
:104F20000228000003280000FF9FFFFF000100008F
:104F30000280FFFF00F0FFFF019B9F1D3800FFF77D
:104F40003DFA002800D019E63800FFF751FA202377
:104F50001C00002800D106E66021019A3800127971
:104F60000C3C8A4313430199019A123113710422B4
:104F70002EF08AFFF7E5C04670B50A4C606800283D
:104F80000AD12068002801D02CF03CFD002363608A
:104F9000A3602360237770BD05682CF033FD2800E3
:104FA000EDE7C046FC000000104A0300906810B511
:104FB0005168002806D084889C4203D8C188994251
:104FC0000ED2016808000121002809D084889C4283
:104FD00009D8C4889C4204D3C47A0C4201D19060A1
:104FE00010BD0068F0E70020FAE7C046FC000000B2
:104FF000F0B5A04B8BB0049006911C7F002C09D01B
:10500000071E04D00A0000209B49B847002738003B
:105010000BB0F0BD27005E68002E66D0002F08D0D0
:10502000944C20680028F2D02CF0ECFC0023236084
:10503000EDE70122F37A134218D10320B288F388F6
:10504000B17A9B1A49110622DBB2014200D00E321E
:10505000A41806223500002753430E355B19A4B26D
:105060000393039B9D4201D0002F01D03668D3E704
:1050700003226B885B1313420BD1A4222B8892016D
:1050800093422ED007D87D4A93420AD07C4A93425D
:105090001DD00635E5E77B4A9B18042BF9D804346C
:1050A00013E0AB881B051B0DEB1858791A79000229
:1050B0001043FFF779FF002815D00321827A0A23D5
:1050C00052110A4200D00E33E418A4B2E1E70321E2
:1050D0006A8907345213A3B202240A42F4D00E3470
:1050E000F2E70634F1E75127D3E7002F98D10321E7
:1050F000201D2CF0FDFB2500049A5E4B0260186019
:105100005B6803900493049B002B00D19DE0002F6B
:1051100003D0432F00D17AE782E70122049BDB7A98
:1051200013423DD1049B06A99E88DB8809AA9B1BDC
:10513000DBB207930A235B1819003000FFF71CFB52
:10514000049B03999B88AA1E92B25BBA8A189BB2F1
:10515000043D1371ADB21B0A53714A197F21049BA0
:1051600007009B7A282099429B415B42537106AB12
:105170005B890399ED1AADB210712A1D8A1809993D
:10518000002B11D1049B01360E330593079BB6B259
:10519000F3189BB20793079BB34201D0002F09D0AD
:1051A000049B1B680493AEE7013B9BB2C85C107084
:1051B0000132E5E70322059B5B885B1313423ED176
:1051C000A422059B92011B88934204D032D82E4A18
:1051D0009B18012B33D801220398AB1E9BB271BAE6
:1051E000C31889B21971090A5971059B043D1B88BE
:1051F000ADB25BBA9BB241190B711B0A4B71002A0D
:105200001DD00A2306A95B18190009AA3000FFF770
:10521000B3FA070006AB5B890399ED1AADB22A1DFC
:105220008A180999002B0AD0013B9BB2C85C107008
:105230000132F7E7134A9B183A00042BCCD9059B9F
:1052400001360633B6B20593A5E7002F00D060E71C
:10525000002D05D00D4B2200290003201B68984724
:10526000069B039900932200094B0A4804312DF054
:1052700019FDCCE6FC000000080100000228000037
:1052800003280000FFD6FFFFFED7FFFF58060000EF
:10529000B14A00184056001870B50E4C6368002BD8
:1052A00001D1012070BD9A888242F8D8DA88824202
:1052B00001D21B68F3E7DA7A0120150005408D4220
:1052C00004D082430A43DA7204F044F90020A0605B
:1052D000E8E7C046FC00000070B505000C00FFF7D1
:1052E00063FE03000120002B07D09888A84205D157
:1052F0000433236001230020237170BD01302D1A77
:10530000062068430E301B18002023602071F4E74C
:1053100070B51B4CA3686268002B07D005889E8877
:10532000AE4203D8DA88AA4216D21A6813000122C4
:10533000002B01D1012070BD06889D88AE4207D3A5
:10534000DD88B54202D3DD7A154205D01B68EFE750
:10535000DE7A1642FAD105809A880088824206D108
:105360001A1D0A6001220A710020A360E3E70132DE
:10537000801A062242430E329A180A600022F2E78F
:10538000FC000000030000791B6800280BD1002BF3
:1053900008D09A885204920F04D11888401A4342C8
:1053A0005841C0B27047002B0AD0A022920191420E
:1053B000F8D09B7900207F2BF4D9024BC818EEE778
:1053C0001800EFE7FFD7FFFF70B50D00A02189019E
:1053D0000400FFF7D7FF0623002826D12000144938
:1053E000FFF7D0FF062300281FD120001149FFF747
:1053F000C9FF0623002818D120000F49FFF7C2FF7C
:105400000623002811D1A42120008901FFF7BAFF4B
:105410000623002809D121688A88130512B21B0DC2
:10542000002A00DBCB5A2B800300180070BDC04659
:1054300001280000032800000228000073B50500C1
:10544000100006AA167800220A700C0029680132A2
:1054500000291AD02A79002A35D08A79002B22D047
:1054600053069B0F19D0012B0CD1033323702968ED
:105470000B89C918002E14D00422FEF74DFF10230B
:10548000237001E0022B02D00022100076BD102311
:10549000237029680B89C91803E002232370296847
:1054A000083122780AE052B2002A0ADBA0239B01CD
:1054B0006A46D38002226B462270991D2EF0E4FCCE
:1054C000E2E70D4BF4E78B885B049B0F08D0012BC0
:1054D0000CD0022BD8D10E33237029680B88DAE761
:1054E0000223237029680029CED0DAE70423237031
:1054F00029680B88BDE7C04601280000F0B585B0DB
:105500000A9E0F00336815000190002B26D0A021C1
:1055100030008901FFF736FF002818D130004249DA
:10552000FFF730FF002812D130004049FFF72AFF73
:1055300000280CD130003E49FFF724FF002806D197
:10554000A42130008901FFF71DFF002816D0802319
:105550009B00002D0BD12C003B8005E03100019811
:10556000FFF7BAFE041ED2D0200005B0F0BD9D4268
:1055700001D00624F8E700243C80F5E733680400F6
:105580005B883B80002DEFD01D42F2D002ABD8717A
:10559000D91D0198FFF766FA041EE5D133680C3473
:1055A0009A8880235B011A4207D102AAD17902228C
:1055B0000C001440114200D00C249D422FD00DD875
:1055C00080239B009D4218D010D31A4B1A4AEB1827
:1055D00013420BD13B881B079B0F11E080239B01DB
:1055E0009D4219D08023DB019D42F3D0134B2A004A
:1055F00003201B680199984703E003223B8813406E
:105600003B8002ABDB79DA060CD43A881B079B0F90
:105610009A42A9D23B80A7E73B889B06DCE73B8800
:105620001B06D9E708249FE7012800000328000093
:105630000228000000FCFFFFFFFB000058060000EE
:10564000000000000000000000000000000000005A
:1056500070B50D7806001B3D6B1E9D411A4B0C006A
:10566000ED181A4B4A881B688100CB589B69002BA8
:1056700004D1300004F022FB010006E09988914239
:1056800020D8D98891421DD3198932020626A388D1
:105690003243063328009BB22BF0F2FF237805003B
:1056A0001B3B5A1E934112330370A288A1194280FA
:1056B0006388838080192EF0E7FB28002CF004F823
:1056C000002070BD1B68D2E70C0C0000F000000049
:1056D00010B50121040001F0EDFF0C2804D00022D8
:1056E0000F2810D041220EE00121200002F02EF8F8
:1056F000418903890022994205D0064BA2001B680C
:10570000D3582C331A782000012102F0CBF9002065
:1057100010BDC046F000000070B50D00040008F098
:1057200059FF6988814200D90100200089B202F046
:1057300031F80121200001F0BDFF00220100012805
:1057400001D041220121200002F0ACF9002070BDFF
:10575000F0B587B002910121040001F0ABFF4122B6
:105760000B2816D100260121200001F0EFFF0622B0
:10577000370023021A43039005920096039B009A78
:105780005B7893420CD8029B5B88BB4200D05026CA
:1057900032002000012102F085F9002007B0F0BDA1
:1057A0000121200002F090F8009B039A9B00D3187F
:1057B0000193DB8801000633059A9BB215482BF054
:1057C0005FFF019B05009B880380029B5A88019B19
:1057D000D21BDB889A4200D91A0093B20493AB80A3
:1057E00000236B80029B391D5918A81D2EF04CFB1D
:1057F000049B049AFF18019BBFB2DB88934200D040
:10580000502628002BF060FF009B0133DBB2009391
:10581000B4E7C046090C0000F7B50E0001210700EF
:1058200001F048FF0C2824D10121380001F08EFF3F
:10583000B588C3880400ED1AADB229000C3145814A
:1058400041183000F38808301A0001932EF00EFB47
:1058500000280CD1019B5D1923899D4207DCADB264
:1058600001213800658101F0FDFF0020FEBD044DDF
:10587000F6E741220121380002F014F9F5E7C046AD
:10588000FFFF0000F0B585B001910121040001F097
:1058900011FF402203281AD10121200001F056FFF8
:1058A00006220500002623021A43A3000393274B78
:1058B00002920093019B5B88B3420DD8009BEA885B
:1058C00001339BB29A4201D3002B37D10A22012126
:1058D000200002F0E7F836E00121200001F0F4FF9B
:1058E0006B780100029A063319482BF0C9FE019B20
:1058F000070099194A790B79290012021343038092
:10590000019AB31C9BB2D3185A791B791202134324
:10591000438000936A780831027105302EF0B4FAA2
:1059200038002BF0D1FE0B4B039A1B6804369B58B2
:10593000B6B24C331A7801321A70BBE7012120004D
:10594000AB8001F08FFF002005B0F0BDFFFF00002D
:10595000040C0000F0000000F0B587B002910121B6
:10596000050001F0A7FE402207281FD101212800D1
:1059700001F0ECFE029B03905B780227012B00D024
:105980000E370024062226002B021A43AB00049295
:105990000593029B5B88B3420DD8039B0134DB88DF
:1059A000A4B2A34201D3002C30D10A220121280045
:1059B00002F078F830E00121280001F085FF049A18
:1059C00001003B1D16482BF05BFE029BB11C9B198E
:1059D0005C791B7924021C4389B2029B04313A0092
:1059E000591801900480877003302EF04DFABB1CCB
:1059F0000198F6182BF068FE0A4B059A1B68B6B2A0
:105A00009B584C331A7801321A70C2E7039B01216C
:105A100028009C8001F026FF002007B0F0BDC046A2
:105A2000070C0000F0000000F0B587B000914E8830
:105A30004F780121040001F03DFE0500022800D04E
:105A40007FE039003000FCF7E3FA002800D178E06D
:105A50000121200001F07AFE009B02905B78142B5C
:105A600000D10E3500260622370023021A43A30078
:105A7000049205930396009B5B88BB4259D9002E84
:105A800059D1314B039A9A4211D1039B029A0133A7
:105A9000D2889BB29A424ED3002B4CD0029A01215D
:105AA0002000938001F0DEFE002007B0F0BD012150
:105AB000200001F009FFAB1D0100049ADBB223486E
:105AC0002BF0DEFD009B461DD9194A790B79120295
:105AD00013430380009ABB1C9BB2D3185A791B79DD
:105AE000120213430393391D039A009B89B20431B8
:105AF000428059182A000190057130002EF0C4F937
:105B00002B1DDBB2029AFF18029B08325B7829003A
:105B10003000FEF71FFC060001982BF0D5FD0C4B62
:105B2000059A1B68BFB29B584C331A7801321A7021
:105B3000A1E7002EA9D000220121200001F0B2FF30
:105B4000B2E74122F8E7C046FFFF0000040C000066
:105B5000F000000010B50121040001F0ABFD0022AF
:105B60000C2800D041222000012101F09BFF0020E1
:105B700010BD00007F2310B50A780C001340522B93
:105B800009D01E2A07D0062100020143C420044A7E
:105B900000012BF039FC2000FDF718FA10BDC046BB
:105BA00030750000062302021343002213B50421BE
:105BB00000921E320400FDF7F3F901002000FFF708
:105BC000D9FF13BD062337B50202134300220D008F
:105BD0000092042118320400FDF7E2F9457001003B
:105BE0002000FFF7C7FF37BD70B50B7904000D002B
:105BF000122B0ED104F062F80622230201001A4390
:105C000017482BF07BFD012120002A7901F04AFF83
:105C100024E00A2B0BD1134B82001B68D3584C3362
:105C20001A78002A03D000221A700A71EBE76B7809
:105C3000162BE8D10121200001F088FD0028E2D0D8
:105C40004378002BDFD0074BA2001B680021D358FC
:105C50002A792C3320001A70FFF7B4FF002070BDA2
:105C6000230C0000F0000000F0B50C0089B0012109
:105C7000050001F01FFD062805D804282FD800D103
:105C8000A4E0402249E00A28FBD12800667801F010
:105C9000F3FC02380121864200DB13E1280001F009
:105CA00013FE06226378010028020243043396485B
:105CB0002BF0E6FC00260700637922791B021343D0
:105CC00003806278A11D023A92B28280468006303B
:105CD0002EF0DAF838002BF0F7FC32001DE001213D
:105CE000280001F033FD049063781027072B00D8BB
:105CF0000E3F06222B021A43AB00079300231E001F
:105D0000069205936388B3420CD8059B049A01332D
:105D1000D2889BB29A4250D20A220121280001F077
:105D2000C1FECDE0A219537912791B021A43049BDC
:105D300005921B78052B30D10121280001F0C4FD0C
:105D4000069A0100BB1D71482BF09AFCB31C9BB254
:105D5000E3181B79059A0371F31C9BB20280E318C8
:105D60005A7905361B791202B6B21343311D4380AE
:105D70003A0003904771611806302EF085F80398B9
:105D80002BF0A2FC624B079A1B68F6199B58B6B21F
:105D90004C331A7801321A70B4E73000049B049A2D
:105DA000093039005B7820180832FEF7D3FA002852
:105DB000C2D16378F618B6B2A4E7049A002BABD030
:105DC00001212800938001F04DFD79E00121280098
:105DD00001F0BCFC079063885B071ED1012305938B
:105DE000DB1800260622370003932B021A43069283
:105DF00004966388BB4214D8059B002B01D1002E6A
:105E000050D1049B079A0133D2889BB29A4283D324
:105E1000002B00D180E7079AD2E7002305931033C7
:105E2000DFE70121280001F04FFD039B0100069AE6
:105E3000083338482BF024FCE219537912791B02FD
:105E40001A43BB1C9BB20280E31804925A791B7957
:105E50001202134343803B1D9BB2E3185A791B790E
:105E6000120213438380059BB91D060089B2002BE3
:105E70000FD0039B04311A008371611807302EF094
:105E800003F8039B30000633FF18BFB22BF01CFC55
:105E9000AFE731001E4BAA001B680C39D0581030F8
:105EA0002CF020FC00240421069B0A2228000094E8
:105EB000FDF776F87388010043802800FFF75AFE4B
:105EC00000201EE0280001F041FC637922791B02CA
:105ED0001343002283806378028122002100023B69
:105EE0009BB2083AC3805380094BAA001B6814393F
:105EF000D05810302CF0F6FB0121280001F0B2FC44
:105F0000012009B0F0BDC046090C0000060C0000DD
:105F1000F0000000050C0000F0B5374C830085B0A0
:105F20000393236882009B5805001B69002B47D010
:105F3000012101F00BFC2368AA009B5807001C6993
:105F4000012123000C3301932800E68901F0BCFCF9
:105F50002A020625B31D01009BB22A4327482BF0D5
:105F60008FFB8680BB8805000380FB880026029398
:105F70004380237D092B17D12100627D0630023A30
:105F80001A312DF081FF637D27689E1EB6B2002F67
:105F900003D0029AD31A02336B8020002BF0C6FB89
:105FA0003B003C000C330193002C0BD1124B039AA5
:105FB0001B68985810302CF07FFB28002BF084FBD6
:105FC00005B0F0BD019BB01D19005A8928180C318D
:105FD0002DF05AFF019B24685A899619B6B2002CFD
:105FE00002D06B889B1A6B8001980C382BF09EFBBB
:105FF00020000C300190D7E7F0000000090C0000F1
:10600000F7B50D000121040001F054FB042830D045
:106010000838C0B2022800D97DE00121200001F03B
:1060200095FB2B000022290006003C4F083B5A80BC
:10603000A30001933B68A2009858143910302CF04B
:1060400051FB3289002A43D13B68A2009B586F88DC
:106050001A69D389FB189BB2D381822292009342A2
:106060003CD3F83AFF3A0121200001F01BFD01204A
:10607000FEBD0121200001F069FB284BA2001B6836
:106080000700D05810302CF075FB291D0300102597
:1060900006000C332A00133001932DF0F5FE019811
:1060A000B5742BF011FBB389FA8801339BB29A4285
:1060B00001D3002B05D10A220121200001F0F2FCBE
:1060C00004E001212000BB8001F0CCFB0020CFE7E1
:1060D0006B88934200D913006B80B5E7200001F074
:1060E000CBFA0138874205DB6A8833899A4206D3A6
:1060F000002B04D02000FFF70FFF0022B3E7F18848
:106100005118F180002B01D09B1A3381012120000E
:1061100001F0A8FBABE74122CEE7C046F00000004B
:1061200070B50E23050000260C000A7A0E49087887
:10613000904200D14E68013BDBB20831002BF6D112
:10614000FF20002E0ED01B3AFD331A4206D0062146
:10615000C4202B02194300012BF0F0F92100280084
:106160000831B04770BDC0466C61001803000000E4
:1061700019570018050000005959001807000000C1
:106180008558001809000000695C00181100000023
:10619000295A00180B000000016000180D000000D3
:1061A000016000180F000000515700181300000094
:1061B000555B00181700000019580018190000005E
:1061C000D156001801000000E95B00181D00000016
:1061D000515600181B0000005156001870B50400FD
:1061E00008000E00FEF7E0FE051E05D1064B32004A
:1061F000210003201B689847AB7A2889DB0701D56B
:106200002402204370BDC0465806000037B5140074
:106210006A4600230D00911DD380FFF7D5F80028B2
:1062200007D16B46DB88A34204D964199C4200DD88
:106230000D303EBD0720FCE7F0B50E00062171438E
:1062400005001000224A85B054188A5A0E2167882A
:10625000009369443B00FFF751F9062805D00C284C
:1062600005D0041E04D005B0F0BD2079F9E7012463
:106270006B46DB89002B01D10020F4E7280003F0F6
:1062800049FD002809D0032E09D1280003F042FD62
:106290006B46DB8980B28342EED90520E3E701211A
:1062A000280003F013FD002808D10221280003F084
:1062B0000DFD03000F20002BD5D1EEE7002CE4D01C
:1062C000280003F03DFD0F28DFD80C20CBE7C046A7
:1062D000E875001873B500236A46009313714A8865
:1062E0008E880C006B4603210500FFF7A5FF021EF8
:1062F00001D0002076BD31000C39684689B2FFF725
:1063000085FF0028F5D108212A02EF200625A38861
:1063100016B2073331432A439BB289B200012BF0F6
:10632000AFF9F1230370A388050003334380D22320
:1063300003716388A11D43711B0A8371A288073012
:106340002DF0A2FD28002BF0BFF90120D2E70000BC
:10635000F8B5040015000F0019001E00FFF73EFFFE
:1063600022020624AB1D010022439BB208482BF0F9
:1063700087F9002304002A003900068085804380C5
:1063800006302DF081FD20002BF09EF9F8BDC046AF
:10639000150C000037B500236A46009313714A8834
:1063A0000C006B4602210500FFF746FF021E01D0DC
:1063B00000203EBD6846A188FFF728FF0028F7D1DE
:1063C00028006388A288A11DFFF7C2FF0120F0E723
:1063D00073B51C00062315000202134317220E009A
:1063E00000920421163AFCF7DBFD467045800471EB
:1063F000FCF7ECFD73BD00000022F0B587B004ABE4
:106400000F1F04921A713A8805000C00002A2AD046
:10641000AB000293444BAA001B6861889858036B39
:10642000002B2FD0DA8A8A422AD140302CF0A2F9F0
:106430003B88029A1B051B0D03933B4B01001B6815
:10644000E0889B581F6B002F31D08226B600B446DF
:10645000BA88121896B262452ADB403318002CF035
:1064600077F9092305E04A880121FFF7E5FE031EBD
:10647000CED0280062882178FFF7AAFF002014E020
:106480001B68CDE73B88002BCFD12800FFF7A6FE85
:1064900006222D02010002232A4324482BF0F0F8A3
:1064A000638803802BF010F9012007B0F0BD0600CF
:1064B000A288944662884881604608810398C88013
:1064C000002F04D1303318002CF00CF908E0F88AC2
:1064D000904226D930330A00180039002CF008FA0F
:1064E000114B029A1B6804219B582A021B6B28003F
:1064F0009E8006231343E28800921722FCF750FD8A
:1065000021000500638808314380E288C28008309A
:106510002DF0BAFCA3882800AB80FCF757FD0220C1
:10652000C3E73F68CCE7C046F0000000170C00004E
:1065300037B500236A46009313714A886B460C00F6
:1065400001210500FFF778FE031E0ED10200A1888D
:106550006846FFF75BFE031E07D128006388A28808
:10656000A11DFFF7F5FE01203EBD280062882178BD
:10657000FFF72EFF0020F7E7F0B58DB0060004917D
:1065800001F07AF8023883B20593049B5F88B30068
:106590000693049B9A88BA4200D291E0002F00D162
:1065A00093E00E2206ABD21817800027059B0AAA9B
:1065B0000A97177103930E2306AA9B1818000AA9BD
:1065C000FEF7A6FE041E00D078E0049B9A8806AB76
:1065D000DB899A4262D3022118202BF089F901232A
:1065E000C21D811D0093050023000AA8FEF726FFA7
:1065F000041E06D006ABD989434B02001B6803205A
:1066000098470E2306AA9B181B88AB80AB7907938B
:10661000002F2ED09F422CD028002BF0F3F93B4DB9
:10662000069A2B689B589B6B002B61D0059B039AA5
:1066300030009C1A06233202A4B2134300940522B0
:106640000421FCF7ADFCBB1E5A1E9341013343707D
:106650002B68069A06009B5840889D6B00232418DF
:106660007480002D34D13000FCF7B0FC00200DB058
:10667000F0BD264B069A1B682900985838302CF03C
:1066800031F80E220398079B0238C01A83B2039395
:1066900006ABD2181388079F013313800E2306AA76
:1066A0009B18049A1B8892889A42B8D3002BB6D0C4
:1066B000039A7B1C934200DA7DE7B0E70A24AEE739
:1066C0000027059B03930124A9E7059B0393FAE7A1
:1066D000A988F21802339CB29180201DAA79E91D85
:1066E00030182DF0D1FBAB792D68E3189BB2B8E7D9
:1066F000002C00D10A34049B30005A8819782300FA
:10670000FFF766FEB2E7C04658060000F000000042
:10671000164BF7B51B688200D358040053331D781D
:106720000F00002D1CD107F055FF06232202042183
:1067300013430095032206002000FCF731FC0500FE
:1067400007F048FF7988814200D90100200089B212
:1067500001F020F828006E80FCF738FC0020FEBD18
:10676000042300220221FFF733FEF7E7F0000000C8
:10677000F7B5140000236A46A57813710093637877
:106780002D021D432A000E006B4603210700FFF770
:1067900053FD021E08D10E2E01D90F3EB2B22B00BE
:1067A0003800E11CFFF7D4FDF7BD00000023F0B571
:1067B00087B004AE049333710B7805000C00122BE4
:1067C00047D01D270521402B0CD03900280002F0AE
:1067D000D1F912230293002838D1217812394B1EA7
:1067E0009941043133002800A288FFF725FD02906B
:1067F00000282BD1E3882800039300F03DFF039B82
:10680000C61E9E4200D91E0006222B021A43B3B2B6
:10681000042128000392009313003A00FCF7C0FB08
:1068200021000500A38832004380B3B28380083181
:1068300006302DF029FB2800FCF7C8FB2378122B2B
:1068400004D0054A039905482AF0DEFD029807B0F6
:10685000F0BD1B27B9E7C04630750000410C0000B1
:1068600010B58400064B1B681859036B002B00D130
:1068700010BD30302BF07EFF2BF0C4F8F2E7C0469D
:10688000F0000000F0B58BB005914B780500079340
:10689000012B00D09CE00B00043B1B88029383007B
:1068A0000693029B002B40D1594B82001B689B58DA
:1068B0001C6B002C39D0029B08AF04930393002378
:1068C0003B603B713900E08AFEF706FD021E04D0F2
:1068D000504B0320E18A1B68984722893800618960
:1068E000FFF794FC059B079A043B1A800600E28A96
:1068F000002800D081E0029B9A4203D0E388A08068
:10690000049303942189049B994200D974E004986C
:106910006389814239D20398A04236D00499A3807A
:10692000E18003942468002C2DD10026384F069A6C
:106930003B689B581C6B002C4BD02800E18AFFF76A
:106940004DFC0622A3882D02063301009BB22A4388
:1069500031482AF095FE00260500E38A0380A388CB
:10696000838023894380AB88B34201D8002B03D1B5
:106970002A88E38A9A4211D028002AF0A5FE012431
:1069800020000BB0F0BD029299E7C91889B20491BA
:10699000039989885B1803998B80C3E72100B01D98
:1069A0001C31628928182DF06FFA6389069AF6184F
:1069B0002368B6B202933B68985830302BF0DAFE69
:1069C00020002BF01FF8029B002BD5D01C00CAE73B
:1069D000002600242800FFF743FFA642D0D106235B
:1069E0002A02134317220421009228000232FCF7E6
:1069F000D7FAFCF7EBFAC3E70726059B28001978BE
:106A00003300FFF7E5FC2800FFF72AFF8EE7C046BA
:106A1000F000000058060000150C000010B58400BE
:106A2000064B1B681859836B002B00D110BD383002
:106A30002BF0A0FE2AF0E6FFF2E7C046F0000000CF
:106A400070B5074D84002B681B59986C002806D040
:106A50000C382AF06BFE00222B681B599A6470BD1B
:106A6000F0000000F7B51F001B4B01921B6882006D
:106A7000D35804009B6C0E00002B26D01A888A4243
:106A800021D11D79062D08D0002D07D15A880199F2
:106A900005330A803B602800FEBD80252000FFF7FB
:106AA000CFFF062DF7D131002000FFF797FB220220
:106AB0002A430100022392B208482AF0E1FD068031
:106AC0002AF002FEE7E7FFF7BBFF3A00300001992A
:106AD000FDF752FE0500E4E7F0000000130C000093
:106AE000F0B50C001D008FB0159E0F880490039226
:106AF00031002000FEF70CFC031E28D1039A2188E8
:106B0000128891421CD80F21009004A80AAA0918E3
:106B10003000FEF793FC021E04D0354B0320218881
:106B20001B6898470F2304AA9B1829000AAA1B7800
:106B30001498FDF70FFC2288002820D10132228012
:106B4000039A238812889A4201D3002BD0D10A23BA
:106B50002780029302980FB0F0BD33685D88039BD5
:106B60001D80059B002BF5D12188179B169A049850
:106B7000FFF778FF0290EDE7013EB5B2EFE7330093
:106B800000210498FFF758FB059002903779002FF9
:106B9000E3D1300017492588FEF7F4FB0028DED04A
:106BA000280008AB08971F71FEF7FEF907000135B2
:106BB000AEB2FD88B542D2D3BB88B342CFD208A9CA
:106BC0003000FEF789FB0B4908A8FEF7DBFB002825
:106BD000D2D1094908A8FEF7D5FB011ECCD108A8DF
:106BE000FEF7D0FB0028C7D10136B6B2E1E7C046B8
:106BF0005806000003280000022800000023F0B51A
:106C00008BB008AA1371089383000493504B820041
:106C10001B6805009858029138302BF0ADFE029B9E
:106C200003901C1F2388002B04D1280000F024FDB2
:106C3000013820800024029B039A5B88934256D936
:106C4000029B043B05931B88002B50D0002C0CD0DA
:106C5000062C6DD0039B5800029B18188288197867
:106C600028002300FFF7B4FB62E0039B21005E00D5
:106C7000029B28009E19B28808ABFFF7DDFA041EBC
:106C8000E6D10A2704ABFF183A002800B18807AB09
:106C9000FFF7E8FE041ECED1059B3F881B889F426C
:106CA00000D91F003800BBB20221083005932AF03A
:106CB0001FFE0600BBB283803A00079906302DF014
:106CC000E3F8234B049A1B683100985838302BF0B6
:106CD00009FD2800FFF7B4FE029B03981A1F1388D2
:106CE000059901305B1A138083B20393A3E7002C4C
:106CF000AED1280000F0C0FC0299062304390E88AA
:106D00002A02F6438619B6B2134328000F220096D2
:106D10000421FCF745F9270005000D4B049A1B6878
:106D200046809B589E6B002E07D12800FCF74EF939
:106D3000A01F434258410BB0F0BD381DB288B11DB1
:106D400028182DF0A1F8B3883668FF18BFB2EAE71B
:106D5000F0000000F0B50E00002189B006AB1971FB
:106D6000728805000691FFF767FA041E4CD10A27C6
:106D700002ABFF183A002800718805ABFFF772FEDE
:106D8000041E41D1B3883F880393BB4207D907341F
:106D90002300280072883178FFF71AFB2FE02800C3
:106DA00000F06AFC039B0138FF1A874200D90700F4
:106DB00006232A02134302AA5289042100922800C2
:106DC0000D22FCF7EDF84780059BB188BFB23A0071
:106DD0005918039004302DF057F80398FCF7F6F893
:106DE000B38802AA5289DB19934208D1280000F027
:106DF00043FC0138874202D02800FFF721FEA01F84
:106E00004342584109B0F0BD062CF8D0C0E7F0B5B8
:106E10000E00002189B006AB069119717288050039
:106E2000FFF70AFA041E3BD10A2202A81218718841
:106E3000280005ABFFF716FE041E31D102AB280077
:106E40005F8900F019FC461EBE4200D93E000623B1
:106E5000B1B22A02134303910B22009128000421AE
:106E6000FCF79EF80700039B32004380059904302D
:106E70002DF00AF83800FCF7A9F802AB5B89039AF9
:106E8000934208D1280000F0F7FB0138864202D077
:106E90002800FFF7D5FDA01F4342584109B0F0BDBF
:106EA000062CF8D02300280072883178FFF790FA7A
:106EB000F1E700000023F0B50C008FB00CAA0C9392
:106EC00013714A88163304A95B18251F1A802B8872
:106ED0000600002B00D1B0E00027B30006936A4BF8
:106EE000B2001B689B589B6B0493002B01D09B79CD
:106EF0000493002F5ED11625A3880AAA04A9138043
:106F00006D180BA9A37903911A2104A809180291FD
:106F10000CA9019121000831009130002900FFF7F0
:106F2000DFFD071E00D096E004AB5B8B049A934212
:106F300001D0002A3ED1221F1588043DFB2B00D929
:106F4000FB239D4200D91D002800ABB202210C306A
:106F500007932AF0CDFC04AB5B8B2A00049304ABAF
:106F6000DB8A0B99838004AB1B8B0590C380057271
:106F700009302CF089FF221F13880799043B5B1A04
:106F80001380414B069A1B680599985838302BF0AE
:106F9000A9FB04AB5B8B079A934202D13000FFF749
:106FA0004FFD04AB198B04AA4B1C9BB2D382A28861
:106FB000934255D9344D069A2B68985838302BF0A7
:106FC000DBFC002856D02B68069A04219B5832021D
:106FD0009C6B0623257A134304354543ADB230003C
:106FE00011220095FBF7DCFF4580237A060004336D
:106FF00043700023A288F1180A71120A4A719A1C80
:10700000E18892B2B2181171090A5171210004335A
:107010009DB2281D227A301809312CF035FF237AD1
:107020002468EB189BB2002CE4D13000FBF7CEFFB4
:10703000B81F434258410FB0F0BD00F01DFB0238AD
:1070400028806388A28801279A4200D245E7002B56
:1070500000D041E741E70628ACD12B886380E7E701
:107060009142A7D0049B221F12880333934200DA77
:1070700041E79FE7162304AA9B181A8830003B00BB
:107080002178FFF7A5F9D3E7F00000000023F0B561
:107090000E008FB00CAA0C9313714A88163304A902
:1070A0005B18341F1A8023880500002B00D1A5E04F
:1070B0000027AB000693654BAA001B689B589B6B8F
:1070C0000493002B01D09B790493002F5BD11624ED
:1070D000B3880AAA04A9138064180BA9B379039191
:1070E0001A2104A8091802910CA901913100083154
:1070F000009128002100FFF7F3FC071E00D08BE071
:1071000004AB5B8B049A934201D0002A3BD1321F1F
:107110001488023CFD2B00D9FD239C4200D91C00A1
:107120002000A3B20221083007932AF0E1FB04AB50
:107130005B8B2200049304ABDB8A0B998380059060
:10714000847107302CF0A0FE321F13880799023B90
:107150005B1A13803D4B069A1B6805999858383086
:107160002BF0C0FA04AB5B8B079A934202D1280044
:10717000FFF766FC0AAB198804AA4B1C9BB2D382AA
:10718000B28893424DD9314C069A236898583830CA
:107190002BF0F2FB00284ED02368069A04219B585E
:1071A0002A029C6B0623A679134302364643B6B2E5
:1071B000280009220096FBF7F3FE4680A37905001C
:1071C000023343700023A288E91802330A719EB289
:1071D000120A4A71301DA279E11D28182CF054FEC4
:1071E000A3792468F3189BB2002CECD12800FBF79C
:1071F000EDFEB81F434258410FB0F0BD00F03CFA1D
:10720000023820807388B28801279A4200D250E762
:10721000002B00D04CE74CE70628B4D123887380BC
:10722000E7E79142AFD0049B321F128801339342AB
:1072300000DA4CE7A7E7162304AA9B181A8828004F
:107240003B003178FFF7C4F8D3E7C046F0000000F8
:107250000023F0B50C008DB00AAA0A9313714A8876
:10726000163302A95B18271F1A803B880500002BE4
:1072700037D0AB000593A38802AA138309AB03930D
:107280001A2316219B1802930AAB019302A8A31D8F
:10729000009309180223280008AAFFF721FC061E04
:1072A00004904ED00A2828D0062814D002AB1B8B9D
:1072B00002AA0133D382162202A95218A388128887
:1072C0009A4206D808AA12889A4202D03B88032B19
:1072D000D1D8062E11D1162302AA9B181B886380D1
:1072E00029E000F0C9F9013838806388A2889A4201
:1072F00001D3002BBDD1012304933D4FAE003B6869
:10730000985938302BF038FB002800D165E006236F
:10731000800084B22A02134304210722280000942B
:10732000FBF73EFE3B6844809B59996B0023002984
:1073300043D1FBF74BFE04980638434258410DB049
:10734000F0BDE3882B4A9B18012B0ED91A2202A903
:107350005218238912889A4227D1200009990A30AD
:107360002CF084FD00280AD01FE0200002AB9B7E99
:10737000217A099A0A30FCF7EDFF0028E6D00221B5
:1073800008202AF0B5FA02ABDB8A059A838008ABA5
:107390001B880100C380164B083F1B689858383083
:1073A0002BF0A0F92800FFF74BFB162208AB1B8837
:1073B00002A90133521813807DE78A88C41822710C
:1073C000120A62719A1CCC8892B282181471240A33
:1073D0005471043309689BB2A9E7162302AA9B18CB
:1073E0001A8828002178049BFEF7F2FFA3E7C04625
:1073F000F000000000D8FFFF07B5002A0AD10623DD
:1074000001020B43009204211332FBF7C9FDFBF785
:10741000DDFD07BD13000A001221FEF7D9FFF8E7D2
:10742000F7B505002A4E83000093336882009B580D
:107430001C6C002C00D1F7BD238A264901930C2334
:10744000227DD800475C974225D109184F68002F4C
:1074500005D1214B290003201B6898470027019B79
:10746000002B1BD0210028001431B847020001284E
:10747000E1D002280CD0002824D12800FFF7CEFA52
:107480003368009A985840302BF074F92AF04EF97E
:107490003368009ACBE7013BD3D2DAE72800217D9D
:1074A00001F068FB0028DDD04023217D1942E4D1A2
:1074B0000E2905D1228B12232800FEF789FFDCE775
:1074C000E28AF8E7044B290003201B689847B0E7DD
:1074D000F00000008075001858060000F7B50A7A21
:1074E00004000D000C231E2A15D1002100F0E2F843
:1074F000132802D0002540280BD10621230219436E
:107500001C482AF01BF800222000110000F0CAFAE3
:1075100000252800FEBD1848D900095C914224D1FD
:107520000620164FA6003B689B591B6C0193230253
:1075300018432AF0A7FC00230093830604D4019B80
:107540005A425341DBB2009329003B680C399859E9
:1075500040302BF0C7F80023AB80009B0125002BA7
:10756000D7D02000FFF75CFFD3E7013BD3D2FF2544
:10757000CFE7C046410C000080750018F000000005
:10758000020000001167001804000000796500186F
:107590000600000051720018080000008D700018ED
:1075A00010000000B56E00180A0000000F6E0018F1
:1075B0000C000000556D00180E000000FD6B001857
:1075C0005200000095630018120000003165001899
:1075D000D2000000D562001816000000F963001800
:1075E000180000008568001800020300020000086F
:1075F0000C00030000040C00030000400C0003001A
:107600000010C000060000203000060070B50C001D
:10761000184E8500012911D1336858590369002B90
:1076200006D13368A4005B59E058002813D170BD1F
:1076300010302BF09FF82AF079F8EDE70229F0D10D
:1076400033685859036A002BEBD020302BF092F8A6
:107650002AF0D8F9F4E72AF073F8002805D1336846
:107660005B59E0580C382AF061F8002233685B5906
:107670001A51DCE7F0000000034B80001B68C35880
:10768000503318887047C046F000000070B51400F1
:1076900006220D000002190004AB1E7802430423E9
:1076A000C020984029F0ECFF0570467044802AF015
:1076B0000BF870BD70B50F4B05001B780C00023B3A
:1076C000984205DB00220C4B110001201B689847F3
:1076D000032C05D90022084B110001201B68984794
:1076E000064BAD001B68A400EB58E358181E00D0F1
:1076F000187870BD0506000058060000F000000074
:1077000070B50F4B05001B780C00023B984205DB5F
:1077100000220C4B110001201B689847032C05D94F
:107720000022084B110001201B689847064BAD0052
:107730001B68A400EB58E358181E00D0588870BD91
:107740000506000058060000F000000070B50E4B62
:1077500005001B780C00023B984205DB00220B4B16
:10776000110001201B689847032C05D90022074B04
:10777000110001201B689847054BAD001B68A40051
:10778000EB58E05870BDC0460506000058060000E2
:10779000F00000008222F8B51C4E8500336804001A
:1077A0005B59920091422CD319491A005032118032
:1077B000184A1278002A02D1533301321A7020007D
:1077C00002F07CFA0622230201001A431248042325
:1077D00029F056FF336801215B59070050331B889D
:1077E00003802000FFF766FF00230100012803D17A
:1077F0002000FFF7ABFF438838007B8029F064FF4F
:10780000F8BD1729D1D21721CFE7C046F0000000FC
:1078100007020000F8000000020C000070B50E4BDB
:1078200005001B780C00023B1600984205DB002285
:107830000A4B110001201B689847032C05D9002230
:10784000064B110001201B689847054BAD001B68D3
:10785000A400EB58E65070BD050600005806000075
:10786000F000000070B5154B04001B780D00023BC2
:10787000984205DB0022124B110001201B6898473B
:10788000032D05D900220E4B110001201B689847DB
:1078900000200C4BA2001B68AD00D358ED58854268
:1078A0000AD0280029F049FF2102062402002143C2
:1078B000280029F02AFF012070BDC04605060000FF
:1078C00058060000F000000070B5114B05001B7851
:1078D0000C00023B984205DB00220E4B11000120F8
:1078E0001B689847032C05D900220A4B1100012080
:1078F0001B6898470020084BAD001B68A400EB589C
:10790000E358834202D0180029F017FF70BDC0462B
:107910000506000058060000F000000070B50624BF
:1079200000020443200016000D002AF0ABFA002EDE
:1079300005D02843C1B220002AF036FA70BDA84312
:10794000F8E7000070B500210600542029F0D0FFB0
:10795000041E05D11D4B020001001B680120984741
:10796000002520006560A560E56010302AF0A4FEC7
:10797000200018302AF0A0FE200020302AF09CFEC3
:107980002000A562256030302AF096FE20003830B5
:107990002AF092FE200040302AF08EFE23000422BE
:1079A0004D33A5641A70172306202365084BB200D7
:1079B0001B682900D450330218432AF0F5F930002F
:1079C00001222021FFF7AAFF70BDC0465806000023
:1079D000F0000000F0B585B004000AA8008801900E
:1079E0000BA8008802900CA80088039000294AD0B8
:1079F0002A49A600096817008D5901213035687F92
:107A00000F40884307438B400220874303403B439A
:107A100004270240BB43574257415BB2B8000343BF
:107A20000820FF0083433B436B77002A03D02000EC
:107A30001B4A01F055F8194F3B689D592B8D002BBF
:107A400021D1039B002B1ED001210C2029F050FFD7
:107A5000019B22028380029B0100C3800623134303
:107A600003813B68985918302AF03CFE019B29009D
:107A70002B856B46029A1B792A31D21A0A70039A17
:107A80002B35D31A2B70002220212000FFF746FF50
:107A90002000FFF7C5FC05B0F0BDC046F0000000B7
:107AA000FFFF0000F7B5174F86003B6800929B5917
:107AB0008A00D35804000D000192002B16D0FFF766
:107AC00003FF06220100C02023021A430001042301
:107AD00029F0D6FD3B68AA009B59D3581A7802704A
:107AE000009A42705B88438029F0EEFD2900200057
:107AF000FFF78CFD0121A94000222000C9B2FFF749
:107B00000DFFF7BDF0000000F7B5284F86003B6879
:107B100004009B590191002B25D00025019B002BCF
:107B200032D0462229002000FFF7BCFF3B6898595D
:107B30008369002B2DD10135EDB2042DEED120004B
:107B4000FEF78EFE3B689859056C002D27D120006A
:107B5000FEF764FF2000FEF773FF3B68985929F099
:107B600051FF3B689D51062024020443C42021009C
:107B7000000129F0E3FC21000D4829F0DFFC402141
:107B800020002AF011F9F7BD29002000FFF73EFD83
:107B9000CCE718302AF0EEFD29F034FFC6E740307C
:107BA0002AF0E8FD29F0C2FDCCE7C046F000000055
:107BB000410C000070B5040001282FD002282BD002
:107BC000002814D11A491B4B1B4D0B601B4B062080
:107BD0001B6806264B602B78023B0B81184B1B88D9
:107BE0004B812AF085F82B78023B9C4200DB70BD6C
:107BF00020024021304301342AF0D6F8E4B2F2E703
:107C000020000021FFF780FF0134E4B20A4B1B780B
:107C1000023B9C42F4DBEAE70024F7E7064B002135
:107C20001A78084B023A186892002CF049F9DEE7FE
:107C3000E4000000C087001805060000F400000002
:107C4000C8880018F000000070B5040002F036F893
:107C50000622230201001A431448082329F010FDCC
:107C6000134BA4001B68E35819001A8D2A310280B7
:107C700009785118418019002B310C7800218C4271
:107C800001D0121991B20422818030335B7F01212F
:107C90001A4055426A411C008A400B410C40224365
:107CA0000B408271C37129F00FFD70BD280C0000DC
:107CB000F000000070B510000D0014002AF0E2F88A
:107CC000402817D0240A01212000FFF7F3FC0D38CB
:107CD000012804D8012120006A78FFF7E3FE002183
:107CE0002000FFF7E7FC122804D1002120006A7869
:107CF000FFF7D8FE002070BD70B510000D00140015
:107D00002AF0C0F8402812D02B78F12B0FD16B78D5
:107D1000002B0CD0074B240A1B68A200D05840301F
:107D20002AF028FD29F002FDE0B2FFF779FB0020E0
:107D300070BDC046F0000000F0B5100085B00C002A
:107D400015002AF09FF8402806D023782D0AEEB2BD
:107D5000F02B04D0F12B2ED0002005B0F0BD012176
:107D60003000FFF7A7FC41220E281FD1012130006F
:107D7000FFF7ECFC2B02062567882B43033FBFB2BD
:107D8000D2220421039000973000FBF709F9050087
:107D9000039B87809B883A004380E11D06302CF0CE
:107DA00073F829003000FDF7E5FE002201213000C4
:107DB000FFF778FED0E730006188221DFEF7D8FC7F
:107DC000CAE7000070B510000D0014002AF05AF840
:107DD000402828D02878240AE6B2152810D801288F
:107DE00021D9023813281ED82CF022F81F1F1F1F7C
:107DF0001D1F2C1D381D2C1D1D1D2C1D1D1D1D2C5A
:107E0000402810D16B78002B0DD11A4BA4001B68B1
:107E1000E3584D3319784A0705D40C220A43300041
:107E20001A70FFF711FF002070BD02213000FFF72C
:107E300041FC1538C0B20128F5D83000297801F08E
:107E400009F8F0E703213000FFF734FC2128EAD1DC
:107E500030006A78297801F09FFAE4E703213000C6
:107E6000FFF728FC2028DED1032130006A78FFF7D5
:107E700019FED8E7F000000010B5100014002AF039
:107E800001F8402802D0200AFDF78CFE002010BD2A
:107E9000F7B501901000150029F0F4FF40281ED01E
:107EA000144F2C0A3B68E6B2A4001B5952331B78CE
:107EB000002B07D1300001F001FF2A0001000E481D
:107EC00029F01CFC01213B68019A1B59523319709F
:107ED000C4231B019A4204D0084B9A4206D00020CA
:107EE000FEBD45223000FFF7DDFDF8E74522002109
:107EF000F8E7C046F00000001B0C0000410C000039
:107F0000F7B510000D00140029F0BCFF402801D186
:107F1000002010E02B78240AE6B2002B0CD12900B7
:107F20003000FFF7DBFAFF2805D129003000FEF70B
:107F3000F7F8FF28ECD0FEBD342B01D03F2BE7D162
:107F40002A7A402317001F401A42E1D12302062457
:107F500001222343042130000097FBF721F84780DA
:107F60002B7A43702B783F2B00D0023C0471FBF737
:107F70002DF8CDE7F8B510000D00140029F082FFB0
:107F80000023402814D00B4F240A3B68A6009A59BE
:107F9000136C002B0CD0906C002802D00C3829F008
:107FA000C5FB3B68E0B29B599D64FFF739FA01239A
:107FB0001800F8BDF0000000F8B510000C00170024
:107FC00029F060FF402815D0154E3F0A3368BD00E8
:107FD0005B591A6C002A0DD0117D162918D123790E
:107FE000FFB2002B08D161880E4B0B43138238007F
:107FF000FFF716FA0020F8BD38002288FEF7E8F9EE
:108000003368585940302AF0B5FB29F08FFBEEE772
:10801000054B0A00032039001B689847EAE7C04671
:10802000F00000000080FFFF58060000F8B51000C7
:108030000C00150029F026FF402823D0224F280AE3
:108040003B6886009B59C5B21B6C002B0BD0197D79
:1080500018292ED018D8122925D01C4B0A001B68CD
:10806000010003209847A378002B0BD13B689B5954
:108070009B6C002B06D01A8823889A4202D12800D4
:10808000FEF7DEFC0020F8BD7F230B40522BE4D12D
:108090003B68985940302AF06DFB29F047FB2800D7
:1080A000FFF7BEF9DFE72800A2782188FFF7A4F9DF
:1080B000EEE7A378002BF2D028002288FEF788F99B
:1080C0002800FEF7CDFBE3E7F000000058060000B3
:1080D000190010B5030A04000C2B08D18A4206D0FF
:1080E00004480A3B29F0CCFA048029F0EDFA00207C
:1080F00010BDC0461C0C0000F0B587B004000D0098
:1081000016000393032905D90022284B11000120F2
:108110001B68984706202302184329F0B3FE3378E2
:108120000700049373880593402825D02900200078
:10813000FFF70CFB01231A00864203D02F41DA1807
:108140001F4208D0100007B0F0BD049A934215D02A
:10815000039B01330393039B1B78002BF5D1402530
:10816000300029F0EAFA059A0300049920000095EE
:10817000FFF78CFA0022E5E74325F1E70C4BA2005C
:108180001B68D35852331B78002BF5D132000126DF
:1081900029002000FFF742FB3100A94032002000F7
:1081A000C9B2FFF7BBFB3200CCE7C046580600005F
:1081B000F0000000F7B514000D00240A0422144951
:1081C00001A8E7B22BF060FE2A000021380001ABC5
:1081D000FFF792FF0600012817D10E4BA4001B6881
:1081E000E3589B6C002B06D01A88AB889A4202D1C8
:1081F0003800FEF725FC29003800FEF7D7FA021EEA
:1082000003D000213800FFF74DFC3000FEBDC04612
:10821000A8870018F0000000F0B514000D002A49EE
:1082200087B0240A0322043105A8E6B203932BF099
:108230002BFE2A000121300005ABFFF75DFF029005
:1082400001281AD1A300214F0193019A3B68985845
:108250008469002C14D12B784022112B1ED1002CC4
:1082600007D0210018302AF08FFA200029F0CAFB2D
:10827000002201213000FFF715FC029807B0F0BD85
:10828000A288AB889A4207D1E288EB889A4203D150
:108290002389039A9342DED02468DAE7002CE8D1E0
:1082A00001210C2029F024FBAB88019A8380EB8804
:1082B0000100C380039B03813B68985818302AF063
:1082C00011FA2200D5E7C046A8870018F000000088
:1082D00073B50F230E0069460B710023150A4B710D
:1082E00032000121280001ABFFF706FF040001283E
:1082F00003D128007178FDF765FC200076BD0000F1
:10830000F0B515000C00704987B02F0A0422073120
:1083100005A8FEB22BF0B8FD22000121300005AB0C
:10832000FFF7EAFE0390012800D085E023780D2BAB
:108330002CD00E2B4BD00C2B00D07DE06378002B83
:1083400000D182E03000FFF797F92289023890428D
:1083500000DC7AE0E388002B00D076E03F020633B1
:1083600004213B43009230001222FAF719FE21004B
:108370000500A3880C3143802289828006302BF0CF
:1083800083FD29003000FDF7F5FB55E0238930001F
:108390000293FFF771F9029BC51E9D4200D91D0093
:1083A00006233F02AAB23B4304210092300052222E
:1083B000FAF7F6FD21002A00A38807004380ABB23C
:1083C00083800C3106302BF05FFD3900DAE70021A5
:1083D000300001F07BFC002831D0300001F09AFC25
:1083E00000282CD0238930000293FFF745F9029B27
:1083F0000F339BB2984222D30821EF20029B3F0209
:1084000013332A009BB23943000129F039F9F023D4
:1084100003702389210007334380D22305000371B1
:10842000A3880C3143711B0A8371228907302BF01A
:108430002BFD280029F048F9039807B0F0BD53221E
:1084400001213000FFF72EFBF6E7238965890293AF
:108450009D4220D23000FFF70FF9029B05385D1BCB
:10846000854200D9050006233F02AAB23B430421FE
:10847000009230001622FAF793FDA388070043808C
:108480006189E388CB1883800C31ABB2C3801A00BA
:108490000830611897E76278002A0FD052220B4B00
:1084A000BF001B683000FB582C331A70029BE91A7E
:1084B0004B425941C9B2FDF785FBBDE7029B9D4286
:1084C000BED05222BCE7C046A8870018F0000000CA
:1084D000F0B517000C00474985B03F0A05220B3163
:1084E00002A8FDB22BF0D0FC22000121280002AB33
:1084F000FFF702FE0600012817D12078083803286C
:1085000013D82BF095FC4050025E3B4BBA001B6821
:10851000D3581B69002B36D1A288E3889A4207D929
:10852000402201212800FFF7BDFA300005B0F0BD60
:10853000217A102906D0042903D0022902D0512221
:10854000EFE7102106233F023B4308220091280059
:108550000421FAF725FD2100A38807004380E38862
:1085600009318380227A0830042A08D11023FB8045
:10857000FBF7D2FE39002800FDF7FCFAD5E7FA80B8
:108580002BF082FCF6E7E18800290CD106233F029C
:1085900000910A22043128003B43FAF701FD010053
:1085A000A3884B80E7E7002206233F0204213B43D8
:1085B000009228000C32FAF7F3FCE3880100838074
:1085C000EEE73B0206276278042152003B4300920B
:1085D00028000E22FAF7E4FC01006378021D4380B4
:1085E0009B00E3189C42C6D0A0880434108002325D
:1085F000F8E7C046A8870018F0000000F0B51700A3
:108600000C004B4985B03F0A0722103102A8FDB289
:108610002BF03AFC22000121280002ABFFF76CFD91
:108620000600012808D1A288E3889A4207D940228F
:1086300031002800FFF736FA300005B0F0BD617850
:10864000102905D0FD228B1E134201D0AC3AEFE772
:10865000207802380528EFD806233F022BF0E8FBEC
:1086600049033928285A022900D010213B43062209
:10867000009128000421FAF793FCA388210043808D
:10868000E38807008380A0239B01C38062780831C0
:108690000A30042A08D110233B81FBF73DFE390044
:1086A0002800FDF767FAC7E73A812BF0EDFBF6E704
:1086B0003B4302270421082228000097FAF770FCA8
:1086C0000100A3884380E388C7808380194B0B8116
:1086D000E6E73B4302270421082228000097FAF727
:1086E0005FFCA38801004380E388C7808380124B2E
:1086F000EDE73B4302270421102228000097FAF7F8
:108700004FFCA38801004380E388C7808380A023B7
:108710009B01DCE700220092043211003B43280059
:10872000FAF73EFCA38801004380E3888380B7E723
:10873000A887001803280000022800007FB5080061
:108740006B4601216C46197300236373140AE6B269
:10875000020003AB3000FFF7CFFC0500012818D161
:10876000104BA2001B68D35853331A78002A13D138
:108770002302062404212343009230000232FAF738
:108780000FFC040005F026FF210060803000FDF79B
:10879000F1F9280004B070BD010043223000FFF75A
:1087A00081F9F6E7F0000000121340001011000CF0
:1087B0000D0E0008090A0B0002030405060700005D
:1087C000FFFF0000D1800018010C00003D87001859
:1087D000030C0000FD850018080C0000D18400186F
:1087E0000A0C0000018300180B0C0000D182001855
:1087F000400C0000917E00180F0C00001982001838
:108800000E0C0000797E0018190C0000F18B001886
:10881000040C0000B98C0018050C0000E98C00184D
:10882000060C0000598D0018070C0000E58D00189B
:10883000220C00008D9100181A0C000011920018F3
:10884000090C00004D930018200C0000A59300189F
:108850000D0C000001940018250C00006594001810
:10886000140C0000757F0018160C00002D800018F5
:10887000180C0000B97F0018100C0000B58100181A
:10888000410C0000917E0018150C00002D89001885
:10889000170C0000FD890018130C0000498A00180D
:1088A000000C0000C57D0018F10E0000397D001895
:1088B000000E0000F97C0018130A0000017F001868
:1088C000040A0000B57C001821000000F8B50F0074
:1088D000062115001202114389B2162306000A0070
:1088E000104828F0CDFE0400072000F0EBFD102317
:1088F000208063802671002E0FD10B4BAD001B68CA
:10890000EB584D3319784A0702D408220A431A70EB
:1089100010223900601D2BF0B7FA200028F0D4FE99
:10892000F8BDC046140C0000F0000000F0B51000C7
:1089300085B00D000192029329F0A4FA40284CD092
:10894000029B28881E0AF7B200F0ACFD032812D063
:108950008024052836D101200222264BB6001B6850
:10896000AC79F35804404D331978114238D0002CBB
:108970003ED1133426E0A9888024022922D1EB7944
:10898000A8791B0203431BB21800884300B20028D9
:1089900018D1023B5C426341164AB6001268DCB251
:1089A000B15801264D310A78039414003440A4468E
:1089B00004009C4506D0039BB2431A4338000A705A
:1089C000FFF742F90423019A02990B4828F058FE58
:1089D00084702B88038028F077FE002005B0F0BD5E
:1089E000002CEFD00E220A4338001A70FFF72CF942
:1089F0000024E7E7F0000000160C0000F7B51000B7
:108A00000D001600019329F03DFA402818D028885F
:108A100000F048FD032805D00024052800D080245C
:108A2000002701E0002402270623320001990548AF
:108A300028F026FE2B8804710380478028F044FE2E
:108A40000020FEBD180C0000F7B508880F001D0AB5
:108A500000F028FD052826D0072831D0032835D17D
:108A6000022400261B4BA9001B6801AACB584D33DA
:108A70001B7856705B00234013702902062529439A
:108A800063190A00144828F0FBFD05003B8822000A
:108A900003804480067101A905302BF0F5F9280008
:108AA00028F012FE10E001240A4BAA001B680026E1
:108AB000D35801AA4D331B785B1023401370DCE7B9
:108AC00029000648FCF794FA0020FEBD0024802609
:108AD000D3E7C046F0000000140C0000CD88001859
:108AE000144B70B51B6815008200D3580E004D332F
:108AF0001B78DB071CD5062100020143C1200C2393
:108B00000A00000128F0BCFD40230370002304008C
:108B10004380022000F0D6FC04232672A572360A98
:108B20002D0AA080E38020006672E57228F0CCFD5B
:108B300070BDC046F000000070B50C4E8500336873
:108B400004005B59002B0FD0094A0121FFF7C8FF31
:108B500033685B594D331A78910705D00C218A434D
:108B600020001A70FFF770F870BDC046F0000000DA
:108B7000FFFF000070B506251C4B82001B68040037
:108B8000D358002030335A7F1540022D1BD11D29A8
:108B900014D8012917D9881E1B2821D82BF048F991
:108BA000142014201420142017201720172014201C
:108BB0001720202017201420202420247F2001406B
:108BC00052394842484170BD00201107FBD50821A9
:108BD0000A4207D004390A4320005A77FFF734F8D5
:108BE0000020F0E70A435A770120ECE7F00000008C
:108BF000F7B515000C0004222C4901A82F0A2BF010
:108C000043F922000221380001ABFFF775FA060094
:108C100001283BD123784322172B0FD0A288002AAA
:108C20000BD0E188914208D3152B0DD1FD2263783A
:108C3000991E114208D0102B06D040220221380084
:108C4000FEF730FF3000FEBD18232A002900184827
:108C500028F016FD237805000830152B0FD12100D0
:108C6000123B2B70627808316A702BF00DF9A388E3
:108C70002800AB80E388EB8028F026FDE2E70D4B6F
:108C8000022200212B802BF01BF9F0E70228D9D11A
:108C90002378172BD6D101003800FEF757FD0023AB
:108CA00006009842CED01E008380CBE710900018BB
:108CB000030C00000202000070B5140A0D00E0B2BF
:108CC0000221FEF7F7FC1538C0B2012808D82900A8
:108CD000044BA4001B680C39E058203029F002FD39
:108CE000012070BDF000000070B5150A0C00E8B25C
:108CF0000221FEF7DFFC1538C0B2012826D8144B3C
:108D0000AD001B68EB58186A00281FD0114B8288F1
:108D10009A421BD12388C28B934217D9018C994266
:108D200014D3013B9B1A162201259BB25343C11851
:108D3000CA1CD577628804310A86A288C0184A8680
:108D4000A2792430CA77E11D2BF09EF8002070BD77
:108D5000F00000001A0C0000F8B5150A0C00E8B28B
:108D60000221FEF7A7FC1538C0B2012833D81B4BEF
:108D7000AD001B68EB58186A00282CD0184B82886D
:108D80009A4228D12388C28B934224D9018C8B42EA
:108D900021D816250227013B9B1A9BB26B43C318AF
:108DA000DE1CF777668804331E842779DF77B242AA
:108DB00011D2B1420FD30321013EB21A92B25543F0
:108DC0004319DA1CD177627904334019DA772430F9
:108DD000A11D2BF059F80020F8BDC046F00000009E
:108DE0001A0C000070B5150A0C00E8B20221FEF75B
:108DF00061FC1538C0B2012825D8144BAD001B68A2
:108E0000EB58186A00281ED0114B82889A421AD15A
:108E10002388C28B934216D9018C994213D3013B0C
:108E20009B1A16229BB25343C118CA1CD57F002D32
:108E300009D10435D577A2784919C018CA772430EA
:108E4000E11C2BF021F8002070BDC046F0000000AE
:108E50001A0C0000F0B50D0085B002210090FEF75D
:108E600075FC002800D185E00378153B012B00D963
:108E700080E08388002B00D1A4E0009BA81E9B000B
:108E800001935F4B019A1B689B581C6A002C00D110
:108E90009CE05C4AA188914200D0A7E00C340528F0
:108EA00068D82AF0C5FF0D0D8C9F6703002C00D1F8
:108EB00096E02033180029F05DFC200028F004FC27
:108EC00000250622009B1B021A43039242E0203039
:108ED00029F050FC4C4B828806009A4203D028F0BF
:108EE00025FC412511E0C389828902219B1A9BB28E
:108EF0005C1C029316235C43200028F09BFC002896
:108F000009D1300028F012FC4B252A0002210098DC
:108F1000FEF7C8FD2EE002210098FEF7D5FCA3B2B3
:108F20000100039A374828F0ABFB3100B3891131B7
:108F30004382F38904008382327C027001302AF07C
:108F4000A3FF300028F0F2FB029B002B14D120007D
:108F500028F0BAFB2A4F019A3B689858036A002B05
:108F6000B5D1002DD1D1264B019A1B689B581B6AA5
:108F7000002BCAD005B0F0BD21003B68019A0C3926
:108F800098580427203029F0E3FB0621009B1F4856
:108F90001B0219430A000A2328F072FB0222060072
:108FA0000770638A002101338380A38A4270C380E3
:108FB00008302AF085FF300028F086FBD1E705272E
:108FC0000025E2E74425A0E700259EE70528FBD819
:108FD0002AF038FF76FF76FF87FF87FFFAFF06004B
:108FE00041256EE70727002CEAD17AE70528C1D88A
:108FF0002AF028FF66FF66FF77FF77FFC0FFF6FFC6
:10900000F00000001A0C0000040C0000030C00002B
:1090100015161700F8B50F00062100021D000143C8
:109020000C3316009BB20A000A4828F029FB0023E3
:109030000400C38043810D33FF332A0047808680BC
:109040000581038006990C302AF01EFF200028F0CD
:109050003BFBF8BD0A0C0000F0B5464B82001B68D4
:109060000F0085B003210500D658FEF76FFB041EE4
:1090700023D00378212B20D1002F00D070E040783E
:1090800005281AD82AF0D4FE031B2A45536C062162
:109090002D0229431A230A00374828F0F1FA638881
:1090A00001254380354B8580038001235B42C380CB
:1090B000334B038128F008FB657005B0F0BDE288F2
:1090C000002A0BD00E2001236844037061880090B1
:1090D0002800FFF79FFF02236370EEE733002B3376
:1090E0001B78002B15D006212D0229430A000823E6
:1090F000244828F0C5FA1023037063884380338D19
:109100002A36838032789B18C38028F0DDFA032347
:10911000E2E7A288002A0AD00E20022368440380D6
:10912000618800902800FFF775FF0423D4E72389A6
:10913000002B15D006212D0229430A230A001248CC
:1091400028F09EFA6388438084235B000380002319
:10915000C38003812389838028F0B6FA0523BBE707
:109160002800FEF771FD3A0003212800FEF79AFC63
:10917000A3E7C046F0000000190C00001502000033
:10918000011800000F0C0000080C0000F0B51400DE
:109190000025212287B0039304AB1A715D71230A65
:1091A00001936B461F790A000E003800032105ABBE
:1091B000FEF7A2FF0190012822D1134B21001A686B
:1091C000230A9B009B581148039A02930A2328F014
:1091D00057FA212303807388040043808580C5806B
:1091E000058130000C3828F0A1FA03213800220054
:1091F000FEF714FB029B290038009D62FFF72CFF4D
:10920000019807B0F0BDC046F0000000220C00003D
:10921000F0B5100087B00D00140028F033FE402890
:1092200034D0434B240A1B68A200D3580321E0B278
:109230000293FEF78BFA0190002827D00378212BA8
:1092400024D1029B1B8D0393002B1FD16E1C300079
:109250002978384AFBF7A8F8002808D1AA786B7853
:1092600012021A43344B21001B6802309847002633
:1092700037006A8A029B1A85AB8A9B1A029A2A32A5
:109280001370AB8A6A8A9B1A9F4202DB002007B0E8
:10929000F0BD16247C432B1904937A1C9B7DD2B21B
:1092A0000592032B08D0042B2ED0022B02D1049B55
:1092B0001B8B0393059FE4E7049B18342C192000B3
:1092C000D97D1E4AFBF770F8061E04D0029B059A52
:1092D0002B331A70EEE7049B2000D97D184AFBF768
:1092E00063F8071E03D0019B039A1A81E2E7049BEF
:1092F0002000D97D134AFBF757F8061EDAD0019BF0
:10930000039A3E00DA80D5E7002ED3D020002B1937
:109310001830D97D0C4A2818FBF746F80028C9D028
:109320006B8A06000133DF19019B9F80C2E7C046AC
:10933000F00000000118000058060000052A000097
:109340002A2B0000292B00000229000070B5100014
:109350000C00150028F096FD402819D02E0A032194
:109360003000FEF7A7F92038C0B2012810D830002D
:1093700000F0A4FC2A0001001023064828F080F920
:1093800005001022A11D2AF07FFD280028F09CF97D
:10939000002070BD210C000010B51100FFF75CFE2D
:1093A00010BD000073B520230D0069460B7100232A
:1093B000160A4B712A000321F0B201ABFEF79CFEA6
:1093C0000400012816D10621360231430A230A007F
:1093D000094828F055F96B888480438085235B0019
:1093E00003800C3BFF3BC380044B03812B23837220
:1093F00028F06AF9200076BD080C0000022A00005F
:1094000070B510000D00140028F03CFD402822D05B
:10941000124B240A1B68A200D358A9881A8D2B333B
:109420001B78D318994216D1E0B200F047FC220213
:109430000624010004232243094828F021F9EB798E
:10944000AA791B02134303806B7A2A7A1B02134307
:10945000438028F039F9002070BDC046F0000000BC
:10946000240C000070B51000140028F00BFD4028FB
:1094700012D00A4A230A12689B009D582100022339
:109480002200074828F0FCF82B002B331B782A8D8C
:109490009B18038028F018F9002070BDF000000030
:1094A0000E0C0000064A0300928EFF20002A05D011
:1094B0009A4203D29B1A072B00DCD8B27047C046F1
:1094C000FC000000054A0300908E002803D0072B03
:1094D00002D8C01880B270470020FCE7FC000000F2
:1094E00010B5041E05D0022807D02000FEF762FB4D
:1094F00010BD0520034928F0FBFB0021052028F0C2
:1095000053FCF2E7D09700187FB5FF230593094B72
:10951000094998863433180001230393074B05AAA1
:10952000029306230193002300930833FAF77AFF8E
:1095300007B000BDFC000000011800007C95001879
:1095400010B5FEF7FFF910BD10B50121FEF7DCFAEA
:1095500010BD000010B50024064B1C77064B1B788D
:10956000023B9C4200DB10BD20000134FFF7E4FA0F
:10957000E4B2F3E7FC00000005060000002800024A
:10958000000000000328000200000000052A00205F
:10959000008004000229000A0000020003280002E3
:1095A00000000000292B000A0080100003280002A0
:1095B000000000002A2B00020080100070B5190086
:1095C000084816001D00FBF713FD041E08D01123E8
:1095D00032002900044828F053F8047028F074F889
:1095E000002070BDED950018210B000070B511230F
:1095F00006000D00074891B2052228F041F804004A
:1096000029000670102201302AF03EFC200028F0CC
:109610005BF870BD210B000070B50A480C00190002
:10962000042328F02DF8002205006188231D2088DE
:10963000FBF73EF8A870238828002B8028F044F818
:10964000002070BD0D0B0000F0B5002785B01D0097
:1096500002AB9C1C0E000092088803AA21005F80C8
:10966000FBF78AF8238829000633009A01909BB201
:10967000094828F005F80500228803994280053042
:109680002AF002FC019B28002B7133882B8028F0E4
:109690001BF8380005B0F0BD0B0B000070B50A4890
:1096A0000C001900042327F0EBFFA2880500618855
:1096B0002088FBF729F9A870238828002B8028F040
:1096C00003F8002070BDC046090B0000F0B500256E
:1096D00085B00E0002AF19000E48082302953D71B7
:1096E00027F0CEFF2B000400811C2A003088009751
:1096F000FBF704FF8022029BA0719B88520113405C
:10970000A38033882000238027F0DEFF280005B0E7
:10971000F0BDC046070B000070B509480D001900E8
:10972000042327F0ADFFA97804002888FBF78AF905
:10973000A0702B882000238027F0C6FF002070BD7A
:10974000050B000070B509480D001900042327F02F
:1097500097FF0400811C2888FBF784F9E0702B88B0
:109760002000238027F0B0FF002070BD030B000015
:1097700070B50C480C001900042327F081FF050088
:109780006088C3B2102B02D104F002FF6080200079
:10979000FBF7D2F9A870238828002B8027F094FFCC
:1097A000002070BD010B0000190010B5030A040071
:1097B0000B2B08D18A4206D00448093B27F060FFF2
:1097C000048027F081FF002010BDC0460E0B000072
:1097D000DC9700183401000001000900FFFF0000C1
:1097E000A9970018000B000071970018020B0000E9
:1097F00045970018040B000019970018060B00008D
:10980000CD960018080B00009D9600180A0B00006A
:10981000499600180C0B000019960018200B000048
:10982000BD95001870B505000C00012901D103F0A9
:109830004BFE0B4EAD003368A4005B59E058002886
:109840000DD027F07DFF002805D133685B59E05823
:109850000C3827F06BFF002233685B591A5170BD3A
:1098600044010000F0B50C000027082689B00493DD
:109870000EAB1B7802920593594D2B78023B9F4209
:1098800005DA3802304328F0FDFA3F2805D12D785B
:10989000023DAF4204D1FF2790E00137FFB2EBE772
:1098A0000622504906A82AF0EFFAAF4205DB002253
:1098B0004D4B110001201B6898474C4EBD0033688A
:1098C00000215B195820019328F012F8019B5822BF
:1098D00018603368002158592AF0F2FAC822336818
:1098E00000215B599A875533A93A1A70173A3B02FF
:1098F00013431800039328F057FA20213368628835
:109900005D192B68260001930633DA87019A123617
:10991000463213788B4319002379581E83415B012B
:109920000B4313703000062206A92AF09FFA0300A9
:1099300001984E30002B44D0062231002AF0A4FAC0
:1099400001222B68543326000C361A703000062290
:1099500006A92AF08BFA0300286806224730002B5C
:1099600037D031002AF090FA01222B684D331A705B
:10997000FF222B689A81029ADA81072A1ED01223CD
:10998000039A02991A4827F07BFE0122050063889A
:10999000A11D038063791340437205320A302AF017
:1099A00073FA238B28006B80638BAB80A38BEB80D7
:1099B000A37F2B7223792B7427F086FE380009B021
:1099C000F0BD0622A11D2AF05FFA2B68627954339C
:1099D000B9E704992AF058FA2B68059A4D33C6E77F
:1099E00005060000F89F001858060000440100001A
:1099F000010E000070B515000822000202430C00A1
:109A000004481900042327F03BFE0580847027F0EA
:109A10005BFE70BD030E00000100002010B50A4B74
:109A20000A4A1B781468023B984202DB00D1FF20EF
:109A300010BD82001259002A03D00632D28F8A420A
:109A4000F6D00130C0B2EFE7050600004401000087
:109A5000074B1B78023B984208DA064B80001B68D4
:109A6000C358002B02D00633D88F70470248FCE75A
:109A70000506000044010000FFFF00000300002075
:109A8000FF2B09D0054A9B0012689B58181E03D073
:109A9000463318788006C00F7047C0464401000066
:109AA000074B10B51C688000241820680622473038
:109AB0002AF0EAF9012223684D331A7010BDC0461E
:109AC0004401000003000A000020FF2B0BD00129F5
:109AD00009D805499B0009685858002803D0072178
:109AE000514347314018704744010000044B800047
:109AF0001B68C358181E01D0563318787047C046EB
:109B00004401000070B50D0011000822000202435C
:109B1000E0201C000001022327F0B2FD0570447014
:109B200027F0D2FD70BD000070B50F4B05001B780B
:109B30000C00023B984205DB00220C4B1100012077
:109B40001B689847022C05D90022084B1100012000
:109B50001B689847064BAD001B68A400EB58E35800
:109B6000181E00D0187870BD0506000058060000C9
:109B70004401000070B50E4B05001B780C00023B41
:109B8000984205DB00220B4B110001201B6898470F
:109B9000022C05D90022074B110001201B689847B1
:109BA000054BAD001B68A400EB58E05870BDC046E3
:109BB00005060000580600004401000070B50E4B79
:109BC00005001B780C00023B1600984205DB0022C2
:109BD0000A4B110001201B689847022C05D900226E
:109BE000064B110001201B689847054BAD001B6810
:109BF000A400EB58E65070BD0506000058060000B2
:109C00004401000070B5154B04001B780D00023BA9
:109C1000984205DB0022124B110001201B68984777
:109C2000022D05D900220E4B110001201B68984718
:109C300000200C4BA2001B68AD00D358ED588542A4
:109C40000AD0280027F079FD2102082402002143D0
:109C5000280027F05AFD012070BDC046050600000F
:109C6000580600004401000070B5114B05001B7838
:109C70000C00023B984205DB00220E4B1100012034
:109C80001B689847022C05D900220A4B11000120BD
:109C90001B6898470020084BAD001B68A400EB58D8
:109CA000E358834202D0180027F047FD70BDC0463C
:109CB000050600005806000044010000024B800029
:109CC0001B68C358D889704744010000030001296C
:109CD0000DD0022914D00020814210D10C4A9B00E3
:109CE00012689B58463318784007C00F07E0084AAF
:109CF000830012689B5846331878C010084070479C
:109D0000034A830012689B5846331878C006ECE774
:109D100044010000084A030012780020023A9342EE
:109D200009DA064A9B0012689B58834203D04633E7
:109D3000187803231840704705060000440100000E
:109D400003000020FF2B07D0044A9B0012689B5899
:109D5000181E01D03E3318787047C04644010000F9
:109D600030B5164B1B78023B984225DA144B800025
:109D70001B68C05800281FD00424463003788D008B
:109D80002540A3432B431025AB43551EAA41A240B7
:109D90005BB21A4308230325194209D1013D214230
:109DA00006D1033C1340214019434B1E9941CDB2CB
:109DB00003239A432A43027030BDC04605060000C3
:109DC000440100000E4A030012780020023A934238
:109DD0000FDA0C4A9B0012689B58834209D0032279
:109DE00046331B785807C00F1340022B02D0934212
:109DF00003D0704704231843FBE70C23FBE7C0465E
:109E0000050600004401000070B508240002044368
:109E100020000D00160028F035F81F2809D020007A
:109E200028F030F8002E05D02843C1B2200027F0DA
:109E3000BBFF70BDA843F8E7F7B5164F86003B6837
:109E400000929B598A00D35804000D000192002B08
:109E500014D0FFF709FF08220100E02023021A4373
:109E60000001022327F00CFC3B68AA009B59D35841
:109E70001B780370009B437027F026FC290020000C
:109E8000FFF7D0FC0121A94000222000C9B2FFF752
:109E9000BBFFF7BD44010000F7B5082483001D4F48
:109EA000009303021C433B6882009B580500002B73
:109EB00017D0200027F0E6FF00260190019BF1B2A9
:109EC0001F2B1BD02800FFF7ADFC0136032EF5D168
:109ED0003B68009A985827F095FD00223B6800994E
:109EE0005A5020003F2127F05FFF21000A4827F049
:109EF00025FB2100094827F021FBF7BD009A3B68AC
:109F00009B58B200D358002BDFD046222800FFF721
:109F100093FFDAE744010000F20E0000F40E0000A7
:109F200070B5040001282ED002282AD0002814D1B0
:109F30001A491B4B1B4D0B601B4B08201B68082646
:109F40004B602B78023B0B81184B1B884B8127F011
:109F5000CFFE2B78023B9C4200DB70BD20023F21EC
:109F60003043013427F020FFE4B2F2E72000FFF78E
:109F700093FF0134E4B20B4B1B78023B9C42F5DBB0
:109F8000EBE70024F7E7074B00211A78084B023A69
:109F90001868920029F094FFDFE7C04638010000FE
:109FA000E0AC0018050600004801000018AE0018DB
:109FB0004401000010B50400FF2801D0FFF76CFF3A
:109FC000200010BD30B50638094D84B20020AC42E7
:109FD0000DD8063989B2A94209D80A3B05499BB276
:109FE0008B4204D8F530FF3082428041404230BD80
:109FF0007A0C0000760C0000000000000000000059
:10A00000F7B510000C0015001E0027F03BFF3F289D
:10A0100020D02B0A02202788019304F071FC87428C
:10A0200025D16788002F17D1280AFFF747FEA3889C
:10A03000010004332A009BB2274827F021FB0500CA
:10A040000770A288A11D4280043029F01DFF28005E
:10A0500027F03AFB0020FEBD04232A0031001F48F0
:10A0600027F00EFB2388038008238370F0E7042089
:10A07000278804F045FC874224D16388002B13D144
:10A08000A388022B10D1280AFFF718FE0423010031
:10A090002A00114827F0F4FA01230370E379A2792A
:10A0A0001B0213434380D3E704232A0031000B48EB
:10A0B00027F0E6FA23880380A2880823022AD4D056
:10A0C0000533D2E704232A003100044827F0D8FAE8
:10A0D000238803808023C8E70C0E0000160C0000C4
:10A0E00070B51000140027F0CDFE3F2817D0250AC8
:10A0F00002212800FFF718FD092810D122002100B5
:10A100000223084827F0BCFA012303703A33437056
:10A1100027F0DAFA452202212800FFF78DFE002001
:10A1200070BDC046040E000070B510000D00140094
:10A1300027F0A8FE3F2816D02B78FD2218000A38F9
:10A140000100240A1140104209D04122062B04D1FB
:10A1500000212000FFF7E8FC0122002100E06A78DE
:10A160002000FFF769FE002070BD000070B51000F0
:10A170000C00150027F086FE002306003F280FD0B4
:10A18000E1882A0AD0B2052906D006290AD00A4B4E
:10A1900003201B6898470DE0211D01F0B3FA03006E
:10A1A000180070BD082202231642F9D12278211D21
:10A1B00003F066F90023F3E758060000F8B5100035
:10A1C0000F00150027F05EFE3F2832D02D0AEEB2B8
:10A1D00002213000FFF7CEFC022104003000FFF71F
:10A1E000A3FC09283DD1334BAA001B68D358022297
:10A1F00055331B78134234D03B78002B1BD00E23F1
:10A2000029002D4A2D4827F03BFA05003000FFF7C2
:10A210001FFC288063886B80A388AB80E388EB8079
:10A2200063896B81A389AB8123892B81280008F086
:10A23000DFFF0020F8BD04232900214A1F4827F032
:10A240001FFA04003000FFF703FC3B232080A370BB
:10A25000200008F0CDFF482202213000FFF7ECFD7E
:10A26000E7E702213000FFF75FFC0928E1D1012177
:10A270003B7830005940627801F0FCF93B78002BC4
:10A28000E9D00E2329000F4A0C4827F0F9F9050000
:10A290003000FFF7DDFB2880E388EB8023892B81EA
:10A2A000A388AB8063886B80BB88AB817B886B8124
:10A2B000BCE7C0464401000020200000051100005A
:10A2C000212000001320000070B510000C001500C4
:10A2D00027F0D8FD3F280CD02D0AEEB20021300027
:10A2E000FFF722FC06284BD005D8022815D00528F8
:10A2F00030D0002070BD152867D01D28F9D100216D
:10A300003000FFF7B1FC2A02082501000C23384871
:10A310002A4327F0B5F9042364E000213000FFF759
:10A32000A3FC0822A3882D020C3301002A439BB210
:10A330002F4827F0A5F90023050003702388A11DED
:10A340004380A2888280063029F09EFD280027F0F5
:10A35000BBF9CEE700213000FFF786FC08222D0272
:10A3600001000C232A43224827F08AF901230370B5
:10A3700023884380E379A2791B0213438380E6E7B5
:10A3800000213000FFF770FC08222D0201000C2391
:10A390002A43174827F074F9022303702388438067
:10A3A000E379A2791B0213438380637A227A1B022A
:10A3B0001343C380E37AA27A1B0213430381637BB6
:10A3C000227B1B0213434381C1E700213000FFF7CA
:10A3D0004BFC08222D0201000C2305482A4327F0DC
:10A3E0004FF90323037023884380A3790371AEE7F9
:10A3F000060E0000F7B501910978170A1C00150038
:10A400004023FEB201292BD1100027F03BFDDF23B2
:10A4100018401F2821D01F21280027F0C5FCFF234A
:10A4200022001A40082A00D11C00104BBA001B68F9
:10A430003900D3580E489C810E4A042327F020F996
:10A4400004003000FFF704FB019B20805B782000B4
:10A45000A37008F0CDFE0020FEBD019B19784323B8
:10A4600022003000FFF74EFBF5E7C0464401000034
:10A47000051100000604000070B510000D00160064
:10A4800027F000FD3F2804D02B78002B03D0012BB0
:10A4900015D0002070BD022004F032FA041EF8D05E
:10A4A0000621330A1B02194332000423054827F012
:10A4B000E7F804806B78837027F006F9E9E7042059
:10A4C000EAE7C046160C0000F7B510000C001700B4
:10A4D000019327F0D7FC3F2822D023880220009345
:10A4E000002504F00DFA009B2E0083420CD00420BE
:10A4F000258804F005FA854214D00820258804F048
:10A50000FFF9854211D0802506233A0001990848B9
:10A5100027F0B6F8238805710380468027F0D4F829
:10A520000020FEBD00250226EEE700250126EBE710
:10A53000180C0000190010B5030A04000E2B08D1F6
:10A540008A4206D004480C3B27F09AF8048027F092
:10A55000BBF8002010BDC046340E000070B51000DE
:10A560000D00140027F08EFC3F2820D02E78210A01
:10A57000012E1ED0022E32D0002E18D106226B885A
:10A580000902063311439BB22200264827F078F8CF
:10A590000400022004F0B4F9267120806A88601D4E
:10A5A0006280291D29F070FC200027F08DF8002022
:10A5B00070BD06230902220019431A48023327F00E
:10A5C0005FF80400042004F09BF900232371023398
:10A5D000208063806B8863711B0AA371E4E7062601
:10A5E00009020E23220031430E4827F049F80400E7
:10A5F000300004F085F90023237108332080638044
:10A600006B8863711B0AA371AB88E3711B0A237209
:10A61000EB8863721B0AA3722B89E3721B0A2373F4
:10A62000C2E7C046140C0000F7B510000C0015007E
:10A63000019327F027FC3F2840D004F059F9002867
:10A6400029D10220278804F05BF90026874229D00F
:10A650000420278804F054F90126874222D00820DC
:10A66000278804F04DF987422AD106212B0A1B02C4
:10A670002A0019432248072327F002F8238846803E
:10A68000038000230371050004F02AF980080640C6
:10A690006E71280010E00620268804F031F9864209
:10A6A000CFD10226280AFFF709FB012301002A0067
:10A6B000144826F0E5FF067027F006F80020FEBDDE
:10A6C0000A20278804F01CF987420ED106212B0AA4
:10A6D0001B0219432A000723094826F0D1FF2388CB
:10A6E0004680038000238380E6E706232A00019941
:10A6F000034826F0C5FF2388038080230371DBE72E
:10A70000140C00000A0E0000F0B5100085B00C001B
:10A71000150027F0B7FB3F2837D0270028373B78B4
:10A72000012219002D0AEEB21140134230D022004E
:10A730002A32190030001278FFF712FB174BAD00D8
:10A740001A6823695519286810224363636A210037
:10A750008363143029F098FB2100286810222430EC
:10A76000143129F091FB01212300220038782B338A
:10A770000140208E29321B7812780290E08D0190E2
:10A78000A08D00903000FDF725F9002005B0F0BD48
:10A790000A003000FFF7E4FAE5E7C0464401000094
:10A7A000F0B504000D0016001F0085B0022905D980
:10A7B0000022234B110001201B6898470820230228
:10A7C000184327F05FFB337843220193DF23039084
:10A7D000034002921F2B18D029002000FFF7CAF96E
:10A7E00001231A00864204D00398DA18284118423F
:10A7F00006D0100005B0F0BD019A934210D0013789
:10A800003B78002BF8D140330293300026F095FFBF
:10A81000029B020001992000FFF774F90022E8E78B
:10A820003200012629002000FFF7C8F93100A940B5
:10A8300032002000C9B2FFF7E7FA3200D9E7C0467C
:10A8400058060000F7B517230D0069460B71002369
:10A85000140AE7B24B712A000221380001ABFFF75E
:10A860009FFF060001281AD121000E4A08230E4836
:10A8700026F006FF04003800FFF7EAF82080A878E9
:10A88000697820714B424B4142424241520013438E
:10A89000A370E170EB782000E38008F0A9FC3000A1
:10A8A000FEBDC0463220000005110000F7B514239C
:10A8B0000D0069460B7100216B46140AE7B259710D
:10A8C0002A00380001ABFFF76BFF0600012811D109
:10A8D00006232100084A094826F0D2FE0400380069
:10A8E000FFF7B6F820806B8820006380AB88A380D8
:10A8F00008F07EFC3000FEBD2220000005110000A3
:10A90000F7B513230E0069460B7100216B46140A3C
:10A91000E7B259713200380001ABFFF741FF050083
:10A9200001280FD104232100074A084826F0A8FE79
:10A9300004003800FFF78CF82080738820006380C3
:10A9400008F056FC2800FEBD7C0C0000051100003C
:10A95000F7B51D230D00140A00216A46E7B21371F2
:10A96000517138002A0001ABFFF71AFF06000128D9
:10A9700011D106232100094A094826F081FE04006E
:10A980003800FFF765F820806B8820006380AB8873
:10A99000A38008F02DFC3000FEBDC04615FC000071
:10A9A00005110000F7B51B230D00140A00216A46AB
:10A9B000E7B21371517138002A0001ABFFF7F0FEC6
:10A9C0000600012811D106232100094A094826F072
:10A9D00057FE04003800FFF73BF820806B8820000A
:10A9E00063802B79237108F003FC3000FEBDC04664
:10A9F00014FC000005110000F7B51A230E00140A1C
:10AA000000216A46E7B2137151713800320001AB80
:10AA1000FFF7C6FE050001280FD104232100084AD4
:10AA2000084826F02DFE04003800FFF711F82080BA
:10AA300073882000638008F0DBFB2800FEBDC04661
:10AA400013FC000005110000F0B51F00092387B0BA
:10AA5000039202AA137300235373039B0A001D0A77
:10AA6000EEB20C003000022105ABFFF799FE029018
:10AA700001280CD12389E2886188A088FFF7A2FA17
:10AA8000002807D1402202213000FFF7D5F90298B3
:10AA900007B0F0BD344BAA001B680221D3581A003E
:10AAA0005532107802000A40084203D146331B7821
:10AAB0009B0631D4FFB2082F13D13000FFF7FEF808
:10AAC0003B000100039A294826F0DAFDA388438061
:10AAD00063880380E38883802389C38026F0F4FDA4
:10AAE000D5E729000E23224A224826F0C9FD050099
:10AAF0003000FEF7ADFF2880E3882800EB80238933
:10AB00002B81A388AB8063886B80A389AB81638929
:10AB10006B8108F06DFBBAE72B02082505212B435A
:10AB2000009230001222F8F73BFA134B05001B6825
:10AB30009847C0B2002813D06070A3882800EB802B
:10AB40006388AB80E3882B8123896B8163786B708A
:10AB5000F8F73CFA094A0399094826F055FC96E7AC
:10AB6000029B6370E9E7C046440100000F0E00003D
:10AB700013200000051100001407000030750000CC
:10AB8000F20E0000F0B516000F0087B0340A0D2257
:10AB9000414902A8E5B2019329F076F93A00002173
:10ABA000280002ABFFF7FCFD0090012839D138786E
:10ABB00002381B2835D829F03BF90E3D4C0E0E4FBC
:10ABC000523434343434343434345534340E34342C
:10ABD000585B3434340E062124020C2332002F48F3
:10ABE000214326F04DFD85235B0003800A3BFF3B9C
:10ABF0008380023BC380033303723B78052B13D061
:10AC0000062B13D0152B13D01D3B5A1E9341C8227F
:10AC10005B429343224A9B1843722A23837226F095
:10AC200053FD009807B0F0BD1E4BF5E71E4BF3E750
:10AC30001E4BF1E702231E4A21001E4826F020FD8C
:10AC400004002800FEF704FF2080200008F0D0FA5E
:10AC5000E7E70223184AEFE70223184AECE702234A
:10AC6000174AE9E70223174AE6E70223164AE3E711
:10AC7000320001990123154826F002FD0400280046
:10AC8000FEF734FF2070200026F01EFD0022280071
:10AC90001100FFF7D1F8C4E7D0AC0018080C000091
:10ACA000C92A0000012A0000042A0000A62A000088
:10ACB0001D0400000511000016200000051400000E
:10ACC000152000007B0C000030200000310E000039
:10ACD00002050615030407081218191D00000000DC
:10ACE000FFFF000035A50018040E0000F5A30018B2
:10ACF000020E000009A70018050E000085AB001821
:10AD0000090C0000C9A20018000C000029A10018BD
:10AD10000E0E000049AA0018100E0000BDA1001878
:10AD2000130A00006DA10018F20E0000E1A0001847
:10AD3000320E0000F9A90018330E0000A5A9001872
:10AD40003D0E000051A90018120E0000F5D40018A5
:10AD5000140E000099D60018160E0000E1DB001852
:10AD6000180E000091DC00181A0E000001DD00181A
:10AD7000F00E000095DD0018040A000041DE001806
:10AD8000000D000091E00018F30E0000DDE0001857
:10AD9000F40E000021E100182C0D00007DDE0018EB
:10ADA0002A0D00009DDF00182D0E0000EDDF0018B9
:10ADB000150C000001A00018170C0000C9A4001811
:10ADC000130C000029A600180B0E00005DA500184A
:10ADD0000D0E000079A40018011100008DB40018B8
:10ADE000021100008DB40018041100008DB4001889
:10ADF000031100008DB40018280E000001A90018EE
:10AE00002B0E0000ADA800182F0E000045A800185A
:10AE1000350E0000FDE200182700000010B548883C
:10AE20000C00FEF7F9FDFF2806D0044B80001B68DC
:10AE30002279C35856331A70002010BD4401000017
:10AE4000F7B510000E00140027F01CF83F2835D08D
:10AE5000230A01936B461F7900213800FEF764FE38
:10AE60004124032825D13478002C29D12100380031
:10AE7000FEF7FAFE0822019B01001B021A4312484A
:10AE8000062326F0FDFB05003379037133894380E7
:10AE9000F388038026F018FC2B79062B09D80221B1
:10AEA0000A4B019A1B689200D35855331A788A438B
:10AEB0001A70220000213800FEF7BEFF0020FEBD00
:10AEC000703CE4B2F5E7C046070E00004401000004
:10AED000F8B510000C00160026F0D4FF07006088BB
:10AEE000FEF79AFD05003F2F20D06378002B0ED18E
:10AEF000FEF7E4FE0100E32002233200000126F009
:10AF0000BFFB637943702379037026F0DDFB0221D8
:10AF10002800FEF709FE172808D16278002A01D020
:10AF2000703AD2B202212800FEF786FF0020F8BD59
:10AF3000F8B510000C00160026F0A4FF070060888A
:10AF4000FEF76AFD05003F2F1AD02378002B0ED1A3
:10AF5000FEF7B4FE0100E32002233200000126F0D8
:10AF60008FFB637943702379037026F0ADFB227861
:10AF7000002A01D0703AD2B200212800FEF75CFF0F
:10AF80000020F8BD70B510000C0026F07BFF050016
:10AF90006088FEF741FD3F2D07D02278002A01D0BE
:10AFA000703AD2B20021FEF747FF002070BD10B505
:10AFB000FFF7E8FF10BD10B5FFF7E4FF10BD10B5B7
:10AFC000FFF7E0FF10BD70B510000D00140026F073
:10AFD00059FF3F2808D02A78002A01D0703AD2B20F
:10AFE0000021200AFEF728FF002070BD70B5100078
:10AFF0000C00160026F046FF3F2819D02178350AAC
:10B0000000290CD12800FEF72FFE02230100320098
:10B01000084826F035FBA388038026F055FB2278EC
:10B02000002A01D0703AD2B200212800FEF704FFB6
:10B03000002070BD290E0000F8B510000E001400AD
:10B0400026F020FF3F2820D0240AE7B20021380054
:10B05000FEF76AFD4125072812D13578002D16D15B
:10B0600029003800FEF700FE220208240100012317
:10B070000848224326F004FB3379037026F024FBB2
:10B080002A0000213800FEF7D7FE0020F8BD703DF1
:10B09000EDB2F5E7090E0000F7B510000D00140041
:10B0A00026F0F0FE3F2828D02B79154F0093AB787F
:10B0B000240A01933B68E6B2A4001B599B89FF2B2D
:10B0C00003D13000FEF7FAFD0300019A3000009929
:10B0D000FEF790FC3B681B599A89FF2A08D02B7811
:10B0E000002B01D0703BDBB201213000FEF70AFDDE
:10B0F00030002A79698803F01DFA0020FEBDC046A1
:10B1000044010000F8B510000C00160026F0BAFE4D
:10B110003F2834D06378320AD5B21A2B18D80121CF
:10B12000080098401B4F384217D1084210D0280021
:10B13000FEF7C4FD062301003200174826F0A0FAEE
:10B14000A3880380E38843802389838026F0BCFAA8
:10B150006278002A18D0703A15E010499200096808
:10B16000525811004631097889060AD51300022188
:10B1700055331A7828008A431A70FEF743FD0020E1
:10B18000F8BD703B1A00D2B202212800FEF754FE2F
:10B19000F5E7C04602100206110E0000440100004F
:10B1A000F7B510001500009126F06CFE3F2830D056
:10B1B0002D0AEEB200213000FEF7B6FC4122042831
:10B1C00023D1009B5C78AB000193002C23D121009C
:10B1D0003000FEF749FD08272A0201003B003A43F0
:10B1E0001A4826F04DFA0500194B019A1B689B5826
:10B1F000009A553312791A70009B3A00191D28F0F5
:10B2000043FE280026F060FA220000213000FEF7FD
:10B2100013FE0020FEBD0E4B01991B6822005B58F7
:10B22000703A190046310978D2B28906EDD5013C51
:10B23000E4B2192CE9D80121A14006480142E4D02A
:10B2400002205533197881431970DEE7080E00009B
:10B250004401000001080103F7B51000140001913A
:10B2600026F010FE3F2827D0240AE7B2002138003C
:10B27000FEF75AFC41250600082818D1019B1D78CD
:10B28000002D1BD129003800FEF7EEFC22023243CC
:10B290000100052392B20B4826F0F2F9040001994F
:10B2A0000522043128F0F0FD200026F00DFA2A00D6
:10B2B00000213800FEF7C0FD0020FEBD703DEDB25C
:10B2C000F5E7C0461D0E0000F8B5070010000E009F
:10B2D000140026F0D7FD3F283FD0364B240AE5B2B4
:10B2E0009F4243D007D8344B9F421DD0334B9F42DF
:10B2F00035D0412238E0324B9F4230D0314B9F4213
:10B30000F7D13378002B28D002212800FEF70CFC5F
:10B31000172822D13278002A01D0703AD2B2022105
:10B320002800FEF789FD18E03378002B15D0264F52
:10B33000A6003A6892599289FF2A0ED0703B0121EB
:10B34000DBB22800FEF7DEFB3B689959002904D1E7
:10B3500008202402204326F027FD0020F8BD327883
:10B36000002AFAD0703AD2B20021D9E73378002B04
:10B37000F3D002212800FEF7D7FB0928EDD132785F
:10B380001A2AC8D80123934010490B42C3D00E4B50
:10B39000A4001B68E3581900463109788906BAD51C
:10B3A000022155331A7828008A431A70FEF72AFCC6
:10B3B000D3E7C04613200000060400001D0400006F
:10B3C0001620000032200000440100000210020696
:10B3D00010B51000140026F055FD3F2807D0200AB4
:10B3E000FEF76CFC22000100024826F087F90020DD
:10B3F00010BDC0462A0E000070B510000C001500EC
:10B4000026F040FD3F2812D0280AFEF757FC0823FB
:10B4100001002A00074826F033F9238983806389D5
:10B42000C380A3880380E388438026F04DF9002081
:10B4300070BDC0462C0E000070B510000D00140049
:10B4400026F020FD3F281BD0220021000E230D48AE
:10B4500026F016F902220C4B240A1B68A400E358BC
:10B46000553319780A431A7009230370EB888380D7
:10B47000AB8843802B89C3806B89038126F024F934
:10B48000002070BD0E0E00004401000070B50025C4
:10B49000134C00192C00032805D828F0C9FC020A17
:10B4A000110D0D250F4CED006519AC420BD100209C
:10B4B00015E006250C4CF6E707250B780B4CF2E758
:10B4C00005250B4CEFE7200008342600083E36889F
:10B4D0009E42EAD14468201E01D01800A04770BDEA
:10B4E000FFEEFFFFF4B400185CB50018B4B5001807
:10B4F0008CB500180514000039B0001815200000A4
:10B5000059B200187B0C0000EDAF00187C0C000055
:10B51000C7AF00182220000085AF001830200000BF
:10B5200031AF00181A200000051F03181B2000006F
:10B53000051F031813FC0000AFAF001814FC000037
:10B54000B7AF001815FC0000BFAF00185B2000006B
:10B55000ADE300185A200000ADE300180604000017
:10B56000C9B200181D040000C9B20018162000005E
:10B57000C9B2001813200000C9B200183220000020
:10B58000C9B20018192000006DE100180500000084
:10B5900099B000180C00000041AE001857000000E0
:10B5A000D1B300180800000061E20018300000006C
:10B5B00083E2001804000000A1B10018030000009D
:10B5C00005B100180600000039B40018070000009B
:10B5D000F9B300180C000000D1AE001814000000F0
:10B5E0001DAE001805000000B9E1001870B58B8889
:10B5F00004000D004C26022B01D80B4AD65C00211A
:10B600002000FEF791FA09280CD100212000FEF756
:10B61000B1FA6A7843789A4204D1320000212000BE
:10B62000FEF70AFC002070BD30B7001870B50D00A1
:10B6300002210400FEF778FA092817D10221200020
:10B64000FEF798FA6A7843789A420FD1AB8848227D
:10B65000591E8B415B42200002211A40FEF7ECFB91
:10B66000210208240248214325F068FF002070BD14
:10B67000F20E0000082337B5140002021343002223
:10B680000D00009205211332F7F78AFC8580447083
:10B69000F7F79CFC37BD000070B50C0005004B8926
:10B6A0000A89E0888988FEF78DFC002820D00821CF
:10B6B0002A0211430A000E23104825F0E1FF092356
:10B6C0000370E388AD008380A38843802389C3800F
:10B6D000638903816378437025F0F6FF0221084BEC
:10B6E0001B68EB5855331A788A431A70002070BDD6
:10B6F000012128006278FFF7BDFFF7E70E0E00007A
:10B700004401000010B50B79012B07D0054A122B1C
:10B7100005D0054A132B02D0002002E0034A043171
:10B72000904710BD99B600182DB60018EDB5001859
:10B730003C31330001000000EDB50018120000009C
:10B7400099B60018130000002DB600180E4B8000AB
:10B750001B6870B5C5582C69002C05D10B4B220015
:10B76000210001201B689847E17CA27E0B1C9142BE
:10B7700000D9131CDA1FD2B20020092A02D83E35A4
:10B780002B70013070BDC046440100005806000017
:10B79000204BF7B51B688000C05801910269463004
:10B7A00006784020D47E137D157F2340547D0640CB
:10B7B0002540947C3F38044208D0547E044205D092
:10B7C000180028433043441EA041C0B2A4270121E1
:10B7D0007F008C46D45D002E03D06646264334009D
:10B7E00004E01E002E430E42F7D18C430199D4553C
:10B7F0004C1E012C05D8A4246400125DD207D21778
:10B80000104001990339012903D82B435B07DB174B
:10B810001840FEBD440100003B4B80001B6870B522
:10B82000C5582C69002C05D1384B2200210001207D
:10B830001B689847230046352878627CA17C4E33EC
:10B84000400635D4012A14D1227E012A11D10132B9
:10B850001A70042223004F331A700123A27C1A426B
:10B8600006D0627E1A4203D04F34227813432370ED
:10B8700070BD0422114207D1617E080010401142C0
:10B8800002D118700022E5E70522E17D207C5143BA
:10B890001F4A5218125C1A70002AF3D0013A012A8A
:10B8A000D7D90022194B110001201B689847D4E713
:10B8B000012A02D0227E012A03D102221A700C2210
:10B8C000C8E70422114207D1617E080010401142EE
:10B8D00002D118700822BDE70525E07D0C4A4543DA
:10B8E000217C5219525C1A70012801D0042805D11C
:10B8F000012901D0042901D10322DFE7002AE9D080
:10B90000013A022ACDD8DAE74401000058060000C7
:10B91000A7E20018144B80001B6870B5C5580C00D6
:10B920002969002904D1114B0A0001201B6898479E
:10B930002B69002C09D1987D002205280BD80132F3
:10B9400028F076FA0F0F050F050B587FF4E74F33F9
:10B95000187880080240100070BD4F331878C00876
:10B96000F8E70122F7E7C04644010000580600004E
:10B970000822000210B5024301230721034825F0E5
:10B980007FFE2F23037025F09FFE10BD2B0D0000BE
:10B99000F8B51500082200020E00024341230721DA
:10B9A0000A4825F06DFE20272E23040003703A007C
:10B9B0003100013028F068FA20003A0029002130D7
:10B9C00028F062FA200025F07FFEF8BD290D000066
:10B9D000474BF7B51B688200D75806003C690191B8
:10B9E000002C05D1434B2200210001201B68984701
:10B9F0003000FEF763F90822330201001A433E4883
:10BA0000212325F03DFE019B050003700A2B68D819
:10BA1000180028F00DFA066666662A0D161166579C
:10BA20001B001F22A37C403713401D3A6B703A70F5
:10BA3000280025F049FEF7BD3000FEF781F9687057
:10BA4000F6E73B00132240331A70F1E723004E3330
:10BA50001B78032BECD1FC34A36A1A0A6B701B0C05
:10BA6000EB700023AA702B71E2E7002C05D1214B6B
:10BA70002200210001201B689847637C012B05D11F
:10BA8000237E012B02D100236B70D1E73000FDF73C
:10BA9000F5FFE37D00280CD10222023B9343DBB289
:10BAA000002B04D1237C934201D00123ECE76A7080
:10BAB000BEE7012BF9D9042B02D1237C022BF4D051
:10BAC0000223E1E721001022681C3E3128F0DCF956
:10BAD0002100280039311022FF31113028F0D4F92B
:10BAE000A6E70022034B110001201B6898479FE73F
:10BAF0004401000058060000130E0000F0B53D4B55
:10BB00008DB01B6803928200D35804AD0F00102241
:10BB10000021040028001E6928F0D2F9102200211B
:10BB200008A828F0CDF9002F4DD139002000FDF7ED
:10BB3000C9FF8379012120002B70FDF7C3FF8379B2
:10BB4000012120006B70FDF7BDFF0622010008A84F
:10BB500028F09AF939002000FDF7B4FF01001E20FB
:10BB600002AB0622C01828F08FF9012331000B2008
:10BB7000AB7002AB06221031C01828F085F9022301
:10BB8000310012206B7202ABC0181731062228F068
:10BB90007BF903983100431E9841FF2340429843AC
:10BBA0000233FF33C018039B04432E31002B00D017
:10BBB0001039114B2A0000933000019408AB27F094
:10BBC0008BF90DB0F0BD01212000FDF77BFF8379DB
:10BBD000002120002B70FDF775FF837900212000E4
:10BBE0006B70FDF76FFF0622010008A828F04CF9E2
:10BBF0000121B0E74401000059CE00180E4B82002D
:10BC00001B6870B5D55808242E003F3633780002E3
:10BC100004439B0703D52100084825F08FFC0A2226
:10BC2000AB8F21005A43054825F0EEFB0223327802
:10BC30001343337070BDC04644010000F40E000091
:10BC4000174B82001B6870B5D258040013003F33B5
:10BC5000197802230D001D4019420ED0938F11490F
:10BC600001258B4206D0AB400F489BB2834206D8D9
:10BC7000938702352000FFF7C1FF280070BD918730
:10BC80002000FEF71BF80825220201002A431E238C
:10BC9000064825F0F5FC057025F016FD053DE9E7A1
:10BCA00044010000B80B0000B70B0000150E0000A7
:10BCB00070B50125084B82001B68D4583F342378A7
:10BCC0002B4208D0010208200143044825F036FC2D
:10BCD0002378AB43237070BD44010000F30E0000D5
:10BCE000F8B50127134B82001B680500D4580E00DD
:10BCF0003F3423783B4208D00821030219430E4801
:10BD000025F01CFC2378BB4323703000F7F75EF965
:10BD100033780B2B0CD0052B0AD029020825074AB3
:10BD20000548294325F070FB012322781343237033
:10BD3000F8BDC04644010000F30E0000307500005D
:10BD4000082302021343002273B50E00009206215D
:10BD500003320400F7F724F9050031001022013006
:10BD600028F092F829002000FFF7BAFF73BD0823DE
:10BD700002021343002273B50E0000920621043222
:10BD80000400F7F70DF9050031001022013028F00A
:10BD90007BF829002000FFF7A3FF73BD08230202F0
:10BDA0001343002273B50E00009206210D320400E9
:10BDB000F7F7F6F8050031001022013028F064F89A
:10BDC00029002000FFF78CFF73BD73B508220E0019
:10BDD000002103021343009106310400F7F7E0F855
:10BDE000050031001022013028F04EF82900200013
:10BDF000FFF776FF73BD082337B502021343002215
:10BE00000D000092062105320400F7F7C9F84570CD
:10BE100001002000FFF764FF37BD0000154B8200D2
:10BE20001B68F0B5D35804001D6908222F002E00AE
:10BE300087B02E371E36002914D1310002A828F011
:10BE400023F80822390004A828F01EF8C02080003A
:10BE5000044301222800084B009402A926F0EFFDBC
:10BE600007B0F0BD390002A828F00EF80822310012
:10BE7000E9E7C0464401000059CE001810B5090298
:10BE80000143024826F0F0FD10BDC04659CE00180F
:10BE9000F8B5334B82001B680400D5580F002E0004
:10BEA00040363378042B1ED12969002904D12D4B4B
:10BEB0000A0001201B68984728692022791C9130CC
:10BEC00027F0E2FF390028692022B130213127F024
:10BED000DBFF2000FDF7D2FD012806D12000FFF78F
:10BEE00047FD032333700020F8BD296920000A00B4
:10BEF0009131B132FFF74CFD2B691A004E321078A8
:10BF00000328F0D827F094FF020A1002A42104228B
:10BF10004900585C02435A540723E3E704212000F8
:10BF2000FFF756FD0523DDE7052131705A7C012A14
:10BF300003D12000FFF7A2FFD5E73933FF33180004
:10BF40001022002127F0BCFF2869102200213E307A
:10BF500027F0B6FF09212000FFF73AFDC3E7C046EE
:10BF60004401000058060000F8B5244B82001B680D
:10BF70000400D7580D00FDF781FD06003869002840
:10BF800016D0691C3D0010223E30403527F07CFF62
:10BF90002B78072B0CD1396946373B785B0609D4DF
:10BFA000002E17D120001E31FFF7E1FE08232B7071
:10BFB0000020F8BD0B004E331B78002B01D0032B63
:10BFC00004D1002EF4D105232B700AE0012BEFD110
:10BFD000012E0BD105232B704433FF33CB5C5B0761
:10BFE000E6D500212000FFF749FFE1E70823200004
:10BFF0002B701E31FFF7BBFEDAE7C046440100009C
:10C00000F0B585B002930AAB1B88019203931E4BD7
:10C0100082001B680500D7580E001C2381B21B4A02
:10C020001B4825F02DFB04002800FDF711FD2080A2
:10C03000A01C002E14D108223100668127F040FF99
:10C040002000019910220C3027F01EFF200007F07D
:10C05000CFF8012208212800FDF7D6FE05B0F0BD7B
:10C060003B0046331B785B0603D500210822618123
:10C07000E4E7039B08226381029927F005FF3B0058
:10C080001A2240331A70DBE7440100001920000037
:10C0900005110000F7B52E4B07001B681600820043
:10C0A000D4580191FDF70AFE08223B0201001A4311
:10C0B00028481E2325F0E4FA019B05000370981E12
:10C0C00005283ED827F0B4FE0E033D2C2F263378EA
:10C0D000AB7040224634237893432370280025F028
:10C0E000F3FAF7BD2669002E05D11B4B3200310053
:10C0F00001201B68984733004F331978A423A97097
:10C100005B00F25C483BFF3B1A403800EA70FDF7E9
:10C1100027FEDEE71C22A81C310027F0B5FEDDE774
:10C120001722A81CF8E710223100A81C27F0ACFE4B
:10C13000200010223100243027F0A6FE0023A36344
:10C14000CCE70022044B110001201B689847C5E78B
:10C1500044010000150E000058060000F7B5284AFB
:10C16000830012680E00D2184B78062104000B429F
:10C1700005D001310B40043B0A25012B06D82000D5
:10C180001768FDF77BFC002802D000252800FEBDC3
:10C190002000FFF755FD051EF7D173781B070DD45E
:10C1A00002F0E6FA002809D16B46DA1D6323032169
:10C1B000200013700335FFF76DFFE7E73B69002BA5
:10C1C00011D12000FDF77AFD08222402010022434C
:10C1D00001230C4825F054FA1F2273781340037092
:10C1E00025F072FAD2E701212000FDF79DFC0A2814
:10C1F000CBD00022044B110001201B689847C5E7F3
:10C20000440100001B0E000058060000082337B54B
:10C210000202134300220621009209320400F6F7BD
:10C22000BFFE050002F05CFB01231840687002F0BD
:10C230008DFB06220100A81C27F026FE2900200005
:10C24000FFF74EFD37BD00002F4BF7B51B6882008E
:10C2500005000E00D758FDF711FC012802D000247C
:10C260002000FEBD73780A24042BF9D80622F37847
:10C27000134204D001321340043B012BF0D8B378B1
:10C280000A24012BECD83379043C073B092BE7D86F
:10C290002800FFF7D5FC041E04D000240328DFD1BA
:10C2A0000934DDE73B69002BD9D102F061FA00289F
:10C2B00015D0F3781B0718D50823290219430A0063
:10C2C000124825F0DDF90A23050003700622711CCF
:10C2D000013027F0D9FD280025F0F6F9C0E702F07B
:10C2E0004FFA0028E5D10524BAE702F041FA002808
:10C2F000E2D16B46DA1D6323032128001370032467
:10C30000FFF7C8FEACE7C04644010000120E000073
:10C31000F0B5D3B215003D4A87B0126803939B0075
:10C320009E580F000190002E66D0002803D0703870
:10C33000C3B2019360E00121E8B2FDF71BFC037872
:10C34000083704000497F02B08D0418808220431F4
:10C350004118380027F08AFD002854D1E8B2FDF7D3
:10C36000ADFC08232D021D43ADB22A000100284870
:10C3700025F086F9012107000398FDF775FC638815
:10C3800001000C332A009BB2224825F079F923786A
:10C3900062880293F03B591E8B41A15C0C338C46A2
:10C3A0009B00F318059363460500A0184178090225
:10C3B00019438378C078000218430004059B0143A9
:10C3C00001315960029B211D2B70130008336B80D3
:10C3D000281D27F059FD6088082204300499281888
:10C3E00027F052FD280025F06FF9736B38003B6091
:10C3F000B36B7B6025F068F90121019A0398FDF782
:10C400001BFD07B0F0BD212393E7C04644010000A7
:10C410001C0E0000F10E0000F7B54B7805000E0071
:10C42000042B02D90A242000FEBD0622CB78134239
:10C4300004D001321340043B012BF3D8B378012B15
:10C44000F0D83379073B092B01D90624EBE7464B9B
:10C45000AA001B682800D758FDF710FB041E74D1F2
:10C460003B004033019318780128DCD13B69002B55
:10C4700004D13E4B220021001B689847731C009397
:10C480007378042BCED8009B5B78012BCAD8009B15
:10C490001B79102BC6D8009B5B79102BC2D80121C9
:10C4A0002800FDF741FB0A2805D000222F4B110080
:10C4B00001201B689847386906220099173027F039
:10C4C000E3FC3E0008233A694636517E194206D005
:10C4D000927C1A4203D03278383313433370337866
:10C4E0005B061FD52800FFF731F90028ADD03B6966
:10C4F0002800997DFFF74CF9002833D02800FFF77A
:10C500008BF900212800FFF705FA00280ED0402300
:10C5100032781A420CD02800FFF72AFA0323019A36
:10C52000137080E702F024F90028DBD103247AE7B6
:10C530000523019A13703B691A004E321478002CBF
:10C5400005D004212800FFF743FA00246BE7A4215B
:10C5500004224900585C02435A5428002100FFF786
:10C560008DFC60E708245EE74401000058060000E7
:10C5700070B54B7805000E000A20042B24D8164B0A
:10C58000AA001B68D35840331B78013B182B1CD8DA
:10C5900008242B021C432100104825F019F800281C
:10C5A00004D021000E4A0D4824F02EFF2800767892
:10C5B000FDF784FB0123010022000A4825F060F802
:10C5C000067025F081F8002070BD0022064B110096
:10C5D00001201B689847F6E744010000F30E0000B5
:10C5E000307500002E0E00005806000070B51223B2
:10C5F00004000E000B4A81B20B4825F041F80500FB
:10C600002000FDF725FA310028801022A81C27F011
:10C610003BFC280006F0ECFD012208212000FDF77C
:10C62000F3FB70BD1A20000005110000F0B5274B88
:10C6300082001B688DB0D4580500FDF71FFA2369EE
:10C6400026001A002700E13207924E364737C33AD8
:10C650002E33002824D1390005920AAF062208A8FB
:10C66000069327F011FC06223100380027F00CFC5D
:10C6700023004D331B7804AA937554342378BB717F
:10C68000C020134BC000054301930AAB0093069AE8
:10C6900005990798029508AB26F0BAFC0DB0F0BDDD
:10C6A000310006920AAE062208A8059327F0ECFB9B
:10C6B00006223900300027F0E7FB230054331B78B3
:10C6C00004AA93754D342378B371D9E7440100006F
:10C6D00059CE001873B56B46D9711A4B16001B68FA
:10C6E0008200D55804002969002904D1164B0A009C
:10C6F00001201B6898476B46DA79002A16D102217F
:10C700002000FFF7C7FC200000220121FDF794FB69
:10C710002869002803D025F075F900232B6120003B
:10C72000FFF7C6FA002340352B7073BD6B4603211B
:10C730002000DA1DFFF7AEFC002EE4D02000FFF74A
:10C740005DFAE0E7440100005806000013B54A789E
:10C750000400531E0D2B00D90822702313436A4690
:10C76000D3710C4BA2001B68D3581B69002B0AD055
:10C770002000FDF783F96B4600222000D979FFF7EE
:10C78000A9FF002016BD6B4603212000DA1DFFF72C
:10C7900081FCF6E7440100002C4BF7B51B688200D2
:10C7A000D75806003C690191002C05D1284B220086
:10C7B000210001201B6898473D004035297808007A
:10C7C0001438052823D827F033FB0503201E20202A
:10C7D00016232B702B78142B14D146373B7850340A
:10C7E0005B0603D50122237893432370012223782B
:10C7F0001521134203D10222134210D017212970B0
:10C8000093432370F7BD1823E3E71423E1E72300E4
:10C8100050331A780E4B03201B689847DAE7042040
:10C8200019000140034203D0192283432A70E8E72C
:10C83000019B002B04D11900300000F0C7F8E1E79C
:10C840000A003000FFF746FFDCE7C0464401000065
:10C8500058060000104B82001B6870B5D3580400C6
:10C860001A00403212780D00192A13D119690029D3
:10C8700004D10A4B0A0001201B68984706212000BA
:10C880006A1CFFF707FC2000FDF7F8F80100200004
:10C89000FFF782FF002070BD440100005806000031
:10C8A000F8B5104B82001B680500D7580E003C6994
:10C8B000002C05D10C4B2200210001201B68984759
:10C8C000002E0CD1627D237F13405034237014233B
:10C8D0004037310028003B70FFF75EFFF8BD227D36
:10C8E000E37EF1E74401000058060000354BF7B540
:10C8F0001B688200D35804001F690E000193002FAB
:10C9000005D1314B3A00390001201B689847019D41
:10C910004035297810290DD00B00113B022B02D88D
:10C9200010232B7006E03B0050331A78264B03206F
:10C930001B6898472B78102B3ED13A0001215032CA
:10C9400013780B420CD08B431370019B46331B783A
:10C950005B06EFD420000631FFF73AF81123E0E739
:10C9600002210B4215D08B43137001F0B9FF43072E
:10C9700005D505212000FFF72BF81223D1E701F0A0
:10C98000DFFF01002000FFF720FA2000FFF73EFC48
:10C99000D0E704210B4208D08B43137013232000EF
:10C9A0002B700231FFF714F8C4E7002E05D13200D6
:10C9B00031002000FFF78EFEF7BD31002000FFF7A9
:10C9C0006FFFF9E74401000058060000F8B5104B6E
:10C9D00082001B680500D7580E003C69002C05D169
:10C9E0000C4B2200210001201B689847002E0CD11F
:10C9F000227DE37E134050342370102340373100F2
:10CA000028003B70FFF772FFF8BD627D237FF1E7DE
:10CA10004401000058060000F7B5524B16001B6891
:10CA20008200D75801910022082104002225FDF739
:10CA3000EBF9062E13D00135112E10D00135222E20
:10CA40000DD0002E04D03500703DEDB2002D06D182
:10CA50003A0008230025463211780B4313703E003C
:10CA6000403633780F2B47D80D2B6FD9012120008A
:10CA7000FDF75AF80A2805D000223B4B110001208F
:10CA80001B6898473969002904D1374B0A000120F7
:10CA90001B689847002D5FD133780F2B24D13A695A
:10CAA0000E3B917C19421FD0527E1A421CD02000AE
:10CAB000FDF704F90823220201001A432B4816331C
:10CAC00024F0DEFD0723060003701C2239690230C2
:10CAD00027F0DAF9300008222900143027F0F0F9A5
:10CAE0003000758224F0F0FD019B002B2FD119003E
:10CAF0002000FFF7D5FE29E01A2B27D101212000C5
:10CB0000FDF712F80B2805D00022174B1100012069
:10CB10001B689847002D12D12000FDF7CFF808229E
:10CB2000230201001A431248012324F0A9FD070043
:10CB30002000FDF747F93870380024F0C5FD0023C8
:10CB40002A00012120003370FDF776F9F7BD01219D
:10CB50002000FFF73BFFF9E7002229002000FFF744
:10CB6000B9FDF3E74401000058060000150E00006F
:10CB7000190E0000184B82001B6870B5D6580400CF
:10CB8000330040331B780D0086B0182B20D131695B
:10CB9000002904D1114B0A0001201B689847062286
:10CBA000A91C04A827F070F96A466B78684693754B
:10CBB0003169102227F068F905216A462000FFF745
:10CBC00069FA2000FCF75AFF01002000FFF7E4FD9E
:10CBD000002006B070BDC0464401000058060000A9
:10CBE000104B82001B6870B5D658040033004033E8
:10CBF0001B780D00172B13D13169002904D10A4B82
:10CC00000A0001201B689847691C1022306927F030
:10CC10003BF92000FCF732FF01002000FFF7BCFDCC
:10CC2000002070BD44010000580600001C4B82002B
:10CC30001B6870B5D6580400330040331B780D00D4
:10CC400088B0162B29D13169002904D1154B0A006F
:10CC500001201B689847EB78AA781B021343162023
:10CC60006A46291D93826844082227F00DF9102294
:10CC7000316901A827F008F92000FDF761F86B463B
:10CC80000721987701AA2000FFF704FA2000FCF79B
:10CC9000F5FE01002000FFF77FFD002008B070BD09
:10CCA0004401000058060000104B82001B6870B55C
:10CCB000D6580400330040331B780D00152B13D1D8
:10CCC0003169002904D10A4B0A0001201B689847EA
:10CCD000691C1022306927F0D7F82000FCF7CEFE3F
:10CCE00001002000FFF758FD002070BD4401000046
:10CCF0005806000070B581B205000223064A0748B5
:10CD000024F0BEFC04002800FCF7A2FE20802000D6
:10CD100006F06EFA70BDC0461B2000000511000031
:10CD2000334B82001B68F0B5D55893B02C692900AD
:10CD300023000AAE1E330700062206934731103344
:10CD40003000079327F0A0F8290006224E310CA8E6
:10CD500027F09AF82B004D331B782E21B3712B004E
:10CD600054331B7802AA521813703800FCF786FE61
:10CD7000D1342B6909AA002823D1597E9170197EDC
:10CD80005170D97D117019004E31097802291ED8D1
:10CD9000002920D1102200210EA827F091F8802030
:10CDA000144B000103930CAB3843019309AB009380
:10CDB000049002960EAB2000069A079926F078F9A7
:10CDC00007E0997C9170597C5170197CDAE703294E
:10CDD000E0D013B0F0BD802006490001393338435C
:10CDE00003910CA9FF330490029601910092E2E7AF
:10CDF0004401000059CE0018164BF7B51B6882009D
:10CE0000D65804000D00FCF739FE01903069002867
:10CE100012D0370040373B780D2B0DD11230102245
:10CE2000FF30691C27F030F8019B002B06D10C3332
:10CE300020003B70FFF774FF0020FEBD0B233B700A
:10CE400032693E33FF33D35C9B07F5D52000FFF7F3
:10CE5000EDFBF1E744010000F0B597B00A926B4694
:10CE600028229B181D78040028000E00FCF706FEFF
:10CE7000FF220A9B0790134009939B000B93BA4B28
:10CE80000B9A1B689F58002F38D001212800FCF70F
:10CE90004BFE0A2832D1002C07D021000022703925
:10CEA000C9B22800FFF716FC28E03C6923004E3386
:10CEB0001B7808930A9B180AFF231840082800D9FA
:10CEC0002FE226F0C9FF0900640099001B015701F9
:10CED0003A017301F001060223001E3318001022EC
:10CEE00031000A9326F0D0FF3B0046331B785B06E7
:10CEF00006D4012228000799FEF700FE17B0F0BD06
:10CF0000089B002B01D0032B18D1079B012B0ED1BE
:10CF1000099AFF3313430193944B2100200000939F
:10CF20000023913151300A9A26F000F8E6E72800F4
:10CF30000A99FEF71CFF0823403726E0089B012BC7
:10CF400016D123002222FC33FF32A25C9B6A089E8A
:10CF5000D3408022210020001E408023099C5200E3
:10CF600022430192814A3343913151300092DAE7F2
:10CF7000089B022BC2D128000A99FEF7F8FE079AF7
:10CF80000823002A00D0053340373B70B6E73B004A
:10CF900046331B785B060AD428003100FEF7D0FE2A
:10CFA00007984037431E984107303870A6E7089B22
:10CFB000002B01D0032B0DD1079B012B05D06C4B0F
:10CFC00003201B68089A0999984731002800FEF74A
:10CFD000B7FEB0E7089B012BDED0089B022B00D0E8
:10CFE0008CE72000310010223E3026F04DFF092151
:10CFF0002800FEF7EDFC81E72000102231003E30D2
:10D0000026F034FF002872D13B0046331A784023C3
:10D01000110019401A420FD1FF18323B3B70079B99
:10D02000012B05D1210028001E31FEF7A0FE65E787
:10D030002800FEF7F3FE61E7089B002B30D0032B9E
:10D0400011D180252300220021002000099CED0041
:10D050002543464C2E331E329131513001950094B8
:10D0600026F066F84AE7089B012B2DD1079B012B80
:10D0700004D1210028001E31FEF779FE2222FF3262
:10D08000A35C132B0CD00133A354079B002B04D1BA
:10D0900000212800FEF7F2FE30E70723403774E74F
:10D0A0002800FCF7EBFC3C000D234034002809D19C
:10D0B000A4233A695B00D35C9B0702D52800FFF7E5
:10D0C000B5FA0B23237019E7089B022B00D015E754
:10D0D000A4225200A15C06330B43A354079B002BF0
:10D0E000D6D040373B78052B00D007E7D0E70421A6
:10D0F0002800FEF780FE01226421D2E62800FCF71A
:10D100001FFE31000400020012A826F0BDFE10220E
:10D1100012AB18190021121B26F0D2FE079B002B20
:10D1200006D119002800009312AAFEF769FFE5E670
:10D13000280012A9FFF75AFAE0E620004130082241
:10D140003100FF3026F0A0FE802320002200099944
:10D150005B000B430193054B5130393200930100C2
:10D160000023FF32E0E6C0464401000059CE00181B
:10D1700058060000089B032B05D06E4B03201B684C
:10D18000089A0999984773783078B2781B0203435C
:10D19000F07812041343000667491843F4F740FF80
:10D1A000FC34A1620A214037397021E72800FCF7DE
:10D1B000C7FD0700200031001022D13026F064FEA8
:10D1C00031003A002000103126F05EFE1023E019F5
:10D1D000DA1B002126F074FE584B0B9A1B680EAE2A
:10D1E0009C583000236921001A001E321F0007924C
:10D1F000D13306224731089326F046FE210006224D
:10D200004E3110A826F040FE23004D331B782E210E
:10D21000B371230054331B7806AA521813702800E8
:10D22000FCF72CFC2E3723690DAA002811D1997C1C
:10D230009170597C5170197C117019004E31087829
:10D24000032800D95AE6E024E40026F0F1FD081E88
:10D250002A08597E9170197E5170D97DECE7102211
:10D26000002112A826F02CFE099B01961C43344B8A
:10D270000494039310AB02930DAB009312AB3A00EE
:10D280000799089825F014FF38E639330999FF33D8
:10D290000C432B490494039110A90291019600922A
:10D2A000EDE72933F2E7A01C10223100FF3026F011
:10D2B000EBFD079B4037002B05D131002800FEF71E
:10D2C0006DFD0D2361E60C2328003B70FFF728FD60
:10D2D00014E62100123130001022FF3126F0C6FD85
:10D2E000061E17D1079B4037012B06D1A11C280031
:10D2F000FF31FEF753FD0F2347E60100102212A86D
:10D3000026F0DEFD220001212800009612ABFEF778
:10D3100077FEF0E70B212800FEF76DFD01226B215F
:10D32000BFE5044B4037032039781B68079A9847BC
:10D33000E4E5C0465806000040420F0044010000EA
:10D3400059CE00184C4BF0B51B688200D35887B0FB
:10D350001C69050005910393002C23D02700FCF7DE
:10D360008DFB230005992E3704904E330131102296
:10D3700038001E7826F088FD039B40331978082971
:10D3800010D106221A70039A402046321278944631
:10D39000024005926246024207D12800059A04998C
:10D3A000FEF7ACFB002007B0F0BD002E01D0032E2D
:10D3B00030D1049B012B1ED126001E3631002800DF
:10D3C000FEF7D5FC23004E331B78032B0ED18023B0
:10D3D00021002000DB001D43284B3A00009351310F
:10D3E00033009130019525F0A3FEDBE70D22039B6E
:10D3F00040331A70D6E780239B001D431F4B21004A
:10D400002000009300235131913001953A0025F01E
:10D410008DFDC7E7012E14D123002222FC33FF32F9
:10D42000A25C9B6A2100D34080222000334013433A
:10D430008132FF321543114A5131913001950092EA
:10D44000E4E7022EAED1039A1069A4225200825C56
:10D450000498012808D10A42A4D0052200212800FE
:10D460001A70FEF70BFD9DE70B211970324299D01F
:10D470002800FFF7DBF895E74401000059CE0018BB
:10D4800070B504000E00002A1AD133790D4A9B00B2
:10D490009B5804319847051E12D001002000FEF76A
:10D4A000AAFC3379012B0BD00B2B09D02000FCF701
:10D4B000E5FA6021294301222000C9B2FFF70AF9E9
:10D4C00070BDC046C0E20018094B82001B6870B5F1
:10D4D000D45805002069002803D024F093FA0023D3
:10D4E00023612800FEF7E4FB00234034237070BD65
:10D4F00044010000F0B51E000A2387B0150002AAFF
:10D500001373130000225A732B0A02936B461F7A7F
:10D510000A000C003800012105ABFDF741F903902A
:10D5200001287BD13800FCF7A9FA011E00D078E071
:10D53000574B029A1B689200D6583369002B04D0CF
:10D54000544B02001B680398984733003F331B7805
:10D550005A0700D595E09B0700D594E06378651CD9
:10D56000042B00D991E06B786A22012B12D82B7919
:10D57000102B0FD86B79102B0CD8EB78073B092BAD
:10D5800008D80824AB78234209D101F0F1F800282B
:10D590000CD1632201213800FCF74EFC3EE001F083
:10D5A000EFF80028F5D0AB782342EED0A620022178
:10D5B000400024F09DF9A6220400002152003061B1
:10D5C00026F07EFC200007222900103026F05CFCAB
:10D5D000A27C0123110019401A4200D1A182029BB2
:10D5E00006211A0208231343002238000092013258
:10D5F000F5F7D6FC237C01004370637C8370A37C29
:10D60000C370E37C0371237D4371637D83713800B4
:10D61000FEF766FB3300012240331A70039807B00F
:10D62000F0BD4222B542B5D1194B01341A68029BB4
:10D630009B009D582B69002B05D00022154B110033
:10D640001B6803989847A6200221400024F050F957
:10D65000011E286104D10F4B02001B68012098476E
:10D66000A62200212869520026F02AFC2869210000
:10D670000622103026F008FC00213800FEF7A8F939
:10D68000CCE7452286E7692284E76A2282E7C04622
:10D690004401000058060000F0B5100089B01400E5
:10D6A000039124F0EFFB3F2800D1A2E0230A04936A
:10D6B0006B461C7C039B18780138092800D998E038
:10D6C00026F0CAFB0A00970097001601E801DD006A
:10D6D0008601970009025902039B049A5D78B94BB1
:10D6E00092001B682000D3580593FCF7C7F9012866
:10D6F0007FD1059B40331B78022B7AD1002D00D1BE
:10D7000065E2059B1F69002F04D1AF4B3A00390039
:10D710001B6898473D00039B173502330722190009
:10D720002800079326F0B0FB01F02AF8002803D167
:10D730000822AB789343AB700823AA781A4208D02A
:10D74000BA7C1A4205D0059A3833463211780B4319
:10D750001370059B463306931B785B064CD5039BE1
:10D76000DB78002B64D02000FDF7F0FF06260028B0
:10D7700047D0079B20009979FEF70AF8002804D1CA
:10D78000069B1B785B0600D421E22000FEF744F8DC
:10D7900001212000FEF7BEF8002831D0A97803222D
:10D7A0000B00134011424DD12B716B71049B06216C
:10D7B0001A02082313430022200000920232F5F7D8
:10D7C000EFFBFB7D010043706B788370AB78C37017
:10D7D000EB7803712B7943716B7983712000FEF72D
:10D7E0007FFA069B1A78059B4033520632D50422F5
:10D7F0001A70002009B0F0BD00F0BAFF0028AED1C9
:10D800000326704B1A68049B9B009B5840331B787F
:10D81000002BEED031002000FEF7EDFA2000FCF7DF
:10D820002DF96021012220003143FEF753FFE0E78C
:10D830007B7C012B97D1069B1B785B0600D592E77A
:10D840000226DEE72A793B7D13402B716A797B7DC6
:10D850001340AAE707221A70059B1B691A004E3273
:10D860001278002A04D004212000FEF7B1F8C0E7A6
:10D87000A42104224900585C02435A54B9E7514B91
:10D88000049A1B689200D5582000FCF7F7F82B008B
:10D8900040331B780600132BABD12969002904D132
:10D8A000494B0A0001201B6898472800039F10225B
:10D8B00002373900143026F0E7FA049B00211A02DF
:10D8C00008236963134300910A2206312000F5F70B
:10D8D00067FB050010223900013026F0D5FA290037
:10D8E0002000FEF7FDF931002000FEF7FFFF80E782
:10D8F000344B049A1B689200D7583B69002B00D127
:10D9000065E1A42676009B5D04251A002A40079253
:10D910002B4200D06DE7039B20005B780693FCF759
:10D92000ADF805903869835D1D43069B8555002B36
:10D9300042D0039B9D1C3B0046331B785B0630D5D1
:10D9400003004E331B78012B00D052E739301022F0
:10D950002900FF3026F098FA3E69AA783300FC339C
:10D960000493039B120498786B7818491B020343B5
:10D97000E878134300061843F4F752FB049B079A18
:10D9800099622223FF33F254059B002B04D04037C9
:10D990003B78052B00D02CE700212000FEF76EFA23
:10D9A00027E71022290026F06FFA059B002BF3D001
:10D9B0003B0040331B78ECE74E300678012E00D058
:10D9C00017E71EE7440100005806000040420F0020
:10D9D000804B049A1B689200D5582000FCF74EF843
:10D9E0002B00059040331B78112B00D001E72969EB
:10D9F000002904D1784B0A0001201B6898472000B9
:10DA0000FCF79EF9102805D90022734B1100012064
:10DA10001B6898472000FCF793F90022102802D8D1
:10DA20001032121AD2B2039B02300021181826F0CD
:10DA300047FA049B082706221D0200233D431100DC
:10DA4000009320002B00F5F7ABFA0600039A013093
:10DA5000023204920499102226F016FA31002000B6
:10DA6000FEF73EF9002307220621009320002B0039
:10DA7000F5F796FA0500049B03991B8A3A00438048
:10DA80001431043026F000FA29002000FEF728F9AE
:10DA9000059929E74F4B20001968049B9B005E58AD
:10DAA000FBF7ECFF330040331B780500122B00D04E
:10DAB0009FE63169002904D1474B0A0001201B6809
:10DAC0009847039920000231FEF77FF92000FEF706
:10DAD0009DFB290008E7039B5B78002B00D1AFE694
:10DAE0003C4B049A1B689200D658A4220423356943
:10DAF0005200A95C194200D07BE60B43AB540F23C4
:10DB0000039F12375AB20592FA5C002A02D1013BF8
:10DB1000F8D2059328000399102202313E3026F0F6
:10DB2000B3F9059B3069013316D029303900102232
:10DB3000FF3026F0A9F98023280004999B00326960
:10DB40000B430193254B91302932009301000023B0
:10DB5000FF3225F0EBF94CE6A42208235200815C49
:10DB60000B4383542000FBF789FF002800D113E703
:10DB7000403633780DE7174B049A1B689200D7584C
:10DB80003B69002B00D134E64E331B78032B00D0C9
:10DB90002FE63D0040352B780A2B00D029E6039B69
:10DBA0000C265B78002B00D12BE62000FBF766FFEC
:10DBB0000D23002809D1A4233A695B00D35C9B079D
:10DBC00002D52000FEF732FD0B232B7011E608264C
:10DBD00017E6C046440100005806000059CE001860
:10DBE000F0B587B003930B23170002AA1373002329
:10DBF00053733B0A02936B461E7A0A000C003000F6
:10DC0000012105ABFCF7CCFD0500012816D1300041
:10DC1000FBF734FF002814D12300628AA71C1433B9
:10DC2000009229003A003000FEF7EAF9164B029AFA
:10DC30001B689200D358227F3E331A70280007B029
:10DC4000F0BD039B9F4218D13000FCF737F808273E
:10DC5000029B01001A023A430A230C4823F010FDEC
:10DC600021000600638A3A0003801431023026F056
:10DC70000BF9300023F028FDE0E7422229003000B4
:10DC8000FCF7DAF8DAE7C04644010000170E00009E
:10DC9000F7B510000C00170024F0F4F83F281CD052
:10DCA0003F0AFDB22800FBF7E9FE0600012814D167
:10DCB000BB0000932378114F0193002B0FD03B68DA
:10DCC000009A667C9F581A223B00403328001A7045
:10DCD000611C3E37FEF78AFC3E700020FEBD280026
:10DCE000FFF708F8962231002800FCF7A5F8009A03
:10DCF0003B689B58019A40331A70EEE744010000DC
:10DD0000F0B585B00F000C2369460B730023140A8D
:10DD1000E5B24B733A000121280003ABFCF740FD4C
:10DD20000600012826D12800FBF7A8FE4222012880
:10DD300024D1174BA2001B68D3583F331B785A07D6
:10DD40001BD49B071FD47F783B071ED500F018FD1E
:10DD50006322002812D00022082324020621009208
:10DD6000280023430B32F5F71BF901004770280008
:10DD7000FDF7B6FF300005B0F0BD452201212800B7
:10DD8000FCF75AF8F6E76922F8E700F0F1FCDFE764
:10DD900044010000F0B5150087B00C0003222449AF
:10DDA00005A826F071F82B0A03936B461F7B22000F
:10DDB0000121380005ABFCF7F3FC0500012833D145
:10DDC0001C4B039A1B689200D65823786288F02B6C
:10DDD00014D10020736BA118A3541A0A4A701A0CAC
:10DDE0001B0E8A70CB70039B000114300093628875
:10DDF000114B211D301824F055FF15E00C2A04D8D2
:10DE000000220E4B11001B68984763880120E2181E
:10DE1000083A083B12786380B36B9A42E3D2010060
:10DE200021223800FCF708F8280007B0F0BDC046F2
:10DE3000A4E200184401000011C3001858060000B5
:10DE400010B51000140024F01DF83F280BD0240A50
:10DE500001212000FBF768FE0C2806D100220121D9
:10DE60002000FBF7E9FF002010BD00212000FBF798
:10DE70005BFE1628F7D100221100F1E7F0B5100083
:10DE800085B01400029123F0FDFF3F285ED0414B86
:10DE9000240A1B68A200D658370040373B78032B72
:10DEA00054D13169002904D13B4B0A0001201B6881
:10DEB0009847306920220299513025F0E5FF029BF6
:10DEC00030692033190020227130E5B2039325F028
:10DED000DBFF230208242343002406210C22280010
:10DEE0000094F5F75DF801000B0001302133029A30
:10DEF000125D0255039A125D1A550134202CF6D199
:10DF00002800FDF7EDFE2800FBF7B8FD04230128EB
:10DF100024D1316928000A009131B132FDF738FD72
:10DF200033691A004E32107803280FD825F080FF8D
:10DF300002111802A42104224900585C02435A54D9
:10DF4000052300213B702800FDF798FF002005B055
:10DF5000F0BD04212800FDF73BFD07233B70F5E7EA
:10DF600008223A701A7E012A01D10521EBE73933E4
:10DF7000FF3318001022002125F0A2FF3069102283
:10DF800000213E3025F09CFF09212800FDF720FDEF
:10DF9000DCE7C046440100005806000070B51000E0
:10DFA0000E00140023F06EFF3F281AD00E4B240AF7
:10DFB0001B68A200D5582869002812D0A422022389
:10DFC0005200815C40350B438354293A3100E130E3
:10DFD000FF3A25F059FF2B780B2B02D1E0B2FEF768
:10DFE00025FB002070BDC04644010000F0B5244B65
:10DFF000160A1B681000B200D35887B00291039331
:10E0000023F040FF00243F2830D0162302AAF7B2A5
:10E010001373547321003800029A05ABFCF7C0FB60
:10E0200025000400012821D1082336021E433300B5
:10E030000E22062138000095F4F7B2FF029B010082
:10E040005B7843703800FDF74BFE039B40331B7831
:10E05000013B182B0DD831000A4823F0B9FAA84229
:10E0600004D03100084A074823F0CEF9200007B059
:10E07000F0BD064B2A00290020001B689847F5E7F1
:10E0800044010000F30E0000307500005806000047
:10E0900070B510000D00140023F0F4FE3F281BD0D3
:10E0A0006B78002B18D0240A01212000FBF73CFDDF
:10E0B0000A2811D12B780B252E2B00D0033D2900E7
:10E0C0002000FDF798FE2000FBF7D8FC602101221C
:10E0D00020002943FEF7FEFA002070BD70B5100045
:10E0E000140023F0CFFE3F2815D001210B4B240A4A
:10E0F0001B68E5B2A400E35828003F331A788A432E
:10E10000110004220A431A70FBF7B8FC00224521D3
:10E110002800FEF7DFFA002070BDC0464401000071
:10E1200070B51000140023F0ADFE3F2817D00D4B42
:10E13000240A1B68A400E55802232C003F342278EF
:10E14000110019401A4204D1074B0A0001201B6834
:10E150009847C8230222AB8723789343237000207B
:10E1600070BDC046440100005806000070B51000A4
:10E170000D00140023F086FE3F2818D02B78002BCA
:10E1800015D0240A01212000FBF7CEFC0B2805D076
:10E190000022084B110001201B6898472A78002AAA
:10E1A00001D0703AD2B201212000FBF745FE0020D9
:10E1B00070BDC04658060000F8B548880D0017002D
:10E1C000FBF72AFC0400FF281ED0234B82001B68AB
:10E1D0000121D658FBF7A8FC0A2817D008262102EF
:10E1E00031431E233A0089B21C4823F049FA0B231D
:10E1F00004000370AB8932004382291D143025F0DE
:10E2000043FE200023F060FA0020F8BD3200330006
:10E210004632127840331B78520606D50F2B0BD1AD
:10E2200020003169FEF7E2F9EEE70E2B04D101215F
:10E230002000FDF7F3FDE7E72000FEF75BFD082176
:10E240002000FDF7D8FD2000FBF718FC0122682113
:10E250002000FEF73FFAD7E744010000160E000049
:10E2600070B548880D00FBF7D7FB0400FF2806D0E7
:10E27000FBF704FC2A7801002000FEF7CDFB00200C
:10E2800070BD70B548880D00FBF7C6FB0400FF2881
:10E2900006D0FBF7F3FB2A7801002000FEF7BCFB59
:10E2A000002070BDF0F1000000010001000001003D
:10E2B0000101010100010000000000010101000155
:10E2C0000000000049C2001819C4001869BF0018F6
:10E2D00045D300184DC70018A9CC00182DCC001844
:10E2E000E1CB001875CB001855C800185DC10018A7
:10E2F00091BE0018F9CD001871C50018F7B51C23A0
:10E300000C0069460B7100216B46150AEFB259717A
:10E310002200380001ABFCF743FA0600012826D1A1
:10E320006B466A466946033260780633023101F073
:10E330005DFF021E2FD16B469B78002B19D16B46D7
:10E34000DB784232022B26D129000433144A1548C7
:10E3500023F096F905003800FBF77AFB6B46DB8863
:10E3600028802B71638828006B8004F041FF300007
:10E37000FEBD4222032B0ED1290003330A4A09486D
:10E3800023F07EF905003800FBF762FB6B46DB8863
:10E390002880AB80E6E700213800FBF74DFDE6E77B
:10E3A0005B200000051100005A20000070B548886D
:10E3B0000D00FBF731FB030204000820184380B274
:10E3C00023F060FD3F280FD000212000FBF7ACFBBD
:10E3D00041221C2804D12A78002A01D0703AD2B2F6
:10E3E00000212000FBF728FD002070BD7FB50A4BFF
:10E3F000059158831A33180001230393074BC0215A
:10E40000029308230193002305AA009349010B33CB
:10E41000F6F708F807B000BD500100005EE90018EB
:10E4200010B50400022805D90022064B1100012076
:10E430001B689847044BA400E358181E00D01878B6
:10E4400010BDC046580600005001000010B5040081
:10E45000022805D90022074B110001201B689847AC
:10E460000020054BA400E358834202D0180023F09B
:10E4700064F910BD580600005001000070B5050099
:10E480001400002909D0D02002230722000123F024
:10E49000F7F80570447023F017F970BDF0B5214C02
:10E4A00085B023000390012038331F780B790E00CC
:10E4B0000740002B1AD01C4B1A7823003033310050
:10E4C00003980097FBF7CEF90500FF280BD03734EF
:10E4D000237801332370F3F7FDFD2800FBF730F8B4
:10E4E000280004F0DDF8280005B0F0BD23000F4A35
:10E4F00043331B7812689B009D58002D04D10C4BB0
:10E500002A0029001B689847AB7B0722022B00D00A
:10E51000AA8A2300697C30330029D0D02B00012740
:10E520001633CCE750010000040600004C01000047
:10E530005806000070B504001500FF2810D0094BE4
:10E5400037331A78013A1A70FBF734FD2000F3F7DD
:10E55000EBFD2000FAF7F8FF2900200004F0C2F8D4
:10E5600070BDC0465001000010B5040AC0B2031FC0
:10E570009BB2052B05D8054AD35C2002184380B214
:10E5800010BD04F0FDF80300F7E7C04658E9001895
:10E59000C3B210B5040A18000A38062814D825F0AA
:10E5A00047FC0F0B0D170413110008202402204311
:10E5B00080B223F0CBFC10BD0520F7E70620F5E77D
:10E5C0000420F3E70920F1E7180004F0F5F8EDE77F
:10E5D0000720EBE7014B588F7047C0465001000001
:10E5E000014B988F7047C0465001000003001B3B51
:10E5F0004020E02B08D8E0204939FF3989B2C0001B
:10E600008842804140428001704770B50500072074
:10E610000C0023F037FC08280AD00121A94040B2A1
:10E6200049B2002C05D00143C9B2072023F0BCFB3E
:10E6300070BD8843C1B2F8E7F8B50A4E8700040000
:10E64000B859002808D023F07BF8051E04D1B8592A
:10E650000C3823F06BF8BD5100212000FFF7D5FFE7
:10E66000F8BDC04650010000F8B504000E000228B5
:10E6700005D90022104B110001201B6898470F4D4F
:10E68000A3005F59002F0ED02000FFF7DFFE01002E
:10E69000D02002230722000122F0F2FF3B784670CF
:10E6A000037023F011F8012C02D1FF2344352B70A5
:10E6B0002000FFF7C1FFF8BD580600005001000020
:10E6C000F0B585B004000E000092022805D90022A2
:10E6D000254B110001201B689847072023F0D2FB2F
:10E6E0000025029008283CD033780193022C05D9EC
:10E6F0001D4B2A00290001201B6898471B4BA700CF
:10E70000FB5803930123039A1D00964229D00298D7
:10E71000204105001D40184207D0022521E0019A42
:10E7200093420FD0009B01330093009B1B78002B7A
:10E73000F5D1300023F001F8402201000198FFF7E5
:10E740009DFE0EE0022C05D90022074B110001208E
:10E750001B689847054B01212000DE51FFF755FF4C
:10E760000125280005B0F0BD58060000500100004A
:10E77000024B3933187801231840704750010000CC
:10E78000024B393318788007C00F704750010000E2
:10E79000054A0300D068002800D1704782889A4259
:10E7A000FBD00068F7E7C0465001000070B50C00D0
:10E7B00015001E00FFF7ECFF0100472000290DD0D7
:10E7C00007220B7A002013403370CB882B800A7A03
:10E7D0007F2A03D92402DBB21C432C8070BD0000C9
:10E7E0000B4A70B515003E323F352B781278352430
:10E7F0009A420BD9002401332B70A14206D0FFF7B7
:10E80000C7FFA04202D0437A01334372200070BD9B
:10E810005001000010B5084B3F331A78013A1A70C6
:10E82000002906D0FFF7B4FF002802D0437A013B4D
:10E830004372002010BDC0465001000010B50548CD
:10E84000C368002B00D110BD0C3023F093FF23F0E0
:10E85000D9F8F4E75001000070B50400012825D074
:10E86000022816D000280DD11B49072023F040FABA
:10E870001A4D0C222100280025F022FB28000C3024
:10E8800023F01AFF200003F077FE2000FBF748FB7F
:10E8900070BD03F075FDFFF7D1FF0020FFF7CCFE40
:10E8A0000120FFF7C9FE2000FFF7C6FE200001F09F
:10E8B00055FC0A4B002219003F31DA860A705A6172
:10E8C0001A00FF2145321170012207205242F73908
:10E8D0001A8323F069FAD5E774EA001850010000A2
:10E8E000024B383318780723184070475001000056
:10E8F000024B383318788006C00F70475001000073
:10E9000010B50E4B0200588B002815D0801880B22D
:10E91000062A11D91900383109788C0601D4023839
:10E9200080B2082A08D936331A7805231A4201D052
:10E930004B0701D4023880B210BDC0465001000020
:10E94000014820307047C046500100000148303077
:10E950007047C046500100000A0B0C0D0E10002835
:10E960000002000000000328000200000000002A4E
:10E970000002008020000328000200000000012A9D
:10E980000002008002000328000200000000042AA8
:10E990000002008008000328000200000000A62AF0
:10E9A0000002008001000328000200000000C92AC4
:10E9B0000002008001000000134A70B5904213D09D
:10E9C000124A90420CD00024114D2200A84201D1DD
:10E9D000104A3234E4001419A24208D1002012E097
:10E9E0000B240B780C4AF5E703240C4AF2E71000DD
:10E9F00008321500083D2D889D42EDD14268101E59
:10EA000001D01800904770BD0211000004110000F1
:10EA10000111000080EA001828EC001810EC001822
:10EA200070B51D00074B0C0007481978042322F02D
:10EA300027FE0C3C63894580038022F045FE0020C0
:10EA400070BDC046040600001D0D0000190010B581
:10EA5000030A04000D2B08D18A4206D004480B3B60
:10EA600022F00EFE048022F02FFE002010BDC046D2
:10EA7000AE0D000080EC00189C0100000100230096
:10EA800039200000F90D011836200000F90D011899
:10EA900037200000F90D0118030C00009DF5001847
:10EAA000010C00009DF50018012000009DF50018E4
:10EAB0004F2000009DF50018502000009DF5001823
:10EAC0001F2000003DF90018142000009DF50018DB
:10EAD0000110000031F60018242000009DF50018F8
:10EAE00023200000FDF600182F20000039F7001841
:10EAF0004B200000A1F800184C200000F1F800188D
:10EB00004D2000009DF50018312000009DF50018F3
:10EB10000F200000C1FB0018112000007DFA001832
:10EB2000102000007DFA001838200000F90D0118AF
:10EB30003E200000F90D01183F200000F90D0118DA
:10EB400040200000F90D01183A20000021F80018BB
:10EB50003B20000065F800183C200000F90D01186A
:10EB60003D200000F90D0118412000006915011831
:10EB7000422000006915011845200000C51F01183A
:10EB800046200000C51F011859200000FD1F011874
:10EB90005C200000C51F0118472000007DFA001806
:10EBA000492000007DFA00184A20000035FC0018BA
:10EBB0000E200000811B0118052000003D250118D2
:10EBC000352000003D25011807200000B5F600188B
:10EBD0002A200000FBFB00182B20000071FC00180D
:10EBE0002C20000071FC00182D2000007DF700187B
:10EBF0002E2000007DF70018272000007DFA001865
:10EC0000292000007DFA00184E2000007DFA00182F
:10EC100043200000811B011844200000C51F01187B
:10EC20005E2000009D0001180D000000DD15011898
:10EC300011000000091701180E0000002120011822
:10EC40000F0000004D21011810000000AB21011839
:10EC500018000000AD2001180A000000B9060118D4
:10EC600008000000CDF70018090000004500011859
:10EC70001200000075100118130000000D1001189B
:10EC8000FFFF00004DEA0018050D0000A9F1001873
:10EC9000060D000011F20018140D0000CDFE001842
:10ECA000160D00001DFF0018170D000061FF001871
:10ECB000290D0000C5FF00182B0D00001D000118D4
:10ECC000190D000061FF0018000E0000AD1A0118B8
:10ECD000060E0000151B0118F20D00006D1A011838
:10ECE000AF0D0000311F0118F30D0000852401183D
:10ECF000F10D0000AD240118080D0000D524011805
:10ED0000000D00001D250118910D0000C5F9001827
:10ED1000900D000021FA00181B0D000041F30018AF
:10ED2000F00D000021EA001802110000B9E90018F6
:10ED300004110000B9E90018230D0000BDF300180C
:10ED4000240D0000F5F30018250D00005DF40018F7
:10ED5000260D0000ADF40018A00D0000610401189C
:10ED6000A10D000019050118A20D0000950501185C
:10ED7000A30D000011060118A60D0000B10C01182A
:10ED8000040D0000D5EF0018020D00003DEF001843
:10ED900001110000B9E90018B8A1000073B5594E7F
:10EDA0000D003468002C00D1A9E02378032B00D09B
:10EDB000A5E0002900D09DE00138042804D825F002
:10EDC00037F84D243875810007214F4822F0B6FBF3
:10EDD0006378002B02D1E38D002B16D04B4A03231E
:10EDE00000214B4822F04CFC23002F342E3319789D
:10EDF00024784B424B4162426241520013430370FC
:10EE00008470417004F0F4F973BD6378002B05D170
:10EE1000238E002B02D1638E002B0AD00423002105
:10EE20003C4A3B4822F02CFC238E0380638E4380B7
:10EE3000E8E76378002B07D1638C1B2B04D12E33BA
:10EE4000A28CFF339A4209D004230021324A304871
:10EE500022F016FC638C0380A38CE8E7A27E0721D6
:10EE600013008B4303D02D4B03201B6898473200BF
:10EE7000072038321378A17E83430B4313706288D6
:10EE8000131C952A00D8962325489AB2824201D9AC
:10EE9000244B1B88F3834B0708D502230021224A09
:10EEA0001B4822F0EDFB63880380ABE7A37E5B0782
:10EEB00008D5012300211D4A154822F0E1FB01235A
:10EEC00003709FE70120A37E034213D16578002DD4
:10EED00010D06B460625D91D154C164B22001B6819
:10EEE0000D709847002804D02A002000124924F011
:10EEF000CBFF002529000020FFF7B6FB84E7412562
:10EF0000F8E7C04650010000F10D0000312000007C
:10EF1000051100004D2000002420000058060000CC
:10EF2000B8A1000098ED00182E2000002D20000050
:10EF3000800100001006000060260318F7B50E00DF
:10EF400035781900012D29D121F0A4FC6B46062744
:10EF5000194CD91D2660194B194E280032001B6828
:10EF60000F709847002804D03A003000154924F06B
:10EF70008BFF154DFB2029780231F3F7AFF8FE2304
:10EF80000021A3832B78080040342370FFF76CFB2B
:10EF90000720002122F008FF0120FEBD1D2D05D114
:10EFA0000A4B0B481B6898470020F6E740222800D0
:10EFB000FFF764FAF8E7C0465001000010060000B1
:10EFC0008001000060260318050600000C06000002
:10EFD000C3C3C3C303230020F0B585B002AA1371D5
:10EFE000507103AA0C00FFF76BFB0700012800D04B
:10EFF000C9E06A4B6A4D1B78667863706B68432181
:10F00000002B00D0BCE02B002A00373347321B789E
:10F010001278134300D0B3E0A18C608CFFF7E6FABE
:10F020004021002800D0ABE02B00383318705B4B38
:10F030001870F5F7A1FF05220A23324033400A2B4E
:10F0400077D0052A75D00722238CDB10134214D009
:10F050000420FFF755FC0723228C0C21D2101A4004
:10F06000013A920092B2F5F7B1FC0420FFF748FC98
:10F07000802212011100F5F7A9FC0722238C13420C
:10F0800013D00220FFF73CFC0723228C0C211A40EE
:10F09000013A920092B2F5F799FC0220FFF730FC9A
:10F0A000802212011100F5F791FC022003F064FAAE
:10F0B0000F2333402E0036363370FFF7BFFB2B0093
:10F0C00000223F331A7023002A002A331B783E3275
:10F0D00013700322337893432A003932002B5BD01C
:10F0E0000221E37E0B4251D013708222E38C920006
:10F0F00093424DD32B4B6B87228D9A4200D91A0035
:10F10000172A00D21722AA872800210010222030B7
:10F110000A3124F0B9FEA37EDB0705D528000622BC
:10F120003030211D24F0B0FE00210800FFF736FE2C
:10F1300029E0208C1F2143060AD52900383101918E
:10F140000B789C46202361460B4301990B707F216D
:10F15000002A05D0A37E5B0702D5C0235B001943BC
:10F16000C30502D5C023DB001943A08BFFF73EF98E
:10F17000011E05D1E08BFAF7C7F9011E00D162E745
:10F180000020FFF771FA380005B0F0BD8B43ABE704
:10F19000172BB0D21723AEE71370B5E78601000036
:10F1A000500100000702000073B504236A460020E6
:10F1B0001371507101AA0C00FFF782FA05000128B3
:10F1C00019D105220F4B36331B781A40052A04D07B
:10F1D00002221800104013420FD0052300210A4AD2
:10F1E0000A4822F04DFA06000522611C24F04CFE6C
:10F1F000300003F0FDFF280076BD4321FFF734FA0D
:10F20000F9E7C0465001000014200000051100007D
:10F21000F0B50F0085B03B49160068460F221D006F
:10F2200024F032FE6A4639000020FFF749FA040054
:10F23000012808D13878212817D81B2806D8053886
:10F24000C3B2042B0AD9200005B0F0BD1C38052834
:10F25000F9D824F0E3FD39F8F83C474D0428F2D8FA
:10F2600024F0E6FD11153042320095283ED003000F
:10F270005433DBB2032BE6D8AC380328E3D824F0B0
:10F28000D7FD393B3D3F204804F004F8DBE7082375
:10F29000290032001D4822F0F3F91D4906223031C1
:10F2A000050024F0F1FDFFF71BFB01231840FE339E
:10F2B000A871EB71280022F007FA00210800FFF77F
:10F2C000D3F9C0E71348DFE742210020F7E7012325
:10F2D0000021114A114822F0D3F91F23037003F0D3
:10F2E00087FFB0E70E48CFE70E48CDE70E48CBE7E3
:10F2F0000E48C9E70E48C7E70E48C5E70E48C3E702
:10F300000E48C1E788F9001801100000080D000040
:10F31000500100000720000023200000051100001C
:10F320002F2000000F2000004A2000002A200000AB
:10F330003B2000003A2000004B2000004C20000041
:10F34000F0B585B0002001931B23009202AA13712F
:10F35000507103AA0C00FFF7B3F90500012827D16B
:10F36000A088C3B2102B02D1FFF712F9A08002AB24
:10F370009F1D3900200003F047F9061E14D12379A0
:10F38000092B03D13888FFF7EFF838800623009A5D
:10F390000199094822F074F9638803803B8843800F
:10F3A000E388838022F090F931000020FFF75CF9B8
:10F3B000280005B0F0BDC0461C0D000073B5282321
:10F3C0006A46002613715671012001AA0C00FFF74E
:10F3D00077F90500012809D10548611C1022203069
:10F3E00024F052FD31002800FFF73EF9280076BDD9
:10F3F0005001000037B529236A460020137150716F
:10F4000001AA0C00FFF75CF90500012822D16088F1
:10F41000FFF7BEF94021002819D1A088C3B2FF2B05
:10F4200015D0102B02D1FFF7B3F8A08001210C20DA
:10F4300022F05EFA638801008380A3790372237946
:10F440000024C3804472044823F04CF921000020BA
:10F45000FFF70AF928003EBD5C01000073B52A23BE
:10F460006A4600201371507101AA0C00FFF728F9B9
:10F470000500012813D16088FFF78AF93A26041E97
:10F4800009D0467A002E0CD10100074823F07CF900
:10F49000200022F0B7FA31000020FFF7E5F828003D
:10F4A00076BD4326F7E7C0465C010000F7B50C00C7
:10F4B000344904220F3101A824F0E6FC2100002089
:10F4C00001AAFFF7FDF80500012809D121782C29B0
:10F4D00008D02D292CD02B294DD12B4803F0DAFE52
:10F4E0002800FEBD52230021284A294822F0C8F8EE
:10F4F00063784B2603702379437063798370A37913
:10F50000C370E3790371237A43710023617A8171B7
:10F510000A004B2900D93200934202D303F068FE5F
:10F52000DEE7E718BF7AC2180133D771DBB2EFE725
:10F5300052230021174A164822F0A2F863784B267E
:10F540000370A3784370E37883702379C370A37941
:10F550000371E37943710023617A81710A004B29B9
:10F5600000D932009342D9D2E718BF7AC2180133CA
:10F57000D771DBB2F2E7084B002203201B689847E3
:10F58000AEE7C04688F900181F2000004F20000099
:10F590000511000050200000580600001D4B10B55A
:10F5A0000C00984220D00AD81B4B98420CD01B4B21
:10F5B000984212D01A4B984222D0002010BD194B0D
:10F5C000984218D0184BF6E70978002901D0703915
:10F5D000C9B20120FFF7E2FBEFE70978002901D06B
:10F5E0007039C9B20220F5E70978002901D07039D5
:10F5F000C9B20320EEE70020FEF728FF0B4B18836B
:10F600002178002901D07039C9B20020FFF72CF809
:10F61000D3E7C0464D200000242000003120000028
:10F62000142000004F200000502000005001000076
:10F6300010B507200C0022F025FC082829D0002056
:10F64000FEF7EEFE4121052820D12378002B22D1A0
:10F650000020FEF7FBFE0C2301000722134822F0D6
:10F660000FF863780370638883802389C3802379CC
:10F670004370E38843810A238370013B038122F0B6
:10F6800023F82178002901D07039C9B20020FEF793
:10F69000EBFF002010BD0022054B11001B6801206C
:10F6A00098472378002BECD1D2E7C046070D000025
:10F6B0005806000070B500200D00FEF7B1FE412491
:10F6C000060007280FD12C78002C12D12000FEF75D
:10F6D000BDFE012301003200074821F0D1FF6B7805
:10F6E000037021F0F1FF21000020FEF7BDFF002094
:10F6F00070BD703CE4B2F6E7090D000010B50720BC
:10F700000C0022F0BFFB082812D00020FEF79EFE5E
:10F71000042301000722074821F0B2FF6388038019
:10F72000A388438021F0D0FF00202178FEF79CFFC2
:10F73000002010BD1E0D000010B507200C0022F0A7
:10F74000A1FB082816D00020FEF780FE0823010048
:10F750000722094821F094FFE38883802389C3802E
:10F7600063880380A388438021F0AEFF00202178C6
:10F77000FEF77AFF002010BD1F0D000070B50500D8
:10F7800007200C0022F07EFB082805D00D4B9D427F
:10F7900007D00D4B9D420ED041210020FEF764FFA3
:10F7A00007E02178002901D07039C9B20520FFF7A0
:10F7B000F5FA002070BD2178002901D07039C9B256
:10F7C0000420F4E72D2000002E20000070B5022058
:10F7D0000C00FEF725FE2F281ED16378002B17D1D1
:10F7E0002D38FEF733FE4023010007220B4821F09D
:10F7F00047FF05002022A11C24F046FB2800210021
:10F8000020222030223124F03FFB280021F05CFF31
:10F8100002206178FEF728FF002070BD2C0D00004B
:10F8200010B500200C00FEF7FBFDAD2813D12078A9
:10F8300000280CD1FEF70AFE022301000722074828
:10F8400021F01EFF064B9B8B038021F03DFF002023
:10F850002178FEF709FF002010BDC046AA0D000068
:10F860005001000070B500200C00FEF7D9FDAC2857
:10F8700012D1207800280BD16578FEF7E7FD01232F
:10F8800001000722054821F0FBFE057021F01CFF56
:10F8900000202178FEF7E8FE002070BDAB0D0000CF
:10F8A00070B507200C0022F0EDFA08281BD00020CC
:10F8B000FEF7B6FDAE2816D1207800280FD101261C
:10F8C0000225A6576557FEF7C1FD02230100072256
:10F8D000064821F0D5FE0670457021F0F5FE0020A7
:10F8E0002178FEF7C1FE002070BDC046AC0D0000BF
:10F8F00070B507200C0022F0C5FA082819D00020A6
:10F90000FEF78EFDAF2814D1207800280DD166882F
:10F91000A588FEF79BFD042301000722064821F07D
:10F92000AFFE0680458021F0CFFE00202178FEF753
:10F930009BFE002070BDC046AD0D0000087810B5DC
:10F940000C0000280ED14B88002B0BD0FEF77EFD5B
:10F950000223010007220A4821F092FE63880380F7
:10F9600021F0B2FE0122074B217852421A8300296E
:10F9700001D07039C9B20020FEF776FE002010BD1C
:10F98000270D0000500100000506071C1F200895E8
:10F9900021ACAD09AEAF002B2C2D000070B50500D9
:10F9A00000200C00FEF752FD02230100072204484C
:10F9B00021F066FE0570447021F086FE70BDC046E1
:10F9C000920D000037B50D000422104901A824F063
:10F9D0005BFA2900002001AAFEF772FE040001284C
:10F9E0000DD12B78912B0CD0922B0CD0902B06D1D3
:10F9F0000022074B074849331A7003F04BFC2000E4
:10FA00003EBD0548F9E70548F7E7C046D4FC0018B5
:10FA100050010000102000002920000049200000B3
:10FA200073B50C0012490222043101A824F02CFA0B
:10FA30002100002001AAFEF743FE0500012815D190
:10FA400022780021223A53425A410A4B0A48D218DE
:10FA5000072321F015FE0600E37906220370611CDE
:10FA6000013024F011FA300003F0C2FB280076BD0B
:10FA7000D4FC00182B20000005110000F8B506008A
:10FA800000200C00FEF7CCFC03007033DBB24121F8
:10FA9000022B06D82178002908D07039C9B2002974
:10FAA00004D00020FEF7E0FD0020F8BD3E4B3F4AA9
:10FAB0009E4204D1110049310B7801330B70156857
:10FAC0006C7891281AD13A4B9E4217D10823002115
:10FAD000384A394821F0D4FD2821060061436F18C7
:10FAE0003B7A0231037006226918013024F0CCF908
:10FAF0007B7A3000F37103F07BFBD5E7211ED0D079
:10FB00002B78013CE4B2912B1CD0922B39D0902B56
:10FB100014D10021244A893B274821F0B1FD072157
:10FB200006224C432B191B7A023406000370291954
:10FB3000013024F0A9F9300003F05AFB6B78013B47
:10FB40006B70B1E727230021194A1B4821F098FD6B
:10FB500028214C432B191B7AA11C06000370062296
:10FB60006918013024F090F921000A311022691837
:10FB7000F01D24F089F930001A34102217302919A9
:10FB8000D7E7082300210D4A0B4821F079FDE40056
:10FB9000A71C2C19237AEF190370637A0600C3712E
:10FBA000062239000130C4E7112000005001000096
:10FBB000272000004E200000051100004720000013
:10FBC00010B507200C0022F05DF9082813D00020A2
:10FBD000FEF726FC412108280AD12378002B02D108
:10FBE0006178FFF7DBFE2178002901D07039C9B2B6
:10FBF0000020FEF739FD002010BD10B507200C00D5
:10FC000022F040F9082813D00020FEF709FC41211A
:10FC100021280AD12378002B02D16178FFF7BEFE9C
:10FC20002178002901D07039C9B20020FEF71CFDEF
:10FC3000002010BD10B507200C0022F023F9082881
:10FC400013D00020FEF7ECFB412195280AD1237840
:10FC5000002B02D16178FFF7A1FE2178002901D0A5
:10FC60007039C9B20020FEF7FFFC002010BD000073
:10FC700070B507200C0022F005F9082826D00020D6
:10FC8000FEF7CEFB0300223BDBB206004121012B35
:10FC900019D82078002811D1FEF7D8FB08230100DD
:10FCA00007220B4821F0ECFC05000670062201300B
:10FCB000611C24F0E9F8280021F006FD21780029D4
:10FCC00001D07039C9B20020FEF7CEFC002070BD13
:10FCD000220D0000909192002223000070B50400D4
:10FCE000072022F0CFF8082826D00020FEF798FB46
:10FCF000172821D1114B47211E687378A34218D9C8
:10FD00000020FEF7A3FB1623010007220C4821F078
:10FD1000B7FC05000622B11C24F0B6F82101083119
:10FD200071181022A81D24F0AFF8280021F0CCFC97
:10FD300000210020FEF798FC70BDC0465001000075
:10FD4000150D000070B507200D0022F09BF8082863
:10FD500019D00020FEF764FB1A2815D10020FEF709
:10FD600075FB0823010007220B4821F089FC0400E1
:10FD70002900082224F088F8200021F0A5FC0021A9
:10FD80000800FEF771FC70BD0022044B1100012039
:10FD90001B689847F7E7C0461A0D00005806000098
:10FDA00070B507200D0022F06DF8082819D000204A
:10FDB000FEF736FB192815D10020FEF747FB10236C
:10FDC000010007220B4821F05BFC040029001022EF
:10FDD00024F05AF8200021F077FC00210800FEF7FB
:10FDE00043FC70BD0022044B110001201B689847A2
:10FDF000F7E7C046180D000058060000F0B50400F3
:10FE000089B007200D00039222F03CF8082829D081
:10FE10000020FEF705FB182848D1002C42D1274BC3
:10FE20001E68039B771C002B1ED10322290038007B
:10FE300024F02AF83F22F37803991340327904A87A
:10FE40001343F370102224F03BF80322390004A876
:10FE500024F01AF8FEF774FD0122194B009204A950
:10FE600022F0EDFD09B0F0BD2000FEF7EFFA082307
:10FE700001000722134821F003FC06000322390089
:10FE8000033024F001F829000322300023F0FCFFA6
:10FE900001233000B37121F017FC21000020FEF790
:10FEA000E3FBDFE721007039C9B2F7E70022064B18
:10FEB000110001201B689847D4E7C046500100009C
:10FEC000FDFD0018080D0000580600007FB517233F
:10FED0006A46002613735673300003AA0C00FEF71F
:10FEE000EFFB050001280BD16078B04204D03F221F
:10FEF000E3799343402B06D040210020FEF7B4FB6A
:10FF0000280004B070BD2100034BA21C08310096EC
:10FF100022F082FFF4E7C046DDFC001873B5182319
:10FF20006A46002513715571280001AA0E00FEF7DC
:10FF3000C7FB040001280AD13379C02B03D040212C
:10FF40008B43AB4205D10021044822F08DFD2000F7
:10FF500076BD2800FEF788FBF9E7C046FDFD0018D6
:10FF60007FB50C0003221249060003A823F08CFF82
:10FF70002100002003AAFEF7A3FB0500012805D1FC
:10FF80000C4B9E4205D00C4B9E420CD0280004B076
:10FF900070BD210000232A0000931131074B601C23
:10FFA00022F04DFDF2E70021054822F05DFDEDE76E
:10FFB000C4000118170D0000190D0000A1FD001864
:10FFC00045FD0018F7B52E236A46002713715771B7
:10FFD000022001AA0C00FEF773FB0600012817D1CE
:10FFE000412339000B4A0C4821F04AFB050020222E
:10FFF000611C23F049FF28002100202220302131FC
:020000041801E1
:1000000023F042FF2B00403328001F7003F0F0F86C
:100010003000FEBD5E2000000511000013B52F2347
:100020006A46137100230220537101AAFEF748FBB0
:100030000400012802D1024803F02CF9200016BD6B
:100040002520000070B507200D0021F01BFF0828B7
:100050001CD00220FEF7E4F92E2817D16C78002C72
:1000600016D12C38FEF7F2F92023010007220A48A6
:1000700021F006FB06002022A91C23F005FF30001A
:1000800021F022FB21000220FEF7EEFA002070BDD5
:10009000703CE4B2F6E7C0462A0D000010B5072018
:1000A0000C0021F0EFFE08280AD00220FEF7B8F974
:1000B0002E2805D12178002902D02C38FEF7D4FA59
:1000C000002010BD191A000030B50300084A094885
:1000D000127804689A4201DC002030BD9800205854
:1000E000002802D0C57B8D42F7D00133F2E7C0462D
:1000F000050600004C01000070B50C4E8500336809
:100100005C59002C08D0637B012B09D1200001F041
:10011000E3F9200021F076FC002233685A5170BDCB
:10012000032BF6D1200001F0F5FEF2E74C010000B0
:1001300070B504000E001500818A072204230648CA
:1001400021F09EFA637B4370237B8670C570037039
:1001500021F0BAFA70BDC046A50D000010B5022806
:100160001AD1002403E0E0B2FFF7C6FF0134104BC0
:100170001B78A342F7DC0F4B002219000831CA8715
:10018000190048310A80190041310A70191D013ADD
:100190004433CA871A7010BD0128ECD1044B0021EA
:1001A0001A78054B9200186823F08AFEE3E7C046F0
:1001B00005060000500100004C01000070B50E0063
:1001C00005000021300021F093FB041E0AD032000C
:1001D000002123F075FE0023E373034B25731B6896
:1001E000AD00EC50200070BD4C01000030B50400A3
:1001F0000F4805784320A54214D90E48A400006892
:1002000024584320002C0DD0607B0870A17B117016
:10021000607B002804D0032805D00122524203E06D
:10022000227B1A8030BDE28C00201A80FAE7C0469B
:10023000050600004C01000010B50124002802D181
:10024000FEF74EFB0440FEF74BFB430701D50223AC
:100250001C43200010BD000070B5060001200D00F9
:10026000FEF7DEF8002801D1002070BD114C2300FC
:1002700044331A78104B1B789A4205D300220F4B57
:10028000110001201B68984744340D4A23781268F6
:100290009B009C58002C05D1084B22002100012016
:1002A0001B6898473460638AAB42DDD1002301208C
:1002B0006382DAE7500100000506000058060000DE
:1002C0004C01000070B504000D1E26D10722818A62
:1002D0000323144821F0D4F9637B4370237B03701C
:1002E00021F0F2F9627B104B032A07D01A0001219A
:1002F000383212780A40617C0A430AD146331A78B0
:1003000001321A700123E37329000120FEF7ACF9D2
:1003100002E0200002F060F870BD007BFFF7ECFE09
:10032000F2E7C046A40D00005001000070B50400C3
:1003300001200D00FEF798F9002D0AD1E37B022B76
:1003400006D1054B47331A7801321A700323E37341
:1003500070BD0123FBE7C0465001000070B50400EA
:1003600045290AD1C2681C4B134080229202934255
:1003700003D10022FFF7DCFE70BD01222000FFF751
:10038000D7FE164D47352B78013B2B70E37B042BB2
:1003900008D10120FEF744F8A52806D1002101204C
:1003A000FEF762F90123E373E6E7A628FAD12B787A
:1003B000002BF3D0207B03210130C0B2FFF784FE75
:1003C00000220500064B110001201B6898472800F9
:1003D0006B689847E6E7C04600FFFF005001000049
:1003E0005806000070B504000120FEF719F8124A03
:1003F00046321378013BDBB21370A72807D10021E6
:100400000120FEF731F9207BFFF776FE70BDA828AA
:10041000F9D1002BF3D0207B01210130C0B2FFF7CE
:1004200053FE00220500054B110001201B68984770
:100430002800AB689847E6E7500100005806000026
:1004400010B5064B002146331A7801321A70012389
:10045000C3731800FEF708F910BDC0465001000034
:10046000F7B50C0005222749684623F00DFD6A46C2
:1004700021000120FEF724F90500012832D163781C
:10048000022B3DD80020204B204F1B783A68984221
:1004900004DB4B210120FEF7E7F823E086009159A9
:1004A000002909D1C3B22078A03803280BD8210035
:1004B00023F0BEFC041A221E0130E8E7180000F009
:1004C000D5FA011EE6D16378002B0BD1104B3833DF
:1004D0001B78DB0706D53B68062298590D49163074
:1004E00023F0D2FC2800FEBD180001F007F8E8E771
:1004F000180001F0EFFCE4E7180001F019FAE0E75A
:100500004021C7E7E4060118050600004C01000081
:10051000500100008001000073B5A4236A461371E6
:1005200000230120537101AA0E00FEF7C9F805004F
:1005300001281CD1144A737812789A421FD9134AA1
:100540009B0012689C58002C1BD0E37B032B10D11E
:100550000F4BE2681A4214D13100200023689847FB
:10056000011E04D00123E3730120FEF77DF828006B
:1005700076BD4321012BF7D10133E373ECE7402132
:10058000F2E74321F0E7C046050600004C010000F9
:1005900000FFFF0037B50C001A490322053101A8FE
:1005A00023F072FC2100012001AAFEF789F8050062
:1005B000012815D12378A52B14D1134A637812781A
:1005C0009A4217D9114A9B0012689858002816D0F1
:1005D000C37B4321032B0ED10423C3734368984785
:1005E00028003EBD03210020FFF76EFD0028F3D157
:1005F000010000E040210120FEF736F8F0E743213A
:10060000F9E7C046E4060118050600004C010000A9
:1006100037B50C0023490322083101A823F034FC2C
:100620002100012001AAFEF74BF80500012816D190
:100630002378A72B15D11C4A637812789A4227D9C0
:100640001A4A9B0012689C58002C26D0E37B432159
:10065000012B1ED105232000E373A36898472800CF
:100660003EBD134B1A0046321178002911D0473392
:100670001878002813D12900FFF726FD041EE9D1C0
:100680000C4B020001001B6828009847E473FFDE52
:1006900040210120FDF7E8FFE1E72100F9E74321D0
:1006A000F7E7C046E4060118050600004C0100000B
:1006B000500100005806000070B5050007200C002E
:1006C00021F0E0FB08280BD06378002B08D1210033
:1006D0002800FDF7E3FE2379002B01D101F066F934
:1006E000002070BDA0A1A3A200A5A600A7A800009D
:1006F00070B5074D04002A0000210123054820F0B1
:10070000BFFF237B037002F073FD658270BDC0469E
:100710003C20000005110000002310B5C377034BF7
:10072000027B44331A70FFF7E3FF10BD5001000055
:1007300070B50C0005000823104A0021104820F075
:100740009FFF23005A1E93410370012343702B7BAC
:100750008370002C0CD0AA7F6388022A05D1094936
:100760001A1C8B4200D90A1C93B2838023798371AF
:1007700002F03EFD014B6B8270BDC0463920000087
:10078000051100005046000070B58126B601040036
:100790000D00320000210223044820F071FF057093
:1007A000237B437002F024FD668270BD05110000BA
:1007B0000022094B017B443310B5C2771970047CC9
:1007C0004023210019401C4203D01100FFF7B0FF65
:1007D00010BDFFF7D9FFFBE750010000F0B585B071
:1007E00004000B780191002A13D0019A818B528862
:1007F00091420ED1027CA92B05D1A53B00201343C9
:10080000237405B0F0BDAA2B01D1A23BF6E710235B
:10081000F4E7AA2B62D0AB2B00D1B4E00120A92BC6
:10082000EFD1019B5E88F82E3AD8A37F0025032BD9
:1008300000D003350323F6B20293B3B203937319C6
:1008400004330021694A6A4820F01AFF237B07001D
:100850000370029B4370002383707319C370002DD3
:100860000AD002230371013B437103338371A37FD9
:10087000012B2ED0022B2FD0A18B019B281D0431E0
:1008800059183200381823F0FFFA380002F0B0FC93
:10089000564B039A6382A38BD318A3830120B0E73E
:1008A000A58B002D07D1A37FFB260290032BC4D07C
:1008B000F8260325C1E7761BB6B2FB2E04D8022327
:1008C0000025F6B20293B8E70023FB261D00029331
:1008D000B3E70623BB71CFE70523FBE7237C0025A5
:1008E0009B0700D40335FB26019B721B5B88934258
:1008F0002FDCDEB203230293B3B20393AB190433AC
:1009000000213C4A3A4820F0BBFE237B07000370DD
:10091000029B4370002383707319C370002D0AD0AB
:1009200002230371013B437103338371A37F012BC6
:1009300024D0022B25D0A18B019B281D04315918EE
:100940003200381823F0A0FA380002F051FC294B8D
:100950009FE7A28B002A05D105267642761B01234C
:10096000F6B2C8E79B1A9BB2FB2B04D8DEB2022377
:1009700000250293C0E700250295BDE70623BB7161
:10098000D9E70523FBE7019B5D88FC2D1ED80327D3
:10099000EDB2EB1C0021184ADBB2154820F070FEC6
:1009A0000600237B857003704770A18B019B043187
:1009B0002A005918033023F067FA300002F018FCBF
:1009C0000D4B6382A38B5D19A58367E7A38B002B77
:1009D00006D0ED1AADB2FC2D05D80227EDB2D8E74E
:1009E0000127FC25D5E70027FBE7C046372000009C
:1009F00005110000382000003F2000000622F8B555
:100A0000037C1A40022A01D14320F8BD827BDC0717
:100A100003D5002A05D01C07F6D5022A01D1DA0633
:100A2000F2D5821CD47F0F4AE4070DD515001600BD
:100A300037352F780C4D483634782D783F19023DE4
:100A4000AF42E1DA013434700024C477047B4432CD
:100A50001470C27B032A01D15B06D5D4FFF768FE70
:100A60000020D2E75001000005060000F7B5894ECE
:100A70000190320033004132403312781B780C0071
:100A800043209A4212D0CB8801221D001540134208
:100A90000DD03200373211787F4A1278023A9142F3
:100AA00004D00A216279032A03D94020FEBD022125
:100AB000F8E7002A02D0032A00D00A21300036309D
:100AC00000780840844642206145EFD121798C4668
:100AD0000229EAD80421180008400B4203D0002A5A
:100AE000E3D19907E1D467461021002F1CD11943A7
:100AF000E18060210B42D8D1002D05D05E3919402C
:100B000000280ED10029D0D005210B40042BCCD0D9
:100B1000637A032BC9D8013A012A1CD8002B1AD0BA
:100B2000C3E70029F0D0C0E718008843E080190728
:100B3000BBD46146012F0BD1023119400329B4D037
:100B40009B06E5D5531E012BAFD90029E0D0ACE7B9
:100B500023221342A9D1FDF7C3FE43072ED424213B
:100B60000198FFF72BFB05004B20002D9ED00023A2
:100B70006B731F0023794A38AB73637844366B7408
:100B8000FDF764FCA8820120EF776379A91CAB779D
:100B9000E288CB7F834310400343CB773F4B2B60EE
:100BA0003F4B6B603F4BAB60019B3370AB7BBB42F9
:100BB0000CD1530762D593070ED509E0E388DB0714
:100BC000CDD563784920022BC9D16FE7930755D55E
:100BD00001232A7C13432B741A23334A0021334800
:100BE00020F04EFD7F222B7B06000370E38813402C
:100BF0004380636903711A0A1B0C42718371A369F4
:100C0000C3711A0A1B0C02724372237F8372637FC3
:100C10004375AB7B002B08D0631CDB7F8375A31C63
:100C2000DB7FC375E31CDB7F0376687CFFF704FB87
:100C30000427F072E3883B4225D021003000237C5A
:100C4000062233730A310D3023F01EF9637AF374F0
:100C5000237A3375E288802311005B0019401A4221
:100C600016D0FF3B73762A7C1F3313432B7430005E
:100C700002F0BEFA0C4B00206B8217E70223297C9E
:100C80000B432B7497E7FDF72BFE3842D5D1DDE7F8
:100C90007176ECE75001000005060000FD0901181F
:100CA000B1070118190701183620000005110000CE
:100CB000F0B50D008FB004224B4905A823F0E4F8ED
:100CC0002900012005AAFDF7FBFC0190012800D0B6
:100CD00082E06B780093454B009A1B78934200D8D2
:100CE0007FE0434B92001B68D458002C00D176E083
:100CF000637B002B00D072E00222E37B432193430D
:100D0000012B3DD12B78A92B30D1207C024237D04A
:100D10006988A67F0A00207C032E07D0A92B03D068
:100D2000AA2B03D1800701D4CA1C92B23148808B10
:100D3000904256D3A07B002801D11F2A51D85733A7
:100D4000DBB2012B3ED806AF2E1D731820220021E6
:100D50003800029323F0B4F802233B70013B9C4619
:100D6000029BB34210D82DD04A2109E0AA2B02D110
:100D7000227C0198CAE7AB2BCAD1A27B022AC7D03A
:100D80000120FDF771FC27E07378092B12D8002BA6
:100D900014D00720D9087A5C034010000393D84090
:100DA00063461842E0D16046039B9840030013431A
:100DB0007B5403E01A00173A052AEAD93378013345
:100DC000F618CDE700220B4B00994433A283200094
:100DD00019702900FFF702FD01980FB0F0BD432103
:100DE000CEE74021CCE7C0462011011805060000DF
:100DF0004C0100005001000073B505000E00010019
:100E000001A8FFF729FA002830D0019CE07B0528D3
:100E100000D9E6E023F00CF803465946AEDC744BEB
:100E20009D4230D03378002B22D1E377714B9D4225
:100E300029D1714B72785D68631CDA77A37B022B32
:100E400021D1063300216D4A6D4820F019FC237B27
:100E50000370AB8C4380EB8C8380EB881B0601D541
:100E60000623C38002F0C4F9644B6382002076BD80
:100E7000703BDBB2E377002BD8D0604B9D4202D1B0
:100E80002000FFF735FC638A002BEFD1E17F0029BA
:100E900004D1594B41331A7801321A702000FFF700
:100EA00011FAE3E73178002903D07039C9B200297B
:100EB00007D1514B012259682000FFF78FFC011E1A
:100EC000D4D10120FDF7D0FBD0E74E4A954207D19F
:100ED000E37F002B04D04022237C9343237409E05A
:100EE0003378002B24D1E37795422FD081239B01C7
:100EF0009D423AD0638A002BB8D1A31CDB7FDB076D
:100F000011D5E37F002B0ED03B4D2B0048331978D1
:100F1000002904D13C4B0A0003201B689847483540
:100F20002B78013B2B702000E17FFFF7FFF99DE755
:100F3000703BDBB2E377002BD6D081239B019D422F
:100F4000D8D100212000FFF7F3FBD3E74023227C18
:100F50001343A27B2374022ACCD15BB2002BC9DBE2
:100F600001212000FFF710FCC4E78023227C5B42B4
:100F70001343B3E7234A237C954225D14022934370
:100F80002374A37B022B03D100212000FFF7FCFB7D
:100F9000638A002B00D069E7A31CDB7FDB070ED53B
:100FA000154D2B0048331978002904D1164B0A003F
:100FB00003201B68984748352B78013B2B70002194
:100FC0002000FFF7CBF951E77F2213402374DFE7BE
:100FD000094B200041331A78013A1A70FFF702FAE0
:100FE00044E70022084B110001201B6898473DE7A9
:100FF0003C20000036200000500100003E20000090
:1010000005110000392000005806000070B5154A8F
:101010004B7812780C009A4222D9134A9B0012682E
:101020009E58002E1CD0F268104B1340C022920430
:10103000934215D1337C9B0612D508230722B18A2F
:101040000B4820F01DFB0500337B06220370A378BC
:1010500001308371E11C22F017FF280020F034FBDF
:10106000002070BD050600004C01000000FF00FFDD
:10107000A80D000070B5254A8B7812780E009A42B0
:101080003ED9234A9B0012689C58002C38D0E26855
:10109000204B1340C0229204934231D14022237C42
:1010A000934323744D783C2D2CD0432D2AD0002D12
:1010B0002AD1637C002B0CD0FDF712FC430708D427
:1010C000B088F8F7A9FCFF2803D021001631F8F703
:1010D000E7FCA31CDB7FDB070ED50F4E3300483344
:1010E0001978002904D10D4B0A0003201B6898478A
:1010F00048363378013B337029002000FFF72EF982
:10110000002070BD4525E4E70025E2E70506000064
:101110004C01000000FF00FF5001000058060000D5
:10112000A9AAAB0010B5FFF75DF910BD124B70B561
:10113000124A5E6804000D0006230021104820F0CA
:101140009FFA05703379B21C4370A37B012B09D140
:101150008023DB0043800023838002F049F8074BA3
:10116000638270BD002B03D18022D2004280F3E75E
:1011700093894380D389EFE75001000042200000AB
:101180000511000010B5044B027B443300211A7096
:10119000FFF7CCFF10BDC04650010000314B70B5C9
:1011A0001A004232127805004320FF2A4FD18A7874
:1011B0008E1C0338052A4AD8B178022947D8AA7369
:1011C0007278920603D40122297C0A432A741900FA
:1011D0002A7B443142330A701A7000211023224ABC
:1011E000224820F04DFA0400687CFFF725F8002320
:1011F000FD2220706370AB7B033B134201D10123BE
:1012000063706A7C7378012A05D1DA0603D502225D
:1012100061780A4362700121180008400B4217D11F
:10122000A0709A070DD50421A2781B07114306224E
:101230004243A1703189A218D1807189DB0F1181DD
:101240001371200001F0D4FF0020074B6B8270BDAA
:10125000A170B288E280F28822819A101140217137
:10126000DFE7C046500100004120000005110000EA
:1012700010B5041E05D110BD200021F07BFA20F02E
:10128000C1FB2368002BF7D1F5E70000F0B589B06A
:1012900005930D0016000B1E009000D00B8AF27D06
:1012A0008B489B189BB2009A02931A33918A9BB287
:1012B000072220F0E5F900240700A54248D12000CC
:1012C00031001A301831F27D381822F0DDFD029B12
:1012D0003B83009B997B01294BD8338808221C0053
:1012E0001440134200D18AE0DA0603D412221342DA
:1012F00000D084E0009B0433DC6F002C12D000256A
:10130000F31C0193B378029301990622200022F086
:10131000ADFD011E03D1A379029A934223D0073475
:101320000A2D1DD138000C3820F000FA09B0F0BDAC
:10133000280021F01FFA01900279411D039822F044
:10134000A3FD019B187924181800A4B220F05AFBC1
:1013500023001A33FB1803932B68002BE8D1AEE768
:101360000135EDB2D0E70A2DDCD00622200022F0B4
:10137000A7FD33881A0700D49EE0DA06D20F0232A6
:101380007A70DA0703D5102279780A437A709A07BF
:1013900003D5202279780A437A705B0703D540236E
:1013A0007A7813437B70059B002B03D008237A784F
:1013B00013437B70009B1B7B3B70737B7B74337B85
:1013C0003B74737ABB74B37AFB74F37A3B75F3891D
:1013D000FB82B378FF2B72D13B7233885B070AD54F
:1013E000012231003800337C11311340FB73053288
:1013F000093022F049FD380020F066F996E76B4687
:1014000038001A7A00231A309A4200D88AE7C518A1
:10141000AC466D78012D0AD163469B782B420BD1E7
:101420009B0700D17EE7002900D07BE706E0C55C82
:1014300001355B19DBB2E7E70129F1D1002C98D126
:10144000B3780622234906A8029322F01DFD009BD3
:101450001D1DEB6F002B08D10221462020F048FA19
:1014600046222100E86722F02BFD0024EB6F039356
:10147000E3B20493072363430193019A039B06A9F4
:101480009D182800062222F0F1FC002803D0013428
:101490000B2CEDD16DE7049B0A2B00D169E70622E6
:1014A0002800F11C22F0F0FC009B019A0433DB6F52
:1014B0009B18029A9A715CE7DA06D20F60E7012264
:1014C00013403B72B81CF11C053222F0DDFC84E7AE
:1014D000A70D000034170118031D70B50400D86F64
:1014E000002801D020F08EFA250080341C35280019
:1014F0001435FFF7BDFEA542F9D170BD70B5164B8E
:10150000040036331B780D00DA0704D405221A4094
:101510004323052A1ED1687800F040FF40230028AD
:1015200018D020008421FEF749FE4B23041E11D061
:10153000012060736B786374FCF788FF074BA0820F
:101540002360074B00216360064B2000A360FEF779
:10155000B9FE0023180070BD500100009D11011854
:10156000851101182511011837B504000D0001007F
:1015700001A8FEF771FE002805D00198C37B022B5D
:1015800003D0042B1BD000203EBD2978002903D0B6
:101590007039C9B200290DD10D4B9C4203D10121F4
:1015A000FFF7C4FDEFE70B4B00219C42EBD1FEF7A8
:1015B000BDFEE8E7FF22084B42331A70F7E7FF222F
:1015C000054B002142331A70FEF7C8FEDBE7C04628
:1015D000412000004220000050010000F0B5484BBF
:1015E00087B0059142331B78FF2B0BD0454A9B00F7
:1015F00012688D1C9F5800230193059B019A5B780C
:10160000934202DC002007B0F0BD2B880493BB7B23
:10161000032B02D9049BDB0727D5EB1C02933B006D
:101620001C331E00002403933368002B0BD0B27BC5
:10163000AB789A4207D1300006220299083022F096
:1016400015FC002816D014341436642CECD1002478
:10165000049B03215A11032313400A420DD1012395
:101660002A0021003800FFF711FE019BFE350133EF
:101670000193C2E71C343C19EAE7022B04D13B7CFE
:10168000DB0724D50023EBE7012BEED1002C17D18B
:10169000133318006043039A12580492002A1AD197
:1016A0003E1833000400AA782A3324301A700299B5
:1016B0000622381822F0E8FB049B1C343C19B38541
:1016C000E87D0221083020F013F9061E07D1200022
:1016D000FFF7CEFDC9E70134052CDAD1C5E72900B3
:1016E000EA7D18313271701D22F0CEFB31002000EE
:1016F00020F0F8FFEB7D228A9B182382B5E7C046D5
:10170000500100004C01000010B5084B42331A781C
:10171000FF2A08D00649920009685058FF22452147
:101720001A70FEF71BFE002010BDC04650010000DD
:101730004C01000000000000000010B5FEF752FE52
:1017400010BD000070B5837B0400012B03D107217D
:1017500006481FF0F3FE064D064B227B280044335B
:101760001A7001F097FD658270BDC046F20D000051
:101770000E2000005001000070B53A230600304AE8
:101780000C00304800211FF07BFF0500707CFEF745
:1017900053FD6870B37B012B4FD000232B702300C7
:1017A000210036331B780622AB70E81C303122F062
:1017B0006BFB0723012261780B406B7200231142FF
:1017C00010D0A3886B81E388AB81A389EB81E38987
:1017D0002B82A38AEB82E38A2B83238A6B82638A20
:1017E000AB8213008A070ED5208B1A01AA18D0816C
:1017F000608B01331082208CD082608C1083A08B90
:101800005082E08B90824A0711D522891B01EB1888
:101810005A8162899A81A28CDA81E28C1A82A28D25
:10182000DA82E28D1A83228D5A82628D9A82280092
:1018300001F0DEFC024B738270BD2B70B9E7C0462D
:10184000432000000511000070B5254C0500230061
:1018500043331B784320FF2B40D1230037331A78C2
:10186000230048331B78D2181E4B1B78023B9A4248
:1018700034DA8B788E1C0338022B2FD838310A7853
:10188000012A2BD82A0000215532AB731170012B8D
:1018900014D12800382231001C3022F0F5FA230040
:1018A00049331A782B0054331A707388002B05D0F3
:1018B0000A2207215A430C481FF0A6FD22002B7B69
:1018C00044321370220043321370483423782800C6
:1018D000013331002370FFF74FFF002070BDC04679
:1018E0005001000005060000F20D0000F8B50E4C96
:1018F00016002300FF2243331A70230048330F00E1
:1019000019780500002904D1084B0A0003201B6840
:10191000984748342378013B2370002F03D03100CF
:101920002800FEF71BFDF8BD50010000580600001E
:1019300070B51A4B040036331A7805230D001A408F
:101940003E33052A27D1487800F028FD402300289F
:1019500021D0FCF7C5FF430703D56A784923022A43
:1019600019D020005821FEF729FC4B23041E12D069
:10197000493B43736B7843740120FCF767FD084BC8
:10198000A0822360074B00216360074B2000A36007
:10199000FEF798FC0023180070BDC04650010000FF
:1019A00049180118451701183B17011870B52A4B43
:1019B0002A4A43331B7812689B009C580500002C70
:1019C00005D1274B2200210001201B689847FF2DDD
:1019D0003AD0637C002B08D0FCF782FF430704D485
:1019E000210028001631F8F75BF8A67B012E11D0F4
:1019F000022E03D0002E27D0002070BD290208251A
:101A000001230722294317481FF03AFE06701FF0F2
:101A10005BFEF1E7250054352978002904D1104BED
:101A20000A0030001B6898472B78013BDBB22B7013
:101A3000002B05D0210020001C31FFF79DFEDBE7C5
:101A4000072109481FF07AFD200000220121FFF73D
:101A50004DFF0120D1E7C046500100004C010000BD
:101A600058060000050E0000F20D000070B50C4B8A
:101A700043331D78FF2D11D00A4BAA001B680A487A
:101A8000D4580722022311001FF0FAFDA523457048
:101A900003701FF019FE452355342370002070BDDC
:101AA000500100004C010000A20D000070B50C00B8
:101AB0001900154B43331A78FF2A13D0134B9200A9
:101AC0001B68D058050055352B78002B05D162785E
:101AD000002A01D0703AD2B22A702378012B03D0A9
:101AE000022B06D0002070BD19002A78FFF7FEFEF9
:101AF000F8E7072206481FF0C3FD012303701233E5
:101B000043701FF0E1FDEDE7500100004C010000C3
:101B1000040E000070B5174A0D0043321278FF2AF8
:101B200026D01E0A8B88144992000968083352583F
:101B30009BB2918A114807221FF0A2FD01210400E7
:101B40003000F7F7BFFF06220100200022F09CF9C9
:101B500001213000F7F7B6FF83792000A3712A79BD
:101B60000830E271A91D22F08FF920001FF0ACFDB2
:101B7000002070BD500100004C010000120D00005B
:101B800037B50C00010001A8FEF766FB00281ED047
:101B9000019DEB7B032B1CD0042B2BD0022B16D1E9
:101BA0002478002C0FD0703CE4B2002C0BD0AB7B1F
:101BB000012B03D1072111481FF0C0FC2200002196
:101BC0002800FFF793FE21002800FEF7AFFB00205E
:101BD0003EBD2478002CFAD0703CE4B2002CF6D044
:101BE000072106481FF0AAFC220001212800FFF768
:101BF0007DFEECE72B0055331A78F6E7F20D000076
:101C0000F7B502001748184B00781B688000C01811
:101C10000190F020000101278446144D144E0198D4
:101C2000834201D100201BE0186800280CD0C46852
:101C30002C40B44208D1047C3C40624506D0002CC4
:101C400002D0C48C94420BD00433E8E7002CFBD1C3
:101C5000847B022CF8D10400283424788C42F3D100
:101C6000FEBDC046050600004C01000000FF00FF5D
:101C70000003000310B5FEF7B5FB10BDF0B585B04D
:101C80001C000AAB1B880D4F02930BAB1B780E0098
:101C9000150000213A000190039309480A231FF020
:101CA000EFFC029B0680C380039B857003728480D7
:101CB00001F09EFA019B5F8205B0F0BD5C20000040
:101CC00005110000F7B50192838C0F7A0500FF180B
:101CD000BFB23B001A330E009BB2818A07221A481A
:101CE0001FF0CEFC2B7B07830370737904004374D1
:101CF00033790374019B002B13D1043331006370DB
:101D0000A88C27001A30327A2018093122F0BCF84A
:101D10001A37EB69002B06D1AB8420001FF0D4FCEE
:101D2000F7BD0C23EAE728001C3020F023FD01005A
:101D30000600027D1531380022F0A6F8337D300010
:101D4000FF181FF0F3FCE4E7A70D0000F0B51F4DEE
:101D5000027B2B0044331A70037C01261F00040011
:101D600085B0374033420FD0194DB34303742A0076
:101D70000223002117481FF083FCE38C038001F04D
:101D800037FA658205B0F0BD837B022B15D10300C5
:101D9000283303931878F7F75BFE0A2301000093BA
:101DA0003A003B0020000197FFF768FF039B1B7878
:101DB0009E406B69B3436B61E4E7074E45353000E5
:101DC00001F068FAFF2366822B70DBE75001000008
:101DD000462000000511000045200000F0B58F7975
:101DE00004000D0085B08E1C012F31D94020022F38
:101DF00035D17079F7F72CFE324B010098422DD087
:101E0000314B5A6901230392727903989C46D04062
:101E1000184223D13079A0732000283002702A485C
:101E2000237B44300370604690400200039B1A43BA
:101E3000254B5A61B37B002B00D067466A7C20009B
:101E40000192AA886B8800923A00FFF717FF33E0EF
:101E50001D4B1A0045321178FF2902D0432005B0EE
:101E6000F0BD017B4433877319701170102300217A
:101E7000164A17481FF004FC00230370A37B0700D9
:101E8000002B1BD1290006220330083121F0FCFF72
:101E9000337BBB70737B7B70B37B002B03D002233F
:101EA0003A7813433B706B8838007B817388BB8121
:101EB00001F09EF9054B63820020D0E701230370F7
:101EC000EAE7C046FFFF0000500100004420000088
:101ED0000511000010B52C21FEF770F904004B200D
:101EE000002C10D003234A386373FCF7AFFA064B7B
:101EF000A0822360054B20006360054B0021A36096
:101F0000FEF7E0F9002010BDDD1D01184D1D011880
:101F1000751C011810B50400E369002B01D1A384DE
:101F200010BD20001C3020F025FC1FF0FFFBF3E764
:101F3000F7B5B0236A46002713715771012001AA33
:101F40000C00FCF7BDFB0500012824D1164A63787C
:101F500012789A4221D9154A9B0012689E58BE42B7
:101F600020D0F268124B43211340124A934215D1FC
:101F7000337C034212D0104A042339000F481FF06B
:101F80007FFBF38C0380A378837001F031F90C4B55
:101F9000627844331A702800FEBD40210120FCF70E
:101FA00063FBF8E74321F9E7050600004C01000058
:101FB00000FF00FF0003000359200000051100008E
:101FC0005001000013B50C00010001A8FEF744F910
:101FD000002805D00198C37B022B03D0042B09D025
:101FE000002016BD2178002901D07039C9B2FEF752
:101FF0009DF9F5E70021FEF7B1F9F1E710B50120F1
:102000000C00FCF70DFAB02807D12178002901D087
:102010007039C9B20120FCF727FB002010BD000079
:10202000F8B51F4B0C0045331B78FF2B2ED01D4AF3
:102030009B0012689E58002E28D04F78002F27D181
:102040004B88327CF38401231343B18A0722337413
:10205000154810231FF014FB0500337B0622037084
:10206000237BA11D4370E389438023790371237C83
:10207000437163790630837121F006FF2800EF81F8
:102080001FF022FBFF22064B45331A700020F8BDDB
:10209000390070393000C9B2FEF760F9F2E7C04686
:1020A000500100004C010000A90D0000F7B5488860
:1020B0000C00F7F7B1FC01000700F0200001FFF76A
:1020C0009FFD061E37D0FF2F35D06178002934D10F
:1020D000E388027CC38401231343818A03740722AB
:1020E000102318481FF0CCFA21000500337B06228C
:1020F0000370237C0A314370638A4380237A03711F
:10210000237D4371637A0630837121F0BDFEA3887D
:102110002800EB811FF0D8FA00220A23618801927F
:10212000009330001300FFF7A9FD0123BB40064ACE
:102130005169994351610020FEBD7039C9B2FEF763
:102140000DF9E9E7A90D00005001000070B50C0081
:102150004888FF21FFF754FD051E0BD0E679012EBC
:102160000AD0022E13D00025AE4203D10122210055
:10217000FFF7A8FD280070BD2100828C237A0C395E
:102180009B1883841C3020F0ADFA3500F2E7037C05
:102190001D003540334205D000222100FFF792FD9B
:1021A0000025E7E7FFF7B6FEE4E710B54888FF2112
:1021B000FFF726FD002806D00122037C4621934329
:1021C0000374FEF7CBF8002010BD000070B50500C9
:1021D0000823818A072208481FF052FA29000622A4
:1021E0001631040021F050FE0123A3712B7B200047
:1021F000E3711FF069FA70BD080D0000F8B5050025
:102200004478264B1B78A34223D9254FA3003A6874
:102210009E58002E36D0737B032B33D0737C002B5B
:1022200030D0F37B013B032B2CD86B78002B08D1EB
:102230001C4B0721DA8BFA239B005A431A481FF0E4
:10224000E3F8737B013B012B03D8AB78FF2B0DD157
:10225000AC70124B1A78134BA24216D0621C6A70F3
:10226000443300201C7000F021F8F8BD30003A68BB
:102270009B00995816300622163121F005FE3000D9
:10228000FFF7A4FF0134E4B2BBE7FF22443300218F
:1022900001201A70FCF7E8F9E7E7C04605060000E0
:1022A0004C01000050010000F10D0000F8B52E4C6B
:1022B0002E4A26004436337812689B009D58012828
:1022C00023D0023801280CD8230000224A330120F1
:1022D0001A70FCF7A5F8F0283FD16068FFF78EFF71
:1022E00012E007220523110021481FF0C9F9182325
:1022F00003706B7C4A34023B5A1E93419B0103716D
:102300001FF0E2F901232370F8BD2F00697B163717
:102310004A34002911D10723164A17481FF0B0F993
:1023200006002B7B062203703900013021F0ACFD42
:10233000300000F05DFF0323E5E7062300210F4A8C
:102340000D481FF09DF905000622390021F09CFD83
:10235000280000F04DFF0223D5E7FF23280033704B
:10236000FEF76EF8D0E7C046500100004C010000B7
:10237000160D0000352000000511000005200000AA
:10238000002210B5034B07214A3303481A701FF08F
:10239000D5F810BD50010000F10D000010B50C4B38
:1023A0001A680C4B1B789B009B189A4201D10120A4
:1023B00010BD1168002906D04C7B013C012C02D8CD
:1023C000497C814201D10432EFE70020F0E7C046AA
:1023D0004C0100000506000070B5457B0400437CFD
:1023E000002D21D1002B06D12000062220491630D5
:1023F00021F04AFD0125637C1E4E002B0DD00721E4
:102400001D481FF0E5F8002807D1FA22F38B92004F
:1024100007215A4318481EF0F7FF237B2800443653
:102420003370FFF743FF70BD002BDDD00226134B46
:102430001A68134B1B789B009B189A4201D1002508
:10244000D9E71168002907D0487B0138012803D853
:10245000CD7BB543012D01D00432EEE720000622EA
:102460001631163021F010FD2000FFF7AFFEC2E755
:102470008001000050010000F10D00004C0100003F
:102480000506000037B5F0236A46137100230120CA
:10249000537101AA0D00FCF713F90400012802D1C1
:1024A0002800FFF7ABFE20003EBD0000072210B55C
:1024B0001100032306481FF0E3F8F0230024037003
:1024C0000F33447083701FF0FFF8200010BDC0462A
:1024D000F30D0000F8B51E000E4B0C001A004A3236
:1024E00017780020012F14D10B4A44331B7812684F
:1024F0009B009D5885420CD028000622163021F002
:10250000C3FC2B7B2000E3713200A98A1FF0FDF889
:102510003800F8BD500100004C0100000B7810B5E8
:10252000182B06D1044B4A331878012801D1FFF744
:10253000BDFE002010BDC046500100000B4B10B581
:10254000984204D00A4B984209D0002010BD094B94
:102550004A3318780228F8D1FFF7A8FEF5E7054BB3
:102560004A3318780328F0D1F6E7C046052000006A
:102570003520000050010000F7B50024142501901B
:102580001E4B1B78A34200D8F7BD019B012B27D01F
:10259000022B0FD0002B0AD1194B200019682B00F9
:1025A00063430A30C9180882C0B21FF0A1FB01348E
:1025B000E4B2E5E72E00124F66433B689B19588A48
:1025C000104B1B689847031E03D03A685B6890194C
:1025D00098473B689E19FF23308A18401FF096FCED
:1025E0002A00074B62431B689B18FF225A82002275
:1025F0001A605A609A60DA60D9E7C04606060000A1
:10260000A0010000A4010000F0B5224B85B00391A9
:1026100004001B684088984706004020002E37D0F1
:102620001D4B142219781D4B4A431B681800D21801
:10263000904205D10022D5B2A94208D8002022E05C
:10264000458A67881430AF42F2D1422020E014203E
:10265000504302901800478A01321433FF2FEAD109
:102660002700083700976378A2883668A11DB04715
:10267000002808D1094B029A1B689B1862885A826D
:102680001B8A039A1380044B1B78AB4200D14B206A
:1026900005B0F0BDA401000006060000A001000086
:1026A000F8B5050000240C4B1B78A34200D8F8BDF8
:1026B00014260A4F66433B689B19588A084B1B68CF
:1026C0009847031E04D0386829009B6880199847F2
:1026D0000134E4B2E7E7C04606060000A0010000AE
:1026E000A4010000F7B50D00002401900C4B1B78ED
:1026F000A34200D8F7BD14260A4F66433B689B19D6
:10270000588A094B1B689847031E05D038682A0071
:10271000DB680199801998470134E4B2E6E7C046C6
:1027200006060000A0010000A401000010B5094A3F
:10273000094B117814224A431B68D218934201D1E5
:10274000002006E0190014339C1E24888442F5D131
:10275000C86810BD06060000A001000043885804A8
:102760001BB2400C002B01DA0902084370470388B2
:1027700058041BB2400C002B01DA090208437047D1
:1027800030B50B4A040AC1B210781422094B4243F7
:102790001B68D218934201D1FF2306E018001433BE
:1027A0001D1F2D888D42F5D1438A2002184330BD6C
:1027B00006060000A001000030B50B4A040AC1B2B1
:1027C00010781422094B42431B68D218934201D15E
:1027D000FF2306E0180014339D1E2D888D42F5D18D
:1027E000038A2002184330BD06060000A001000045
:1027F0000B7903704B7943700B8883701B0AC3708D
:102800008B7903714B8843711B0A8371704703787E
:102810000B7143784B71C37882781B0213430B8092
:1028200003798B71837942791B0213434B80704784
:1028300070B50C0004AB1D88FFF790FF2102062441
:10284000020021430A2306481EF01AFF84235B007E
:10285000038000238580C38003811EF035FF70BD97
:10286000080C0000138870B50C001500002B11D067
:10287000FFF774FF210206240200082306482143C3
:102880001EF0FEFE102303702B8883806B88C380AC
:102890001EF01AFF70BDC0460F0C0000138870B503
:1028A0000C001500002B11D0FFF758FF2102062461
:1028B00002000823064821431EF0E2FE11230370A4
:1028C0002B8883806B88C3801EF0FEFE70BDC046DF
:1028D0000F0C000070B50D001400FFF73FFF290238
:1028E0000625020029431A2307481EF0C9FE0123CA
:1028F0008380023BC380054B0472240A0380447228
:102900001EF0E2FE70BDC046190C0000150200006A
:1029100070B50C001500FFF721FF2102062402000C
:102920002143282309481EF0ABFE012304008380C5
:10293000023BC380064B290003801022083021F09F
:10294000A3FA20001EF0C0FE70BDC046190C0000A6
:1029500015100000F7B51E0008AB1F8809AB1B78E7
:102960000C00151E01931DD0FFF7F8FE3B0021025D
:1029700006240C33020021439BB20B481EF080FE5C
:102980000023C3804381019B0400037001238580E1
:10299000078143703A0031000C3021F075FA2000B5
:1029A0001EF092FEF7BDC0460A0C00001FB56C4633
:1029B00023731B0A63730C2301930A3B009303AB3D
:1029C000FFF7C8FF1FBD0623F0B54343852600204F
:1029D00083270232CB18994201D0002800D0F0BDE5
:1029E0000C88002C06D11478FF2C00D13800063159
:1029F0000432F0E755780C792C40A542F7D030002E
:102A0000F5E70623F0B543438526002083271132DE
:102A1000CB18994201D0002800D0F0BD0C88002CC2
:102A200006D11478FF2C00D1380006311332F0E7BC
:102A300055780C792C40A542F7D03000F5E7F0B579
:102A4000450006260020832702324D19A94201D0F5
:102A5000002800D0F0BD0C88002C08D11478FF2C81
:102A600005D154787443E45A002C00D03800043265
:102A70000231EBE7F0B5450006260020832711322E
:102A80004D19A94201D0002800D0F0BD0C88002CBF
:102A900008D11478FF2C05D154787443E45A002CE3
:102AA00000D0380013320231EBE7F0B58BB0099358
:102AB00010AB1B780892119A9B00D3180693040060
:102AC000002307910093A28A658A0099531B9942BB
:102AD00001DB0BB0F0BD162300994B43E318997D41
:102AE00002296ED11F8BBA426BD3009A52199742BA
:102AF00067DDDB7D00260493EB43DB19DBB2029339
:102B00001623029A53431833E3180393099B019346
:102B1000F3B20593079BB34253D0019B1B88002B54
:102B200056D1089AB300D25A1623029903984B4300
:102B3000E318D97DF1F738FC002849D0009B013516
:102B4000ED18019B049A1D80009D5F801A71162369
:102B500002950135EDB26B43E218927D042A1CD137
:102B60001833E318129F119E0393069BB34214D0AF
:102B70003B88002B29D1F378059A934225D116235F
:102B80006B43E3183288D97D0398F1F70DFC0028D8
:102B90001BD0638A01335B193B80638AA28A0133AD
:102BA0005B19934206DC16236B43E3189B7D013BC4
:102BB000012BCCD8009A029B9B1A019A5371029B5D
:102BC0000093009B0133DBB27CE704360237CCE78D
:102BD000019B0136063301939AE7F0B58DB00B9354
:102BE00012AB0A921A7813235343139A0400D31892
:102BF0000893002309910193A28A638A01990393A0
:102C0000D31A994201DB0DB0F0BD162301994B4355
:102C1000E318997D022972D11E8BB2426FD3019ABB
:102C20000399521896426ADDDB7D00250693CB435B
:102C30009B19DBB204931623049A0A9F534318335B
:102C4000E31805930B9B0293EBB20793099BAB42EE
:102C500055D0029B1B88002B58D1162104983B7835
:102C600041436118C97D05987A1CF1F773FB002870
:102C70004CD0039B019A01339B18029A019D13804B
:102C800013005680069A1A71162303950135EDB28A
:102C90006B43E218927D042A1DD11833E318149F68
:102CA000139E0493089BB34215D03B88002B2AD176
:102CB000B37C079A934226D1162169436118337871
:102CC000C97D0498721CF1F745FB00281BD0638A6C
:102CD00001335B193B80638AA28A01335B199342FB
:102CE00006DC16236B43E3189B7D013B012BCBD8FD
:102CF000019A039B9B1A029A5371039B0193019BB8
:102D00000133DBB277E713360237CBE7029B01359D
:102D100006330293133797E7F0B58DB00B9312ABE0
:102D20001B780A92139A9B00D3180893040000237F
:102D300009910193A28A638A01990393D31A994254
:102D400001DB0DB0F0BD162301994B43E318997DCB
:102D5000022971D11E8BB2426ED3019A0399521887
:102D6000964269DDDB7D00250693CB439B19DBB2E0
:102D700004931623049A0A9F53431833E3180593C8
:102D80000B9B0293EBB20793099BAB4254D0029B7F
:102D90001B88002B57D1162104983B7841436118BA
:102DA000C97D05987A1CF1F7D5FA00284BD0039B12
:102DB000019A01339B18029A019D138013005680DB
:102DC000069A1A71162303950135EDB26B43E2188A
:102DD000927D042A1CD11833E318149F139E049388
:102DE000089BB34214D03B88002B29D1F378079A73
:102DF000934225D116236B43E3183288D97D04987A
:102E0000F1F7D2FA00281BD0638A01335B193B80AB
:102E1000638AA28A01335B19934206DC16236B4353
:102E2000E3189B7D013B012BCCD8019A039B9B1A95
:102E3000029A5371039B0193019B0133DBB278E744
:102E400004360237CCE7029B013506330293133771
:102E500098E7F7B5002405000E001F000092A3427A
:102E600001D1089B9C8831002800FFF780FC3100CD
:102E700001902800FFF772FCA31D02009BB201998C
:102E800000981EF0FDFB00230380089B05000771DE
:102E90004480002B07D01B8822000380089B05304C
:102EA000991D20F0F1FF28001EF00EFCF7BD0B88E5
:102EB00003701B0A43708B788370CB78C3700B79D7
:102EC00003714B7943718B79837107207047437885
:102ED00002781B0213430B8083788B70C378CB700E
:102EE00003790B7143794B71837907208B7170479C
:102EF000F0B5124C00220127A446114B91420CDC84
:102F0000082200200F4C1900400821405B00013AC4
:102F100008439BB2002AF6D1F0BD0824855CDE0B85
:102F20006E405B009BB23E4201D066467340013C5E
:102F30006D08002CF3D10132E0E7C04621100000FB
:102F4000FFFF00008080FFFF10B50400F1F798FD3F
:102F50002000FBF781FC2000F6F7C2FA2000EFF713
:102F60009BF810BD10B5041E05D1094B02000100ED
:102F70001B6801209847074B012109209C601EF027
:102F800013FFA289A07B044B616820F0F9FE10BDFD
:102F900058060000A80100009D2F011810B50B4C29
:102FA000A2689368002B01D050689847A0681EF073
:102FB00029FD2168002905D020001FF0DBFBFFF769
:102FC000D1FF10BD09201EF0EFFEFAE7A8010000B6
:102FD00010B5064909201EF08BFE002109201EF0C5
:102FE000E3FE03481FF068FB10BDC046883001189F
:102FF000A8010000F7B505000E0017000193052891
:1030000017D1022110201EF073FC019B0400868161
:1030100047608573836009201EF034FF002803D1C8
:103020002000FFF79FFFF7BD210005481FF05AFB66
:10303000F9E7044B0A001B68010003209847F2E7F8
:10304000A80100005806000070B50D000C3D28894D
:103050000C00FBF789FA2881E888FBF785FA220043
:103060006989E88008310520034B083A89B2FFF7E7
:10307000C1FF012070BDC0467D30011810B5043875
:103080001EF054FB10BD000094300118B401000084
:1030900001000100FFFF000049300118F8B50600EB
:1030A0000C3E05004B4BB088984212D04A4B9842D8
:1030B00034D04A4B1B78002B00D086E02C00484BC4
:1030C0000C3CC018052842D820F0B2FE39395059BE
:1030D000417D337A3F2B23D85A1E4249D2B2D408BD
:1030E0000F5D072422401741BC46012761463A0084
:1030F0008A4339420CD03E2B0AD12B783949013B07
:10310000DBB2DA0889180A7C23401A4197433A0057
:10311000002ACED030001EF009FB47E03E23DBE75B
:10312000582BC6D8403BDBB22E4AD908521807218B
:10313000127A0B401A41130001229A43E8E72089D2
:10314000072300282ED001F081FB002802D10421A2
:10315000A2882DE083789B069B0F012B13D0022BB6
:1031600031D00321002BF3D107231BE0207A01F09B
:103170009FFB0028EBD0032243781340EDE728782B
:1031800001F0A8FBF5E7184BE2881B7893420ED9B3
:103190001000F6F741FC08221300FF2802D09040EF
:1031A000104383B22800E3801EF08EFAF8BDA18898
:1031B0000E4B03201B6898470C4B03202289A188E3
:1031C0001B689847A6E70423ECE7300000F062FB99
:1031D000ECE7C0460311000004110000D401000018
:1031E000FFEEFFFFBC0100000506000058060000CE
:1031F00070B50400224B05001B780C3C002B38D125
:10320000A388204A934216D01F4A934209D11F4BEC
:10321000E2881B7893421FD81D4B0320A1881B68AE
:10322000984703201A4B2289A1881B6898472000E1
:103230001EF07CFA18E0208901F008FB0028F0D08D
:103240000F23807818400828EBD820F0E7FD10E025
:1032500010E0EAEAEAEA0E00130201221A4392B2EF
:103260002800E2801EF030FA70BD0222F8E700224A
:10327000F6E70022064B110001201B68D6E7C04686
:10328000D401000005110000061100000506000031
:1032900058060000002310B50200190002481EF075
:1032A000EFF9FFF7A5FF10BD0511000070B50C4B3D
:1032B00004001A78824204D80A4B01001B680320DC
:1032C0009847094D2B681B5D002B05D00022054B4C
:1032D000110001201B68984701222B681A5570BD08
:1032E0000506000058060000B801000070B50C4B40
:1032F00004001A78824204D80A4B01001B6803209C
:103300009847094D2B68195D002904D1054B0A0027
:1033100001201B68984700222B681A5570BDC046D3
:103320000506000058060000B8010000030010B5B3
:1033300004292AD8080020F07BFD0303091023008C
:103340000A000320144B1B68984717E00822190055
:103350001248801820F098FD10E0104C1900200051
:10336000082220F091FD002320000D4C0278195D09
:1033700001330A4302700130082BF7D1002010BD41
:103380000648082219001030E4E70022024B110021
:1033900001201B68D8E7C04658060000BC010000A9
:1033A0001034011810B5041E05D0022805D02000E5
:1033B00000F0F4FA10BD0C4B1870182200210B48D5
:1033C00020F07EFD0A4B00211A780A4B186820F085
:1033D00077FD03210848FFF7A9FF04210748FFF7FD
:1033E000A5FF01F025FEE2E7D4010000BC010000CA
:1033F00005060000B8010000003401180834011867
:10340000FFFFFFFFFF9F0020FFFFFF0700000000FE
:1034100000600400F8074002F0B5A44B87B01C68B8
:10342000002C09D101F046FE002800D18BE09F4B13
:103430009C68002C00D186E09C4B1C61A1889C4BB1
:10344000C818052800D927E120F006FD060058001D
:103450007F00D00026011101944B5B7D5BB2042BF1
:1034600002DC924A013353750E26E31D039302AB2F
:103470002589F61863892800338001F0E7F9021ED8
:103480001FD03388002B1CD08768002F17D0200056
:1034900092780C307F2A0DD80100320000971EF080
:1034A000B5FE0100002910D02A00824B1B680320C2
:1034B00098470AE001003200B847C1B2F2E70421A0
:1034C000F2E7002D15D0012323730E23E371328818
:1034D000764B0332D2B222725B7D191C5BB2002B99
:1034E00000DA0021A5722D0A6172E5720420023211
:1034F00022E0704B290032881B68D8E76B4B5B7D5C
:103500005BB2042B02DC694A013353750F22E31DC1
:103510000393E2710B3A23892272227B6272634A1F
:10352000527D111C52B2002A00DA0021042006222A
:10353000E3721B0AA172237300235C490B755E4B77
:10354000039920F01DFC07B0F0BD23000E270A33BD
:10355000039302AB2189FF186389CEB23B80FF2918
:1035600004D9544B002203201B689847300001F017
:103570009FF9021E33D04568002D19D020009278A3
:103580003B880C30002A0ED100953A0001001EF055
:103590003DFE0500002D0ED0464B320029000320D1
:1035A0001B68984708E03A000100A847C5B2F1E758
:1035B0006389002B11D1002562893B889A4205D28C
:1035C0003C4B3200290003201B6898470E2302AAB7
:1035D000A6729B181B88E37206E00425DCE7354BD6
:1035E000310003201B689847E27A7FE723000A3303
:1035F0000393267B638902AAD381300001F06AF924
:10360000021EECD04568002D2FD02000927802AB2E
:10361000DB890C30002A21D102A90E320095521804
:1036200001001EF0F3FD0500002D05D0214B3200F6
:10363000290003201B6898470E2702ABFF18398822
:1036400063898B4204D21B4B320003201B689847CE
:10365000002DC9D13E23A3723B88BCE70E2202A9EC
:1036600052180100A847C5B2DEE70425DEE721694C
:1036700012480B1F0918A289039111495A54114984
:10368000120A5A54E2891049100A5A540F49043256
:10369000585492B202204FE7064B002203201B68C9
:1036A000984700200200039046E7C046DC01000076
:1036B000FFEEFFFF58060000D1360118FC3F005016
:1036C00000400050014000500240005003400050B4
:1036D0002E4B70B52E4C1B68256998472D4BAA8838
:1036E00006009A4212D12B7B022B04D00222190031
:1036F00091430D2924D1217E002905D1264B0A00B2
:1037000001201B68984701E00139217601232375C8
:10371000A988224B99421BD8053B99422FD923698E
:10372000002B03D020001FF025F8050028001DF015
:10373000FDFF1B4B30001B689847FFF76DFE70BD07
:10374000152BE3D1E17D0029D8D00139E175DDE702
:10375000144B994213D1200008301FF00BF8124B84
:103760001A78AB891B051B0D9A4203DD2B6998B2B1
:1037700003F004F90023236101F086FCCFE7064B38
:10378000002203201B689847C9E7C046E4050000F3
:10379000DC010000041100005806000005110000C3
:1037A000E80500000611000005060000F0B587B02E
:1037B00006000D001700039300285AD08468002CDF
:1037C0004FD083787F2B29D80E2202A952180021CE
:1037D00000940800294B1EF019FE0400002C38D17B
:1037E000B368022218002649029320F03FFB0E2303
:1037F00002AA9B181E88002819D12A002100330034
:1038000020481DF03DFF022204000770023003999A
:1038100020F03AFB2000FFF741FC20E000230E22BD
:1038200002A9521818001900A047C4B2D6E7032213
:103830001549029820F01AFB33002A0021000028C5
:103840001AD110481DF01CFF062204000770013039
:10385000DDE70E4B2A00210003201B68984707B0C4
:10386000F0BD0A000123210009481DF009FF07707F
:10387000D1E70A00012301000248F6E7FFFF00003C
:103880005EDD0118011100005149011858060000C1
:10389000021100003B4B70B505001B689847AB88D0
:1038A000394A0600394C934205D1200029000830DE
:1038B0001EF018FF36E0364A934207D12B7B0F2BC0
:1038C0003AD006D8022B27D00D2B0AD02900200091
:1038D000EEE7152BFAD1E37D032B20D80133E375F6
:1038E000F4E7EB89E97D5B069B0F01290DD1627E30
:1038F000022A39D0002A02D1227E032A34D8013B81
:103900005A425341DAB2002331E0A27EF0E70123AC
:1039100000222CE0A2762DE0237E032B1DD9280067
:103920001DF004FF1B4B30001B689847237D012BC3
:1039300001D1FFF771FD70BD174AA97B1068EB7CC0
:103940004218415C022918D0002902D1217E0329A6
:1039500013D8013B59424B411370237E0133237628
:10396000B4E700231370DAE7012BD0D1022201293A
:10397000D0D16276002BF0D0D1E7012BF1D1022318
:10398000F0E7C046E405000006110000DC0100007D
:1039900004110000E8050000D801000070B5051E04
:1039A0000C4C14D101001C22200020F089FA0A4B93
:1039B00029001A78094B186820F082FA20001EF0BE
:1039C0007BFE200008301EF077FE012323750523BF
:1039D000637570BDDC01000005060000D801000021
:1039E00010B500F033FFFF23002800D0C378D8B211
:1039F00010BD0000F0B589B005000391029200F0FF
:103A000025FF070001205C4B5C4C1870637D7F2B09
:103A100004D900225A4B11001B689847594B9D420C
:103A200002D0637D013B6375002F00D1A1E0637D6F
:103A30007F2B00D96CE00F21BB7804931940082933
:103A400045D8080020F0F4F90526052643434343F2
:103A50004A0000260E2204ABD21800239C46138095
:103A6000039B634541D07C68644554D040216B463C
:103A700004989B89084005900498084230D100942E
:103A8000029905981EF0C2FC0400012C2ED10023DF
:103A9000122217E0039B012B12D9029B1A785B7844
:103AA0001B021343384A12789A4209DD374A1268DA
:103AB000D25C002A04D001221B0213439EB2C9E744
:103AC0000222029B29003800FFF770FE04E02C4B15
:103AD0002A0003201B68984709B0F0BD0226B9E709
:103AE00060460299A047C4B2CFE7039C04AB310003
:103AF0002A00DB8926481DF0C3FD0600002C05D0F6
:103B00001F4B2A00210003201B689847002E04D178
:103B100000230722D6E70424E8E704ABDB89002B67
:103B200012D07B689C46002B0ED06B46BA789B89DE
:103B3000520615D4624600920E2204A95218300093
:103B400002991EF063FC0400002C05D00C4B2A00E7
:103B5000210003201B68984730001DF0B5FDBBE72E
:103B60000E2204A96446521830000299A047C4B23C
:103B7000EAE73B000122A5E7D4010000DC010000D8
:103B800058060000350C000005060000B8010000D2
:103B90000511000070B5134A0C00117802050300EE
:103BA000120D002091420BDD9B0B834208D11800BF
:103BB000FB2C05D802F028FF011E02D00A4BC018CA
:103BC00070BD01231A2209481DF05AFD0125057018
:103BD000FFF764FA022120001DF08AFE044B9D7558
:103BE000EEE7C0460506000000400050031100004B
:103BF000DC010000F8B5174B06009C7D0D00170096
