:020000041800E2
:10700000F7B50F004A688021436806008068D51AEA
:107010000090B8682D012D09090501908D4227D9EE
:107020009B1A1B011B095D42002B03D1019B009A97
:1070300093421FD8019B3F690524D819009BC01AB1
:10704000002834DD1B49013801F096F8E8422ED4BF
:10705000009B3069013C1818019BC01AC01B002816
:1070600025DC154901F088F84519EC0F03341EE0C2
:10707000002DDBD00024009B36699E19019BF61A77
:10708000A64214DD0C49701E01F076F84019A042AA
:107090000DDC38690134301A002808DD0649013852
:1070A00001F06AF845196C1E2C43E40F01342000EE
:1070B000FEBDC046710200008FFDFFFF30B500200D
:1070C0000A240125074B19681B790133220042432A
:1070D0008A18527A2A4203D00130C0B28342F5DACC
:1070E00030BDC04694BA00000A4B9A685879002314
:1070F0000632984204D1C01A43425841C0B2704788
:107100002732110027390978FF29F4D10133DBB286
:10711000EFE7C04694BA00000020024B0433D87752
:107120007047C04628BD0000442130B5104BDA68D6
:107130001B791400594300234034994201D10120A6
:1071400030BDE05C851E012D05D8D058C07C0028DC
:107150000BD14433F1E7072802D1D0584078F6E745
:107160000528F6D1D0580078F1E70020E8E7C046BE
:1071700094BA000030B50C4A0124D3681179442236
:107180004A4340330948D218934201D1002030BD10
:10719000197844331129F7D80500CD40290025007E
:1071A0008D43F1D10120F2E794BA0000AC40020017
:1071B000002270B50C001900084BD000C518185AF1
:1071C000884205D16B68181E01D02000984770BD19
:1071D0000132522AF1D10020F9E7C04640F40018EC
:1071E00070B5438805000C00DB0605D50022104B66
:1071F000110001201B6998476B880120190001408C
:10720000034203D10A4B0A001B699847698806228A
:107210004B0700D59218D31C490600D4931C0133A8
:10722000DBB21B190020FE2B00DD123070BDC04602
:1072300094BA00000020084B1A79DB684033824280
:1072400000D1704744331900443909780E29F8D029
:107250000130C0B2F3E7C04694BA0000F8B50D00A3
:1072600006A90E780168070088190124824211D30B
:107270001C1E09D02A6828689419A342A441320030
:10728000644264001EF054F83B689B193B602B6815
:107290009E192E602000F8BDF0B589B0050002915E
:1072A00003920791002940D0CE1801231788069039
:1072B000C719009332003B0006A907A8FFF7CEFFCD
:1072C0000400031E26D0069B5D1B039B1D8020002F
:1072D00009B0F0BD013305935B000493EB180693EE
:1072E00002233200009306A93B0007A8FFF7B6FF70
:1072F000002818D1049A06A90232AB18069302237B
:107300003200009307A83B00FFF7A8FF00280AD12E
:107310006B461B7D0299069A0978521B9942D2D975
:10732000062AD7D9CFE70400CDE70623039A029CAB
:107330001380CCE7F0B58DB007001D0008001023C6
:1073400005920791002941D0002F43D001231488D2
:1073500004933C190126451923002A00009606A92A
:1073600007A80697FFF77AFF00282DD1BB190693CF
:107370002A002300009606A907A8FFF76FFF002840
:1073800022D1BB1C06932A002300009606A907A859
:10739000FFF764FF002817D1B978039000291DD1A9
:1073A000039B022B04D9254B0A0001201B69984737
:1073B000049B5E4234403E00002308360493049A46
:1073C000039B934212DC0020069BDB1B059A138073
:1073D0000DB0F0BD04970CAC08AFBBE7314203D051
:1073E000039B0133DBB203934908D7E7331F0693AE
:1073F00001232A00009306A9230007A8FFF72EFF08
:107400000028E1D1B31E069302232A00009306A9A7
:10741000230007A8FFF722FF0028D5D102232A0066
:10742000009306A9230007A80696FFF717FF063664
:107430000028C9D1049B0133C0E7C04694BA0000BC
:10744000F0B599B01D0002903A23081E05920891EC
:1074500060D0029B002B61D001271488029B1C196D
:107460000126029B451907932A002300009607A9CD
:1074700008A8FFF7F3FE002849D1029B2A009B19B8
:1074800007930096230007A908A8FFF7E7FE002846
:107490003DD1029B2A00023307930096230007A9DF
:1074A00008A8FFF7DBFE002831D1029B2A00033336
:1074B0000793062307A9009308A82300FFF7CEFE31
:1074C000002824D1029B2A00093307930096230049
:1074D00007A908A8FFF7C2FE002818D1029B597A15
:1074E0000390002921D1039B032B04D9434B0A00AD
:1074F00001201B6998477F4200233C400227029EDF
:1075000004931836039B049A934216DC0020079BD1
:10751000029A9B1A059A138019B0F0BD4E2404AB51
:10752000E41809AB029F02939AE7314203D0039B10
:107530000133DBB203934908D3E733000E3B0793D3
:107540002A002300009707A908A8FFF787FE002854
:10755000DDD133000C3B07932A002300009707A9D5
:1075600008A8FFF77BFE0028D1D133000A3B079320
:107570002A002300009707A908A8FFF76FFE00283C
:10758000C5D13300083B07932A002300009707A9C1
:1075900008A8FFF763FE0028B9D1B31F07932A009C
:1075A0002300009707A908A8FFF758FE0028AED1CE
:1075B000331F07932A002300009707A908A8FFF7A5
:1075C0004DFE0028A3D1B31E07932A002300009785
:1075D00007A908A8FFF742FE002898D123002A0037
:1075E000009707A908A80796FFF738FE103600286D
:1075F00000D08CE7049B0133049383E794BA000026
:10760000F0B58BB007000C1E0492079166D00028DD
:1076100032D015880122451905920126E3180393FB
:10762000039A2B00009606A907A80697FFF716FEF7
:10763000041E1AD1BB190693039A2B00009606A9C3
:1076400007A8FFF70BFE041E0FD17B783F2B05D94F
:10765000244B020001001B6930009847059B5E42E5
:10766000354000267B78B3420AD8069BD81B049B82
:10767000188020000BB0F0BD05900AAD08AFCCE734
:10768000B31C0593FB1806930123039A009306A9E4
:107690002B0007A8FFF7E2FD00281DD1B21C530004
:1076A0000222FB18069300922B00039A06A907A852
:1076B000FFF7D4FD00280FD1B31DFB18069301235B
:1076C000039A009306A92B0007A8FFF7C7FD00281F
:1076D00002D10136F6B2C5E70400C6E70823049AD2
:1076E0001380C6E794BA0000F0B595B00C001D00F9
:1076F00003900592002900D184E000282CD0168840
:107700008619039B65190793089301232A000093A8
:1077100007A9330008A8FFF7A1FD041E14D1039B9D
:107720002A0001330893012307A9009308A8330016
:10773000FFF794FD041E07D1039F04900A37039BB3
:10774000049A5B7893420DDC079B039A981A059B79
:107750001880200015B0F0BD3F2604ABF61809AB29
:107760000393CEE73B00083B089301232A000093D4
:1077700007A9330008A8FFF771FD002840D1FB1FBF
:10778000089301232A00009307A9330008A8FFF7F4
:1077900065FD002834D10622BB1F089300923300F8
:1077A0002A0007A908A8FFF759FD002828D10123BE
:1077B0002A00009307A9330008A80897FFF74EFD99
:1077C00000281DD13B787A1C089200932A003300D0
:1077D00007A908A8FFF742FD002811D13A000123AC
:1077E0002032089200932A00330007A908A8FFF767
:1077F00035FD2937002803D1049B013304939EE70C
:107800000400A1E7059B1980A3E7F0B58FB006003F
:107810000C001D000592002900D186E0002829D027
:107820001788C7190123651900932A003B0007A98F
:1078300008A807960896FFF711FD041E13D1731CC4
:10784000089301232A00009307A93B0008A8FFF72B
:1078500005FD041E07D133001133039304907378A0
:10786000049A93420BDC079B9E1B059B1E80200005
:107870000FB0F0BD262704ABFF1809AED2E7039B7B
:107880002A000F3B0893012307A9009308A83B0097
:10789000FFF7E4FC002846D10123039A00930E3A37
:1078A00008923B002A0007A908A8FFF7D7FC002888
:1078B00039D1039A3B000D3A0892062207A900929B
:1078C00008A82A00FFF7CAFC00282CD103992A0037
:1078D000CB1F0893012307A9009308A83B00FFF7DB
:1078E000BDFC00281FD10622039900928B1F08932C
:1078F0002A003B0007A908A8FFF7B0FC002812D116
:107900000123039A009308923B002A0007A908A8C4
:10791000FFF7A4FC039B10330393002803D1049BBF
:10792000013304939BE704009DE7059B19809EE7C4
:10793000F0B5C9B00C001D0003900592002900D1DC
:10794000E0E000282CD016888619039B6519069361
:10795000079301232A00009306A9330007A8FFF725
:107960007DFC041E14D1039B2A00013307930123DD
:1079700006A9009307A83300FFF770FC041E07D187
:10798000039F04901937039B049A5B7893420BDCA6
:10799000069B039A981A059B1880200049B0F0BDF9
:1079A00008AB48AE0393D0E73B00173B0793022395
:1079B0002A00009306A9330007A8FFF74FFC002810
:1079C00000D09DE03B00153B079301232A00009364
:1079D00006A9330007A8FFF741FC002800D08FE07C
:1079E0003A000623143A079200932A00330006A9AE
:1079F00007A8FFF733FC002800D081E03A000123FC
:107A00000E3A079200932A00330006A907A8FFF751
:107A100025FC002874D13A0001230D3A0792009307
:107A20002A00330006A907A8FFF718FC002867D131
:107A30003A0001230C3A079200932A00330006A96A
:107A400007A8FFF70BFC00285AD13A0001230B3A94
:107A5000079200932A00330006A907A8FFF7FEFB50
:107A600000284DD13A0001230A3A079200932A00D8
:107A7000330006A907A8FFF7F1FB002840D13A0020
:107A8000093A079202223300009206A92A0007A8A9
:107A9000FFF7E4FB002833D1FB1F079301232A00E3
:107AA000009306A9330007A8FFF7D8FB002827D1C9
:107AB000BB1F079306232A00009306A9330007A8DB
:107AC000FFF7CCFB00281BD101232A00009306A955
:107AD000330007A80797FFF7C1FB002810D13B78B8
:107AE0007A1C079200932A00330006A907A8FFF723
:107AF000B5FBFE37002803D1049B0133049342E712
:107B0000040045E7059B198047E7F0B5B7B00700CB
:107B10001D000492002900D1BAE0002800D193E0B2
:107B20001688861901234D1900932A00330007A9EE
:107B300008A807970897FFF791FB041E00D07CE088
:107B4000BB1C089302232A00009307A9330008A84E
:107B5000FFF784FB041E70D13B1D089301232A000C
:107B6000009307A9330008A8FFF778FB041E64D12F
:107B7000BB1D089302232A00009307A9330008A81D
:107B8000FFF76CFB041E58D13B0008330893012318
:107B90002A00009307A9330008A8FFF75FFB041E23
:107BA0004BD13B000933089301232A00009307A916
:107BB000330008A8FFF752FB041E3ED13B000A33F6
:107BC000089301232A00009307A9330008A8FFF7B0
:107BD00045FB041E31D13B000B33089301232A00DF
:107BE000009307A9330008A8FFF738FB041E24D12F
:107BF0003B000C33089302232A00009307A93300AB
:107C000008A8FFF72BFB041E17D1BB7B2A000593A6
:107C10003B000E330893012307A9009308A8330003
:107C2000FFF71CFB041E08D13B0010330293002316
:107C30000393039A059B934209DC079BD81B049B83
:107C40001880200037B0F0BD36AE09AF6AE7029B5E
:107C50002A00013B0893012307A9009308A83300D9
:107C6000FFF7FCFA002811D10123029A0093089231
:107C700033002A0007A908A8FFF7F0FA029B023395
:107C80000293002802D1039B0133D1E70400D4E71B
:107C9000049B0C001980D4E7F0B5B7B007001D00B5
:107CA0000492002900D1C7E0002800D19FE0168887
:107CB000861901234D1900932A00330007A908A84B
:107CC00007970897FFF7CAFA041E00D088E0BB1C8C
:107CD000089302232A00009307A9330008A8FFF79E
:107CE000BDFA041E00D07BE03B1D089301232A004F
:107CF000009307A9330008A8FFF7B0FA041E6FD15C
:107D00007B1D089301232A00009307A9330008A8CC
:107D1000FFF7A4FA041E63D1BB1D089302232A00B7
:107D2000009307A9330008A8FFF798FA041E57D15B
:107D30003B000833089301232A00009307A933006E
:107D400008A8FFF78BFA041E4AD13B0009330893B9
:107D500001232A00009307A9330008A8FFF77EFA41
:107D6000041E3DD13B000A33089301232A000093EF
:107D700007A9330008A8FFF771FA041E30D13B00B1
:107D80000B33089301232A00009307A9330008A8A6
:107D9000FFF764FA041E23D13B000C33089302233F
:107DA0002A00009307A9330008A8FFF757FA041E1A
:107DB00016D1BB7B2A0005933B000E3308930123A9
:107DC00007A9009308A83300FFF748FA041E07D15B
:107DD0003B00103302930390059B039A934209DC06
:107DE000079BD81B049B1880200037B0F0BD36AE2F
:107DF00009AF5EE7029B2A00013B0893012307A914
:107E0000009308A83300FFF729FA002812D10123B4
:107E1000029A0093089233002A0007A908A8FFF7E6
:107E20001DFA029B02330293002803D1039B013306
:107E30000393D1E70400D3E7049B0C001980D3E738
:107E4000F8B514000E4EE3B2327907000D009A42E5
:107E500004D8220003203369E1B29847002F0ED1E5
:107E60004420E4B24443F0680019030040331B7817
:107E7000022B04D10622290036301DF059FAF8BD34
:107E800094BA000070B544251D4C4543E3685B5926
:107E9000002B04D000220120110023699847002202
:107EA000E36811005E1910001A2318F05FFFFF232A
:107EB0003060E068002645192C6831002370EC3BE7
:107EC000638080231B01A380082320002381013BC2
:107ED000E6806381267306220D301DF045FA80236B
:107EE000FF33A3827F3BE382064BE6742683DA6886
:107EF0002A631B8AAB86012340352B7070BDC046B8
:107F000094BA000028BD000070B5084E7369984708
:107F100005003000303019F062FD0400B36B28001A
:107F20009847201E00D0A08870BDC04694BA0000BB
:107F3000002270B5112306000D000720110018F073
:107F400015FF040029000670102201301DF0F0F921
:107F5000200019F05FFC70BDF7B511F02DFC07266D
:107F60000021012484465D480D005D4ACB10D318E2
:107F70001A7E35402A41224206D12200AA4015002D
:107F80005A7FAA435A7713E0554AF0321278002AF2
:107F90000ED0544F8A00BA586746BA1AC827120141
:107FA00012097F01BA4251D2002282560132E4DB2B
:107FB000013101302529D7D14B4819F026F9012884
:107FC00017D80023072501211E00454CDA10A218FE
:107FD000147E2E4034410C4208D00C00B4402600E0
:107FE000547F34435477012803D008000133252BF4
:107FF000EAD13E4C07256369984700221300394FA8
:10800000374ED90871181E00497F2E403141012694
:10801000314204D0B918C23192190B70D2B2013377
:10802000DBB2252BECD100252E4B2F00E7331A7045
:10803000A36B98472379AB4214DC002F49D0FA2276
:1080400000210420120119F037FBF7BD002707704B
:10805000FA27FF01BA42ABD92200AA4015005A7F85
:108060002A438FE744266E43E3689B191A00403287
:108070001278092A0BD10833DA7F002A07D10123AD
:1080800029021943022089B219F0DEFB0127E368B7
:108090009E19403633780C2B19D163699847E26BEF
:1080A000AB009E580190002E0ED033003D331B785C
:1080B000002B09D130000A4905221D3134301DF052
:1080C00037F901233C3633700198A36B984701358B
:1080D000B0E7034B0333DF77B7E7C046D4BC0000FB
:1080E00028BD000040BC000045BD000094BA00005F
:1080F00010B5FFF731FF002010BD010010B50023BF
:10810000024A10311AF030FD002010BD317F0018F6
:10811000FE2370B59B0004000E00984205D9002292
:108120000F4B110001201B699847F021200000F03F
:108130001BF80130C5B2FF20012D04D80F34844252
:1081400000D90400E0B2013EF1B219F07DFA2D3001
:10815000FF306843034900F007F80130C0B270BD3A
:1081600094BA00007102000010B5024B00221B6C93
:10817000984710BD94BA000010B5024B01221B6C49
:10818000984710BD94BA000010B5024B00221B6C3A
:10819000984710BD94BA000010B5024B01221B6C29
:1081A000984710BD94BA0000F8B5022305000600F8
:1081B000224C9D4328D12000102229004C301DF074
:1081C000D3F829002279E06D1DF0CEF81C4F08226B
:1081D00039001C481DF0ACF838001A4B08301A78EA
:1081E000295C01350A431A700133082DF7D12000AC
:1081F00039002A00103154301DF09AF820002A006E
:10820000002160301DF0B0F8002E13D120000C22A8
:10821000310078301DF0A8F80B4B2500586831006C
:1082200022791DF0A1F801236835A666E666266767
:1082300066672B75052368346375F8BD94BA000032
:108240000CED0018D8BA000014BB000070B50B4D3F
:1082500004002A79824203D801002B690320984741
:10826000EB6D1B5D002B04D00022012011002B6957
:1082700098470122EB6D1A5570BDC04694BA0000B4
:10828000F8B51700154A0600947D0D00144B002C1C
:1082900006D0380018F0A0FE0023104A9375F8BDF0
:1082A0001A790105090D8A4212DD012309021943D9
:1082B00022000C4889B2073318F058FD068045802B
:1082C000002D01D0084BFC18446019F0A3FAE6E732
:1082D0000200290003201B699847E0E7FCBA000070
:1082E00094BA00000611000000C0FFAF8205920D95
:1082F000830A012B19D0032B19D0042B19D0052B7D
:1083000019D0082B19D000203F2B0DD13A3B0F4933
:10831000DB00CB18D869598B002805D00C234B43C0
:10832000C31898420BD1002070470023EFE70123C8
:10833000EDE70223EBE70323E9E70423E7E70188FE
:108340008905890D9142EFD00C30EAE70CED001859
:10835000F0B5B84D87B0AC6E002C0DD12B0060335A
:108360001A78002A04D05A88DB889A4200D8A1E003
:108370002C6F002C00D19DE0AC67A188AE4BC818D3
:10838000052800D947E11CF0BBFF06005C00970000
:10839000EF00460131012A0015236832D356042B21
:1083A00001DC01335375E31D02932689678902AB13
:1083B000DF813000FFF79AFF031E25D0002F23D066
:1083C00082689446002A1DD020009B780C307F2BB9
:1083D0000FD800920E2202A952183B00010018F09B
:1083E0002BFF0100002913D0320003202B6998478E
:1083F0000EE00E2202A93B00521867460100B84762
:10840000C1B2EFE70421EFE7002E17D00123237359
:108410000E23E37102ABD9892B000331C9B221725B
:1084200068335B7D1A1C5BB2002B00DA0022A67257
:10843000360A6272E6728C1C042621E03A00310092
:10844000D3E72A0015236832D356042B01DC01330D
:1084500053750F22E31D0293E2710B3A23892272B6
:10846000227B62722A006832527D111C52B2002AAD
:1084700000DA0021E3721B0AA1722373042606248A
:108480000027022068352F7517F0D0FC02986B4A40
:108490006B4B01380670D36190611484531DD97FF2
:1084A000FF2907D1DF7713009268611C08335468F5
:1084B000644AA04707B0F0BD23000A330293218924
:1084C000638902AACFB2D381FF2903D900220320F6
:1084D0002B6998475C4A002311004831D800844634
:1084E000405CB8421AD16244D66C002E1FD1638919
:1084F000002B37D1002602AB6289DB899A4204D275
:108500003A00310003202B6998470E2302AAA77274
:108510009B181B88E372E47A02348DE70133092B40
:10852000DCD10022390003202B699847F3E70E22A3
:108530002000614402AB8978D21813880C300029DE
:108540000CD10096010018F077FE0600002ED1D065
:108550003A00310003202B699847CCE70100B0476F
:10856000C6B2F3E70426F3E723000E2200210A3304
:10857000029363893548039302ABD218039B277B90
:108580001380CE003318865DBE4209D15E68002E8E
:108590000AD104363A00310003202B69984710E0D5
:1085A00001311829EDD1BCE7200099780C30002961
:1085B00017D100960100039B18F03EFE0600002E26
:1085C000E8D102ABD98963898B4203D23A000320F8
:1085D0002B699847002E9ED13E23A37202ABDB8904
:1085E00098E70100039BB047C6B2E8E72069184945
:1085F000A389411802911749021F535416491B0AB7
:108600005354E489154B210AD454154B04340226E3
:10861000D154A4B234E700242B69002203209847E8
:10862000683502202C7517F001FC01235B421C7099
:10863000FFDEC04694BA0000FFEEFFFF14BB00004F
:1086400061AE0018B1F301180CED0018E0F7001846
:10865000FC3F0050004000500140005002400050DC
:1086600003400050F8B506000C3EB3885F49050092
:108670005F4A8B4210D05F498B4230D05C4C6369BB
:108680009847B3885C4A0700934239D12000703084
:10869000310018F0FBFF74E0337A3F2B21D84432CD
:1086A00011000724581EC0B2C2088F5C2040074149
:1086B00001200200BA4307420BD03E2B09D12A7891
:1086C000013AD3B2DA088A18127C23401A41904347
:1086D0000200002AD2D0300018F07EFCF8BD3E2304
:1086E000DDE7582BCAD8403BDBB2D90844325218D8
:1086F0000721127A0B401A41130001229A43E8E73E
:108700003C4A934207D12B780F2B44D006D8022B3A
:108710002FD00D2B0CD020006830B9E7152BFAD1E3
:1087200022006832D37D032B28D80133D375F2E7BA
:1087300022006B88E97A5B069B0F683201290FD112
:10874000527E022A42D0002A04D122006832127ED0
:10875000032A3BD8013B5A425341DAB2002338E0A6
:10876000927EEEE70123002233E0210068318A7611
:1087700034E0230068331B7E032B1FD9300018F030
:108780002BFCA36B380068349847237D012BA5D1BF
:10879000FFF7DEFDA2E7194AA9785068EB79421885
:1087A000415C02291DD0002904D121006831097ED5
:1087B000032916D8013B59424B41137022006832FD
:1087C000137E01331376A6E700230DE0012BC9D1F8
:1087D00002220129C9D1210068314A76002BEDD04F
:1087E000CCE7012BF0D102231370C7E7031100007F
:1087F00094BA0000041100000611000014BB000030
:10880000F0B587B006000D001700039300285AD07A
:108810008468002C4FD083787F2B29D80E2202A9A0
:108820005218002100940800294B18F005FE04009E
:10883000002C38D1B36802221800264902931CF09C
:1088400069FD0E2302AA9B181E88002819D12A0050
:1088500021003300204818F089FA02220400077032
:10886000023003991CF064FD2000FFF7FBFE20E0BE
:1088700000230E2202A9521818001900A047C4B202
:10888000D6E70322154902981CF044FD33002A0064
:10889000210000281AD1104818F068FA06220400B6
:1088A00007700130DDE70E4B2A00210003201B6911
:1088B000984707B0F0BD0A0001232100094818F0CD
:1088C00055FA0770D1E70A00012301000248F6E7D4
:1088D000FFFF00007067011801110000F8EC00189C
:1088E00094BA000002110000F8B53E220D004223A8
:1088F00000210F4818F03AFA202608230027040028
:10890000037032002900477002301CF011FD200076
:10891000A919320022301CF00BFD2000FFF7A2FE47
:10892000044B3100DB6A044A802098473800F8BDC8
:108930000411000014BB00005BBD000070B52223D1
:108940000D003E220021094818F010FA00260923E4
:108950000400290003704670202202301CF0E8FC5D
:108960002000FFF77FFE300070BDC04604110000FC
:1089700070B511230D00094A0021094818F0F6F9D5
:10898000691C04000025102201301CF0D1FC2000DD
:108990002570FFF767FE280070BDC0461720000055
:1089A000011100000A0010B50A230021074818F041
:1089B000DDF90923064A0381C2804380C6320133B0
:1089C00002800371FFF74EFE002010BD0111000070
:1089D0003A09000070B507230A000948002118F081
:1089E000C5F900250400074906220C3101301CF0AE
:1089F0009FFC20002570FFF735FE280070BDC046A3
:108A00000111000028BD000070B541230A000C4888
:108A1000002118F0ABF904000A492A221031013074
:108A20001CF086FC20000025162200212B301CF0B3
:108A30009BFC20002570FFF715FE280070BDC04686
:108A4000011100008CED001870B50A000923002107
:108A5000084818F08BF908220400002101301CF0AE
:108A600083FC00256023200025706371FFF7FAFD69
:108A7000280070BD0111000010B50021074A06232F
:108A8000074818F073F9022300240371F933438077
:108A90000470FFF7E7FD200010BDC0460220000073
:108AA0000111000070B509230021094A094818F096
:108AB0005DF900250400084908223A3101301CF014
:108AC00037FC20002570FFF7CDFD280070BDC046A3
:108AD00003200000011100008CED001810B50A0001
:108AE00000210223064818F041F90024054B0470C8
:108AF0001B7902334370FFF7B5FD200010BDC0465F
:108B00000111000094BA000010B50A0000210223F0
:108B1000054818F02BF90024044B04705B7943706E
:108B2000FFF7A0FD200010BD0111000094BA000065
:108B300070B500210F4A09230F4818F017F90F4D9F
:108B400004006B6B9847030AA370030C6070E3701A
:108B5000000E6B6B207198470025030A6071A371AA
:108B6000030C000E207225702000E371FFF77AFDE0
:108B7000280070BD182000000111000014BB000087
:108B800070B509230021094A094818F0EFF80025BB
:108B9000040008490822423101301CF0C9FB2000C2
:108BA0002570FFF75FFD280070BDC0461C20000047
:108BB000011100008CED001870B50E4A032300214E
:108BC0000D4818F0D3F80D4D00262B0006706433C5
:108BD000040001211878EB6C98472B006070653316
:108BE00001211878EB6C9847A0702000FFF73AFD40
:108BF000300070BD4B2000000111000014BB0000CC
:108C000010B500210623094A094818F0AFF8094BAE
:108C100000241A00583212885A3382801B8804704C
:108C20004380FFF71FFD200010BDC0464C20000010
:108C30000111000028BD000070B50400A026A02589
:108C4000012300210F4A104818F090F80223E15E3A
:108C5000F6008B199BB22D01AB4211D80023E25EC6
:108C600093199BB2AB420BD8084B1C005A331A80A5
:108C70000023583421800370FFF7F4FC002070BDFE
:108C80001223F8E74D2000000111000028BD00006C
:108C900010B500210623074A074818F067F800249A
:108CA000064B9A8C4280DB8C04708380FFF7DAFCE1
:108CB000200010BD232000000111000028BD00008D
:108CC00010B50A0000210A23074818F04FF80024C5
:108CD000FB22064BC2800381428083800470FFF731
:108CE000C1FC200010BDC0460111000090420000F0
:108CF0000A0010B5022300210D4818F037F80D4B7B
:108D000004001A0065321078DB6C012198470A4B89
:108D10006070EE331A78022A06D10C2320002370EB
:108D2000FFF7A0FC002010BD01221A700023F5E718
:108D30000111000014BB000028BD00000A0004233C
:108D4000002110B50A4818F011F80A4BEE331A78D2
:108D5000012A08D10C230370FE239B004380FFF7F8
:108D600081FC002010BD02221A700023F3E7C046E8
:108D70000111000028BD00000A000223002110B5E7
:108D8000114817F0F3FF0022104B4270EE331978B0
:108D9000012905D10C230370FFF764FC002010BDEE
:108DA0000221197002700A4AD368117944224A4399
:108DB0004033D2189342EFD01978032902D8417872
:108DC000013141704433F5E70111000028BD000076
:108DD00094BA0000442370B50D00097813484B4342
:108DE000C268D3181E6840331A78931E012B02D92B
:108DF000036903209847737E002B14D009233E2279
:108E000000210B4817F0B2FF1323040003703378DE
:108E1000062243706B78A91C837003301CF088FA1B
:108E20002000FFF71FFC002070BDC04694BA000070
:108E3000041100000A000223002110B50A4817F0AF
:108E400095FF0A4BEE331A78012A09D10C230370DF
:108E5000074B1B7902334370FFF704FC002010BD61
:108E600002221A700023F2E70111000028BD000061
:108E700094BA0000F0B589B0050003910292FFF7A3
:108E800035FA5D4C0700230068335B7D7F2B04D9E6
:108E900000220120110023699847584B9D4204D0BD
:108EA00022006832537D013B5375002F00D1A0E0B2
:108EB000230068335B7D7F2B00D969E00F21BB78ED
:108EC00004931940082943D808001CF005FA052628
:108ED000052641414141470000260E2204ABD2182D
:108EE00000239C461380039B63453ED07C68644509
:108EF00051D040216B4604989B8908400590049806
:108F000008422DD100940299059818F095FA0400B2
:108F1000012C2BD10023122215E0039B012B10D929
:108F2000029B1A785B781B02134322799A4208DD70
:108F3000E26DD25C002A04D001221B0213439EB2D0
:108F4000CBE70222029B29003800FFF759FC03E01F
:108F50002A0003202369984709B0F0BD0226BCE728
:108F600060460299A047C4B2D2E7039C04AB31002B
:108F70002A00DB89224817F0F9FE0600002C05D0F4
:108F80001D4B2A00210003201B699847002E04D1A5
:108F900000230722D7E70424E8E704ABDB89002B92
:108FA00012D07B689C46002B0ED06B46BA789B890A
:108FB000520615D4624600920E2204A952183000BF
:108FC000029918F039FA0400002C05D00A4B2A0047
:108FD000210003201B699847300018F01BFCBBE7F9
:108FE0000E2204A96446521830000299A047C4B268
:108FF000EAE73B000122A6E794BA0000350C000026
:1090000005110000F7B5684616F0BCFE019A9C21D8
:1090100015009135FF35009B89008D4204D9E13A56
:10902000150001331B011B09264A2749D26E274E22
:10903000002A11D050680C78254F041B2401240904
:109040009068E21A12011209BA420CD89C4201D16E
:10905000854209D2050007E001235B428B60202294
:10906000336893432BE01C008C60631CF7D09C2377
:109070009B009D4205D9174B0022290003201B6944
:109080009847230F05D00022124B110001201B69C5
:109090009847114B1C609C239B005D1BADB2AB0A33
:1090A00005D000220B4B110001201B6998470B4B88
:1090B0000B4A1D602023136032689A4313433360C8
:1090C000F7BDC04614BB000094BB00001800005060
:1090D000FEFFFF0794BA0000E8000050EC000050CB
:1090E00020000050F0B5BB4B01690400CA18BA4B10
:1090F000BA4D89B09A4203D9002203202B699847C0
:109100009C23A2689B009A4204D9002201201100EE
:109110002B6998476B699847049006A816F032FEB1
:10912000AF4B069A1B7807999B18FA2292001B01F5
:109130008918793A1B09FF3A914216D86568A94EF9
:10914000EA1A1201A08A1209B24204D89D421AD129
:10915000A2688A4217D2820B0DD101259F4B049839
:109160009B6B9847280009B0F0BD9A4801331B015A
:1091700009181B09E0E7A26863608A4203D2013341
:109180001B011B096360800B012812D98020E16854
:1091900063680005CA1A12011509854203D95B1AD2
:1091A0001B011B095D4290492069FEF7DDFFA842C3
:1091B000D3DC8E4B5D6F002D00D1DD6E00231E00D1
:1091C000039301930293002D74D0A54205D1002290
:1091D000824B110001201B69984729002000FDF7F0
:1091E0000FFF002866D0052816D0A17DAA7D9142E8
:1091F00034D97E4B5B6FAB4230D0019B002B00D14A
:109200000195039B2E000133DBB2039302239843A5
:10921000C0B2012800D12CE1A38A9B0B012B13D9EA
:109220008021E26863680905D71A3F013F098F4230
:1092300003D99F1A3F013F097F426B492069FEF71E
:1092400093FFB84200DD88E7684B5A6FAA425ED0B0
:10925000039B002B00D102952D68B4E7A38A9B0BDA
:1092600019D0AB682A6960499F183800FEF77CFF67
:109270006B685D49C6183800FEF786FFA3688B420D
:109280008941002349427618360136096660039306
:109290001E000193C0E7914200D85EE7534B5B6F1D
:1092A000AB4200D059E7C31EDBB2012B00D954E713
:1092B0000328B1D1019B002B1AD0002E05D1474BBA
:1092C0003200310001201B69984702993268474BF0
:1092D00000291ED1DA661A6F964201D1029A1A67E6
:1092E0009A6F002A18D1019A9A67DE6700233360CB
:1092F0003E4D029B28006C30002B11D0220019003B
:1093000019F08CFB019B002B10D1002526E7DD6EA8
:1093100059E702990A60DEE7DA6F01991160E4E724
:10932000210018F055FBFFF76DFEEBE70023AD6F52
:109330000193002D06D12D4B9B6F002BE5D016F02D
:1093400077FF0BE7A88A2B680393830B00D17EE09D
:109350003F233F21021113400A4278D00F222600FA
:109360000027A97D02408918214A013B1B010240C8
:1093700013439BB2AB829B0BA97505933100280068
:10938000FDF73EFE002805D0052833D133683700AD
:10939000002B1CD1019B154E002B5BD1B36F9D425E
:1093A00005D00E4B019A012011001B699847B36F3D
:1093B0001B68B367F36F9D4201D1019BF3673000D7
:1093C0002A0039006C3019F029FB019D3FE01E0096
:1093D000D4E7C0468FFDFFFF0F18060094BA0000C7
:1093E00094BB0000FEFFFF077102000014BB0000E9
:1093F0000FFCFFFF3269B36820499F183800FEF761
:10940000B3FE73681D49C31838000293FEF7BCFE13
:10941000AB68059A8B428941029B49425B180293D3
:109420001B011B096B60012AB0D98022E868120574
:10943000C71A3F013F09974203D91F1A3F013F094D
:109440007F420E492869FEF78FFEB8429EDD0195E6
:10945000039D6EE7019B1B6802939D4205D000228D
:10946000074B110001201B699847019B2A681A606D
:10947000A0E7019B002B00D027E739E7710200002D
:1094800094BA0000FA2270B5194B920054331B882D
:10949000002106205A4318F00FF9164E356A002DA8
:1094A00020D12900302016F05DFF041E306217D055
:1094B000114BC5610362114B8361114B0361114B69
:1094C000436110F079F9A56060602000FFF70AFEA3
:1094D000002805D02A00290001200B4B1B69984762
:1094E000002070BD0022084B110002201B69F6E726
:1094F00028BD000094BB00009D6C0118C5970118A1
:1095000088130000A1600A0094BA00004421F0B55D
:10951000002641432B4B97B0DB680D9059180B6820
:1095200006960796089609960E960A960B960F963B
:109530000C9698780122050015402C0005951042E4
:1095400006D01C790E94DC880A941C8905941400BA
:10955000042207001740149700270497104208D0F0
:10956000023262439A1814790F94D48812890C94A9
:10957000049205280CD10498059A12180A98904272
:1095800001D290B20A900C98904201D292B20C9201
:109590001A781B88029215930B4B1A00EC32127842
:1095A00013920A8C10921A00563212781192029A73
:1095B000032A00D9D2E110001BF0A2FE0800C50169
:1095C0000800C50194BA000028BD00005A7B1E7B2C
:1095D00006929A7B0792DA7B08921A7C5B7C09924E
:1095E0000B93E24F7B6A0093002B00D0F3E219004B
:1095F000182016F0B7FE041E786200D1E5E210F0E4
:10960000DBF806230D9A039053430099DBB218222E
:10961000786A12931BF0A8FE009B0193002D43D0A3
:109620001900D02016F09EFE051E206000D1B9E181
:10963000D02200991BF098FECD4B05992B62CD4BA3
:10964000AB610523AB75CC4BBA8D4B43934200D92C
:1096500013002B61C94BCA4AAB82CA4BAB67CA4BDA
:109660002B672B0058339A820A9A70331A80059A16
:10967000083B5A810E9A1A73059A1A600D9A953B07
:109680001A702A00C14B83321B7984350233137060
:1096900003232B700E9B013B5A425341DBB20193D3
:1096A0000123227B13432373149B002B4BD00021F7
:1096B000D02016F057FE051E606000D179E1D0225F
:1096C00000211BF051FEAA4B04992B62A94BAB6100
:1096D0000523AB75A54B9A8DA74B4B43934200D9FD
:1096E00013002B61A54BA64AAB82A64BAB67A64BDA
:1096F0002B672B0058339A820C9A70331A80049A85
:10970000083B5A810F9A1A7303225A73049A1A60FB
:109710000122933B1A702A009C4B2B321B79843513
:10972000D91C11700133583213700423FF332B807E
:109730000F9B013B5A425341019A1A430223019263
:10974000227B13432373069BA673E373079B237447
:10975000089B6374099BA3740B9BE374139BE375D1
:10976000159BA3820D9B6373119BA375109B002B0C
:1097700000D125E1039A5B019B181B011B090127FE
:10978000A360029B119A5B083B4012019B001343AC
:109790000C93069B079A1B0233430E93089B059478
:1097A0001B021A430B9B0F92099A1B021A43129B2E
:1097B00010921B010B932300083309930494049B1C
:1097C0001B680093002B00D0FDE0049B043304933E
:1097D000049A099B9342F2D1019B002B00D189E0AE
:1097E000129B0C251B010093702303216748009EE8
:1097F00004794779221D5A4302346C435432FF32B4
:1098000064188A431219382467438A437F18D2198F
:109810008A435F4F57328A43D21992190F2617880D
:10982000B7430F43178007795A4E3A1D5A43023700
:109830006F435432FF327F188A43D21947798A43E3
:1098400067437F18D21900278A4357328A439219F7
:10985000009E9219178007793A1D5A4302376F43C9
:109860005432FF327F188A43D21947798A436743BB
:109870007F18D2198A43464F57328A43D219921918
:109880001788FEB2C0273F013743178007793A1D7A
:109890005A4302376F435432FF327F188A43D2193A
:1098A00047798A4367437F18D2193B4F8A433E006A
:1098B00057328A43D219009FD2191788BF0BBF03B2
:1098C00017800279171D7B4302326A435433FF33FA
:1098D00052188B439B1842798B43544364181B19CD
:1098E0008B435733009A8B439B199E1833885B0434
:1098F0005B0C3380294B2A4A1A60059B1C68002C9C
:1099000018D0039B039A63602300C43320001A60BD
:10991000FFF7E8FB002800D050E12300293318703E
:109920005871E084CA342088039B4000C0180001AD
:1099300003090393059B04330593059A099B9342FE
:10994000DBD117B0F0BDDA7C9E7C06921A7D0792BF
:109950005A7D08929A7DDB7D099241E60B4B0022ED
:1099600003201B69029998473BE6C04694BB000060
:109970004D9F0118E17F0118E20400000160000022
:1099800001200000E99F01189180011894BA00009D
:10999000024000500440005000400050240100509C
:1099A00001000100019A8F4B110001201B699847AB
:1099B0007AE68C4B020001001B6901209847C2E641
:1099C00001235B42DBE60022009B07922A331A70D8
:1099D000009B2B330693029B3B400D937025069B07
:1099E000814A1E78814B7543EB181A80804B814A5F
:1099F000EB181A80804B814AEB181A80FF22804BAB
:109A0000E9180B8893431A005523134300220B8057
:109A10007C4BEB181A807C4B1B6B1900934202D0D5
:109A200059784B1E9941009B3A002F331970A37D42
:109A3000607D002B02D1227D52083A4003020C982F
:109A4000C90003430B4300211343704A3602AA188E
:109A500013806F4B6F4AEB181A806F4BEB1819800D
:109A600008936E4BEB1819806D4B1E4204D05D4B72
:109A70000A0038001B6998470D9B0E9A1E4320234D
:109A80001E43684BEB181E80674BEB181A80674B20
:109A90000F9AEB181A80664B109AEB181A80654BD8
:109AA00065331A78644BEB181A80644BE818E37D31
:109AB0000A93009BCC331B78012B7BD1494E327922
:109AC0007679131D9C4670236146023294464B43BF
:109AD00003215433FF338B430C2261464A43033244
:109AE0009B183822032172438B4352189B188B43D7
:109AF0000B9A57338B439B189B089BB203800B2315
:109B00000A9A002A00D1023B00214D4A0898AA185F
:109B100011804C4A9BB202804B4AAA181380009BCA
:109B2000CD331E78B30008930C23B2009A438A42C7
:109B300004D02C4B0A0038001B69984733000322DD
:109B4000934305D00022274B110038001B6998472A
:109B5000B30033431E0080235B011E433B4BEB18D5
:109B60001E80079B002B11D1009B394AC0331B6814
:109B7000AA1899B211808021364AC901AA188B42CD
:109B800000D3354B35490B439BB213807F21344BB7
:109B9000EA1813888B431380324BED182B88BB4394
:109BA0002B80069B58330693079B012B00D10CE6B4
:109BB000079713E7002303800A33A1E70022094B2C
:109BC000110001201B699847B4E6064B0200010012
:109BD0001B69012098470022024B110001201B69DC
:109BE0009847AEE694BA0000D6BEFFFF5E41005033
:109BF00060410050898EFFFF6241005055550000C2
:109C000064410050A641005094BB000066410050E2
:109C1000684100502780FFFF884100508A41005072
:109C2000FFE0FFFF52410050584100505A410050A0
:109C30005C41005014BB00006A4100507441005068
:109C400094410050723E0000504100505641005077
:109C5000804100506E410050FF3F00000080FFFF38
:109C6000764100506C410050002010B5094B1A7924
:109C7000DB684033824201D1002010BD443319001B
:109C800044390978072902D00130C0B2F2E7FFF762
:109C90003DFCF1E794BA0000F0B5384D85B0EC6EAC
:109CA00002A816F06FF8002C06D1AB6F002B61D123
:109CB000FFF7A8F905B0F0BD039B62680093304B35
:109CC000029E1B782F4FD31A0122921B01929A18E1
:109CD00012011209BA4208D801331B011B09B34211
:109CE00028D1A368009A934224D228006C3017F040
:109CF00076FE01002800783017F0C8FCEC6E002CCE
:109D0000D3D01F4B62681B780199D31A59180901E7
:109D10000909B94208D801331B011B09B34209D113
:109D2000A36800998B4205D2174B310002201B69B2
:109D30009847DAE7124B62681B78D31AF243D218BD
:109D400012011209BA4208D8013B1B011B09B34298
:109D5000ABD1A368009A9342A7D828006C3017F0C3
:109D60003EFE83696867002B00D09847EC6E002C9C
:109D7000E0D19AE716F05CFA9AE7C04614BB0000FF
:109D800094BB0000FEFFFF0794BA000073B51D4EA0
:109D90001D4C756B002D2ED0684615F0F3FF9C22EC
:109DA000019BC8219200D21A0023490091425B41D5
:109DB000009A01339B181B016A681B09D21A1349C8
:109DC000120112098A4200D96B606D6875606B1CC4
:109DD00014D02B0F05D000220D4B110001201B6960
:109DE00098470C4B0C4A1D601023136022689A435D
:109DF0001343236073BD01235B4273601022236809
:109E00009343F6E794BB000018000050FEFFFF07E5
:109E100094BA0000E400005020000050F0B593B068
:109E20001C0002900E910492002809D1002A77D1DB
:109E30000022B84B110001201B69984701236DE0F7
:109E4000002CF5D063680393A3890D93002380252C
:109E500010A80B9315F096FF109B2D051D402B00AD
:109E60005A1E9341DBB20193039B002B05D1A94BF2
:109E7000039A012011001B6998470022A64BDA6360
:109E80001A0040321278002A59D1A34B01991A00C6
:109E900040321170029A012A68D122680592059A0F
:109EA000002ACBD0039A002AC8D00B9A0192029ABA
:109EB000012A01D1A26801925E6C002337000A9347
:109EC0000993039B013B0F93002F00D1BFE0019B3F
:109ED000059A93421BD2029B002B4AD10E9B002B6A
:109EE00047D03B697D680693002D50D0069B002B20
:109EF0004DD0BB8A0D9A934249D0059B2C009D42C0
:109F000000D91C00069B039A9B18A34233D90A9BD5
:109F1000002B02D0804B099ADA6303230293B5E049
:109F2000049B9B6803930E9B002B02D0049BDB6871
:109F30000393049B1B8A0D93049BDB7C87E7002D16
:109F4000A3D180265D6C7605002D9ED06F68AB682E
:109F50003900FB1830000593FEF716F9059B581AD7
:109F60003900FEF711F9A9602D68EDE7049A5269EE
:109F700094E7FB68B6E721000598FEF705F900298C
:109F800005D121002800FEF7FFF8002902D03F6824
:109F9000019932E02100B868FEF7F6F8069B0D0043
:109FA0005B180C932100013B01980893FEF7ECF835
:109FB0008C460F9B0691634407938D4200D9ADE018
:109FC000089B8B4207D2079B9D4218D8089B079A93
:109FD000934200D298E0029B012B32D021000C98D2
:109FE000FEF7D2F8019B8B4224D201230B9A0B403F
:109FF000002A21D0002B22D03700019164E7069B74
:10A000009D4203D1089B079A9342E4D9089B9C4246
:10A0100006D818002100FEF7B7F8069B9942DAD25D
:10A02000079B9C42B3D821001800FEF7ADF8A94267
:10A03000ADD3D0E70919D5E73700002BDDD00131CA
:10A04000DAE701230997059937000A93D5E70A9BB8
:10A05000002B02D0304B099ADA63019B059A934298
:10A0600000D35AE7029B002B4CD1049B019A5F69F5
:10A070009A611B8A06937B1E9B180593002E08D1BC
:10A0800039000598FEF780F8049BD961029813B057
:10A09000F0BDB38A069A934217D07568BD4200D9C5
:10A0A0003D00002D05D11B4B2A00290001201B6912
:10A0B000984729003800FEF767F8002905D12900E4
:10A0C0007068FEF761F8002901D03668D6E72900EC
:10A0D000B068FEF759F80C00019BA34210D2039A16
:10A0E0009B189C4205D200220A4B110001201B69DB
:10A0F0009847039BE41A059BA342E6D90594E4E73D
:10A100006419E9E7002309E7069B9D4200D27DE739
:10A1100061E7C04694BA000094BB0000079B9D42D3
:10A1200000D858E76EE730B5C168040085B0002953
:10A1300004D1194B0A0001201B6998476A466368DD
:10A1400001200093E3680193A38A93810022A3680E
:10A15000110002936B46FFF761FE104D032808D1F2
:10A16000EB6B002B05D0A1699A69002908D1002A60
:10A170000DD128002100443017F088FA05B030BD19
:10A18000002A03D0A17D9A7D914200D32300988AB2
:10A190009B699847EDE7C04694BA000094BB000065
:10A1A000F7B5036846680400466101939E4216D9DC
:10A1B0002B4B01275A6C00237F42002A22D1002B0F
:10A1C0002CD1A57C002D48D029003000FDF7CCFF14
:10A1D0004543019BAB4202D8AE4200D365610023E8
:10A1E000220001211800FFF719FE002809D0A368FA
:10A1F000E268934205D20023220019001800FFF7FD
:10A200000DFEFEBD908A218A884205D05168013337
:10A21000DBB28F4200D90F001268CEE7BE4206D3F0
:10A2200039003000FDF7A0FF78430500D1E7012594
:10A2300000966D4238000099FDF7A6FF0023994271
:10A2400001D1009D0133009A023A00920099019ACF
:10A250008A42BED8002BEDD0BBE701256D42BBE79B
:10A2600094BB0000F7B5284D2B004C339B896F6DD4
:10A27000AB8501235B42AB62244B0193002F15D1C8
:10A28000019A234B5343AA8D9A4200D91A00AA85FA
:10A290002A6D531C09D0AB6A591C05D09B1A1D4965
:10A2A0001B011B098B4200D9AA62F7BD0023802243
:10A2B0001206DA40174202D10133202BF7D11F26B4
:10A2C000F61A154B1A79B24204DC00220120110063
:10A2D0001B699847EA6DF300D3181C68002C0FD057
:10A2E00098880B49FDF740FF241AA4B2022C01D92B
:10A2F000023CA4B2019BA34200D923009BB201936C
:10A300000123B3409F43B9E794BB0000FFFF000067
:10A3100071020000FEFFFF0794BA00007021F0B543
:10A32000E54F0C243B7987B00190181D4143032071
:10A330009A1C54435431FF3124188143091938249D
:10A340007D7981436C432418091960245C4381435F
:10A350005731241881430919D84C814309194624DF
:10A360005C43814324180919120212188143891889
:10A370003922534381431B18C9188143D04B69319B
:10A380008143C918802381430918814309188143F7
:10A390001B02994203D93B69890A193A9847019BE4
:10A3A000002B00D13AE2013B012B00D8DEE2019BF9
:10A3B000012B08D0022B00D0B8E3C24B186A00284A
:10A3C00001D016F009FEC04DE722002128001AF046
:10A3D000CBFFBE4B3A791B680232180052000021B5
:10A3E00002931AF0C1FF0023B94AD3540133252B3D
:10A3F000FBD12A00E73213700022B24BB54E1A622D
:10A40000022305AC237021000720B34AB36A9847A2
:10A41000002803D0FA23B04A5B0013802B00BC3322
:10A420001B88BE35142B00D9DFE207232B800123C4
:10A43000AA4A210023708520B36A98470DF0ECFEEC
:10A44000A24BA24A1871002353719371019B012BF7
:10A450002AD0022B00D069E3A023DB051A68A049AB
:10A460000A4080211A601A6809060A431A601968AE
:10A47000CA0F0029FBDB01219A4B49421A609A4B13
:10A480001000196070239C460D313B795D1CAA4277
:10A4900000DCC4E20FF07EFF944A954913680B403C
:10A4A00013600022934B1A6004ABD91C04232200D2
:10A4B0000B703120B36A9847011E27D1059B257880
:10A4C0000293A3780393E37866781B0603D5020012
:10A4D0003B6901209847039BDB0904D0002201203F
:10A4E00011003B699847F60904D0002201201100B1
:10A4F0003B699847ED0904D00022012011003B6917
:10A500009847029A7C4B13437A4A1360A0237B4AF4
:10A51000DB051A60734B7A4A7A4C1A607A4B7B4A95
:10A5200003261A607022397900250B1D534302312E
:10A530005433FF33CAB29808120402432260744AAB
:10A54000B34310600C224A4392199B187A799B08F6
:10A55000704912041A430A606F4A136010226F4B4D
:10A560001A6070233A790135141D5C430232643B52
:10A5700053435434FF340333B443E41838237A7913
:10A580000321534328000333B443E418FDF7FCFDD3
:10A590001C23380059436B43614AB44309190293A1
:10A5A00089089B181C1989B22180203017F017FAEE
:10A5B000414C002802D08088002805D100220120CB
:10A5C000110023699847002070212279131D4B4305
:10A5D000023264394A435433FF330332B3439B1886
:10A5E0006279B34394463822614651438C46032135
:10A5F0008C4463440299B34303930B0049498C464E
:10A6000063449C46039B63441880032DA9D17021A9
:10A610002079031D4B430230643941435433FF33E7
:10A620000331AB435B18617900244A43AB430332E7
:10A630009B183D4A9B0813603C4B1C603C4B260218
:10A640001D4D1E4204D00022012011002B699847A5
:10A6500070226243374B3849D218138801340B40BB
:10A660001E43B6B216802B7903339C42E6DD7F2170
:10A67000324B164C1A68324B120A1B680A402832B9
:10A680001B0A0B4022812F4A1833638113688026EE
:10A690001B0ADBB25133FF33A381136836061B0A52
:10A6A000DBB25133FF33E3810DF0BEFD8002264B58
:10A6B000800A3043186049E094BA000003060000A5
:10A6C000EB0B000094BB000040BC000014BC000079
:10A6D00002BD000014BB0000FCBC000001BD000076
:10A6E000FFFEFFFF0C00005014000050D00000508F
:10A6F000FFEFFFFF500000508080808007061000B1
:10A700001E0001003001005020010050D90296FFC8
:10A7100034010050600100506401005038010050C5
:10A72000E43F0050F83F0050280000502C0000503B
:10A73000FFE0000052410050FFE0FFFF900000509A
:10A740009400005098000050680100500DF06CFD1E
:10A75000A02280218002C54B800A30431860D205B8
:10A76000136849000B431360C14BC24A19689142F8
:10A7700003D0196803202B699847019B012B0BD04C
:10A78000022B00D0D2E12E79013E76B2B3000293C3
:10A790002369002E00DB52E12A7900212069920012
:10A7A0001AF0E2FD019B012B0BD0022B00D0BDE182
:10A7B0002E79013E76B2B3000293EB6B002E00DBE4
:10A7C00048E12A790021E86B92001AF0CDFD019B47
:10A7D000012B00D15EE1022B00D0A7E1A64E306B29
:10A7E000002803D016F0F8FB00233363736A002BB4
:10A7F0000FD01868002801D016F0EEFB736A586875
:10A80000002801D016F0E8FB706A16F0E5FB002383
:10A8100073622E79013E76B2B30075E138002022D2
:10A82000019918301AF0A0FD3C790C25A3B20193D0
:10A8300038237A7970215A43283363436000271DF7
:10A84000023465430326AC4679435431FF31B143AA
:10A85000B44461440332B1435118B1435731033317
:10A86000B143864D5918B1434919B14389B2029198
:10A87000814901380D6E00B20395451C68D17026E0
:10A880000C257743A0B26C4354376D3EFF37B74376
:10A89000A4193C19B4431219B2435732B2439A185F
:10A8A000B24392B21700744C754B666ED318FB3FDF
:10A8B0009BB22C36BFB23380013BFF3B9BB2083EBC
:10A8C0009F42F8D1019B019D5E1C46236B436B4D5B
:10A8D000370052190325AE40AA4303339B18A26EDA
:10A8E000AB439BB29619BFB23A02013F9A183FB2EE
:10A8F000B280083E7A1CF6D1000203301B183920C2
:10A900000322019D93434543FE20AD185B199343F9
:10A91000693393439BB2CA6EC00018189082FE2020
:10A92000800093801818574B70310B60CB68908172
:10A930004B60554B01201B790B811E234B8119F075
:10A9400085F8524900204C3119F080F807B0F0BD6D
:10A95000232586B27543AC46029DC000AC44039DDE
:10A96000013E28186546858030B286E7424A0020BD
:10A97000116E3B790C005B00B961013B98422ED30C
:10A98000DB00CB1800211960FB61536E1800083002
:10A990003B62186008309860083018610830986190
:10A9A000083018627862906E3C7905009962B8624E
:10A9B0000B00611C2C000133083525608B42F9D354
:10A9C000D36EC9001A004018002108320160F862F5
:10A9D0003B631A6008329A6019617A63E7E42500E4
:10A9E0000835256001302C00C8E71E2B01D806234E
:10A9F0001CE5322B01D8052318E54B2B01D8042385
:10AA000014E5642B01D8032310E5962B01D802230B
:10AA10000CE5FA2B01D8012308E5002306E565467D
:10AA200004336B4303255433FF33AB43184D5B1999
:10AA30000D00554301325B191880D2B225E5029A08
:10AA40009858002801D016F0C7FA029B013E76B252
:10AA5000043B9CE6029A9858002801D016F0BCFAF4
:10AA6000029B013E76B2043BA6E6C0466C01005054
:10AA700004000050000F000A94BB00000306000011
:10AA800005050000F0F6001894BA00008CED0018DF
:10AA9000004000500022924B5A621A632A7900212A
:10AAA000606992001AF060FC019B012B31D0022BEF
:10AAB0003CD1A369002B16D09868002802D00C382E
:10AAC00016F08AFAA3691868002801D016F084FAF3
:10AAD000A3695868002801D016F07EFAA06916F024
:10AAE0007BFA0023A36113F0C3F82E79013E76B2FE
:10AAF000B300C1E0029A9858002801D016F06CFA11
:10AB0000029B013E76B2043B02936369002EF1DAA8
:10AB1000C4E70023A361E3612A790021206A92003F
:10AB20001AF022FC019B022B00D1AAE0019B022B10
:10AB300000D90BE7012B00D008E76A4B00211A79F6
:10AB4000694B9200586A1AF00FFC684DF4220021FC
:10AB500028001AF009FC27227B7900215A43B868A3
:10AB60001AF002FC44223B7900215A43F8681AF09B
:10AB7000FBFB0A223B79002102335A4338681AF062
:10AB8000F3FB2B00E122543392001A80584B5949B1
:10AB90006B62594B08226B85583158481AF0C8FB34
:10ABA00001221F24564B52421A602C77FF21053296
:10ABB00054481AF0D9FBAB1CDC7704AB9C1C062371
:10ABC000514F524E23703A0021000120B36A98473A
:10ABD000002804D0062238004D491AF0A9FB202392
:10ABE00021004C4A23708020B36A984701232370C8
:10ABF00004ABDF1C3A00B36A2100152098470123FB
:10AC0000002801D13A7813402A00EF321370012353
:10AC100005AF23703A00B36A210019209847012339
:10AC2000002801D13A7813400127F0352B703A4DB6
:10AC300021002A001620B36A27709847002800D008
:10AC40002F70284A5179936827224A43FF21D2184E
:10AC50009A4200D17AE699712733F9E7029AF6B25F
:10AC60009B58002B04D016220021300016F0C1FEA4
:10AC7000029B013E76B2043B0293236A002EEDDA7A
:10AC80004AE72E79013E76B2B3000193002E0DDA29
:10AC9000002444262B79A34216D80021042017F063
:10ACA0002FFE0021062017F02BFE4EE7636A019A63
:10ACB000F6B29B58002B02D0300018F0ABFB019B82
:10ACC000013E76B2043BE0E733006343EA689858FC
:10ACD000002802D00C3816F07FF90134E4B2D9E72D
:10ACE00094BB000094BA000014BC000028BD000012
:10ACF0001B0048018CED0018070700002CBD000068
:10AD000040BD000045BD000034BD000014BB000084
:10AD100004EC00185BBD000014BE000070B5802577
:10AD20006D020B4A1368002B11D02B42FAD0094B4D
:10AD3000094C1D60094B032019681A682369120C1D
:10AD4000984700220120110023699847E9E770BD68
:10AD5000100000501400005094BA00006000005031
:10AD6000F7B5019070201D4E0325377923213B1D37
:10AD700058430C23BA1C53435430FF305B19A8438B
:10AD8000C01838237279A84353435B19C018602355
:10AD90007B43A84357305B19A843C018104BA84306
:10ADA000C018019BA843181AFDF7DEF9C4B27F0052
:10ADB000BC4204DB21002800019A3369984773697B
:10ADC000984705003000074BE1001C6E18306118F1
:10ADD00016F05CFC2800B36B9847F7BD94BA0000EE
:10ADE0000306000094BB0000F8B570231A4C0C2534
:10ADF0002179FF270A1D534303228E1C75435433C8
:10AE0000FF33AD1893435B19382566799343754337
:10AE1000AD185B19602569439343573393438918F1
:10AE20005B1805389343C01A384203D1050AEBB2C8
:10AE3000052B00D9FEE76369984706002000074B01
:10AE40003D40E9005D6E2030691816F01FFC3000AF
:10AE5000A36B9847F8BDC04694BA000094BB0000AD
:10AE600070B5324C6369A56F9847314BAA880600CC
:10AE70009A4213D12B7B022B04D00222190091435A
:10AE80000D2927D123006833197E002904D10A0037
:10AE900001202369984701E0013919762300012236
:10AEA00068331A75A988234B99421DD8053B9942EE
:10AEB00036D9A36F002B04D02000683016F08FFD28
:10AEC0000500280016F088F83000A36B9847FDF7BE
:10AED0003FFA70BD152BE1D123006833D97D0029DD
:10AEE000D5D00139D975D9E7134B994218D1200033
:10AEF000703016F074FDAB8922791B051B0D9A4248
:10AF000003DD2B6998B2FFF76FFF0023A3672300CF
:10AF100060331A78002ACCD0DA880132DA80C8E7A8
:10AF20000022032023699847C3E7C04694BA000073
:10AF3000041100000511000006110000F0B5C44B1B
:10AF40004A7E60339B5C91B0039344230C000A7DDE
:10AF5000C04F5343FA6800219B580EA80622049361
:10AF60001AF002FA062200210CA81AF0FDF90622B6
:10AF700000210AA81AF0F8F90622002108A81AF000
:10AF8000F3F9E37D0293FF2B00D1BBE06588002D30
:10AF900000D1A3E229001A31062289B20EA83E7917
:10AFA00014F080FE3B790C21019370230327301DA0
:10AFB000584302364E435430FF30F619B8438019D7
:10AFC000B8432C31281AFDF7CFF838267022C0B2CA
:10AFD000464301980C21031D5343020002324A43A9
:10AFE0005433FF33D219BB439B189B4ABB439B1876
:10AFF0009B191B881B0606D529003031062289B211
:10B000000CA814F04FFE2378002B04D10622637D98
:10B010001340042B41D070238E4F0C223879011D30
:10B020004B430321023042435433FF3352188B43C6
:10B030009B18894A8B439B189B191B881B0706D5B5
:10B0400029001431062289B20AA814F02BFE7020C0
:10B050000C2339790A1D5043032202314B435430EB
:10B06000FF309B189043C0187B4B9043C018861943
:10B070003388023A1B0703D43388DB0913420CD010
:10B08000012332881A4002923F22637A9343402B75
:10B0900003D1029A3E3B1A430292627D04231100BF
:10B0A000194001911A4200D11EE26378002B17D09B
:10B0B000049B1A7801231A4001923F22E37B9343B9
:10B0C000402B03D1019A3E3B1A430192634B1A680D
:10B0D00008929B8808AA9380039B012B17D122E03A
:10B0E000210006220A3108A81AF022F9237E0193D2
:10B0F000002BF1D03F22E37B9343C02BECD0FE2307
:10B100000193E9E700230193039B012B08D0039BE4
:10B11000032B05D000224F4B110001201B699847DB
:10B12000637D5B070CD53F2208AB5B799343402BD3
:10B1300006D1019BFE2B03D1049B5B78012B73D9B5
:10B14000474D01202B00EA331B88034236D1444B84
:10B15000661CEE331D78012D00D047E1637DDA06D1
:10B1600062D55B0700D407E13F2208AB5B799343CC
:10B17000402B00D000E1019BFE2B00D0FCE0002121
:10B18000EC3B013A374815F0F1FD0B230600037044
:10B190004570237F06224374029B8570C3700EA9FD
:10B1A00004301AF0C5F830000622B5720B3008A939
:10B1B0001AF0BEF83000FDF755FA35E0A61CF37F13
:10B1C000013B012B04D90022224B11001B69984737
:10B1D0002B00F17FEA331A880323012930D1039928
:10B1E00001292BD1921013403ED0023B5A425341C9
:10B1F000D8B2A57D012D00D0AAE0002800D0A9E09A
:10B200001749A31CEA31DA7F00268B5F039E012ECB
:10B2100000D0A5E0012A00D09EE00B329343AD00A0
:10B220002B430B80002892D0631CDB7F002B02D0C5
:10B23000608CFFF7D9FD002011B0F0BD1211D2E7EC
:10B240000399012901D19211CDE71212CBE7C04633
:10B250008CED001894BA00000040005034BD00008E
:10B2600028BD0000041100000693FF23A27C059373
:10B27000002A05D0238A1A0B1B051B0D0592069385
:10B280000026637DE9350793E38B04932F78994D6E
:10B29000BE4225DB984E0E253700E8373B78062264
:10B2A0005D43944B0EA9ED1828001AF041F8079B56
:10B2B000AB72029BEB72059B2B73069BEB80049B8E
:10B2C0002B813B780133DBB20A2B3FD03B70E93650
:10B2D00033780020092B00D98BE70133337088E7DE
:10B2E00029000EA815F084FF00282CD0EB7A029AD2
:10B2F000934228D1AB7A079A934224D12B7B059AAB
:10B30000934220D1FF2A18D00E2272437A4B06991D
:10B310009B1862331A888A420FD01980049B052B30
:10B320000DD90E237343744E049AF618643633888D
:10B33000934204D0002032805BE70020EEE7012337
:10B340005840C0B255E701360E35A1E70023BDE7EE
:10B35000002555E7022553E7C022AD0193435FE77F
:10B36000012A03D12F3293432D0159E7634A134039
:10B370002A021A430A8055E72B233E220021604807
:10B3800015F0F4FC01270223477003705D4B627DCA
:10B3900065339B5C05008370029B0622C3700EA977
:10B3A000043019F0C5FFF37F1F2B05D90022564B3F
:10B3B000110038001B6998472800F27F631DAA72AC
:10B3C000D97F638C92B2C91889B20B3014F06AFC31
:10B3D0001F22F07F0021121A0B30281819F0C4FF29
:10B3E0002B00227F2A3328001A70E4E6631DDB7FDE
:10B3F000F77F03933E1CE52F01D9444B1E78802331
:10B400003E225B0000213E4815F0B0FC0E23FF33C6
:10B410000380637D0500F6B24380E52F08D86021E4
:10B42000A27D53018B4303D0374B03201B69984700
:10B4300060226B8893431BB2403AE52F01D8A27D6E
:10B44000520113436B80029B06222B71681D0EA9CB
:10B4500019F06EFF2B4B627E60339A5CEA72A27E1B
:10B460009B5C2B73A27CFF23002A01D0238A1B0B39
:10B470006B73E37E0A21AB731F4BBF1B5833002055
:10B48000185EFCF779FE237F0622C018E8732800B7
:10B49000E38B08A92B82019B1330AB7419F048FF92
:10B4A00028006E76039B618CB2B2C91889B21A303B
:10B4B00014F0F8FB3000E5221A30C0B20021921BD4
:10B4C000281819F051FF2800FDF7CCF8039BFFB2B4
:10B4D0009B19DBB20393002F8CD1A5E60622211D18
:10B4E0000EA819F025FFD8E5039B012B00D00EE62E
:10B4F00026E6C04684BD000028BD0000FFFCFFFF1B
:10B50000041100008CED001894BA000009ED001839
:10B5100070B5084E7369984705003000283016F062
:10B520005EFA0400B36B28009847201E00D0A08864
:10B5300070BDC04694BA000070B570241D4D020065
:10B540002B790320191D4C430C219E1C714354344C
:10B55000FF3409188443641838216E798443714399
:10B5600009186418602159438443573409188443E7
:10B5700064181149844364184621594384430918C7
:10B5800064188443141B240AE4B20133A34202DA90
:10B5900021002B6998476B69984706002800074BE4
:10B5A000E1009C6E2830611816F070F83000AB6B2B
:10B5B000984770BD94BA00000306000094BB0000D9
:10B5C000F8B506007020254D03242B796F79191DDD
:10B5D00048430C219A1C51435430FF300919A043B1
:10B5E000401838217943A043091940186021594374
:10B5F000A04357300919A04340181949A0434018E7
:10B6000046215943A0430919401812021219A043B8
:10B6100080183922FE215343A0431B19C018A043B0
:10B620006930A043301A8900FCF79EFDC7B2C0B252
:10B63000022804D93200390020002B6998476B6931
:10B64000984704002800074BF900DF6E3030791866
:10B6500016F01CF8AB6B20009847F8BD94BA0000B8
:10B660000306000094BB000070B54425354C4543EB
:10B67000E3685B19188C002805D0FFF7A1FF0022B2
:10B68000E3685B191A62E3685B19988C002805D09F
:10B69000FFF796FF0022E3685B195A62E3685B19C3
:10B6A000188D002805D0FFF78BFF0022E3685B1997
:10B6B0009A62E3685B19988D002805D0FFF780FF38
:10B6C0000022E3685B19DA62E3685859002805D064
:10B6D0000C3815F081FC0023E2685351E3682179AE
:10B6E0005A193D321278914225D9442656439B1966
:10B6F000188C002805D0FFF763FF0022E3689B1930
:10B700001A62E3689B19988C002805D0FFF758FF50
:10B710000022E3689B195A62E3689859002805D013
:10B720000C3815F059FC0023E2689351E3689E1928
:10B730000023403633700023E068451940352B70F4
:10B7400070BDC04694BA000010B502000C00012381
:10B750000021034815F00AFB0470FCF783FF10BDBD
:10B760000111000010B50C0016F0CCFC20000021E7
:10B77000FFF7EAFF002010BD70B50D4C0D004434FA
:10B7800001000822200019F0D3FD20000023094900
:10B79000083102785C5C0133224302700130082BCF
:10B7A000F7D128000021FFF7CFFF002070BDC04671
:10B7B00094BA00000CED001810B50C00064B0822DE
:10B7C0004C330100180019F0B3FD20000021FFF7F1
:10B7D000BBFF002010BDC04694BA000003001B78D8
:10B7E000080070B51221032B11D801241C400A4B0C
:10B7F000DA6D19798918914203D1603300211C70E8
:10B8000005E00132551E2D78002DF4D00C21FFF7F4
:10B810009BFF002070BDC04694BA000003001A8848
:10B82000080010B51121FA2A04D9044A9988603217
:10B8300051800021FFF788FF002010BD94BA00005E
:10B8400010B50F4B02780C001979002A03D04288FA
:10B850008A4207D282886033D98891420DD98A1AE8
:10B86000DA8008E00022012011001B6998471221AC
:10B870002000FFF769FF002010BD0022F0E7C0465E
:10B8800094BA000070B508260C00094D3200010082
:10B89000280019F04DFD074832002900543019F0F6
:10B8A00047FD20000021FFF74FFF002070BDC0467C
:10B8B0002CBD000094BA0000F7B5050000240191EA
:10B8C00036490B79A3420ED835492800013115F0CD
:10B8D0008FFC1221041E5BD129000622314819F089
:10B8E00027FD210054E044276743CB68DB191A0089
:10B8F00040321278901E01282BD9284EF368DB19AC
:10B900001A0040321278072A0DD11B680093002BD1
:10B9100003D121000320336998470222009B1B7842
:10B920009343012B2FD0F368DB191A0040321278B1
:10B93000052A0BD11F68002F03D121000320336992
:10B94000984702227B789343012B1CD00134E4B248
:10B95000B6E71548EE3000780128CED11E68002EDB
:10B9600003D10B69023021009847102372881A42D4
:10B9700004D10A4B210003201B6998470222F37A65
:10B980009343012BB9D1054B0C211B79A3429BD9C1
:10B990000198FFF7D9FE0020FEBDC04694BA000012
:10B9A0000CEE00183ABD000028BD0000F8B5164E98
:10B9B00005000436F37F0F000C24002B1CD1047902
:10B9C0001F339C431ED115F020FC0138C0B224283F
:10B9D00018D8052229000D4819F0AAFCFA222100E6
:10B9E0000520920015F068FE012321000420F37762
:10B9F00016F086FFFCF7B0FA38002100FFF7A4FE2E
:10BA00000020F8BD1224F7E728BD000040BD00006B
:10BA1000F8B50D00FBF788FB0C21002819D0002495
:10BA200001270A210E4E6143336859184B7A3B4275
:10BA300008D05A0712D50222934320000A7A4B728B
:10BA40000EF014FB33790134E4B20133A342E8DA97
:10BA500000212800FFF778FE0020F8BD0322EBE765
:10BA600094BA000010B5104B0C0056331B78002B15
:10BA70000CD10E4B59799A6827234B43FF219B1811
:10BA80009A420DD10EF086FC002104E0FBF772FB18
:10BA90000C210028EDD02000FFF756FE002010BD3D
:10BAA00091712732ECE7C04628BD000094BA00002F
:10BAB00003880C485A1E92B210B50C001221824223
:10BAC0000AD8094A002154321380FA229200062033
:10BAD0005A4315F0F1FD00212000FFF735FE00204C
:10BAE00010BDC046B7A1000028BD000070B50C0015
:10BAF0000500FBF73FFB0C21002809D12B7806310C
:10BB0000012B05D8012201001340044A563213705C
:10BB10002000FFF719FE002070BDC04628BD0000C0
:10BB20000278F8B553425A411F4B0E001B680500BE
:10BB3000591E8B41002443219A4204D01B4B1A7991
:10BB4000A24205D800213000FFF7FEFD0020F8BD1D
:10BB500044226243DB689B1840331B78092B20D1B9
:10BB6000134BA2005B6AD358002B1AD01A007E3206
:10BB70001278D243920714D02B331B785B0710D571
:10BB800001211020230219430A000C23FF302F78D3
:10BB900015F0ECF80A238380064B0772036015F05A
:10BBA00039FE0134E4B2C9E728BD000094BA0000B0
:10BBB00014BC0000C9640118030070B51C8808009B
:10BBC00022001B3A1221E02A0BD85A88074D130095
:10BBD000493BFF3B9BB2AB4203D80021044B9C8402
:10BBE000DA84FFF7B1FD002070BDC0464841000077
:10BBF00028BD0000F8B503001A78080014000221DF
:10BC00000C400A4203D19D781031002D2AD0012129
:10BC100015000D400A4206D15A781131002A21D070
:10BC2000002C0AD101E0002C20D107229E7811219E
:10BC30003240964216D1002D08D15E780722370097
:10BC400011211740BE420DD1002C00D19A78084C2A
:10BC500021002B310A700722002D00D15A780021D3
:10BC60002A342270FFF770FD0020F8BD0722EEE7AE
:10BC700028BD0000F7B5174A01911400EE3425786D
:10BC800003000C21012D1FD00A39217007781031D3
:10BC9000022F19D8FA2446886400A64214D2858857
:10BCA0000D482C000A3CA4B284420DD89C7917237D
:10BCB0002000984308D111002C310F70110032314F
:10BCC0000C700100D68515860198FFF73DFD002018
:10BCD000FEBDC04628BD0000F63F0000F8B51A4B77
:10BCE0000E00EE331A78012A05D10C213000FFF73F
:10BCF0002BFD0020F8BD0222144D1A702979423222
:10BD00004A43EB684033D2189A4206D100244427B4
:10BD10002B79A3420AD80021E8E71978881E012868
:10BD2000E3D90C3944330129EED8DEE73B00634305
:10BD3000EA68D31840331B78012B02D12000FFF7AB
:10BD400093FC0134E4B2E3E728BD000094BA00009C
:10BD500070B544240A780B4E6243F3680D009A18BC
:10BD6000403213780D2B0BD1812000218001FFF789
:10BD7000EBFC2A78F36854430A221B1940331A70EB
:10BD8000002070BD94BA0000F7B5314B0091EE333E
:10BD90001A780600012A57D002221A70FBF74AFAD5
:10BDA0002C4F05003B790C240190834210D917F0E9
:10BDB00083F8041E36D144266E43FB689B191A0093
:10BDC0004032107018680C3815F006F9FB689C5169
:10BDD00021000098FFF7B8FC002C28D12100122385
:10BDE0003E221D4814F0C2FF44211C4B69430380CE
:10BDF000184B4580DD68060069180B002E331B7850
:10BE0000062203710B0036331B7820314371063054
:10BE100019F08EFA012330003373F4813474FCF787
:10BE200021FC04E0019811F0F7FE002801D1002068
:10BE3000FEBD330000220C3BDA80009A30001A81EC
:10BE400015F0E8FC0120F3E700250C24C0E7C0460C
:10BE500028BD000094BA0000041100000E44000048
:10BE600070B5124B0D00EE331A78012A19D0022258
:10BE70000F4E1A7000783379834212D94424444318
:10BE8000F3681B1940331B780F2B0AD111F0C4FE45
:10BE9000011E07D1F3681C191023403423700020C1
:10BEA00070BD0C212800FFF74FFCF8E728BD00000B
:10BEB00094BA0000F8B5184B0D00EE331A78012A39
:10BEC00028D002221A70FBF7B5F9144E3379834259
:10BED00020D800240A2739006143336859184B7A67
:10BEE000DA0709D59A0713D5042293434B72200031
:10BEF0000A7A0B4B0EF0C8F933790134E4B20133FE
:10BF0000A342E8DA00212800FFF71EFC0020F8BD5C
:10BF10000522EAE70C21F6E728BD000094BA0000EC
:10BF2000FFFF0000020070B5947808001221012C78
:10BF300015D80F4D13782A7930319A420FD94422FF
:10BF40005343EA684139D2183532137819408C428C
:10BF500009D0990707D504210B4300211370FFF77F
:10BF6000F3FB002070BD01218B432343F5E7C0465E
:10BF700094BA000010B502000C0001230021034810
:10BF800014F0F4FE0470FCF76DFB10BD021100000C
:10BF900073B508000021FFF7EDFF6A460123937196
:10BFA0006B46664ED41D991D22008220B36A9847C5
:10BFB000002801D00023237020236A469371237840
:10BFC0005F4D002B0AD069462A008020B36A0631F3
:10BFD0009847002800D1A2E000232370594C260086
:10BFE00033360CF021F92300333318702300020A92
:10BFF00034331A702300020C35331A702300000EFC
:10C00000363318700CF010F9230037331870230002
:10C01000020A38331A702300020C39331A702300D5
:10C02000000E3A3318700CF0FFF823003B33187001
:10C030002300020A3C331A702300020C3D331A70AD
:10C040002300000E3E3318700CF0EEF823003F334F
:10C0500018702300020A40331A702300020C413387
:10C060001A702300000E423318700CF0DDF8230024
:10C07000433318702300020A44331A702300020C61
:10C0800045331A702300000E463318700CF0CCF8BC
:10C090002300473318702300020A48331A70230024
:10C0A000020C49331A702300000E4A3318700CF04A
:10C0B000BBF823004B3318702300020A4C331A706C
:10C0C0002300020C4D331A702300000E4E331870FB
:10C0D0000CF0AAF823004F3318702300020A5033E3
:10C0E0001A702300020C51331A702300000E5233D1
:10C0F00018701F23EA5C002A05D1013BFAD233787D
:10C10000002B00D16DE71F230F4A4832E85C995C91
:10C11000884200D965E706D3013BF7D203E02378D4
:10C12000002B00D15AE7084928000A0008230832EA
:10C13000283117F04FF9002076BDC04614BB00002F
:10C140005BBD000028BD00000CEE001810B51E23DA
:10C150000C000A4AD15C002907D1013BFAD20C310C
:10C160002000FFF707FF002010BD02000100092397
:10C170000348203217F02EF90100F1E75CBD000002
:10C180005BBD0000030070B540331B7804000D0058
:10C19000002B0CD10C4A1E33D15C002911D1013B7C
:10C1A000FAD20C312800FFF7E5FE002070BD0748E9
:10C1B0006830220021000923203217F00BF901001A
:10C1C000F0E70348F5E7C0465CBD00000CEE001840
:10C1D0005BBD0000F7B5060000240F4B0191DD6840
:10C1E0001F792635A74203D1BC4280414042FEBDA3
:10C1F000AB7E092B0BD13000A91F14F0F9FF0028EA
:10C2000005D0019A2B78534001221342ECD001341F
:10C21000E4B24435E6E7C04694BA0000F7B506003C
:10C220000024144B0091DD681F7901922E35A7423E
:10C2300003D1BC4280414042FEBDAB7C1A000E3AA5
:10C24000012A01D9112B10D1290030000E3914F028
:10C25000CFFF002809D0009A2B7A534001221342C5
:10C2600003D12B78019A9342E3D00134E4B24435F0
:10C27000DDE7C04694BA0000F0B5050000240A26A8
:10C280000127104B85B01A681B7903910133019285
:10C29000029330006043019B1818437A3B4208D058
:10C2A000037A039A934204D1290014F0A1FF0028D5
:10C2B00004D10134029BE4B2A342EADA200005B0C3
:10C2C000F0BDC04694BA0000F0B585B0019003916E
:10C2D000FAF72AFF0C25002841D0019B0635197872
:10C2E0008B1EDBB2FC2B3AD9019B5E1C3000FFF7A2
:10C2F000C3FF224F04003B7902930133834226DBC4
:10C300000A2343433A68D3185B7A9B0727D40A254C
:10C3100065433B6806225819310019F009F83B685B
:10C3200030005D19019B6A7A1F78032313432F7233
:10C330006B723900FFF74EFF0025A8420FD1FF2F87
:10C3400014D03A00310020000FF06CFC07E0FAF73F
:10C35000B5FE029B0400023307259842D7D103980B
:10C360002900FFF7F1F9002005B0F0BDA022D205A9
:10C37000136803490B401360F1E7C04694BA00000C
:10C38000FFFBFFFFF8B504000D00FAF7CDFE0C2609
:10C39000002820D027780636BB1EDBB2FC2B1AD92A
:10C3A000013439002000FFF767FF0F490B79013393
:10C3B000834210DB0A220B68022142439A18537A07
:10C3C0000B4208D05E070CD58B43537221003A0014
:10C3D0000DF04CFE002628003100FFF7B5F90020D3
:10C3E000F8BD0321F0E7C04694BA0000F0B585B06F
:10C3F00001900391C37902930F2B07D9122403985C
:10C400002100FFF7A1F9002005B0F0BD019B1F78C6
:10C41000012FF3D82A4BEE331A78012A01D10C24CC
:10C42000EDE702221A70FAF705FF264E34798442AE
:10C43000F5D8019B39005D1C2800FFF71DFF631C28
:10C440000700834233DB0A22424333689B185A7A3F
:10C45000520704D5DB88029A1341DB07CED40A26A3
:10C46000184C7E43236806229819290018F060FFB3
:10C470000121019A236828009B19167800241E7256
:10C48000D27991400192DA880A43DA800522597AFA
:10C490000A435A723100019AFFF7C0FEA042AED1A2
:10C4A000320029003800019B0DF038FEA7E7FAF7AB
:10C4B00005FEA31C070007249842D0D19FE7C04681
:10C4C00028BD000094BA0000F0B585B00391C3798F
:10C4D0000400122101930F2B08D80778012F05D8EB
:10C4E000234BEE331A78012A06D10C210398FFF76B
:10C4F0002BF9002005B0F0BD02221A70FAF79AFE5F
:10C500001C4E35798542F0D8013439002000FFF700
:10C51000B3FE013542218542E8DB0A23042543436B
:10C520000293029A33689A18537A2B42DED0012381
:10C5300001998B40D1889943D1809BB23A00210068
:10C540000DF0A2FE029B3268D218D388002B01D0D6
:10C550000021CBE702210220537A1940034202D086
:10C56000AB435372F4E7052083435372BEE7C046E2
:10C5700028BD000094BA0000F7B50127060000248A
:10C580000C4B0F405A799D680192019BA34201D147
:10C590002000FEBDAB79FF2B07D0BB4205D1310097
:10C5A000280014F025FE0028F2D10134E4B227352A
:10C5B000EBE7C04694BA0000F0B503788DB00B915C
:10C5C000050012210193012B38D8824B56331B787A
:10C5D000002B2ED10026804B6F1C1A79DC6802924A
:10C5E0004034029BB3422FDC0023380001990593AD
:10C5F000FFF742FE0022029B06920133834208DBD2
:10C600000A325043744B1B681818437A9B07DB0FA0
:10C61000069301993800FFF7AFFF6F4B12215A794B
:10C6200082420BD800269B680633B2421CD10721F8
:10C6300004E0FAF79FFD0C210028CBD00B98FFF700
:10C6400083F800200DB0F0BD2378092B07D121001D
:10C6500006223800203918F05DFE002802D001368D
:10C660004434BEE70123C0E727331900273909788E
:10C67000FF2902D00136F6B2D7E7584CEB1D08343B
:10C6800003931033102221001800049318F042FE87
:10C6900003005A1E934121001022DBB20990E81DCD
:10C6A000079318F037FE030038215A1E9341714357
:10C6B000DBB20893029B0391191D70230C22032403
:10C6C0005943029B543102335343FF311B19A14399
:10C6D000C918A143039B1A3159180A9089B238002E
:10C6E000063A13F0E7FA099B002B15D070220C27AD
:10C6F000394B04981B79191D514302335F43543160
:10C70000FF31A1433F19C919039BA1432031591897
:10C7100089B2603A13F0CEFA0A9B002B16D0702132
:10C720002D4B18790C23021D514303220230434341
:10C730005431FF319B189143C9189143039B043135
:10C74000591889B20D32E81D13F0B4FA702322494A
:10C750000C220C79201D43430320023462435433DE
:10C76000FF33121883439B181D4A83439B183822BA
:10C7700072439B18089A01985200024305988C68EE
:10C78000800302430698691C400302430798800116
:10C79000024307984001024308988000024380202A
:10C7A00000020243272070431A802B782418A371BB
:10C7B0000622200018F0BCFD290010221731E01DD0
:10C7C00018F0B6FD2000E91D1022173018F0B0FD5A
:10C7D000002133E728BD000094BA00008CEE001859
:10C7E0000040005070B506780C0005001221012EA3
:10C7F00030D81B4B56331B78002B04D0FAF7BAFC09
:10C800000C21002826D13100681CFFF7B5FE154D1C
:10C8100002216B7983421DD970230C222E79311DA0
:10C820004B430321023672435433FF3352188B4378
:10C830009B180D4A8B439B18382242439B181A8839
:10C8400000215204520C1A8027225043AB6818185A
:10C85000FF2383712000FEF777FF002070BDC046E4
:10C8600028BD000094BA00000040005070B50A00D6
:10C870000500072300211B4814F078FA12230370E7
:10C8800029780400012926D8681CFFF775FE164B8D
:10C890005A79824224D970211D790C232A1D5143D3
:10C8A000032202356B435431FF319B189143C91861
:10C8B0000E4B9143CA183823584312181288363B3E
:10C8C000120707D514310918062289B2601C13F02B
:10C8D000E9F9002323702000FBF7C4FE002070BD9F
:10C8E0000223F7E70111000094BA00000040005055
:10C8F00070B50A000500072300211B4814F036FA22
:10C900001223037029780400012926D8681CFFF738
:10C9100033FE164B5A79824224D970211D790C239B
:10C920002A1D5143032202356B435431FF319B18BA
:10C930009143C9180E4B9143CA1838235843121813
:10C940001288363B120607D530310918062289B203
:10C95000601C13F0A7F9002323702000FBF782FE70
:10C96000002070BD0223F7E70111000094BA000017
:10C970000040005070B51E4B060056331B780D006A
:10C98000002B04D0FAF7F6FB0C23002829D1F47908
:10C990001223012C25D83178012922D8701CFFF7E9
:10C9A000EBFD144A0223517981421AD916790C22DF
:10C9B000311D6E334B430321023672435433FF3330
:10C9C00052188B439B180C4A8B439B1838225043B8
:10C9D0001B181A880949E4020A401443A4B21C80B7
:10C9E000002328001900FEF7AFFE002070BDC046EE
:10C9F00028BD000094BA000000400050FFF7FFFF80
:10CA0000F0B544250B7895B003936B437E4E0193AC
:10CA1000019AF3680C009B181A003E3212781F68C6
:10CA2000009240331A78032A21D1784D2B00EE333F
:10CA30001B78012B09D100217548FEF785FEF368AC
:10CA4000019A9B18403301229CE02B00ED331978AA
:10CA5000002903D10A00012033699847ED35297870
:10CA60000139C9B229700029E9D16A48E5E70A000D
:10CA70001532029220321278002A00D1E8E17B8838
:10CA8000029804930B0037331978FFF7A3FB059046
:10CA9000002800D1C2E00C23049A1A4204D00022DC
:10CAA00001201100336998477D8806AB1D837B7A8E
:10CAB0003A7A1B0412021343FA793900134309939B
:10CAC000BB7A06AA5377FB7A0D3102931300029AC0
:10CAD0009A7706223E7B9818DE7718F029FC04210D
