:020000041800E2
:1020000010B5024B00221B68984710BD10400050CD
:1020100010B5024B01221B68984710BD10400050BC
:1020200010B5024B00221B68984710BD10400050AD
:1020300010B5024B01221B68984710BD104000509C
:1020400037B504008D004519AC4200D137BD054BB2
:102050001B6898470422019001A920001AF038FB60
:102060000434F1E7FC41005000220023F0B506687B
:10207000476885B00C0000250092019303900291FF
:10208000B9420AD83800FFF7BBFF210041432A00BC
:102090000B00B61A9F41019000950122002303E036
:1020A00024196D4192185B41002D02DC06D1002CF1
:1020B00004D0AF42F4D801D1A642F1D8BD420AD82B
:1020C00001D1B44207D80098019980185941361BB4
:1020D000AF4100900191E9078C4669080291614681
:1020E000600801430C00D9075B08029D0293500869
:1020F000029B01430A001943E0D1009B019C300080
:10210000039A1360546005B0F0BD000037B50C4B66
:1021100001911B6800901400984769460500200053
:1021200000F06FF9074B04001B6828009847002C4B
:1021300005D1054B2200210001201B68984737BDBF
:102140006041005064410050884100500A4B37B54F
:102150001B680400984769460500200000F06FF9ED
:10216000064B04001B6828009847002C02D00198F9
:10217000009B984720003EBD6041005064410050E4
:102180000023036070470368002B05D05A68116074
:102190004A600B6059607047016009604960FAE766
:1021A00003000068002807D00268904205D1002291
:1021B0001A60002303604360704741680A60516001
:1021C000F6E74A6800238A4205D00B6813605A601C
:1021D00002688A4200D1036000230B604B607047A5
:1021E0004B6810B504681A6053604A6011608C42F5
:1021F00000D1026010BD036859600B600160486047
:102200007047F8B5036806000C001700002B03D1D7
:10221000016009604960F8BD5D6829002000B84789
:10222000002805D02B685C60236065602C60F2E7B5
:1022300033686D685A68AA42EFD12C6023606560EC
:102240005C603460E7E7006870470068704703002F
:102250000068002802D05868431E98417047006803
:10226000704770B504000E00150012F09BFEA660CA
:10227000E56070BD70B5066804000D0012F096FEB2
:10228000002E03D129002000A368984770BD70B5C7
:102290000D000400160012F0B1FE2A000100330008
:1022A0002000E568A847002805D12168002902D050
:1022B0002000A368984770BD10B5496940691AF0BD
:1022C00055F9C043C00F10BD8160C2607047016105
:1022D000704700697047000070B51AF074F9144D2A
:1022E0002800FFF7B0FF041E20D01AF073F96069D0
:1022F0001AF05CF91AF044F961691AF037F900280C
:1023000012DB2800FFF74CFFE068A368984700281D
:10231000E5D0216960691AF025F921006061054A5C
:102320002800FFF76EFFDAE71AF046F970BDC046E5
:1023300014400050B922001810B5FFF7CDFF10BDB2
:10234000084B70B51B680500984704002900064A31
:102350000648FFF756FFFFF7BFFF054B20001B683D
:10236000984770BD60410050B922001814400050D9
:102370006441005070B504001AF002F921690500AB
:102380001AF0F0F860612000FFF7DAFF280070BD56
:10239000084B70B51B6805009847040029000648E3
:1023A000FFF70FFFFFF798FF044B20001B689847CB
:1023B00070BDC04660410050144000506441005060
:1023C00010B5FFF744FF10BD10B502481AF007F929
:1023D00010BDC0463923001810B50248FFF7D0FEE3
:1023E00010BDC0461440005003009A88C0881B8965
:1023F000801AC21780185040C01A43425841C0B2D8
:102400007047F8B504000D00FFF7EEFF0023984277
:1024100013D1E38822892768DE00934201D39E1AF4
:10242000F600BE1901332868696852003060716097
:10243000934200D10023E38001231800F8BD30B59A
:102440008288C48803000020944212D018891D6835
:10245000D400904201D8141AE4002C1901326568A6
:10246000246840000C604D60824200D100220120AF
:102470009A8030BDF8B58568078A06000C00481BB5
:102480003900FFF7D5FD0020814208D10800A542A0
:1024900005D8708A4743ED19AC42A4416042F8BDAB
:1024A00070B5050083680C00C81A298AFFF7C0FDC3
:1024B000002905D00022064B110001201B68984717
:1024C000AB68298AE01AFFF7A3FD80B270BDC04651
:1024D0008841005070B5050012F090FD041E09D02F
:1024E00001002800FFF7DCFFEB68002B02D01A5C2C
:1024F00001321A54200070BDF8B50F000400FFF738
:10250000B9FF011E04D1154B02001B68012098473A
:1025100039002000FFF7C4FFE6680500002E16D042
:10252000315C002904D10D4B0A0001201B6898473B
:10253000E268535D013B5355E3685B5D002B03D1BB
:102540003900200012F032FDE368585DF8BD20002C
:10255000390012F02BFD3000F8E7C04688410050EA
:10256000038A80685943401870470068431E9841A9
:10257000C0B2704770B50D00C1680400002904D1D5
:10258000034B0A0001201B689847E368585D70BD43
:102590008841005070B504000D00FFF76BFF002864
:1025A0000DD0E368002B0BD029002000FFF778FF47
:1025B00001002000FFF7DEFF431E9841C0B270BD4E
:1025C0002368002BFBD0AB4201D01B68F9E7002049
:1025D000F5E7408A70470000F8B5072012F026FAA8
:1025E000114D2E68002E1CD1F8BD3B00A3401E42A9
:1025F00003D02000C9B200F027FA0134E4B20B4B3B
:102600001B78023B9C4202DA29890029EDD12B6814
:10261000002BE9D02B89002BE6D0072012F0E4F93B
:10262000E2E700240127EAE7184000507941005012
:1026300010B5040001280ED0022809D0002803D1CB
:102640000720084912F0B4F9200000F047F910BD46
:10265000072012F0EBF90C22002103481AF054F87D
:10266000F2E7C046D92500181840005010B500F018
:1026700031F810BD024B9880D98019817047C0464F
:1026800018400050014B18897047C0461840005050
:1026900070B50125094C8540236800290BD01D42E7
:1026A00005D12389002B02D0072012F09DF9236861
:1026B0001D43256070BDAB432360FBE7184000500D
:1026C00010B504000021FFF7E3FF0021200000F017
:1026D00089F810BDF8B5184E8500336804005B59C1
:1026E000002B05D00022154B110001201B689847D4
:1026F000012720020021384312F064F8002138201D
:1027000011F026FE041E08D10C4B020001001B68CC
:102710003800984733685C51F8BD002780C012F03C
:1027200041FC2000E760A776103012F03BFC042348
:10273000E7762377EEE7C0463040005088410050EE
:1027400070B5012400020443200016000D0012F0B1
:10275000A7F8002E05D02843C1B2200012F032F8AD
:1027600070BDA843F8E70000F8B50D001100012284
:102770001C0006AB1E88000207AB1F88024306231D
:10278000044811F0F1FC057087804680447011F018
:102790000FFDF8BD040A0000F7B51300104A0D0044
:1027A000126881008E580400002E17D0002D15D11C
:1027B000316800290DD00F0005200C3F3A890978B7
:1027C000009001952000FFF7CFFF380011F019FDB0
:1027D0003560002201212000FFF7B2FFF7BDC0469F
:1027E00030400050F0B5384F87B0830004933B6809
:1027F00082009C58012203021A43050003910592AE
:10280000002C31D03148110011F03CFC2068002828
:1028100007D0039B002B2DD1462219002800FFF77B
:10282000BBFF01262169002928D1E068002801D0DA
:1028300011F018FEFFF726FF002805D1A37E002B1C
:1028400002D0073012F0D0F8214AA37E11895B181C
:1028500013816668002E17D13B68049A985811F0CE
:1028600001FE3B68049A9E503F21059811F0AAFF93
:1028700007B0F0BD0C3811F0C4FCD2E7039A280071
:10288000724001F003FFCDE7201D12F0B7FB039B60
:102890000600002B0DD182880E4B9A420DD1039B6E
:1028A00002890193438A0621009328004623FFF7FB
:1028B0005BFF300011F0D6FDCBE7074B290002206B
:1028C0001B689847F5E7C04630400050140A0000E6
:1028D00018400050120A00008841005070B50400F2
:1028E00001282FD002282BD0002814D11A491B4BC5
:1028F0001B4D0B601B4B01201B6801264B602B7886
:10290000023B0B81184B1B884B8111F021FF2B7868
:10291000023B9C4200DB70BD20023F21304301346A
:1029200011F050FFE4B2F2E720000121FFF75AFF57
:102930000134E4B20A4B1B78023B9C42F4DBEAE729
:102940000024F7E7064B00211A78084B023A186872
:10295000920019F0D9FEDEE72440005060350018DF
:102960007941005034400050C835001830400050C4
:102970000F4B70B51B688200D5580E4B0C001B78AE
:10298000023B984205DB00220B4B110001201B6823
:102990009847002C05D00022074B110001201B682E
:1029A0009847A4006359181E00D0187870BDC0461F
:1029B0003040005079410050884100500D4B70B5B7
:1029C0001B688200D5580C4B0C001B78023B9842C8
:1029D00005DB0022094B110001201B689847002CE1
:1029E00005D00022054B110001201B689847A40068
:1029F000605970BD3040005079410050884100500E
:102A00000E4B70B51B6815008200D6580C4B0C009D
:102A10001B78023B984205DB00220A4B1100012083
:102A20001B689847002C05D00022064B110001209E
:102A30001B689847A400A55170BDC04630400050A7
:102A40007941005088410050F0B5A94B82001B68C5
:102A50008FB0D358070007910593002B00D129E1CF
:102A60005C68221E02D00A00531E9A4101231A40BC
:102A700006923A0213430B93069B002B00D111E1FF
:102A8000162608ABF61800231525338008ABED1881
:102A900001232B70974B02219888053011F058FCC8
:102AA0000300053308930990A188934B99422FD0D6
:102AB000924B994200D094E0E38921005A1E934141
:102AC00020002B703200089B00950E31103000F072
:102AD000F1FD0300051E03D1228A002A00D085E003
:102AE000002122890191618A380000910621FFF7B7
:102AF0003BFE059B181D12F081FA200011F081FBAE
:102B0000002D6CD0099811F0ADFC00230693C5E0B0
:102B100002213800228A01F09DFD031E049000D19D
:102B2000CAE001220133DB7F134200D1DEE0E589F8
:102B3000A38A468B0A93002D18D11D000235B54299
:102B400000D93500ADB2049B998B002904D16C4BA0
:102B50000A0001201B689847049B049A9B8B013B49
:102B60009383638A0133638200230DE03100A81C44
:102B7000FFF75EFA0A9B761A5D1BB54200D9350055
:102B8000ADB28BB20029DED05A1E9341152208A99E
:102B9000DBB2521813701622029323005218210040
:102BA0000E33019500933800089B103100F00EFDA4
:102BB000051E03D1E289A38A9A4202D1049B9B7B22
:102BC0007CE0049B9D8B002D10D118000223013066
:102BD000C27F1343C377059B181D12F00FFA0695A9
:102BE00004E0474B3A0003201B689847380007F081
:102BF000F9F8082301000B9A424811F0B5FA1623A0
:102C000008AA9B18198805004180002904D13C4B73
:102C10000320A2881B689847089B38006B6007F068
:102C2000E1F8000B08D0364B38001E6807F0DAF8E0
:102C3000354902000320B04738002E8807F0D2F84B
:102C40001523360B360336B2064308AA2E809B188E
:102C50001A782E4E1303334205D0C021284B03208F
:102C60001B68890198472B8808AA1E4015239B18CA
:102C70001B7828001B031E43B604B60C2E8010F0F0
:102C8000D1F81C4A079913890139013B1381059B2F
:102C9000059A9B7E01339376CBB20793079B002B5B
:102CA00000D0E9E6059B380059684B1E9941C9B22E
:102CB000FFF7EEFC0FB0F0BD3325237C618A22893B
:102CC00038000191009304212B00FFF74DFD059B77
:102CD000181D12F093F9200011F093FA049B002BB9
:102CE00000D10DE70023049A536009E7332565E717
:102CF00030400050184000500D0A0000120A000039
:102D00008841005006110000FF0F0000FFCFFFFFB9
:102D100010B5024B1B68984710BDC046FC410050DF
:102D200000207047F7B5100016000C001D0011F0D0
:102D3000B7FD462302002178300A3F2A03D04B1FFB
:102D40005A1E934142330026E279A77912023A4390
:102D5000019600922A00FFF707FD3000FEBD73B513
:102D600010000E00150011F09BFD00243F280AD032
:102D7000F388052B07D13378280AA34205D1311DEA
:102D800001F004FC0400200076BD332BFBD0717AE7
:102D9000312B05D1012200941A3B01F091FBF2E79F
:102DA0000029F0D0230022000094F6E7F0B508884F
:102DB00089B00005000D059106F0F8FF0600FF2818
:102DC00056D04E4B82001B68D558059B5968079119
:102DD000002904D14A4B0A0001201B689847059B33
:102DE00002AA5B885382059B1B889B049F0F002DC2
:102DF00005D1434B2A00290001201B689847012F69
:102E000004D0022F34D1300000F0E4FEEA7E2B7FA4
:102E10009A4208D2122302AA9B181A00300007A96E
:102E200000F038FF0227EC68002C21D0A188354B38
:102E3000994226D0344B994259D1029702AB5B8A12
:102E400022000193079B210000932B0030001833D0
:102E50000E32103100F072FD002802D12B8B002BB6
:102E600006D10023EB60207320000C3011F0A0F994
:102E7000059B5868002801D011F0F4FA002009B031
:102E8000F0BD2A0002AB18325B8A019222002100B9
:102E90000E32029700923000079A103100F0CCFBFE
:102EA000071E02D12B8B002BE2D101213000228A98
:102EB00001F0D0FB011E16D0431CDB7FDB0712D5CF
:102EC000002F0BD1E289A38A9A4204D187602000A7
:102ED0000C3011F06DF90023EB60C9E73A003000C7
:102EE00001F02AFCF7E7E86811F0BCFAF3E7044BBD
:102EF000320003201B689847BAE7C04630400050B4
:102F0000884100500E0A0000130A000070B510003E
:102F10000D00140011F0C4FC3F2808D0240A002141
:102F20002000FFF725FD01280DD0022801D0002048
:102F300070BD01216A88200001F08CFB0122010094
:102F4000200001F0A3FB452200212000FFF724FC14
:102F5000EDE70000F7B5150010000C001F0011F0A0
:102F60009FFC2D0AEEB23F2838D02378042B0BD0DB
:102F700043230025A2883000009221783A00019571
:102F8000FFF7F2FB280022E001213000A28801F0C7
:102F900061FB002824D04368002BE9D12189028BF2
:102FA00091421FD844606380C38AA380838B002B27
:102FB0000ED021000C4BAD001B680C39E8580430D2
:102FC00011F0F4FF01213000FFF762FB0120FEBD8C
:102FD00002230130C27F1343C377F7E74623C8E7D4
:102FE0003323C6E73123C4E730400050F7B514005F
:102FF00010000D001E0011F053FC220A2978D7B2F0
:103000003F2813D04323062911D129000D4B9200EC
:103010001B680C39D058043011F0C8FF380001216A
:10302000FFF736FB002301206B80FEBD4623002402
:10303000EA883800009201943200FFF795FB2000E7
:10304000F3E7C04630400050F7B50091132B0FD185
:10305000FFF718FB0024009B01909D1C009B1B7830
:10306000A34207D8019B002B02D1072011F0BCFC22
:103070000020FEBD288806F099FE0200FF2814D02B
:103080000C4F86003B689B59002B04D10A4B032050
:1030900029881B689847094B69881A898A181A81F8
:1030A0003B689A59937E5B1A93760134A4B2023539
:1030B000D4E7C046304000508841005018400050CE
:1030C000F0B5100087B00D00049211F0E9FB3F2825
:1030D00000D179E0049B02211F0A38002A8801F000
:1030E000B9FA041E00D16FE0AB783726002B36D03A
:1030F000431CDA7F012316001E401A4200D072E002
:103100002B8905930BF098FB059B984200D26CE04D
:103110002B89162B00D868E06B8905930BF092FB86
:10312000059B984200D262E06989162900D85EE0CA
:10313000288908180130FEF76BFFEB88984258DAAF
:10314000AB88002B43D0AA881300403B3F2B52D8BA
:103150000121380001F07EFA002800D03E26AB881D
:103160003000E3812B8923826B896382EB88A38201
:1031700001F052FA0100208AE21CE389D27F02901A
:10318000608A0190A08A0090380001F01DFBAB78A6
:10319000002B12D00C23E18B049A1B4810F0E4FFA3
:1031A000A38906704380E3898380A38BC380238B2C
:1031B0000381638B438110F0FBFF002E1DD101239F
:1031C0000134E27F1343E377002007B0F0BD4023D2
:1031D000AB8001213800AA8801F03CFA0028B2D067
:1031E000AB880133F4E74326B9E73126B7E7322647
:1031F000B5E73D26B3E73326B1E7002221003800CA
:1032000001F044FAE0E7C046080A0000190010B5D2
:10321000030A04000A2B08D18A4206D00448083B5E
:1032200010F0A2FF048010F0C3FF002010BDC046C4
:103230000F0A0000F0B585B004000D0016000293DF
:10324000002905D00022244B110001201B6898475B
:1032500005202302184311F023FB33780700039362
:103260003F2828D029002000FFF7A8FB01231A00DF
:10327000864203D02F41DA181F4208D0100005B053
:10328000F0BD039A934218D0029B01330293029B34
:103290001B78002BF5D14025300010F0B6FF00263A
:1032A00005230200009320002B0003990196FFF7ED
:1032B0005BFA3200E2E74325EEE7320001262900FF
:1032C0002000FFF79DFB3100A94032002000C9B269
:1032D000FFF736FAEDE7C04688410050F0B502230B
:1032E0000D00002185B0170A02AA13715171380030
:1032F0002A0003ABFFF79EFF0600012826D101003C
:103300006A88380001F0A6F9041E25D0431C0193F9
:10331000DB7F334203D1831CDB7F002B1CD0FFF704
:10332000F7FCC0B2002814D06870E38AE289380044
:10333000697801F06BFA0122631CDB7F134205D030
:10334000A6219343019A0234E177D377300005B088
:10335000F0BD01236B70E8E7332200213800FFF74E
:103360001BFAF3E7F7B503230C0069460B71002144
:103370006B46170A59712200380001ABFFF75AFF5C
:103380000600012829D101006288380001F062F9A5
:103390004722051E1DD0431CDB7F334219D0A18874
:1033A000073A002915D0808A0E4B1B1A994210DC6F
:1033B000FFF7AEFCC0B2002811D06070A388EA8984
:1033C0003800617801F053FAA288AB8A9B1800227A
:1033D000AB8200213800FFF7DFF93000FEBD6670D8
:1033E000ECE7C046FFFF0000F0B58BB00793012368
:1033F0000C0004A90B75002104AB5975130A059341
:103400006B461F7D2200380009ABFFF713FF0690C3
:10341000012865D16388002B00D17AE025890BF063
:103420000BFA854200D976E023893126162B00D885
:1034300066E065890BF006FA854200D96DE0618986
:10344000162900D869E0208908180130FEF7E0FD50
:10345000E388984200DB62E0A388002B43D0A28877
:103460001300403B3F2B4AD80121380001F0F2F80D
:10347000011E44D160880BF0E5FA86B2002E3FD1E0
:103480000121242010F064FF05006388059A8381E0
:10349000A388C682C381238992000382638929009D
:1034A0004382E38806848382079B4660C3831D4B67
:1034B00086601B68D058103011F08EFDFFF728FC95
:1034C000C0B2002822D06070288AEB89AA890290B5
:1034D000688A61780190A88A0090380001F046F966
:1034E00006980BB0F0BD4023A38001213800A288CC
:1034F00001F0B0F80028B2D0A3880133F4E73326F6
:1035000000213800F2B2FFF747F9E9E701236370C1
:10351000DAE73A26F4E73126F2E73226F0E73D26ED
:10352000EEE7C0463040005070B50D000121140098
:103530001A0004AB1B8800024A3301439BB20448C3
:1035400010F012FE0623C58004720370083070BDAF
:10355000120A000010B5083810F02AFE10BD000055
:10356000FFFF00000D320018120A0000ED2F0018B6
:103570000D0A0000552F0018100A0000252D001814
:10358000050A0000E9330018070A0000C1300018DE
:103590000B0A000065330018090A0000DD3200182C
:1035A000140A00000D2F0018031100004930001804
:1035B00006110000AD2D0018130A00005F2D001841
:1035C000040A0000212D00180D00000070B518003D
:1035D00004AB20CB1C8806AB1E7800239E420BD187
:1035E000230A047043700B8883701B0AC3702B88F6
:1035F000002B16D0042304300E4E1C19B688B4429A
:1036000000D93400A4B21480E41A2B88A4B2063383
:103610002200C91819F05CF82B880020E4182C80CF
:1036200070BD8B88023C03711B0A4371A4B2062350
:103630000630E1E718400050F7B51F000AAB1B78D1
:10364000089D099C00910192012B1DD0184B2A88DE
:103650001B688000C1580423002A03D12388023B41
:1036600023800623CE7E2888009AF61AF6B21D33F0
:1036700006301018C918320019F02AF82B88F318F0
:103680002B8023889E1B268023883420BB420ED3A8
:103690002888009B06303A001818019919F018F88C
:1036A00000202B88FB182B802388DF1B2780FEBD82
:1036B00030400050F0B587B00293002313800C9B7C
:1036C00004001B78160004910093002B00D00BE13E
:1036D000038043880279052B0DD0062B2ED0042BB6
:1036E00000D01DE1914B522A00D11DE11F21D22AA9
:1036F00003D1152105E017218D4B8A4200D311E13A
:1037000011008900CB580193002B00D10AE1029BE4
:10371000651D1A715F1D23880133238033880133AF
:10372000338000230393019B1878009B002800D16D
:10373000ABE0002B05D0009807B0F0BD0F217D4B0A
:10374000DBE7019B0133059352280FD8402811D99C
:10375000413811280ED818F061FF54100D0D0D0DD1
:103760000D0D0D0D3A2E0D0D0D8B0D4757280FD059
:103770006C2853D03423009319E02B7801353B702B
:1037800023880137013323803388013333800EE0EF
:1037900001226B1C934322889D1C023222803288B6
:1037A000023232801B883B701B0A7B700237019B00
:1037B00001330193B7E7012301359D432388023587
:1037C000023323803388039702333380EEE72900E6
:1037D0003800102218F07CFF238810351033238026
:1037E000338810371033D1E729003800082218F049
:1037F0006FFF238808350833238033880837083360
:10380000C4E729003800062218F062FF2388063535
:1038100006332380338806370633B7E70123019A3E
:10382000013552789D432B880235572A1BD15B0006
:103830009BB2414A3188908822889A182280021FC0
:10384000521A92B201929A4200D901932900019A28
:10385000380018F03DFF019A3388AD189B1833806B
:10386000059B0193A3E7422AE3D0059B019381E7DF
:1038700029003800202218F02BFF23882035203320
:10388000238033882037203380E7002B00D052E795
:10389000039B002B06D03388039A043B9BB2137022
:1038A0001B0A537063881720052B04D02A30062B7F
:1038B00001D00AF0C1FF2388834212D8029A137004
:1038C0001B0A5370638893701B0AD3703288131DD0
:1038D000338023889B1A2380049B04342D1B1D8076
:1038E00029E731230093F7E7134A038892889A4225
:1038F00000D91A00049B211D1B880298C91895B293
:1039000018F0E6FE3388049AEB183380049B1B887A
:10391000EB18138023885D1B0023258000930AE7A2
:103920003323FBE73423F9E71421EAE6703F00185C
:1039300028400018EC3F001818400050F0B58DB03A
:10394000079312AB069204CB01911B880B92039351
:1039500014AB1B78022B00D0DFE0994B80001B6872
:10396000C35804930B79498805290ED0062900D144
:10397000F3E0042911D1934A522B00D11DE11F21FC
:10398000D22B00D0EBE01523EDE0049A0332D27F76
:10399000002A00D00EE13F2706E0019B03201A8891
:1039A000894B33271B6898470222019B5B8893430E
:1039B000042B04D0049B019A0333DB7F537138003E
:1039C0000DB0F0BD029B0133059352280FD840285B
:1039D00011D9413811280ED818F020FE550F0D0DC1
:1039E0000D0D0D0D0D0D22160D0D0D2B0D4C572827
:1039F0000AD06C2850D0342738E02B780136237059
:103A000001350134F6B231E00123621C9A436B7830
:103A100029781B020B43941C138002350236F1E710
:103A200029002000102218F053FE103410351036F3
:103A3000E8E7049B1B7F043B9B1B09930593202B0A
:103A400001D9202305936B461B7D29002000059A90
:103A50000A9318F03DFE099B1F2B01D80123089300
:103A6000059BE418ED180A9BF318DEB2029B0133A4
:103A7000029386E029002000082218F029FE08346D
:103A800008350836BEE729002000062218F020FE7F
:103A9000063406350636B5E70122019B013494430E
:103AA000029A1B8852785B1A9BB2572A1AD15B087C
:103AB000049A2900127F2380043AD2B2931BDEB20B
:103AC000023420000892320018F002FE019B019A95
:103AD0001B88A41902331380059B089E02930123BF
:103AE0000893C3E7422AE3D0059B0293012308937E
:103AF00081E7914251D8089B002B01D191424CD1D2
:103B0000079B521A1A80019B069A0433E31A148801
:103B1000E4181480002F00D046E7039B002B1AD036
:103B2000079B039A1B883427934200D247E7069BE2
:103B300001981988043040180B9918F0C9FD069BAC
:103B4000039A1B88D318069A1380079B039A1B8835
:103B50009B1A079A1380002731E70F211B4A3F2742
:103B60008B4200D320E79B009B580293002B00D18F
:103B700011E7019B01265C1D00231F00049D089393
:103B80002235029BB1B21878079B1A880028B0D062
:103B9000002F02D1914200D814E7019B34275B88A3
:103BA000052B00D000E7019B1B88172B00D8FBE6F4
:103BB000033FF9E61721064AD1E71423D3E7C046AD
:103BC00030400050703F001888410050EC3F001812
:103BD000284000182C4B82001B6870B5D458050093
:103BE000E068002820D0294B82889A4216D1012112
:103BF000028A280000F02EFD011E05D00023342289
:103C00008360280000F098FDE06810F0FAFA0023C5
:103C1000E3600023E3760433237770BD34230C3054
:103C2000037010F0C5FAF2E7E37E227F9A42F0D9E2
:103C3000032BEED9210001201F312A024D7813B247
:103C40000243E07F2D0205431100342628B2052DE2
:103C50000AD0062804D0013E042805D1032100E043
:103C600005213426194389B24A23094810F07CFA09
:103C70000023067043808380C580A31CDB7F037212
:103C800010F096FAC5E7C046304000500E0A00001A
:103C9000130A0000F0B50F00A34B15001B6882004B
:103CA00085B0D6580290F07E347FA04225D22B8872
:103CB000002B01D105B0F0BD241A9C4200D91C0094
:103CC0001D3022003968301818F002FDF37E1B19F0
:103CD000DBB2F3762A88121B2A803A6814193C60FA
:103CE000042BE0D1B37F727F1B021343172B00D943
:103CF0001723327F9B183377D5E7A042DAD1B37F01
:103D0000727F1B021343009333001F335B78F27FF3
:103D10001B0213430193403B3F2B00D9A5E0012137
:103D2000019A029800F096FC041E00D1E9E0431CC1
:103D3000DB7FDB0700D4E4E08568002D3AD02B0060
:103D40000C3BF3602B89688803930027618A009BF2
:103D5000994268D3A38A9C46002B00D181E0228A35
:103D6000039B9A4200D27EE0002833D19A1C009B2C
:103D70009A4234DB002F57D16346013BA382002DCA
:103D80002FD1039B029A01350A3312029BB2E18BB9
:103D900066482A4310F0E8F9019BC5808380039BA5
:103DA0004780038103000C3BA060F3600770009B19
:103DB000338349E0009B012B08D9330021331A7863
:103DC0005B7828001B0213430393BEE728003427C7
:103DD0000395BBE7009BC218039B9A42CADD3427B8
:103DE00022E0EC88009B01340230C018A4B24B1EC4
:103DF000EC80C018FEF70CF980B28442D7D90124B8
:103E0000029B4B481902214306230A0010F0ACF92B
:103E100003230370019B84804380EB88013BEB808C
:103E200010F0C6F9C3E7322702983A00210000F0EB
:103E300083FCF068002803D010F0E3F90023F3605E
:103E40000023A360332F5CD0F068002800D131E755
:103E5000002F00D12EE70C3010F0AAF90023F360F8
:103E600028E73B27E0E73127DEE7B31CDB7F03933E
:103E7000029B1D0201232AB21D436B4604215B5E97
:103E80000199052938D0062B31D0042B39D10324D0
:103E90000298144303F0DEFD009B312798428041D5
:103EA000A4B20740009B002B00D134270AF0C4FCC9
:103EB000009B984222D34A23002F02D1009B4A3311
:103EC0009BB22A0021001B4810F04EF900234380CA
:103ED000019B0770C3807B427B41009A5B42134089
:103EE0008380039B0C3803751300F06060E70524A2
:103EF0001443A4B20027D5E72C00FBE731274A235F
:103F0000DFE70122029B0B48190211434A230A00F2
:103F100010F02AF933270023019A43800770C280EA
:103F200083800C38F0608FE7304000500E0A0000AC
:103F30000B0A0000130A000042574200426C420084
:103F40005757576C42004B005752004241005050A7
:103F5000004257576C5700424C575700424C575736
:103F6000575700424C5700424C575757575700007D
:103F700000000000383F0018653F0018653F00183A
:103F8000593F00183C3F0018403F00183D3F0018C3
:103F9000413F00183C3F0018653F00183D3F0018A6
:103FA000593F00183D3F0018543F00183D3F00188E
:103FB000413F00183C3F0018423F00184D3F001899
:103FC000423F0018423F0018413F0018413F00188F
:103FD0002D3801184D3F001800000000423F001826
:103FE00000000000423F00184D3F00180000000094
:103FF0001538011815380118463F0018463F0018BB
:104000002D380118463F0018483F0018463F001859
:104010004B3F0018463F00182D3801184E3F00183E
:10402000463F00182D38011800000000513F0018CD
:104030000000000000000000000000000000000080
:10404000573F0018573F0018000000000000000014
:104050000000000000000000000000000000000060
:104060000000000000000000000000000000000050
:104070005C3F0018633F0018673F0018673F001857
:10408000573F0018F8B50E008A880221050000F09D
:10409000E1FA041E0FD00122471CFB7F13420AD015
:1040A000808B1D4BF1881B1A994206DD21002800E8
:1040B0003C3200F041FB0020F8BD0029FBD02B0270
:1040C0001A43E18B0423154810F04EF8F288A38BB5
:1040D000D318A383E3894280038010F069F8FA7F44
:1040E0009307E8D56368002B04D10D4B290003200A
:1040F0001B6898470222FB7F9343FB77094BAA007A
:104100001B686168D0580C39043010F04FFF012152
:104110002800FEF7BDFACEE7FFFF00000C0A000002
:104120008841005030400050F7B50D0000210600D6
:10413000FEF744FC00282ED06A7843789A422AD1B0
:104140000778012F27D182883900300000F082FAE9
:104150003323041E019319D033021F43390026482C
:104160000FF090FFAB890B2B44D8244AD35C01930A
:10417000002B06D1AA881300403B3F2B0DD94C23BE
:10418000019300222100300000F080FA002130006D
:10419000019AFEF701FB0020FEBDEB88162BEED93D
:1041A0002B89162BEBD90221300000F053FA00289E
:1041B000E5D13A00E18B0C2311480FF0D5FFAB8815
:1041C000E382EA8822832B8963839C4601236989E1
:1041D000651CA183EF7F3B43EB77A3894380E38991
:1041E000C1808380634643810023028103700FF006
:1041F000DFFFCBE73C23C3E7140A0000C8450018E3
:10420000080A000070B50D0000210400FEF7D6FB7F
:1042100000281ED06A7843789A421AD10378022B7C
:1042200017D101214288200000F014FA4725011E11
:1042300004D00122200000F029FA002501212302E8
:10424000054819430FF01EFF2A0000212000FEF749
:10425000A3FA002070BDC046140A00001523F0B573
:1042600089B002AA05009B18162288880E0002A9B0
:10427000521829000AF0CCFB84B2472C00D18FE001
:104280000121280005F0ECFE02AB01005F7D002853
:1042900000D06DE0BB070CD0280005F0E1FE00283F
:1042A00006D00221280005F0DBFE3924002800D1C9
:1042B0003624E0B200F0B0F9071E00D075E0F288B5
:1042C0001300403B3F2B00D909373389162B00D808
:1042D00068E07389162B00D864E00221280000F002
:1042E000B9F9002800D05FE00121B0880AF0AAFBEC
:1042F000002800D063E0002F57D101242A0202AB2E
:104300002243D98A2F4808230FF02EFF2100059061
:10431000242010F01DF8B388C7818381F38804003E
:10432000C3823389AD000383738921004383B3893A
:10433000838302ABDB8AC383042303847278C31CA8
:10434000DA77214B47601B688760E858103010F01F
:1043500043FEA389059A1380E38A10005380238BC0
:104360009380638BD3800FF023FF002009B0F0BD52
:10437000BB070CD402AB5B7D5B0700D499E7280038
:1043800005F0A8FE0F2800D993E7382491E728000C
:1043900005F08AFE03231F40B84200D288E7E9E710
:1043A0003A2486E70B2798E70A27002339002800DC
:1043B000727802930193009300F006FAD5E7042780
:1043C000F3E7C046060A000030400050F8B50E0082
:1043D000CA880221050000F03DF9041E12D0012711
:1043E000421CD37FBB43D377A322831CDA77C28AD4
:1043F000C3897178280000F027FA3A0021002800CC
:1044000000F044F90020F8BDF7B54C228B88040079
:104410000F000192022B02D8274AD35C019300219E
:104420002000FEF7A5FA431E06000021012B03D849
:104430002000FEF7C3FA417801257878220213B2F2
:104440002A4388422ED111001C480FF01BFEAE42B9
:1044500014D100212000FEF7B1FA002807D082888D
:104460003100200000F0F6F80022011E16D12000D5
:104470000021019AFEF790F90020FEBD022EF6D130
:1044800000212000FEF79AFA0028F0D02900428887
:10449000200000F0DFF8011EE9D02A00200000F023
:1044A000F5F8E4E7052138001943083889B20FF020
:1044B000A0FE2800E1E7C046D4450018140A000019
:1044C000F0B515000027012285B01C000AAB1E883C
:1044D00003020391134305210097FFF725F8858018
:1044E000012D03D0022D0FD0C78003E00472240AEF
:1044F000C5804472039B4370C38801335B004380D3
:10450000FFF728F805B0F0BD04728672240A360A57
:10451000C5804472C672EDE773B506000D0005F064
:1045200077FC041E08D10300020000906978300077
:10453000FFF7C6FF200076BD0521012428003202C6
:1045400013B21943224389B208380FF052FEF1E743
:1045500073B505000E0005F05BFC012809D10024AD
:1045600028002300220071780094FFF7A9FF2000A3
:1045700076BD0521012430002A0213B219432243DB
:1045800089B208380FF035FEF1E7000073B5082353
:1045900000240D790B4A1678AE4200D15468013BD5
:1045A000DBB20832002BF6D1002C02D00431A04738
:1045B00076BD4979230022000094FFF781FF200097
:1045C000F6E7C046D8450018003C3A3C3536373847
:1045D00039333E403C3133000100000009440018EB
:1045E0001200000051450018130000001945001882
:1045F00006000000CD430018070000000542001827
:10460000140000005D420018150000002941001848
:104610001600000085400018030000B500280DD0EA
:10462000353BDAB218000623052A07D8052804D836
:1046300017F0F4FF0608030A0C0E062398B200BD1B
:104640000423FBE70523F9E70723F7E70823F5E74A
:104650000223F3E70C4B80001B68C058002811D0E0
:10466000006900280ED0012908D0022908D00029AD
:1046700002D18389934205D00068F2E7C389F9E744
:10468000C38AF7E77047C04630400050F0B5284B6A
:1046900085B01B6803928200D658070030000C00DA
:1046A0000125103010F0B4FC631CD97FA08989105B
:1046B00029400AF0E1F9039B002B10D03A020423B1
:1046C000E18B1C482A430FF04FFDE3890380A31CB4
:1046D000DB7F002B00D1463383700FF069FDA068AB
:1046E000002807D0F3680C38834201D10023F3601F
:1046F0000FF087FD6568002D15D00C3D2900301D99
:1047000010F086FC039B002B0AD0002063682A89E6
:10471000197801909B88380000934623FEF724F80F
:1047200028000FF06EFD20000FF09CFE05B0F0BDDC
:10473000304000500A0A000070B501260C0001024A
:104740003143150004230A0007480FF00DFDE389EB
:104750004380022303700FF02BFDA219D37F023494
:10476000B343D377E57770BD090A0000F0B50124A3
:1047700087B01D000CAB1B880F0003930DAB1B888B
:10478000160004930EAB1B881422059303021C43EE
:104790000023052100932300FEF7C6FE039B47700C
:1047A0008381049B86804381059BC5800381FEF73E
:1047B000D1FE2100024A03480FF09CFC07B0F0BD77
:1047C00030750000140A0000F0B585B01C000AAB7B
:1047D0001F880BAB1E880CAB1B88150003930123AD
:1047E0000202134300220291009205211532FEF7C6
:1047F0009BFE039B4570C380029B8480478106819A
:104800008381FEF7A7FE05B0F0BD0000F7B50124D7
:104810001D0003021C4300230F0016000521062281
:1048200000932300FEF780FE4770C6808580FEF768
:1048300091FE2100024A03480FF05CFCF7BDC04620
:1048400030750000140A000073B51C000123150028
:104850000202134300220E00009205210732FEF7E8
:1048600063FE46708580C480FEF774FE73BD73B529
:104870001C00012315000202134300220E000092C7
:1048800005211632FEF750FE46708580C480FEF783
:1048900061FE73BD7FB505000E001400684610224E
:1048A0000A4917F015FF0C20042C03D0022C01D06C
:1048B0000020102431002200684417F009FF28006E
:1048C0001022694617F004FF7FBDC046B84E00189D
:1048D00070B516001D0088B0022909D1022B0BD13A
:1048E0002A00310017F0E6FE43425841C4B206E008
:1048F000042907D1042BF3D00024102D04D020006C
:1049000008B070BD1029F7D10A0001006846FFF712
:10491000C1FF2A00310004A8FFF7BCFF102268463F
:1049200004A9DFE707B513006A46063213800223A5
:10493000FFF7CEFF0EBD000030B51025040085B096
:104940002A006846084917F0C3FE210002220C31F4
:1049500003A817F0BDFE2B00220029006846FFF7D0
:10496000B7FF05B030BDC046B84E001830B51025B1
:10497000040085B02A006846084917F0A9FE210006
:1049800004220C3103A817F0A3FE2B0022002900FB
:104990006846FFF79DFF05B030BDC046B84E001811
:1049A000F0B587B003930CAB019204CB02901E8844
:1049B0000FAB1F7804ABD980012300250721180015
:1049C0000492039A934235D31623681C032158435B
:1049D0000FF0BEFC029B04001B884680038060230E
:1049E0009F4307710126002704AB45710222063060
:1049F000991D17F06DFE0E9D0835039B9E4229D32D
:104A0000200000F0A5FA051E0ED12388029A0100AD
:104A1000138007220300944601270398CAB29042EC
:104A200002D90498002838D120000FF01BFD28007F
:104A300007B0F0BD019A002A07D0019CDA08A25CF9
:104A40001C000C402241024201D00135EDB201337D
:104A5000DBB2B6E7019B002B07D0019AF308D35CC9
:104A6000072232401341DB0713D5162316207B4360
:104A7000EA88E3181A85AA88124901370A40784360
:104A80005A856A882900DA842018022217F020FE4D
:104A9000FFB20136F6B20835AFE70198002807D01B
:104AA000019ED008305C664632401041384206D044
:104AB000029A049812889A1801334254DBB20131E9
:104AC000ABE7C046FF9FFFFFF0B585B00193002321
:104AD000140002AA0F0011000293137100F0E8FD08
:104AE000061E07D1A02102A8890100F037FE002888
:104AF00003D00626300005B0F0BD204902A800F022
:104B00002DFE0028F5D11E4902A800F027FE00283E
:104B1000EFD11C4902A800F021FE0028E9D1A42110
:104B200002A8890100F01AFE0028E2D1164902A865
:104B300000F014FE0028DCD1144902A800F00EFE9B
:104B40000028D6D1029A0420115E93880029D0DB78
:104B50001B051D0D55196B88A34200D207262A8814
:104B60003B19934207DC201D3A000199281817F0E1
:104B7000AFFD6F80BEE70D26BCE7C04601280000F0
:104B80000328000002280000022900000329000079
:104B90000023F0B58FB006AE039131000700150079
:104BA0000693337100F084FD041E1BD1A021300058
:104BB000890100F0D3FD002817D00F2702ABFF18A2
:104BC00001233900300000930AAA00F023FE041EDE
:104BD00008D14B4E3A78039B30001A800AA917F08F
:104BE00077FD2E6020000FB0F0BD3000454900F089
:104BF000B5FD0028E1D13000434900F0AFFD0028A9
:104C000026D0013708AEBFB20894310034713800A5
:104C100000F04EFD041E4FD101230F21009303002D
:104C200002A809180AAA300000F0F4FD02ABDA7BF2
:104C30000399D31C0B80089B34495B8834481B0ABA
:104C40004B77CF830AA917F043FD2D4B2B60C9E7A3
:104C50003000304900F082FD00282FD0336808AEC4
:104C60009A8831001205120D9B1858791A790002A2
:104C700008941043347100F01BFD041E1CD10F2753
:104C800002ABFF1801233900300000930AAA00F09C
:104C9000C1FD3F78039A089E3B1D1380310002221C
:104CA000174817F015FD0222B11C1B4817F010FD24
:104CB0003A001A480AA9C6E7802493E7A4213000E5
:104CC000890100F04BFD3168002808D08A88120560
:104CD000130D0222CB18039904330A80B6E704208F
:104CE0000A5E8B88002A08DB1B051B0DCB181A1DDA
:104CF0002A605B88039A138074E7062472E7C04633
:104D00006D40005001280000032800005040005072
:104D100070400050022800006F4000507140005069
:104D20000023F0B587B0019202AA0091110004009F
:104D30000293137100F0BCFC051E07D1A02102A84C
:104D4000890100F00BFD002803D00625280007B0DC
:104D5000F0BD204902A800F001FD0028F5D11E4950
:104D600002A800F0FBFC0028EFD11C4902A800F0CB
:104D7000F5FC0028E9D1A42102A8890100F0EEFC8D
:104D80000028E2D104AF013C3900A0B2029E049594
:104D90003D7100F08DFC00280DD138000E4900F067
:104DA000DDFC002807D07388009A1B0A120A934280
:104DB00001D004F099FD8022009B0199520173807B
:104DC000B388114202D01343B380BFE7044A1340B3
:104DD000FAE7C0460128000003280000022800006E
:104DE000FFEFFFFF73B5002315006A460E0069460A
:104DF0000093137100F05CFC041E07D1A0216846EB
:104E0000890100F0ABFC002802D00624200076BD0A
:104E100068460F4900F0A2FC0028F6D168460D490B
:104E200000F09CFC0028F0D168460B4900F096FC8D
:104E30000028EAD1A4216846890100F08FFC0028EF
:104E4000E3D1009B5A88B2432A435A80DEE7C0462A
:104E500001280000032800000228000010B50C0003
:104E600000F0AEFA03000120002B06D060220020E3
:104E7000997A944311402143997210BD10B50C00EA
:104E800000F09EFA03000120002B04D060220020D5
:104E90009B7A9343237010BD10B5012804D00228DB
:104EA00001D100F075FA10BD0022024B5A609A60E1
:104EB000F9E7C04650400050FB349B5F8000008003
:104EC0000010000000000000F7B50E4C0500276838
:104ED0000E000192002F14D0002806D120001022CD
:104EE0000C3017F0F5FB012323773B68002B03D030
:104EF00031002800019A984720680FF0B3FA002388
:104F00002360F7BD504000500288104B002A18D192
:104F100001221B680280002B16D0417902885218AA
:104F200099888A4210DBDA880132F2E7D988914207
:104F300007D3417900209B888A189A424041C0B229
:104F400070471B68002BF1D10020F9E75440005056
:104F5000F0B589B00190FFF7D7FF051E039016D179
:104F6000019B10241E797606B60F08D00434012E5A
:104F700005D0022E00D1EBE14023043C0393019BBA
:104F80005B79AB4200D8C7E0039B002B10D003989D
:104F900009B0F0BD6022019B01991B793800934351
:104FA000019A12311371320017F092FB1024E6E7D8
:104FB00016236B43019AD3185B8D5B049B0F38D08B
:104FC000012B31D0022B02D040230393DFE71027BF
:104FD000A01D83B202931623691C4B430493049AC9
:104FE000019B39009E18A02230009201FFF79AFC25
:104FF0000028E9D139003000CC4AFFF793FC0028A3
:10500000E2D139003000CA4AFFF78CFC002815D0E5
:1050100016236B43019AD318A022DB8C1201134094
:1050200093421CD05623D0E7A01D83B204270293DD
:10503000D1E7A01D83B202270293CCE739003000EC
:10504000BC4AFFF76FFC0028E2D139003000BA4AB1
:10505000FFF768FC002806D00C34A3B20293013598
:10506000029CEDB28BE7A422390030009201FFF7D9
:1050700059FC0028F0D139003000B04AFFF752FC4B
:105080000028ECD1042F03D10A34A3B2029316E016
:10509000102F14D13000FFF74FFC002821D0162329
:1050A0006B43019AA649D3185A8D0A405A850222A9
:1050B0000499019B0C315918300017F009FB162395
:1050C0006B43019AD3182A215A5E002AC7DB188D38
:1050D00001230005000D05309843029B181883B288
:1050E000BCE73000FFF742FC002813D00A34A3B21B
:1050F000029316236B43019A9149D3185A8D11409C
:10510000802292010A4304995A85019B0C310422A2
:105110005918D1E71634B8E7039B002B00D036E7C7
:10512000200001210FF014F9019B019A1B88050052
:105130008380527904199B18C380019B039A5B8872
:105140000381019B1B79C27283725B069B0F17D18F
:10515000019B0222991D0C3017F0BAFA0027019B1F
:105160005B79BB4220D800230120764A11680029D0
:1051700000D1D5E0002B00D1C8E004F0B5FB06E774
:10518000012B0AD10422019B043C991D200017F039
:105190009FFA2B1DE31AAB81E0E7022BDED1019BC6
:1051A0001022103C991DF1E716210B007B43019A58
:1051B000D3187A1C51435B8D019A5B049B0F0691B7
:1051C0005618002B23D1062078430E3002223100DE
:1051D000281817F07DFA0223029306237B430793D6
:1051E000EB18049316237B43019A3000D3180593E0
:1051F000049ADB8C02991382504AFFF793FB002834
:1052000029D00023049A53820137FFB2A7E7012B6C
:105210000ED1043C04223100200017F059FA062375
:105220007B43EA180E33EB18E31AD3810423D3E748
:1052300000220292022BD0D1103C1032310020000B
:1052400017F046FA06237B43EA180E33EB18E31AED
:10525000D3811023C0E73000374A0299FFF762FB81
:10526000002813D002220699019BA61F123132801A
:105270007280A01E591817F02BFA06237B43EA18F8
:105280000E33EB18F31A34005382BDE7A42230002A
:1052900002999201FFF746FB0028E3D13000244A2F
:1052A0000299FFF73FFB00280DD0162206237A4310
:1052B00001997B438A18528D2349D204D20FEB18EF
:1052C0000A435A82A0E730001A4A0299FFF72AFBE4
:1052D0000028EAD1059B1D492A229A5E059B1140B0
:1052E0001B8D1B051B0D002A03DA1943049B5982F1
:1052F0008AE701265A1DB243A41A079A23800E3268
:10530000AA18A21A049B60800A43DAE7AE888C8848
:10531000A64203D229600300156027E70A0025E7AB
:10532000002B00D029E715602B6026E7012800003C
:1053300002290000032900000228000003280000C1
:10534000FF9FFFFF544000500280FFFF00F0FFFF6F
:10535000019B9F1D3800FFF7EFFA002800D019E6E7
:105360003800FFF703FB20231C00002800D106E6CD
:105370006021019A380012790C3C8A431343019949
:10538000019A12311371042217F0A2F9F7E5C04611
:1053900070B50A4C606800280AD12068002801D046
:1053A0000FF060F800236360A3602360237770BD73
:1053B00005680FF057F82800EDE7C0465040005050
:1053C000104A0300906810B55168002806D0848800
:1053D0009C4203D8C18899420ED20168080001217D
:1053E000002809D084889C4209D8C4889C4204D3F0
:1053F000C47A0C4201D1906010BD0068F0E7002033
:10540000FAE7C04650400050F0B5A04B8BB0049076
:1054100006911C7F002C09D0071E04D00A00002032
:105420009B49B847002738000BB0F0BD27005E68E5
:10543000002E66D0002F08D0944C20680028F2D0AF
:105440000FF010F800232360EDE70122F37A1342F6
:1054500018D10320B288F388B17A9B1A4911062229
:10546000DBB2014200D00E32A4180622350000271C
:1054700053430E355B19A4B20393039B9D4201D0A5
:10548000002F01D03668D3E703226B885B131342E9
:105490000BD1A4222B88920193422ED007D87D4AAB
:1054A00093420AD07C4A93421DD00635E5E77B4AF9
:1054B0009B18042BF9D8043413E0AB881B051B0D93
:1054C000EB1858791A7900021043FFF779FF00288A
:1054D00015D00321827A0A2352110A4200D00E33DA
:1054E000E418A4B2E1E703216A8907345213A3B296
:1054F00002240A42F4D00E34F2E70634F1E75127D1
:10550000D3E7002F98D10321201D0EF021FF2500A5
:10551000049A5E4B026018605B6803900493049BDE
:10552000002B00D19DE0002F03D0432F00D17AE75C
:1055300082E70122049BDB7A13423DD1049B06A93A
:105540009E88DB8809AA9B1BDBB207930A235B18A2
:1055500019003000FFF71CFB049B03999B88AA1ECF
:1055600092B25BBA8A189BB2043D1371ADB21B0AAA
:1055700053714A197F21049B07009B7A2820994286
:105580009B415B42537106AB5B890399ED1AADB247
:1055900010712A1D8A180999002B11D1049B01361C
:1055A0000E330593079BB6B2F3189BB20793079B84
:1055B000B34201D0002F09D0049B1B680493AEE7CF
:1055C000013B9BB2C85C10700132E5E70322059BEA
:1055D0005B885B1313423ED1A422059B92011B887A
:1055E000934204D032D82E4A9B18012B33D8012283
:1055F0000398AB1E9BB271BAC31889B21971090A1C
:105600005971059B043D1B88ADB25BBA9BB2411931
:105610000B711B0A4B71002A1DD00A2306A95B18C7
:10562000190009AA3000FFF7B3FA070006AB5B893F
:105630000399ED1AADB22A1D8A180999002B0AD0D8
:10564000013B9BB2C85C10700132F7E7134A9B180C
:105650003A00042BCCD9059B01360633B6B205932C
:10566000A5E7002F00D060E7002D05D00D4B2200EC
:10567000290003201B689847069B0399009322008A
:10568000094B0A4804310FF0CDFECCE650400050E3
:105690005C4000500228000003280000FFD6FFFFF6
:1056A000FED7FFFF88410050C94E0018185A001855
:1056B00070B505000C00FFF783FE03000120002BEE
:1056C00007D09888A84205D1043323600123002025
:1056D000237170BD01302D1A062068430E301B184F
:1056E000002023602071F4E770B51B4CA36862684A
:1056F000002B07D005889E88AE4203D8DA88AA42DC
:1057000016D21A6813000122002B01D1012070BDAE
:1057100006889D88AE4207D3DD88B54202D3DD7A84
:10572000154205D01B68EFE7DE7A1642FAD10580F4
:105730009A880088824206D11A1D0A6001220A71E5
:105740000020A360E3E70132801A062242430E32B2
:105750009A180A600022F2E75040005003000079D6
:105760001B6800280BD1002B08D09A885204920F96
:1057700004D11888401A43425841C0B27047002BE8
:105780000AD0A02292019142F8D09B7900207F2B71
:10579000F4D9024BC818EEE71800EFE7FFD7FFFF78
:1057A00070B50D00A02189010400FFF7D7FF062383
:1057B000002826D120001449FFF7D0FF0623002837
:1057C0001FD120001149FFF7C9FF0623002818D177
:1057D00020000F49FFF7C2FF0623002811D1A421A2
:1057E00020008901FFF7BAFF0623002809D12168AC
:1057F0008A88130512B21B0D002A00DBCB5A2B80BE
:105800000300180070BDC0460128000003280000F6
:105810000228000073B50500100006AA16780022C1
:105820000A700C002968013200291AD02A79002A4E
:1058300035D08A79002B22D053069B0F19D0012B2B
:105840000CD10333237029680B89C918002E14D09A
:105850000422FFF71FF81023237001E0022B02D06F
:105860000022100076BD1023237029680B89C91807
:1058700003E0022323702968083122780AE052B23B
:10588000002A0ADBA0239B016A46D38002226B46D2
:105890002270991D16F01CFFE2E70D4BF4E78B8890
:1058A0005B049B0F08D0012B0CD0022BD8D10E33F8
:1058B000237029680B88DAE70223237029680029FE
:1058C000CED0DAE70423237029680B88BDE7C046F1
:1058D00001280000F0B585B00A9E0F00336815005E
:1058E0000190002B26D0A02130008901FFF736FF60
:1058F000002818D130004249FFF730FF002812D1AC
:1059000030004049FFF72AFF00280CD130003E4903
:10591000FFF724FF002806D1A42130008901FFF7FA
:105920001DFF002816D080239B00002D0BD12C00DA
:105930003B8005E031000198FFF7BAFE041ED2D08B
:10594000200005B0F0BD9D4201D00624F8E70024F8
:105950003C80F5E7336804005B883B80002DEFD086
:105960001D42F2D002ABD871D91D0198FFF786FA1B
:10597000041EE5D133680C349A8880235B011A42F7
:1059800007D102AAD17902220C001440114200D0A2
:105990000C249D422FD00DD880239B009D4218D00F
:1059A00010D31A4B1A4AEB1813420BD13B881B0732
:1059B0009B0F11E080239B019D4219D08023DB01C6
:1059C0009D42F3D0134B2A0003201B68019998478E
:1059D00003E003223B8813403B8002ABDB79DA060D
:1059E0000CD43A881B079B0F9A42A9D23B80A7E7A9
:1059F0003B889B06DCE73B881B06D9E708249FE72A
:105A000001280000032800000228000000FCFFFF1E
:105A1000FFFB000088410050000000000000000073
:105A2000000000000000000070B50D7806001B3D6E
:105A30006B1E9D411A4B0C00ED181A4B4A881B68CF
:105A40008100CB589B69002B04D1300004F000FB8F
:105A5000010006E09988914220D8D98891421DD34F
:105A6000198932020326A3883243063328009BB2E9
:105A70000EF07AFB237805001B3B5A1E934112332C
:105A80000370A288A11D428063888380063016F0CF
:105A90001FFE28000EF08CFB002070BD1B68D2E7B3
:105AA0000C0C00004440005010B50121040001F02E
:105AB000EFFF0C2804D000220F2810D041220EE066
:105AC0000121200002F00AF841890389002299424D
:105AD00005D0064BA2001B68D3582C331A7820003F
:105AE000012102F0A7F9002010BDC046444000503B
:105AF00070B50D00040008F09FFE6988814200D94E
:105B00000100200089B202F00DF80121200001F00F
:105B1000BFFF00220100012801D041220121200005
:105B200002F088F9002070BDF0B587B00291012124
:105B3000040001F0ADFF41220B2816D100260121FF
:105B4000200001F0CBFF0322370023021A43039009
:105B500005920096039B009A5B7893420CD8029BB7
:105B60005B88BB4200D0502632002000012102F0A9
:105B700061F9002007B0F0BD0121200002F06CF8AF
:105B8000009B039A9B00D3180193DB880100063326
:105B9000059A9BB215480EF0E7FA019B05009B8819
:105BA0000380029B5A88019BD21BDB889A4200D952
:105BB0001A0093B20493AB8000236B80029B391DC3
:105BC0005918A81D16F084FD049B049AFF18019B28
:105BD000BFB2DB88934200D0502628000EF0E8FACE
:105BE000009B0133DBB20093B4E7C046090C000010
:105BF000F7B50E000121070001F04AFF0C2824D15F
:105C00000121380001F06AFFB588C3880400ED1A4D
:105C1000ADB229000C31458141183000F3880830BD
:105C20001A00019316F046FD00280CD1019B5D1966
:105C300023899D4207DCADB201213800658101F066
:105C4000D9FF0020FEBD044DF6E7412201213800B6
:105C500002F0F0F8F5E7C046FFFF0000F0B585B0B0
:105C600001910121040001F013FF402206000328E6
:105C70001AD10121200001F031FF05002002064366
:105C8000B3B200260293A3000393274B0093019B1A
:105C90005B88B3420DD8009BEA8801339BB29A42DD
:105CA00001D3002B37D10A220121200002F0C2F8D3
:105CB00036E00121200001F0CFFF6B780100029A4D
:105CC00006331A480EF050FA019B070099194A79D9
:105CD0000B792900120213430380019AB31C9BB273
:105CE000D3185A791B7912021343438000936A78C0
:105CF00008310271053016F0EBFC38000EF058FA4E
:105D00000B4B039A1B6804369B58B6B24C331A7877
:105D100001321A70BBE701212000AB8001F06AFF5D
:105D2000002005B0F0BDC046FFFF0000040C0000DD
:105D300044400050F0B587B002910121050001F008
:105D4000A7FE402207281FD10121280001F0C6FE2E
:105D5000029B03905B780227012B00D00E370024B2
:105D6000032226002B021A43AB0004920593029BE8
:105D70005B88B3420DD8039B0134DB88A4B2A342F5
:105D800001D3002C30D10A220121280002F052F860
:105D900030E00121280001F05FFF049A01003B1D63
:105DA00016480EF0E1F9029BB11C9B195C791B7936
:105DB00024021C4389B2029B04313A005918019015
:105DC00004808770033016F083FCBB1C0198F61822
:105DD0000EF0EEF90A4B059A1B68B6B29B584C338D
:105DE0001A7801321A70C2E7039B012128009C80B7
:105DF00001F000FF002007B0F0BDC046070C000016
:105E000044400050F0B587B000914E884F78012192
:105E1000040001F03DFE0500022800D07FE03900BB
:105E20003000FCF7F5F8002800D178E001212000CF
:105E300001F054FE009B02905B78142B00D10E35CC
:105E400000260322370023021A43A300049205937D
:105E50000396009B5B88BB4259D9002E59D1314B28
:105E6000039A9A4211D1039B029A0133D2889BB2C2
:105E70009A424ED3002B4CD0029A012120009380ED
:105E800001F0B8FE002007B0F0BD0121200001F0B4
:105E9000E3FEAB1D0100049ADBB223480EF064F967
:105EA000009B461DD9194A790B79120213430380CE
:105EB000009ABB1C9BB2D3185A791B791202134368
:105EC0000393391D039A009B89B20431428059180B
:105ED0002A0001900571300016F0FAFB2B1DDBB291
:105EE000029AFF18029B08325B7829003000FEF707
:105EF000EFFC060001980EF05BF90C4B059A1B684D
:105F0000BFB29B584C331A7801321A70A1E7002EA9
:105F1000A9D000220121200001F08CFFB2E741222C
:105F2000F8E7C046FFFF0000040C000044400050AA
:105F300010B50121040001F0ABFD00220C2800D0B7
:105F400041222000012101F075FF002010BD00005A
:105F50007F2310B50A780C001340522B09D01E2A5B
:105F600007D0032100020143C420044A00010EF0BF
:105F7000C1F82000FDF7EEFA10BDC04630750000F4
:105F8000032302021343002213B5042100921E32A0
:105F90000400FDF7C9FA01002000FFF7D9FF13BD87
:105FA000032337B50202134300220D00009204219F
:105FB00018320400FDF7B8FA457001002000FFF721
:105FC000C7FF37BD70B50B7904000D00122B0ED141
:105FD00004F03EF80322230201001A4317480EF092
:105FE00001F9012120002A7901F024FF24E00A2B85
:105FF0000BD1134B82001B68D3584C331A78002AFC
:1060000003D000221A700A71EBE76B78162BE8D1E7
:106010000121200001F062FD0028E2D04378002B2E
:10602000DFD0074BA2001B680021D3582A792C33FC
:1060300020001A70FFF7B4FF002070BD230C000091
:1060400044400050F0B50C0089B00121050001F07A
:106050001FFD062805D804282FD800D1A4E040222F
:1060600049E00A28FBD12800667801F0F3FC0238E9
:106070000121864200DB13E1280001F0EDFD03223F
:106080006378010028020243043396480EF06CF84E
:1060900000260700637922791B021343038062788C
:1060A000A11D023A92B282804680063016F010FBA3
:1060B00038000EF07DF832001DE00121280001F0CB
:1060C0000DFD049063781027072B00D80E3F0322A4
:1060D0002B021A43AB00079300231E000692059380
:1060E0006388B3420CD8059B049A0133D2889BB2D3
:1060F0009A4250D20A220121280001F09BFECDE0F5
:10610000A219537912791B021A43049B05921B783A
:10611000052B30D10121280001F09EFD069A0100D7
:10612000BB1D71480EF020F8B31C9BB2E3181B791D
:10613000059A0371F31C9BB20280E3185A79053665
:106140001B791202B6B21343311D43803A0003900B
:1061500047716118063016F0BBFA03980EF028F864
:10616000624B079A1B68F6199B58B6B24C331A78E3
:1061700001321A70B4E73000049B049A09303900E8
:106180005B7820180832FEF7A3FB0028C2D16378A1
:10619000F618B6B2A4E7049A002BABD00121280070
:1061A000938001F027FD79E00121280001F096FCA1
:1061B000079063885B071ED101230593DB18002637
:1061C0000322370003932B021A4306920496638836
:1061D000BB4214D8059B002B01D1002E50D1049B4B
:1061E000079A0133D2889BB29A4283D3002B00D105
:1061F00080E7079AD2E7002305931033DFE70121F8
:10620000280001F029FD039B0100069A0833384855
:106210000DF0AAFFE219537912791B021A43BB1C35
:106220009BB20280E31804925A791B79120213433D
:1062300043803B1D9BB2E3185A791B79120213432A
:106240008380059BB91D060089B2002B0FD0039BEC
:1062500004311A0083716118073016F039FA039B74
:1062600030000633FF18BFB20DF0A2FFAFE73100D8
:106270001E4BAA001B680C39D05810300EF096FE49
:1062800000240421069B0A2228000094FDF74CF903
:106290007388010043802800FFF75AFE00201EE0AB
:1062A000280001F01BFC637922791B0213430022B2
:1062B00083806378028122002100023B9BB2083A6E
:1062C000C3805380094BAA001B681439D058103082
:1062D0000EF06CFE0121280001F08CFC012009B0B9
:1062E000F0BDC046090C0000060C00004440005000
:1062F000050C0000F0B5374C830085B0039323688C
:1063000082009B5805001B69002B47D0012101F03A
:10631000E5FB2368AA009B5807001C6901212300A4
:106320000C3301932800E68901F096FC2A0203252C
:10633000B31D01009BB22A4327480DF015FF86804C
:10634000BB8805000380FB88002602934380237DE1
:10635000092B17D12100627D0630023A1A3116F05E
:10636000B7F9637D27689E1EB6B2002F03D0029A4C
:10637000D31A02336B8020000DF043FF3B003C003A
:106380000C330193002C0BD1124B039A1B689858C5
:1063900010300EF007FE28000DF00AFF05B0F0BD2A
:1063A000019BB01D19005A8928180C3116F090F97C
:1063B000019B24685A899619B6B2002C02D06B88CA
:1063C0009B1A6B8001980C380DF01BFF20000C30DD
:1063D0000190D7E744400050090C0000F7B50D00CC
:1063E0000121040001F054FB042830D00838C0B269
:1063F000022800D97DE00121200001F06FFB2B0075
:106400000022290006003C4F083B5A80A30001935C
:106410003B68A2009858143910300EF0C7FD32893D
:10642000002A43D13B68A2009B586F881A69D38920
:10643000FB189BB2D3818222920093423CD3F83A5C
:10644000FF3A0121200001F0F5FC0120FEBD0121F1
:10645000200001F043FB284BA2001B680700D05826
:1064600010300EF0CBFD291D0300102506000C3363
:106470002A001330019316F02BF90198B5740DF032
:1064800097FEB389FA8801339BB29A4201D3002B5D
:1064900005D10A220121200001F0CCFC04E00121F9
:1064A0002000BB8001F0A6FB0020CFE76B88934261
:1064B00000D913006B80B5E7200001F0CBFA01385A
:1064C000874205DB6A8833899A4206D3002B04D0C1
:1064D0002000FFF70FFF0022B3E7F1885118F18089
:1064E000002B01D09B1A33810121200001F082FB97
:1064F000ABE74122CEE7C0464440005070B50E23C2
:10650000050000260C000A7A0E490878904200D156
:106510004E68013BDBB20831002BF6D1FF20002E84
:106520000ED01B3AFD331A4206D00321C4202B02A1
:10653000194300010DF0A6FD210028000831B047E5
:1065400070BDC0464865001803000000F15A0018ED
:1065500005000000355D0018070000005D5C0018B4
:10656000090000004560001811000000055E0018D9
:106570000B000000DD6300180D000000DD63001853
:106580000F000000295B001813000000315F0018A5
:1065900017000000F15B001819000000A95A00184C
:1065A00001000000C55F00181D000000295A0018F6
:1065B0001B000000295A001870B5040008000E00E6
:1065C000FEF7FEFE051E05D1064B3200210003201A
:1065D0001B689847AB7A2889DB0701D52402204342
:1065E00070BDC0468841005037B514006A4600238C
:1065F0000D00911DD380FFF7D3F8002807D16B461B
:10660000DB88A34204D964199C4200DD0D303EBDF5
:106610000720FCE7F0B50E000621714305001000CD
:10662000224A85B054188A5A0E216788009369441B
:106630003B00FFF74FF9062805D00C2805D0041EB3
:1066400004D005B0F0BD2079F9E701246B46DB8961
:10665000002B01D10020F4E7280003F025FD0028DD
:1066600009D0032E09D1280003F01EFD6B46DB89FB
:1066700080B28342EED90520E3E70121280003F030
:10668000EFFC002808D10221280003F0E9FC0300F8
:106690000F20002BD5D1EEE7002CE4D0280003F02A
:1066A00019FD0F28DFD80C20CBE7C046C4790018AD
:1066B00073B500236A46009313714A888E880C00D4
:1066C0006B4603210500FFF7A5FF021E01D0002045
:1066D00076BD31000C39684689B2FFF785FF002886
:1066E000F5D105212A02EF200325A38816B207332E
:1066F00031432A439BB289B200010DF035FDF123ED
:106700000370A388050003334380D2230371638899
:10671000A11D43711B0A8371A288073015F0D8FFB1
:1067200028000DF045FD0120D2E70000F8B5040077
:1067300015000F0019001E00FFF73EFF2202032480
:10674000AB1D010022439BB208480DF00DFD002354
:1067500004002A003900068085804380063015F049
:10676000B7FF20000DF024FDF8BDC046150C000059
:1067700037B500236A46009313714A880C006B46B4
:1067800002210500FFF746FF021E01D000203EBD9A
:106790006846A188FFF728FF0028F7D12800638802
:1067A000A288A11DFFF7C2FF0120F0E773B51C000E
:1067B000032315000202134317220E000092042146
:1067C000163AFCF7B1FE467045800471FCF7C2FE34
:1067D00073BD00000022F0B587B004AB0F1F049218
:1067E0001A713A8805000C00002A2AD0AB000293E7
:1067F000444BAA001B6861889858036B002B2FD06C
:10680000DA8A8A422AD140300EF0F8FB3B88029A9D
:106810001B051B0D03933B4B01001B68E0889B5835
:106820001F6B002F31D08226B600B446BA881218EA
:1068300096B262452ADB403318000EF0CDFB0923E7
:1068400005E04A880121FFF7E5FE031ECED02800AF
:1068500062882178FFF7AAFF002014E01B68CDE7CB
:106860003B88002BCFD12800FFF7A6FE03222D0284
:10687000010002232A4324480DF076FC638803803C
:106880000DF096FC012007B0F0BD0600A2889446EA
:1068900062884881604608810398C880002F04D12F
:1068A000303318000EF082FB08E0F88A904226D9B7
:1068B00030330A00180039000EF0FCFB114B029A2D
:1068C0001B6804219B582A021B6B28009E8003230F
:1068D0001343E28800921722FCF726FE21000500F0
:1068E000638808314380E288C280083015F0F0FEEA
:1068F000A3882800AB80FCF72DFE0220C3E73F6889
:10690000CCE7C04644400050170C000037B50023C8
:106910006A46009313714A886B460C0001210500FA
:10692000FFF778FE031E0ED10200A1886846FFF72C
:106930005BFE031E07D128006388A288A11DFFF714
:10694000F5FE01203EBD280062882178FFF72EFF6A
:106950000020F7E7F0B58DB00600049101F07AF859
:10696000023883B20593049B5F88B3000693049BAF
:106970009A88BA4200D291E0002F00D193E00E2213
:1069800006ABD21817800027059B0AAA0A97177131
:1069900003930E2306AA9B1818000AA9FEF7A4FE6B
:1069A000041E00D078E0049B9A8806ABDB899A42EB
:1069B00062D3022118200DF0CBFC0123C21D811DE2
:1069C0000093050023000AA8FEF724FF041E06D04A
:1069D00006ABD989434B02001B68032098470E235E
:1069E00006AA9B181B88AB80AB790793002F2ED08B
:1069F0009F422CD028000DF035FD3B4D069A2B68A8
:106A00009B589B6B002B61D0059B039A30009C1A0E
:106A100003233202A4B21343009405220421FCF79D
:106A200083FDBB1E5A1E9341013343702B68069AA7
:106A300006009B5840889D6B002324187480002D0D
:106A400034D13000FCF786FD00200DB0F0BD264BA0
:106A5000069A1B682900985838300EF0A7FA0E22C3
:106A60000398079B0238C01A83B2039306ABD2186F
:106A70001388079F013313800E2306AA9B18049ADC
:106A80001B8892889A42B8D3002BB6D0039A7B1CFD
:106A9000934200DA7DE7B0E70A24AEE70027059BC2
:106AA00003930124A9E7059B0393FAE7A988F21849
:106AB00002339CB29180201DAA79E91D301815F08F
:106AC00007FEAB792D68E3189BB2B8E7002C00D124
:106AD0000A34049B30005A8819782300FFF766FEB9
:106AE000B2E7C0468841005044400050164BF7B50D
:106AF0001B688200D358040053331D780F00002D0B
:106B00001BD107F099FE03222302042113430095B1
:106B100006002000FCF708FD050007F08DFE7988CF
:106B2000814200D90100200089B200F0FBFF28005B
:106B30006E80FCF70FFD0020FEBD04230022022121
:106B4000FFF734FEF7E7C04644400050F7B51400A5
:106B500000236A46A5781371009363782D021D43C4
:106B60002A000E006B4603210700FFF753FD021EAB
:106B700008D10E2E01D90F3EB2B22B003800E11C15
:106B8000FFF7D4FDF7BD00000023F0B587B004AED9
:106B9000049333710B7805000C00122B47D01D278E
:106BA0000521402B0CD03900280002F0ADF912234A
:106BB0000293002838D1217812394B1E99410431B3
:106BC00033002800A288FFF725FD029000282BD172
:106BD000E3882800039300F03DFF039BC61E9E42FE
:106BE00000D91E0003222B021A43B3B2042128004D
:106BF0000392009313003A00FCF796FC2100050075
:106C0000A38832004380B3B283800831063015F088
:106C10005FFD2800FCF79EFC2378122B04D0054A68
:106C2000039905480DF066FA029807B0F0BD1B27DE
:106C3000B9E7C04630750000410C000010B5840073
:106C4000064B1B681859036B002B00D110BD303068
:106C50000EF0D4F90DF006FCF2E7C04644400050B7
:106C6000F0B58BB005914B7805000793012B00D050
:106C70009CE00B00043B1B88029383000693029B5D
:106C8000002B40D1594B82001B689B581C6B002C79
:106C900039D0029B08AF0493039300233B603B7100
:106CA0003900E08AFEF704FD021E04D0504B032099
:106CB000E18A1B689847228938006189FFF794FCB4
:106CC000059B079A043B1A800600E28A002800D040
:106CD00081E0029B9A4203D0E388A080049303944E
:106CE0002189049B994200D974E004986389814208
:106CF00039D20398A04236D00499A380E18003944E
:106D00002468002C2DD10026384F069A3B689B58EA
:106D10001C6B002C4BD02800E18AFFF74DFC0322AE
:106D2000A3882D02063301009BB22A4331480DF09F
:106D30001BFA00260500E38A0380A3888380238949
:106D40004380AB88B34201D8002B03D12A88E38A61
:106D50009A4211D028000DF02BFA012420000BB02C
:106D6000F0BD029299E7C91889B204910399898804
:106D70005B1803998B80C3E72100B01D1C31628929
:106D8000281815F0A5FC6389069AF6182368B6B290
:106D900002933B68985830300EF030F920000DF027
:106DA00061FB029B002BD5D01C00CAE70026002403
:106DB0002800FFF743FFA642D0D103232A02134342
:106DC00017220421009228000232FCF7ADFBFCF7E9
:106DD000C1FBC3E70726059B280019783300FFF79E
:106DE000E5FC2800FFF72AFF8EE7C046444000502C
:106DF00088410050150C000010B58400064B1B683C
:106E00001859836B002B00D110BD38300EF0F6F806
:106E10000DF028FBF2E7C0464440005070B5074D26
:106E200084002B681B59986C002806D00C380DF094
:106E3000E8F900222B681B599A6470BD4440005049
:106E4000F7B51F001B4B01921B688200D35804004A
:106E50009B6C0E00002B26D01A888A4221D11D7906
:106E6000062D08D0002D07D15A88019905330A80D4
:106E70003B602800FEBD80252000FFF7CFFF062DD8
:106E8000F7D131002000FFF797FB22020324010015
:106E90000223224308480DF067F906800DF088F9B7
:106EA000E7E7FFF7BBFF3A0030000199FDF770FEFE
:106EB0000500E4E744400050130C0000F0B50C005E
:106EC0001D008FB0159E0F880490039231002000A2
:106ED000FEF70AFC031E28D1039A218812889142EA
:106EE0001CD80F21009004A80AAA09183000FEF748
:106EF00091FC021E04D0354B032021881B68984763
:106F00000F2304AA9B1829000AAA1B781498FDF7DE
:106F1000DFFC2288002820D101322280039A2388B6
:106F200012889A4201D3002BD0D10A2327800293E2
:106F300002980FB0F0BD33685D88039B1D80059BF0
:106F4000002BF5D12188179B169A0498FFF778FF3C
:106F50000290EDE7013EB5B2EFE73300002104985F
:106F6000FFF758FB059002903779002FE3D13000EE
:106F700017492588FEF7F2FB0028DED0280008AB71
:106F800008971F71FEF71CFA07000135AEB2FD88A5
:106F9000B542D2D3BB88B342CFD208A93000FEF7A6
:106FA00087FB0B4908A8FEF7D9FB0028D2D1094975
:106FB00008A8FEF7D3FB011ECCD108A8FEF7CEFB34
:106FC0000028C7D10136B6B2E1E7C046884100507B
:106FD00003280000022800000023F0B58BB008AAA7
:106FE0001371089383000493504B82001B680500C3
:106FF0009858029138300EF07FF8029B03901C1FC6
:107000002388002B04D1280000F024FD01382080C3
:107010000024029B039A5B88934256D9029B043B4F
:1070200005931B88002B50D0002C0CD0062C6DD063
:10703000039B5800029B18188288197828002300A7
:10704000FFF7B4FB62E0039B21005E00029B280077
:107050009E19B28808ABFFF7DDFA041EE6D10A27B5
:1070600004ABFF183A002800B18807ABFFF7E8FE31
:10707000041ECED1059B3F881B889F4200D91F006C
:107080003800BBB20221083005930DF061F906000B
:10709000BBB283803A000799063015F019FB234BE9
:1070A000049A1B683100985838300DF07FFF280093
:1070B000FFF7B4FE029B03981A1F1388059901304D
:1070C0005B1A138083B20393A3E7002CAED1280090
:1070D00000F0C0FC0299032304390E882A02F6430B
:1070E0008619B6B2134328000F2200960421FCF73C
:1070F0001BFA270005000D4B049A1B6846809B581D
:107100009E6B002E07D12800FCF724FAA01F4342F3
:1071100058410BB0F0BD381DB288B11D281815F0CC
:10712000D7FAB3883668FF18BFB2EAE74440005088
:10713000F0B50E00002189B006AB19717288050008
:107140000691FFF767FA041E4CD10A2702ABFF181D
:107150003A002800718805ABFFF772FE041E41D18A
:10716000B3883F880393BB4207D907342300280024
:1071700072883178FFF71AFB2FE0280000F06AFCD4
:10718000039B0138FF1A874200D9070003232A0214
:10719000134302AA52890421009228000D22FCF711
:1071A000C3F94780059BB188BFB23A0059180390D4
:1071B000043015F08DFA0398FCF7CCF9B38802AAD5
:1071C0005289DB19934208D1280000F043FC0138B2
:1071D000874202D02800FFF721FEA01F43425841FA
:1071E00009B0F0BD062CF8D0C0E7F0B50E000021C4
:1071F00089B006AB0691197172880500FFF70AFA8B
:10720000041E3BD10A2202A812187188280005AB7F
:10721000FFF716FE041E31D102AB28005F8900F093
:1072200019FC461EBE4200D93E000323B1B22A0219
:10723000134303910B22009128000421FCF774F9F9
:107240000700039B320043800599043015F040FA93
:107250003800FCF77FF902AB5B89039A934208D1AF
:10726000280000F0F7FB0138864202D02800FFF723
:10727000D5FDA01F4342584109B0F0BD062CF8D0FF
:107280002300280072883178FFF790FAF1E70000B8
:107290000023F0B50C008FB00CAA0C9313714A8830
:1072A000163304A95B18251F1A802B880600002BB3
:1072B00000D1B0E00027B30006936A4BB2001B6810
:1072C0009B589B6B0493002B01D09B790493002F58
:1072D0005ED11625A3880AAA04A913806D180BA9EC
:1072E000A37903911A2104A8091802910CA901910C
:1072F00021000831009130002900FFF7DFFD071E53
:1073000000D096E004AB5B8B049A934201D0002A34
:107310003ED1221F1588043DFB2B00D9FB239D4243
:1073200000D91D002800ABB202210C3007930DF0EC
:107330000FF804AB5B8B2A00049304ABDB8A0B9938
:10734000838004AB1B8B0590C3800572093015F058
:10735000BFF9221F13880799043B5B1A1380414B26
:10736000069A1B680599985838300DF01FFE04AB3B
:107370005B8B079A934202D13000FFF74FFD04ABBD
:10738000198B04AA4B1C9BB2D382A288934255D975
:10739000344D069A2B68985838300DF0ADFE002811
:1073A00056D02B68069A04219B5832029C6B03230B
:1073B000257A134304354543ADB2300011220095C0
:1073C000FCF7B2F84580237A0600043343700023AB
:1073D000A288F1180A71120A4A719A1CE18892B2C5
:1073E000B2181171090A5171210004339DB2281D90
:1073F000227A3018093115F06BF9237A2468EB18DA
:107400009BB2002CE4D13000FCF7A4F8B81F434233
:1074100058410FB0F0BD00F01DFB02382880638892
:10742000A28801279A4200D245E7002B00D041E70D
:1074300041E70628ACD12B886380E7E79142A7D0CB
:10744000049B221F12880333934200DA41E79FE72F
:10745000162304AA9B181A8830003B002178FFF7F6
:10746000A5F9D3E7444000500023F0B50E008FB0DB
:107470000CAA0C9313714A88163304A95B18341FA5
:107480001A8023880500002B00D1A5E00027AB005F
:107490000693654BAA001B689B589B6B0493002BBB
:1074A00001D09B790493002F5BD11624B3880AAADC
:1074B00004A9138064180BA9B37903911A2104A8B5
:1074C000091802910CA9019131000831009128009E
:1074D0002100FFF7F3FC071E00D08BE004AB5B8BB1
:1074E000049A934201D0002A3BD1321F1488023CF7
:1074F000FD2B00D9FD239C4200D91C002000A3B223
:107500000221083007930CF023FF04AB5B8B2200B1
:10751000049304ABDB8A0B99838005908471073058
:1075200015F0D6F8321F13880799023B5B1A1380B7
:107530003D4B069A1B680599985838300DF036FD7A
:1075400004AB5B8B079A934202D12800FFF766FCDD
:107550000AAB198804AA4B1C9BB2D382B28893420F
:107560004DD9314C069A2368985838300DF0C4FD37
:1075700000284ED02368069A04219B582A029C6B4F
:107580000323A679134302364643B6B228000922E4
:107590000096FBF7C9FF4680A379050002334370CC
:1075A0000023A288E91802330A719EB2120A4A71B6
:1075B000301DA279E11D281815F08AF8A3792468F6
:1075C000F3189BB2002CECD12800FBF7C3FFB81FC7
:1075D000434258410FB0F0BD00F03CFA0238208021
:1075E0007388B28801279A4200D250E7002B00D05E
:1075F0004CE74CE70628B4D123887380E7E7914233
:10760000AFD0049B321F12880133934200DA4CE75B
:10761000A7E7162304AA9B181A8828003B00317894
:10762000FFF7C4F8D3E7C046444000500023F0B54C
:107630000C008DB00AAA0A9313714A88163302A966
:107640005B18271F1A803B880500002B37D0AB0042
:107650000593A38802AA138309AB03931A23162167
:107660009B1802930AAB019302A8A31D009309186B
:107670000223280008AAFFF721FC061E04904ED022
:107680000A2828D0062814D002AB1B8B02AA01338B
:10769000D382162202A95218A38812889A4206D8C9
:1076A00008AA12889A4202D03B88032BD1D8062E12
:1076B00011D1162302AA9B181B88638029E000F0D1
:1076C000C9F9013838806388A2889A4201D3002B17
:1076D000BDD1012304933D4FAE003B68985938302B
:1076E0000DF00AFD002800D165E00323800084B27C
:1076F0002A0213430421072228000094FBF714FFF9
:107700003B6844809B59996B0023002943D1FBF7C8
:1077100021FF04980638434258410DB0F0BDE3887C
:107720002B4A9B18012B0ED91A2202A95218238921
:1077300012889A4227D1200009990A3014F0BAFF22
:1077400000280AD01FE0200002AB9B7E217A099A14
:107750000A30FDF7BDF80028E6D0022108200CF021
:10776000F7FD02ABDB8A059A838008AB1B8801001A
:10777000C380164B083F1B68985838300DF016FC34
:107780002800FFF74BFB162208AB1B8802A9013328
:10779000521813807DE78A88C4182271120A627118
:1077A0009A1CCC8892B282181471240A5471043342
:1077B00009689BB2A9E7162302AA9B181A88280019
:1077C0002178049BFEF7F2FFA3E7C0464440005037
:1077D00000D8FFFF07B5002A0AD1032301020B439B
:1077E000009204211332FBF79FFEFBF7B3FE07BDA7
:1077F00013000A001221FEF7D9FFF8E7F7B50500DC
:107800002A4E83000093336882009B581C6C002C26
:1078100000D1F7BD238A264901930C23227DD8008D
:10782000475C974225D109184F68002F05D1214B9D
:10783000290003201B6898470027019B002B1BD0C1
:10784000210028001431B84702000128E1D00228A5
:107850000CD0002824D12800FFF7CEFA3368009A14
:10786000985840300DF0CAFB0CF0CBFC3368009AFE
:10787000CBE7013BD3D2DAE72800217D01F044FBBE
:107880000028DDD04023217D1942E4D10E2905D105
:10789000228B12232800FEF789FFDCE7E28AF8E753
:1078A000044B290003201B689847B0E74440005070
:1078B0005C79001888410050F7B50A7A04000D0081
:1078C0000C231E2A15D1002100F0E2F8132802D063
:1078D000002540280BD10321230219431C480CF03A
:1078E000D1FB00222000110000F0A4FA002528009E
:1078F000FEBD1848D900095C914224D10320164FDF
:10790000A6003B689B591B6C0193230218430CF0A3
:10791000C7FF00230093830604D4019B5A425341BE
:10792000DBB2009329003B680C39985940300DF0C8
:107930003DFB0023AB80009B0125002BD7D020000E
:10794000FFF75CFFD3E7013BD3D2FF25CFE7C0466B
:10795000410C00005C790018444000500200000017
:10796000ED6A0018040000005569001806000000C8
:107970002D7600180800000069740018100000003F
:10798000917200180A000000EB7100180C00000052
:10799000317100180E000000D96F0018520000006D
:1079A00071670018120000000D690018D200000075
:1079B000B166001816000000D56700181800000016
:1079C000616C001800020300020000080C000300B4
:1079D00000040C00030000400C0003000010C00075
:1079E000060000203000060070B50C00184E85001F
:1079F000012911D1336858590369002B06D1336826
:107A0000A4005B59E058002813D170BD10300DF070
:107A1000F5FA0CF0F6FBEDE70229F0D1336858597E
:107A2000036A002BEBD020300DF0E8FA0CF01AFDC1
:107A3000F4E70CF0EDFB002805D133685B59E05802
:107A40000C380CF0DEFB002233685B591A51DCE77E
:107A500044400050034B80001B68C35850331888C3
:107A60007047C0464440005070B5140003220D001A
:107A70000002190004AB1E7802430423C020984082
:107A80000CF072FB0570467044800CF091FB70BDE9
:107A900070B50F4B05001B780C00023B984205DBCC
:107AA00000220C4B110001201B689847032C05D9BC
:107AB0000022084B110001201B689847064BAD00BF
:107AC0001B68A400EB58E358181E00D0187870BD4E
:107AD00079410050884100504440005070B50E4B31
