:020000041803DF
:1040000010B5084B08001B6811005A331B78002BB1
:1040100002D102F01BF810BD012BFCD101F006FB10
:10402000F9E7C0465007000010B5074B08001B68B1
:104030005A331B78002B02D102F006F810BD012B79
:10404000FCD101F0E9FAF9E75007000037B51D4D42
:1040500004002B685A331878002829D10300020085
:1040600001000090013001F0B9FF002301201A0087
:10407000190000F045F9012000F0E0F9012000F0FE
:1040800003FB012000F0DEFB012000F025FC0120F5
:1040900000F060FD012000F02DFE00220120110043
:1040A00002F06CF9E068FDF7ADFC00232B6037BD32
:1040B0000128DAD100210B000A00009101F0E4F997
:1040C000D3E7C04650070000F0B585B006000A9857
:1040D00003921F00029102F070F90323C41C9C4359
:1040E000A4B2903401212000FDF702FC254D2200EE
:1040F00000212860FFF7E4FE2B68002B3BD00A9AD2
:104100005A3311688022080012031040114229D04E
:1041100000201870020003000100009001F05EFF13
:10412000041E29D13100039A3B0000F0E9F8200079
:1041300000F084F9200000F0A7FA200000F082FBD4
:10414000200000F0C9FB200000F004FD200000F07A
:10415000D1FD296820000A9A903102F00FF9200061
:1041600005B0F0BD01221A70328A00913B0002991D
:1041700001F08AF9D4E74B242868FDF743FC0023BB
:104180002B60ECE75007000000487047144203180A
:1041900070B5060008000D000C300221FDF7A8FBE9
:1041A000041E05D1064B020001001B680120984740
:1041B000012320005B42A68065810C30236070BD26
:1041C0005806000010B50C38FDF7B0FA10BD70B5F8
:1041D0000C000500C820DEF7A9FA0021DEF7BEFAC0
:1041E00023000C3B1881DD802000FDF76DFA70BDC7
:1041F000014B1B6818887047500700000C38008975
:10420000704710B50121FDF773FB10BD10B5FDF728
:10421000F9FB10BDC94003184D400318294003188D
:104220000140031870B50C78122C03D101F02AFB61
:10423000002070BD25000C3D012D01D9152CF7D1B2
:1042400002F000F8F4E7087810B5192803D003004D
:104250002E3B012B04D8497800F0AAF8002010BDAD
:104260009F28FBD9497800F05DFBF7E770B50400A3
:104270001E000800230AC82B26D11C4B9C4213D9D0
:104280001B4BE3189BB2012B07D838204042001B80
:10429000C0B201F00BFB002526E032002100022015
:1042A000144B1B689847F6E70A002000310002F023
:1042B0009DF8051E18D00125A84215D00D4B3200DF
:1042C000210003201B68EDE70B4A002594420BD028
:1042D000F832944208D00E2BF0D1084B32001B6804
:1042E00001351988FDF711FA280070BDC7C8000014
:1042F0003837000058060000080D00005007000085
:1043000010B51400002810D1084A1068C8224A824B
:1043100002008C324A60064AC8600A60054A8A6018
:10432000DA03224302800B8A438010BD500700004D
:104330003843031801000D00FFFF00006D42031811
:10434000180D0000ED4303182A0D00001D4403184A
:104350002C0D0000F9430318000D0000474203181C
:10436000A40D000069490318A50D0000B549031804
:10437000A70D0000754D0318000C0000254203181E
:104380000C0C0000516103181A0C0000A9610318FD
:10439000130C000099560318150C00005157031810
:1043A00010B50800904710BD10B5884710BD00003B
:1043B0000C4B0A001B6810B5002B0AD02E2809D11F
:1043C000002906D00021DC68D9608C4201D090B26F
:1043D000A04710BD0029FCD0034B01001B6803203F
:1043E0009847F6E7500700005806000010B5002077
:1043F000FEF752FB002010BD074B10B51B68002BC9
:1044000007D000209C689860844202D00A002032C5
:10441000A047002010BDC04650070000064B10B555
:104420001B68002B05D00020DA68D860824200D0DB
:104430009047002010BDC046500700000022024BEC
:104440001B689A60DA60704750070000F8B50E4BA1
:1044500006001B680D005A88072121230B48FDF731
:104460000FF910271923040003703A0031000130BE
:10447000FFF70AFD20003A0029001130FFF704FD84
:104480002000FDF721F9F8BD50070000170D0000CE
:1044900007B5034B00920022FEF7D1FA07BDC046D4
:1044A000A143031810B501000148FEF7DDFA10BD65
:1044B000A143031807B50093014BFEF7F3FB07BDBB
:1044C000A143031810B51300014AFFF719F810BDF6
:1044D000A143031830B585B0099D08AC2478029536
:1044E000034D00940195FFF73DF805B030BDC0467F
:1044F000A143031807B50093014BFFF7C3F807BDAD
:10450000A143031810B50A000149FFF70BF910BDCC
:10451000A143031810B50A000149FFF749F910BD7E
:10452000A1430318F0B58BB00993159B10AC11ADE6
:1045300012AE14AF24882D7836783F780693064B58
:1045400004970593139B029603930195099B00948E
:10455000FEF790FF0BB0F0BDA943031870B50C4DEA
:1045600004002B689A68002A0CD15A88072101237D
:104570000848FDF785F82F230370FDF7A5F82B6891
:104580009C6070BD002204481100A047F9E7C046B6
:10459000500700002B0D000082020000F7B5134FFA
:1045A00015003B680600DA680191002A19D15A8883
:1045B000072141230E48FDF763F82E230400037002
:1045C000202231000130FFF75FFC200020220199FA
:1045D0002130FFF759FC2000FDF776F83B68DD60DD
:1045E000F7BD00210348A847FAE7C046500700007E
:1045F000290D00008202000037B58025194B68465E
:104600001C68FCF7EDF90099A26A206B8B1A1B015C
:104610001B092D05AB4203D9531A1B011B095B4231
:10462000019A1B1892B223636287834218D2FA253B
:10463000606B0D4BED00C31863630C4BD3189BB23A
:104640006387AB4206D9A023DB05C3186363084B1D
:10465000D2186287636B834202D2238F0133238790
:10466000A16237BD50070000FFFFFF4F5F0500004C
:104670008FFDFFFF10B5034B18681C3000F0F4F8F5
:1046800010BDC0465007000037B5051E0DD1074BC1
:1046900068461C68FCF7A4F9054B2563A361054B2C
:1046A00065636362009BA563A36237BD500700008A
:1046B00075460318FD46031870B504000D4D2E68AD
:1046C000FFF79AFF28681030E1F7BCF80A4BF46254
:1046D0009C4200D91C000A216001CDF791FCB36A0D
:1046E000C01800010009706128681030E1F764F813
:1046F00070BDC04650070000CCCC0C00084B094AE6
:104700001B6810B5D86A904205D9074A8018D8624C
:10471000FFF7D2FF10BD0022DA6202F071FCF9E768
:1047200050070000CCCC0C003433F3FF10B5034B22
:1047300018681030E1F786F810BDC0465007000039
:10474000024B1B68586319877047C046500700002A
:1047500070B506000A4B0C001D68FFF74DFF0A23D9
:10476000696B3160286B2A8F43435B095B18228099
:104770003360696B8B4201D20132228070BDC0462A
:104780005007000070B5060014000D00FFF7E0FFB1
:1047900033681C1934609C4202D22B8801332B8071
:1047A000012070BDF7B56B469F1C05000E0001A8E7
:1047B00039001400FFF7CCFF3B88B34206D1019BC0
:1047C0005A1CEB1AAA420BD308480BE0B342FBD2A7
:1047D00001339E4207D1019BAB4204D3013B5B1BDB
:1047E00000202360FEBDC1204000FBE782050000E1
:1047F00070B50120FDF70EFC0F4D2B68002B19D072
:104800000E4B1B689847060028688430FDF7B2FFFE
:104810000B4B04001B6830009847002C02D0A368A3
:10482000606898472B6884331B68002B02D00120F6
:10483000FDF7CEFB70BDC04650070000E405000048
:10484000E805000010B5002808D1054B1868843031
:10485000FDF732FF01200349FDF79EFB10BDC04666
:1048600050070000F147031870B50C4E050033687F
:1048700084331B68002B02D10120FDF7A9FB084BF4
:104880001B6898470400306829008430FDF72AFF30
:10489000044B20001B68984770BDC04650070000BD
:1048A000E4050000E80500000A4B70B51B681C0019
:1048B0003C34227A002A0CD1DA6B002A09D020007D
:1048C0005D88FDF757FF0389237205810C30FCF7E3
:1048D000FBFE70BD500700000A4B70B5051E1C683A
:1048E0000BD13C342000FDF7E7FE257270BD20009F
:1048F0003C30FDF73FFFFCF719FFE36B002BF6D1CF
:10490000F4E7C04650070000054B10B51B680C3992
:104910003C3308811800FDF7E5FEFFF7C5FF10BD29
:104920005007000010B50E4B1C683C34227A022A56
:104930000AD0032A0BD0012A0CD100F019F9002368
:104940002372FFF7B1FF10BD00F058FAF7E700F04F
:10495000BBFFF4E7034B01001B6803209847EEE719
:10496000500700005806000010B5104A0B001268EE
:104970003C32127A022A09D0032A0CD0012A0FD124
:104980000978587800F010F9002010BD097858789F
:1049900000F04EFAF8E70978587800F0C1FFF3E725
:1049A000034B01001B6803209847EDE75007000008
:1049B00058060000154A10B512680B001400523456
:1049C000097824788C4205D19978587800F002F95A
:1049D000002010BD1400573424788C4204D19978FB
:1049E000587800F03BFAF3E71400723424788C42D4
:1049F00004D19978587800F0A9FFE9E7044B4432D4
:104A00000100127803201B689847E1E75007000077
:104A100058060000384B70B51E6801003400483459
:104A200000285ED1607A7288052813D8FFF700FA53
:104A3000132C44572C03022307213048FCF720FE97
:104A4000A7230370A37A010043700120FFF75CFFE6
:104A50000023637270BDDA202C2307210001FCF7CC
:104A60000FFEA0230380C0239B004360BA23038171
:104A7000E3880100436183610823FF3383830120BE
:104A8000FFF742FF0123E4E7A388072104339BB229
:104A90001B48FCF7F5FDA92305000370A37A4370BA
:104AA000A288B16C42800430FFF7EEF929000120A2
:104AB000FFF72AFF0223CCE73A2307211148FCF72E
:104AC000DFFDA4230370A37A010043700023438019
:104AD000237A03710120FFF717FF0323B9E70423AB
:104AE0006372E07AFF28B5D0FF23E3727368002B6E
:104AF000B0D01B699847ADE750070000A30D000038
:104B0000A60D0000A10D000070B51F2B18D80F4C8A
:104B100025682C004834667A002E06D0042E12D167
:104B2000E6888E4201D0052666722272049AE072EF
:104B3000E1800020AA64A380FFF76CFF002070BD15
:104B4000C1204000FBE70248F9E7C04650070000DB
:104B500082020000002808D1044B1B681A0048326A
:104B600050720122523352421A807047500700009F
:104B70000300A0380A0010B509280CD8FFF758F92F
:104B8000070B0B0B050B0B070B07002902D090B28C
:104B9000FFF740FF10BD034903200C681900A04730
:104BA000F8E7C0465806000010B5084B1B684833AC
:104BB0005A7A002803D1012A01D1997210BD044B01
:104BC00001001B6803209847F8E7C0465007000023
:104BD0005806000010B50C00002805D00022064B36
:104BE000110001201B689847452C00D10024A0B279
:104BF000FFF710FF10BDC04658060000154D031802
:104C00004D4D0318094B0318204B10B51B680100CC
:104C10001C005434002831D1A0785A88042814D8B4
:104C2000FFF706F903142C131400DA2002230721DE
:104C30000001FCF725FDA123037000230100437050
:104C40000220FFF761FE0123A37010BD3A23072164
:104C50000F48FCF715FDA4230370E37801004370AF
:104C60000C4B228843800023C2800371C3810382DE
:104C700002810220FFF748FE0223E5E72079FF28A2
:104C8000E3D05B681B689847DFE7C0465007000029
:104C9000A10D000002210000144B10B51A6801009C
:104CA00014005434002806D1A378032B0CD0FD2027
:104CB000023B034218D12079FF2815D0FF2323712E
:104CC00053685B6898470FE0022307215288084821
:104CD000FCF7D6FCA5230370E378010043700220A3
:104CE000FFF712FE0423A37010BDC046500700005A
:104CF000A20D0000002808D1044B05491B681A00CA
:104D000056321180FF2254331A7170475007000049
:104D100000FFFFFF0B4B70B51D682B0054331C794F
:104D2000FF2C01D084420BD104269C78B44307D1D8
:104D30006A60187119802000FFF766FF200070BDBF
:104D40000148FCE7500700008202000010B5074B45
:104D50001B6854339A78022A06D1013200209A70D7
:104D6000FFF79AFF002010BD0148FCE75007000044
:104D700082020000F0B51E4E1E4B356808001B680D
:104D800085B054350C0098472879FF280ED0336839
:104D90005F68002F0AD06278092A0AD11122237E87
:104DA000A2561A3400940021BC68A047002005B028
:104DB000F0BD392AFAD15A331B78002BF6D1F968A5
:104DC000002904D10C4B0A0001201B689847287960
:104DD0002500112231681A35A25649680295257EB0
:104DE000A31C0195247A0094CC680021A047DDE73C
:104DF0005007000054070000580600000A0010B5D4
:104E0000A42803D0A52805D0A12809D190B2FFF786
:104E1000FBFE10BD0029FCD088B2FFF73DFFF8E78C
:104E2000024B01001B6803209847F2E75806000078
:104E300010B5084B1B6854339A78012803D1012A16
:104E400001D1D97010BD044B01001B6803209847A5
:104E5000F8E7C046500700005806000010B50C00E7
:104E6000012805D00022044B110001201B6898473F
:104E7000A0B2FFF711FF10BD58060000F7B5354E80
:104E8000830035680090EB18DC6D002903D1227C8B
:104E9000E37B9A4206D1002323602B6EA07C5B69E2
:104EA0009847F7BD0098D2F7E7FB227CE77B0438F0
:104EB000D71B874200D907003268C1200626009917
:104EC000BBB20193090209339BB2314352880001FE
:104ED000FCF7D6FB12235C3503702B7D0600022BFA
:104EE0002DD1EB89300004339BB2B380BBB20133C8
:104EF000F380E17B2368BDB259182A000930FEF720
:104F0000C3FFA27B3F2113008B4303D0124B03202E
:104F10001B6898473F23A27BE17B1A40237C002932
:104F20000FD1B9B25B1A591E8B419B0113433372E7
:104F30003000FCF7C9FBE37BDB19E373B1E72B8A95
:104F4000D0E74919994202DB40235B42EEE7802318
:104F5000FBE7C0465007000058060000F7B5019077
:104F60002A480093076838005C30067D022E04D181
:104F7000032906D0C120400024E0012EFAD10229E5
:104F8000F8D8009B002BF5D0002AF3D0022E1AD1BE
:104F9000452AEFD8002425001D48007802388542B4
:104FA00018DB2FD0206800282ED1009BA17323602E
:104FB0002274E073022E1AD1627C01231000184083
:104FC0001A4219D1FEBD012EE4D182208000824216
:104FD000E0D3CFE7AC003C19E46D002C04D0A37CF7
:104FE0009C46019B9C45DDD00135EDB2D7E7012EF3
:104FF000E8D1637C9B07E5D528000021FFF73EFF41
:105000000020DFE70348DDE70348DBE75007000047
:105010000506000082080000820200000F4B70B5F8
:105020001B681C005C34227D002A15D0627D00259F
:10503000042A0FD15A88072102230948FCF720FBD4
:10504000A5230370A37D010043700320FFF75CFCE0
:1050500005236375280070BD024DFBE75007000073
:10506000A20D000082020000F0B54E4A030016684F
:105070008BB0002800D089E034005C34607D7588F6
:10508000072815D8FEF7D4FE162F486F82142F0478
:1050900002232A0007214448FCF7F2FAA7230370F1
:1050A000A37D010043700320FFF72EFC00236375EE
:1050B0000BB0F0BDDA202C232A0007210001FCF7F9
:1050C000DFFAA023038000234372384B01004360C2
:1050D000638A436183610823FF3383830320FFF7DF
:1050E00013FC0123E3E7A3892A00043307219BB2C1
:1050F0002F48FCF7C5FAA92305000370A37D437070
:10510000A289716E42800430FEF7BEFE29000320A2
:10511000FFF7FAFB0223CAE700271B22390003A886
:105120000297FEF7CDFE6B46DE1DDF71214B31008D
:105130001B6802A8984733782A00072108331C48C7
:10514000FCF79EFAAA2305000370A37D3278437012
:10515000428002A90430FEF797FE29000320FFF7E2
:10516000D3FB0323A3E73A232A0007211248FCF7C5
:1051700087FAA4230370A37D0100437000234380BA
:1051800003710320FFF7C0FB042390E7726E002A2F
:1051900000D18DE7326E18001268904700237366C5
:1051A00086E7C04650070000A30D00000001030081
:1051B000A60D000058070000A10D0000F7B50093F0
:1051C000431E070014000191012B50D8D31E192B48
:1051D0004DD8089B002B4AD0009B002B47D0274B73
:1051E0001E6832005C32137D002B01D0834204D153
:1051F000012F04D1108A00283CD1214836E0D08903
:105200000028FAD0022B05D00021D0F745F880B253
:1052100000282BD135005C356B7D042B18D1174A43
:10522000231D1268072152889BB21648FCF728FA02
:10523000A92306000370AB7D0099437044802200CF
:105240000430FEF721FE31000320FFF75DFB0CE088
:10525000089B00203366019B2F756B82009B736651
:10526000FF23AC81EB75FFF7FFFE0020FEBDC120E0
:105270004000FBE7012BCDD0C6E7C0465007000039
:1052800082020000A60D000010B50D4B1C685C34B6
:10529000237E002B13D1237D002B10D0627D062AA4
:1052A0000DD1022B03D10121E089CFF7F5FF217D3C
:1052B000012902D1208ACFF7EFFF0023237510BD0B
:1052C00050070000082110B5074B00021B6801437E
:1052D0005A8806480223FCF7D3F9012303701233DE
:1052E0004370FCF7F1F910BD50070000040E0000F8
:1052F000F7B5514B05001B680E0001935F888300D2
:105300003F208979019AD3188A0901400091310020
:10531000DC6D0C396368022A50D0032A27D0012A99
:105320003AD0002B00D079E0B388201D013B637395
:10533000FDF7D8F9019B5C331B7D022B4DD1009BFF
:10534000032B4FD10321607BFCF7D2FA0027060024
:105350006368002B4FD1019B627B1B6EA07C009980
:105360001C693300A0473000FCF74CFB25E0002B04
:1053700054D0237B009A934250D1201DFDF7B2F9FF
:10538000B388627B39009B18013B63732B4BED188C
:10539000A8B2FCF7D3F8CDE7002B3FD1201DFDF7D5
:1053A000A1F9B3883900013B6373009B244A23733E
:1053B000224BED18A8B2FCF727F8F7BD002B2DD033
:1053C000237B009A934229D1201DFDF78BF9B388E6
:1053D000627B9B18013B6373EFE7012B02D1009BBB
:1053E000022BAFD96368002BE7D0201DFDF7C2F96F
:1053F000FCF79CF9F6E7201DFDF7BCF90500290034
:105400002A8AF019013A1331FEF73EFD2B8A280053
:10541000013BFF18FFB2FCF789F999E70800FCF798
:1054200085F9064B3900E81880B2FCF787F82800A8
:10543000FFF748FFC1E7C04650070000C8C8FFFF9C
:10544000204E00000200002010B50C4B1C680C4BD5
:105450001B78023B984202DB09D10A480AE081002E
:105460006118C96D002906D0897C914203D1FFF7EC
:1054700029FF002010BD0130C0B2EBE7500700004B
:105480000506000082080000F0B58BB007925C4A68
:105490001D001468109B0691002800D0ADE0162670
:1054A00004AAB6180A881F003280802292020100E6
:1054B0001740134200D00631022218001040059018
:1054C000134201D00631C9B23000CFF7E0F8002F07
:1054D0003CD000283AD1152204ABD2183F231370D8
:1054E000213B2B400393474B00900293079B3000D6
:1054F000019345490623CEF795FF220033885C329D
:10550000D38106333380059B002B24D0002822D181
:10551000152204ABD2183F231626137004ABF618DD
:105520001E231D40394B00900293079B30000193CE
:10553000374906230395CEF775FF230032885C3385
:105540001A82002F18D000282CD10CE02300002252
:105550005C33DA81D7E7230000225C331A8297425A
:1055600007D090421ED123005C330121D889CFF7A8
:1055700093FE059B002B07D0002813D123005C333A
:105580000121188ACFF788FE00280BD1214B050096
:105590001A780300023A93420FDB2300FF22703394
:1055A0001D809A7000235C342376E389002B00D1A0
:1055B000238A069A13800BB0F0BD9900611801335D
:1055C000CD65DBB2E7E7AB00E318DE6D002E05D05A
:1055D0007368002B0BD13000FCF714FA0135EDB2E3
:1055E0000C4B1B78023B9D42EDDB0020E3E7301DB6
:1055F000FDF7C0F8FCF79AF8EAE70025F0E7C046A7
:1056000050070000D459031827180000045A031843
:105610002818000005060000034B1B685C335A7D08
:10562000042A00D1D875704750070000174BF7B512
:105630001C688600A619F56D0191002D1DD0144B34
:105640006188C01880B2FBF779FF2B68002B04D06B
:10565000236EA87C5B690F4998476F68002F0FD1B4
:10566000236EA87CDB68019998472800FCF7CAF9EB
:105670005C34F765237E013B2376FFF705FEF7BD1B
:10568000281DFDF777F8FCF751F8E6E75007000012
:10569000C8C8FFFF82080000F0B585B0019119006D
:1056A0000025294B94461A6802AB9F1D0B0A9B00EC
:1056B000D318DB6D80261C003D80AB4215D05C32D8
:1056C000D489AC422AD001980088844226D8661D2D
:1056D000864223DB001B80262C00052805D10122F1
:1056E0005B7C134000263B800234A31D9BB26246C4
:1056F0001648FBF7C5FF019B05001B880671038058
:105700004480002C04D0220039000530FEF7BCFB99
:105710002800FBF7D9FF002005B0F0BD148A8026D1
:10572000002CE2D0019A128894420AD8601D90425F
:1057300007DB121B0024052AD7D15B7C9B07DB0FFC
:10574000D0E70024D1E7C04650070000140C000049
:10575000F0B585B00293494B03921A68029B180A70
:105760008300D318DF6D3D1E3FD000258B88AB42F0
:105770003BD0C0B2019008885C320090D089A8422A
:1057800049D0009CA04246D8009E441DB44242DB52
:10579000301A02282CD02C0005284DD14A888026AA
:1057A000002A0CD1022B0AD1CC798A792402144325
:1057B000012C28D100257B7C23437B742E000423FD
:1057C000039A02992E48FBF75BFF009B86700380CB
:1057D000FBF77AFF002C08D03B68002B05D0F97B43
:1057E000002902D10198FFF749FB280005B0F0BD60
:1057F000137D2C008026022BE1D10198FFF778FD64
:1058000001252600DBE7002C14D101227B7C934389
:105810007B742500F5E7148A002C0CD00098844294
:1058200008D8009D601DA84204DB2C1B022C05D06B
:10583000052C0BD0002425008026C0E7157D012D06
:10584000F8D10198FFF754FD0024DAE74D88002DC8
:10585000F0D1022B0FD1CC798A7924021443012C88
:1058600003D17A7C13437B74A8E7002C03D17A7CA4
:105870009A437A74CDE72C00DDE7C046500700005C
:10588000160C00000A7810B5122A0BD1180A064B24
:1058900082001B689B18DB6D002B03D04978C0B2D7
:1058A000FFF7ECFA002010BD50070000054B820006
:1058B0001B6810B59B18DB6D002B01D0FFF702FDB4
:1058C00010BDC046500700000A0013490300A0386D
:1058D00010B509680A2819D8FEF7AAFA0E18181880
:1058E0000E12180E18060E004B6E002B04D10B6E14
:1058F00090B21B68984702E090B2FFF7B5FB10BD6D
:10590000002AFCD00B6E90B25B68F3E703490320DA
:105910000C681900A047F2E7500700005806000085
:1059200010B5084B1B685C335A7D002803D1012A4F
:1059300001D1997510BD044B01001B6803209847E5
:10594000F8E7C04650070000580600001F4BF7B5A7
:105950001D682B005C330093DE7D002805D00022FB
:105960001B4B110001201B6898470623009A5375B2
:10597000FF2E1DD0B700EF19FB6D0193002B17D13F
:1059800001211420FBF7B4FF2B6E04009B6830004C
:105990009847A074FF2812D0201DFCF78DFE019BB4
:1059A000009A23606374009BFC651B7E01331376B1
:1059B0002B6E00205B689847FFF766FCF7BD300050
:1059C000FFF780FC2000FCF71DF8F1E7500700000E
:1059D0005806000000280002000000000328000212
:1059E00000000000DB2A00040080450003280002BC
:1059F00000000000DC2A0010008045000229000A97
:105A0000000000000028000200000000032800023F
:105A100000000000DD2A00040080150603280002B3
:105A200000000000DE2A0010008015060229000A8E
:105A300000000000BD5103181D5003184554031801
:105A40005D4F0318F7B5364D83002E680090F318AC
:105A50009C6F002903D1227CE37B9A4206D100236C
:105A60002360F36FA07C5B699847F7BD0098D1F77E
:105A700003FE227CE77B0438D71B874200D907004E
:105A80002A6806250099BBB2019309020D339BB227
:105A9000294352882348FBF7F3FD7836337A050013
:105AA000022B33D1E38A02339BB2AB80BBB201330A
:105AB0002B810E2300222800FF33EA806A812B808D
:105AC0002368E17BBEB2591832000D30FEF7DCF9D5
:105AD000A27B3F2113008B4303D0134B03201B6891
:105AE00098473F23A27BE17B1A40237C00290FD1FA
:105AF000B9B25B1A591E8B419B0113432B732800CB
:105B0000FBF7E2FDE37BDB19E373AEE7238DCAE726
:105B10008919994202DB40235B42EEE78023FBE7D1
:105B2000500700000A0C000058060000F7B501906D
:105B300024480093076838007830057A022D04D194
:105B4000032906D0C126760022E0012DFAD10229D0
:105B5000F8D8009B002BF5D0002AF3D0022D19D1E4
:105B6000452AEFD81848067800200400023EB042CB
:105B700017DB23D02668002E22D1009B013DA173A4
:105B800023602274E673012D02D83100FFF75AFF1B
:105B90003000FEBD012DE5D1822080008242E1D39C
:105BA000D0E784003C19A46F002C04D0A37C9C4651
:105BB000019B9C45DED00130C0B2D8E7034EE7E739
:105BC000034EE5E7500700000506000082080000CC
:105BD00082020000364BF0B51E6885B03300783382
:105BE0000C000090039201935972FF2921D08B0081
:105BF000F3189F6F0293002F1BD101213C20FBF76C
:105C000077FE051E15D03C223900FEF759F9280011
:105C1000022239003830FEF753F9281DFCF74CFDFD
:105C2000029B2F606F749D67019B019A9B7A0133E1
:105C30009372009B013B012B34D8039B002B31D086
:105C4000330078331A7A002A02D000998A422CD184
:105C5000039A2100F267009A01271A72144B551E0D
:105C600018686B425D41134BED18DCF777FD062198
:105C700023020200194310481A23FBF701FD0123F8
:105C80005B42C3800D4B87800380FE3BFF3B43722A
:105C90000572FBF719FD0020A4003419A36F1F75CE
:105CA00005B0F0BDC1204000FAE70548F8E7C0465E
:105CB0005007000027180000190C00001502000012
:105CC00082020000138870B50C001500002B11D063
:105CD000DCF744FD21020624020008230648214384
:105CE000FBF7CEFC102303702B8883806B88C38066
:105CF000FBF7EAFC70BDC0460F0C0000F7B5574B30
:105D000007001B680D0001935E8883003F2089799E
:105D1000019AD3188A090140009129009C6F0C391F
:105D20006368022A50D0032A27D0012A3AD0002BD8
:105D300000D079E06B88201D013B6373FCF7D2FC37
:105D4000019B78331B7A022B4DD1009B032B4FD143
:105D50000321607BFBF7CCFD002706006368002B66
:105D60004FD1019B627BDB6FA07C00991C693300E3
:105D7000A0473000FBF746FE25E0002B54D0237BE4
:105D8000009A934250D1201DFCF7ACFC6B88627BDB
:105D900031009B18013B6373314BFF18B8B2FBF71E
:105DA000CDFBCDE7002B3FD1201DFCF79BFC6B8882
:105DB0003100013B6373009B2A4A2373284BFF1871
:105DC000B8B2FBF721FBF7BD002B2DD0237B009A47
:105DD000934229D1201DFCF785FC6B88627B9B18C0
:105DE000013B6373EFE7012B02D1009B022BAFD97C
:105DF0006368002BE7D0201DFCF7BCFCFBF796FC8A
:105E0000F6E7201DFCF7B6FC05002900EA89F01929
:105E1000013A1331FEF738F8EB892800013BFF18EF
:105E2000FFB2FBF783FC99E70800FBF77FFC0C4B04
:105E30003100F81880B2FBF781FB39020827074BC5
:105E400039431B6808485A880223FBF719FC0123D1
:105E5000037012334370FBF737FCB4E750070000C0
:105E6000C8C8FFFF204E0000040E00000388002079
:105E7000834209D18B78FF2B06D1C978F93B4B437C
:105E80009B5A834200D0833070470288030010B5CC
:105E9000002A10D00279CC788520224094420ED17D
:105EA000D88800280CD0CA799B7A002013409A42E7
:105EB00005D0853003E08A788320FF2AF0D110BD19
:105EC0008B79FF2BFBD18320F9E7F0B50400002686
:105ED00089B0059103920693638AA28A0193D31A2B
:105EE0009E4201DB09B0F0BD16237343E318997D90
:105EF000022960D1198B029191425CD8019AB218A3
:105F0000914258DDDB7D0793019BDD43039B6D18B8
:105F10001F88EDB2002F51D0039B9F1DDB88002B03
:105F200049D1059B9A8816235D43280063191830D0
:105F3000D97D2018CEF738FA00283CD001233D0047
:105F400004933700019B01339B192B80029B6B80CC
:105F5000079B2B71162001970137FFB27843231856
:105F60009A7D042A16D10E9A1288002A12D1069A16
:105F70000499D2788A420DD1069A18301288D97DB8
:105F80002018CEF711FA002804D0638A0E9A013344
:105F9000DB191380638AA28A0133DB19934206DC82
:105FA00016237B43E3189B7D013B012BD2D8019B39
:105FB0009E1B6E711E000136F6B28DE716206843F7
:105FC000059B1A8823181830D97D2018CEF7ECF9D4
:105FD0000028A1D0039D0497B3E70000F8B5184B43
:105FE000184E1C68002829D103003278023A9042EA
:105FF00006DB2200783480321380A3720020F8BDC3
:106000008100611801308B67C0B2F0E7AB00E31884
:106010009F6F002F05D07B68002B09D13800FBF75C
:10602000F1FC0135EDB23378023B9D42EEDBE5E752
:10603000381DFCF79FFBFBF779FBECE70025F2E747
:10604000500700000506000070470000F7B51C4F20
:1060500086003C680191A619B56F002D1FD0194B21
:106060006188C01880B2FBF769FA2B68002B04D056
:10607000E36FA87C5B69144998476B680093002B19
:1060800017D1E36FA87CDB68019998472800FBF7DC
:10609000B9FC009B7834B367A37A013BA3723B68D9
:1060A00078339A7A002A03D1197A002900D01A721B
:1060B000F7BD281DFCF75EFBFBF738FBDDE7C046AC
:1060C00050070000C8C8FFFF8208000070B5050037
:1060D0000E00FF282FD0194B1868AB00C3189B6F18
:1060E000002B28D002007832147A002C23D01B7D9C
:1060F000002B1AD0013C63425C41114B2900E4188B
:10610000DCF72CFB06212B02020019430D481A2351
:10611000FBF7B6FA01238380023BC3800A4B04726B
:10612000038018234372FBF7CFFA28003100FFF7F2
:106130008DFF002070BD0548FCE7C04650070000F9
:1061400027180000190C000017020000820200004E
:10615000180A144B82001B6870B59B189C6F221E96
:1061600013D000224B8893420FD0E58A8B88C0B2AF
:1061700095420CD09D420AD86E1D9E4207DB5B1BE8
:10618000042B02D1FFF7BAFD0122100070BD0022DE
:10619000248D9442F9D09C42F7D8651D9D42F4DBD2
:1061A0001B1BEDE750070000204BF7B51D680C00E6
:1061B0002E007836327A481C013A53425A411C4B21
:1061C0000978D218777ACEF7EFF800281AD0BF00F6
:1061D000ED19AB6FDA7C002A10D1327A022A13D182
:1061E0001A0026331A3200932000124B1249FFF78F
:1061F0006CFE628AAB6FDA82A28A1A83AA6FD37CA2
:106200000133D3740020FEBD012AF7D11A003833C0
:106210002C3200932000094B0949FFF756FE628A91
:10622000AB6F1A85A28A5A85E8E7C046500700007E
:10623000271800006C63031864630318786303185D
:10624000706303183E4BF7B51D680B782A0078324F
:10625000547A152B5DD1A600AE19B36F0193DB7C88
:10626000012B39D1137A022B38D1019F35491A37C6
:106270003800FFF70AFE00282ED101983A00324973
:106280002630FFF7F3FD002826D1019A28002100CF
:106290001632FFF717FDB36FDD8C294B1868002D00
:1062A00017D02100DCF75AFA0621240202000E233F
:1062B00026482143FBF7E4F986235B000380002393
:1062C0000222C38043810133858002818381FBF7F1
:1062D000FBF90022B36F1A750020FEBD012BF8D127
:1062E000019F1B492C373800FFF7CFFD0028F3D161
:1062F00001983A0017493830FFF7B8FD0028EBD174
:10630000019A280021002832FFF7DCFCB36F1D8FB3
:10631000C3E70D2B04D120004978FFF793FBDBE79F
:106320000C2BD9D1A300EB189E6FEB6F20009B685C
:106330009847B074EB6F00201B689847CCE7C046C5
:1063400050070000646303186C6303180A0C000014
:106350007063031878630318D55B0318CD600318C6
:106360002D5B0318DB2AFF04DC2AFF100229FF0142
:10637000DD2AFF04DE2AFF100229FF01F7B5019292
:1063800000220D00060000F045F80327C41CBC43A2
:106390002C1921003000019A01F012FEC019B843F7
:1063A000019A241821003000143216F01BFDC01988
:1063B000B8432018401B80B2FEBD70B50500002018
:1063C00000F045F804002800032601F053FE0334D2
:1063D0008019B043B44324182800143016F055FD3A
:1063E0008019B043A4B2201880B270BD074B10B51D
:1063F000984202D801F0D8FD10BD054B984202D852
:1064000000F03CF8F8E716F07BFDF5E76DC80000FA
:1064100081C80000F8B500220D00060000F05DFE06
:106420000327C41CBC432C1921003000002201F0BA
:1064300051FAC019B843241800223000210000F09E
:106440008BF8C019B8432018401B80B2F8BD70B556
:10645000002000F063FE04000020032501F052FA42
:1064600003344019A843AC432418002000F07CF802
:106470004019A843A4B2201880B270BD044B10B5D7
:10648000984202D800F072F810BD01F04FFAFBE715
:1064900077C80000016810B5002903D0054B1860CB
:1064A000002010BD044B01200A001B689847C12042
:1064B0004000F6E75C0700005806000010B5FEF744
:1064C00047F910BD0123002203708370DB18C370ED
:1064D000033342700371704710B5FEF731F90020A5
:1064E00010BD10B500F0E2F810BD0000054B10B56E
:1064F0001B68002B03D0196800F05EF910BD02483C
:10650000FCE7C0465C0700008202000070B508216D
:1065100005000748FDF73CFE0B2303600023040041
:1065200083808571FDF764FE2100FDF750FE70BD8C
:106530006FC8000070B506000C0006480821150061
:10654000FDF726FE0660858001002000FDF73FFE76
:1065500070BDC0466FC8000010B50248FFF79AFF33
:10656000002010BD306603180020704713002D4A2C
:1065700073B50C0090421AD118680B284ED8FDF75D
:1065800057FC0618224D4D4D4D4D4D4D2F450C21BC
:106590002548FDF7FDFD0023050003608380811D74
:1065A0000830FFF78BFF29002000FDF710FE0020C8
:1065B00076BD19895868FFF78FFF2100020001207E
:1065C000FFF7B8FFF3E70C211748FDF7E1FD0223C1
:1065D00003600023050083800630FFF773FFE2E7C6
:1065E0005A79511E8A4119796B46DE1DD2B23000AC
:1065F000FFF777FF082105000B48FDF7C9FD0A23C7
:1066000003603378010085808371CDE71879FFF747
:106610006DFF021ECBD021000B20D1E72100034AE1
:10662000CEE7C0466EC800006FC8000082020000BE
:106630000D650318F0B505000D4303242B0023401E
:1066400025421ED00C0005008E18331B032B1BD9CE
:10665000637827781B023B43A7783F043B439C4663
:106660006746E37804341B063B431F0A2B706F70A8
:106670001F0C1B0EAF70EB700435E6E7CC58C4500E
:106680000433D41A032CF9D893089B00C018C918F6
:10669000D21AFF2500231C002C40A24200D8F0BDD6
:1066A000CC5CC4540133F6E734207047F0B585B0B4
:1066B0000D0003900292202944D80024234F3B6808
:1066C0001033E2B20192A2009A58002A36D1029BFE
:1066D0005426002B00D1783628007043103080B249
:1066E000FDF78FFD011E03D1B020C00005B0F0BD45
:1066F000012338680434A4005B4221500A004B6037
:106700000023134C0D734D738B608B731C329D42B1
:106710000CD1029B002B02D102338B730830FBF7A4
:10672000E1FF039B019A00201A70DFE7019F53707D
:10673000013317705462DBB29219E8E70134052C7B
:10674000BFD1D1E7C1204000D0E7C04660070000BC
:10675000A55A5AA537B5051E164C0ED16B46012217
:106760002160D81D2021FFF7A1FF6B462A000821D8
:10677000D81DFFF79BFF34203EBD002522682B1D4E
:106780009B009858002801D0FDF740FD0135052DEC
:10679000F4D100252B00226808339B00D3185868D9
:1067A000002801D0FDF732FD0135042DF2D1002380
:1067B0002360E0E760070000F7B506000D0004283D
:1067C00028D8164F331D38689B001C580193002CA5
:1067D00020D0637B227B9A420DD120000024FDF75C
:1067E00015FD3B68019A2800D450A54202D0300024
:1067F000A8470020FEBD002B06D0A37B9B0700D539
:1068000008302100FBF7C0FF0123A27BA5601343E2
:10681000A373EEE7C1204000ECE7C046600700002C
:10682000F0B587B0049313000392049A05909D1865
:106830004D19404BADB21B680291982D07D8202D01
:106840001AD854221F0020250192002B19D10027AD
:106850002433BA009A58FCB2002A57D00137042FCB
:10686000F7D1B021344B022000221B68C9009847A1
:10687000B020C00007B0F0BD08331F00CC2398251E
:1068800001933C68002CECD080220026636812063D
:106890001100F1400B4202D10136202EF8D1617B6C
:1068A000002904D1244B0A0003201B689847802349
:1068B0001B06F34062689A43637B6260013BDBB274
:1068C0006373002B03D121003800FBF75DFF019BB0
:1068D000103473431E19316B184A914203D0164B82
:1068E00003201B689847029B3000B380049B202242
:1068F000F380039B0021338101237581B373103032
:10690000FDF7DEFA059B00201E60B3E72800343057
:1069100080B2FDF776FC061EA3D0FF233373074B2E
:1069200008373363034BBF001B687473DF197E6045
:10693000D9E7C0466007000058060000A55A5AA5CE
:1069400083888B4206D35B1A83800389C91801812F
:10695000002070470048FCE78202000003898B4258
:1069600006D382888A18591A8280018100207047D4
:106970000048FCE782020000C3888B4206D35B1A02
:10698000C3800389C9180181002070470048FCE7D3
:106990008202000003898B4206D3C2888A18591AE2
:1069A000C2800181002070470048FCE7820200009D
:1069B000074B026B10B504009A4205D00022054B2C
:1069C000110001201B689847A37B0133A37310BDFE
:1069D000A55A5AA558060000016B244A70B5050057
:1069E000914203D0224B03201B689847A97B0029C2
:1069F00004D11F4B0A0003201B689847A87B00287E
:106A000032D00138C4B2AC73002C01D0002070BD6C
:106A1000184B2A7B1868FF2A08D16B7B08339B0030
:106A2000C01844602800FDF7F1FBEFE7131D9B0041
:106A300019584E7B731C4B7380236D7B1B06EB40F8
:106A40004D682B434B608B7BDD0704D510008968B4
:106A5000FFF7B2FEDAE7002ED8D10222134200D0AF
:106A60000830FBF73FFED1E70348D0E7A55A5AA507
:106A7000580600006007000082020000F8B51F0001
:106A80000B8905000C00934213D300268188343112
:106A90004118A08834302018FFF7CCFDB74206D04B
:106AA00029002000202210311030FFF7C3FD3000F4
:106AB000F8BD014EFBE7C0468202000010B513008E
:106AC00002899A4206D183883433C018FFF7B2FD99
:106AD000002010BD0048FCE782020000030010B552
:106AE000080099881A8934315918FFF7A3FD10BDA1
:106AF00030B5002809D08C184589E418A54204DB7C
:106B000081800281C380002030BDC1204000FBE7AE
:106B100000207047F0B50127794B8FB01B680693B2
:106B2000069B90331D680793002D1ED0069A98325D
:106B300013783B4313706B7B581E092800D9C7E0BC
:106B40002C7BFDF775F9051425256D7B96A6B1BC48
:106B500020006B680DAA0CA99847041E00D0BFE066
:106B6000684A0D990C98FDF793FC0FB0F0BD0BAE81
:106B7000200033006C680DAA0CA9A047041E00D0A9
:106B8000AEE032885F4B0D990C98FDF793FCECE773
:106B9000032B2FD102AA16339B1804930CAB03933B
:106BA00008AB02931A239B1801930DAB00932000AE
:106BB0000BAB6C680AAA09A9A0473B000400002C93
:106BC00000D08DE0504A02A905921922521812787D
:106BD000029304920C9A08AB03921B780B9A0193D0
:106BE0001A235B181B880A99009309980D9BFDF7DF
:106BF00099FCBAE7192302AA9B1804930CAB0393E0
:106C000008AB02931A239B1801930DAB009320004D
:106C10000BAB6C680AAA09A9A04700230400CEE7C1
:106C20000CAE200032006B680DA99847041E57D1A6
:106C30003178344A0D98FDF745FC96E70AAB01938D
:106C40000DAB009309AE200033006C680CAA0BA9B1
:106C5000A047041E44D120212A4B3278019302AB75
:106C60005B181B780C9900930B980D9BFDF732FC79
:106C70007BE70BAE200033006C680DAA0CA9A0477F
:106C8000041E2DD132781F4B0D990C98FDF732FC64
:106C90006BE720006B680DA99847041E20D11949A5
:106CA0000D98FDF72FFC60E720006B680DA9984751
:106CB000041E15D113490D98FDF72CFC55E7200053
:106CC0006B689847041E0BD10E48FDF7EBFB4CE7B1
:106CD00000220E4B11003800A8241B68984724019D
:106CE0000798FBF747FD0022AB686A732100287BF9
:106CF0009847069A98321378BB43137010E7C04642
:106D000064070000B16D0318996D03185806000060
:106D100070B50E00082819D8002A17D0002B15D0FE
:106D20000D490D68010169184C7B002C11D1280018
:106D30008B604E734A6090309835FBF7D3FC2B780C
:106D4000DB0701D4FFF7E6FE200070BDC12464001C
:106D5000FAE7024CF8E7C04664070000820400002E
:106D60000C4B70B51C680500200090300E00FBF73E
:106D700001FD00220300427329003200007B9B6862
:106D8000984701229834237893432370FFF7C2FE7B
:106D900070BDC04664070000431E984110B5034B08
:106DA000404200211840FFF7DBFF10BD82030000C6
:106DB00010B501000020FFF7D3FF10BD084B0028DD
:106DC0000BD1196003000C3108700130C0B24B7058
:106DD00010310928F8D1EC20704700221A60FAE738
:106DE00064070000EC20704710B513000A00012171
:106DF000FFF78EFF10BD10B513000A000221FFF748
:106E000087FF10BD10B513000A000521FFF780FFB2
:106E100010BD10B513000A000621FFF779FF10BD61
:106E200010B513000A000721FFF772FF10BD10B55F
:106E300013000A000821FFF76BFF10BD10B5130007
:106E40000A000921FFF764FF10BD0000094A0B008A
:106E5000126810B5110098310978890704D500210E
:106E6000D9329847002010BD0A21034AFFF750FF8E
:106E7000F9E7C04664070000116B031810B5130052
:106E80000A000321FFF744FF10BD10B513000A00EC
:106E90000421FFF73DFF10BD094A70B514680300D7
:106EA000202620000D00320019009930FCF7ECFF7D
:106EB000200032002900B930FCF7E6FF70BDC04663
:106EC00064070000084B70B51C680D0020262100E7
:106ED00032009931FCF7D8FF210032002800B93187
:106EE000FCF7D2FF70BDC04664070000074B10B529
:106EF0001C68010020001022D930FCF7C5FF0223D6
:106F0000983422781343237010BDC04664070000F4
:106F1000094B07B51B681B68002B0AD0198AD86873
:106F200001AAFDF73FFC002803D10198FDF7C4FB3F
:106F300007BDFDF7FBFBFBE76807000070B5040029
:106F4000054B210018680568FBF71EFCA54201D11E
:106F5000FFF7DEFF70BDC04668070000434258419E
:106F6000024B404208401860082070476807000044
:106F70000820704770B504000D00FFF7DFFF210007
:106F800020002A0010310C30FDF7FCFB002823D034
:106F9000174D2868016800291AD0238A0A8A93426B
:106FA0000CD304D1E2689446CA68944506D90968AE
:106FB0000029F3D12100FBF795FB02E02200FBF74B
:106FC00097FC2B681B689C4201D1FFF7A1FF70BDA5
:106FD0002100FBF7BDFBF4E76168002904D1054BF4
:106FE0000A0001201B6898476368A0689847EEE78D
:106FF000680700005806000010B5FFF79FFF10BD9E
:1070000030B585B002A8FBF757FB154D2B681C68FF
:10701000002C0FD0218AE06801AAFDF7C3FB114BB9
:10702000984207D12868FBF7A5FB210002A8FBF7CF
:1070300059FBEAE7FFF76CFF02A8FBF79BFB041E76
:107040000BD04168002904D1074B0A0001201B68BE
:1070500098476368A0689847EEE705B030BDC04622
:1070600068070000820500005806000010B5FDF713
:107070006FFB10BD73B50D1814008D4201D20134A1
:10708000A4B26B469E1C310001A8FDF761FB32885B
:10709000019BA24204D100209D4205D9E81A03E0D9
:1070A0000020A41A012CF9D076BD37B56B46040038
:1070B0009D1C290001A8FDF74BFB2888238A019A13
:1070C000E168984204D100208A4205D2881A03E080
:1070D0001B1A0020012BF9D03EBDF7B505000C00AE
:1070E0001600FFF76BFE03270330B8432318320066
:1070F000190028000193FFF72DFB019BC019B8432D
:107100001B183200190028000193FFF727FF019B8D
:10711000C019B8431818001B80B2FEBD70B5050039
:10712000FFF760FE040028000326FFF7BDFA0334D2
:107130008019B043B44324182800FFF719FF8019C1
:10714000B043A4B2201880B270BD0000074A03000B
:107150001268506C002800D17047027B9A4202D11D
:10716000427B8A42F8D00068F4E7C0466C07000012
:10717000F7B5050008680C001E38062800D9B7E0EE
:10718000FCF756FE04243349708A9C000B89CA8898
:1071900001A88988FFF744FB041E15D108215B482C
:1071A000FCF7F6FF1E230360019B84801A7B01001D
:1071B00082715B7BC3712800FDF709F8544B01997C
:1071C00018684430FBF78EFA2000FEBD497920791B
:1071D000FFF7BCFF00284BD0FFF7EAFB0022290095
:1071E0001F2000F091FB0024EEE720794979FFF79A
:1071F000ADFF041E3CD0837B012B05D1444B210005
:1072000018684430FBF7C0FA2000FFF7E5FB0022C6
:1072100029002020E5E749792079FFF797FF071E2D
:1072200026D001893948103189B2FCF7B1FF00241A
:10723000212301000600848003603B7B10318371B1
:107240007B7BC371BB8803813B894381FB8883813E
:10725000BB7BC3813800FFF741FC31002800FCF7FD
:10726000B6FFB1E749792079FFF770FF002842D1D6
:10727000284CA9E7002B09D0FFF762FB041EA3D11D
:1072800002002900222000F03FFB9DE7FFF766FB8C
:10729000F4E7FFF77FFBF1E749792079FFF756FF25
:1072A0000028E5D02100E2880831FFF707FC041E22
:1072B00000D089E7220029002320E4E749792079DA
:1072C000FFF744FFE1790600A079FFF73FFF0100D7
:1072D000002ECDD00028CBD0002330003289FFF71C
:1072E000CDFB041E00D06FE7020029002420CAE76E
:1072F000C124640068E7A279E3792189002AB9D121
:10730000002BC6D0FFF738FBB8E7C04679C80000AD
:107310006C070000820200000B4B70B51B680E006A
:107320001C681500002C02D02368002B05D0002219
:10733000064B110003201B689847231D143433604B
:1073400000202C6070BDC0466C070000580600008D
:10735000F8B51D000B4B0F001B6816001C68002CB5
:1073600002D02368012B05D00022074B1100032017
:107370001B689847A31D3B6010333360A38800202F
:107380002B80F8BD6C070000580600000B4B70B551
:107390001B680E001C681500002C02D02368022B0D
:1073A00005D00022064B110003201B689847631D7F
:1073B0003360237900202B7070BDC0466C0700003D
:1073C00058060000F8B51F000F4B0E001B68150093
:1073D0001C68002C02D02368032B05D000220B4B25
:1073E000110003201B6898472379079A3B70637943
:1073F00000201370A31D336010332B6023791633E4
:10740000E418069B1C60F8BD6C07000058060000DD
:10741000F8B51D000B4B0F001B6816001C68002CF4
:1074200002D02368042B05D00022074B1100032053
:107430001B689847631D3B6010333360237900203D
:107440002B70F8BD6C07000058060000094B70B5A2
:107450001B680D001C68002C02D02368052B05D08A
:107460000022054B110003201B68984704340020BC
:107470002C6070BD6C07000058060000094B70B509
:107480001B680D001C68002C02D02368062B05D059
:107490000022054B110003201B689847043400208C
:1074A0002C6070BD6C07000058060000F7B5019312
:1074B0001F4B0F001B6816001C68002C03D02368AC
:1074C000073B012B05D900221A4B110003201B6832
:1074D000984722680023A588072A00D1A379ED18D0
:1074E000ADB22900083189B21348FCF751FE2300E0
:1074F0000833C5803B6010333360E379019A25334C
:10750000E31813600200089B08321A60A388099AE6
:107510001380A3790A9A137022000B9B25321A60FC
:10752000E3790C9A1370024B1B6858600020FEBD73
:107530006C0700005806000079C80000F7B5060087
:10754000019110482821FCF723FE0F4D04002F68FD
:107550003B681B6886800360002E04D120220199BD
:107560000630FCF791FC3868FCF748FE2100FCF778
:107570002EFE2B681868FCF725FE00222B681A6087
:107580005A60F7BD79C800006C070000F7B5060027
:107590000091144848210192FCF7FAFD124D0400B5
:1075A0002F683B681B6886800360002E0AD120226A
:1075B00000990630FCF768FC200020220199263053
:1075C000FCF762FC3868FCF719FE2100FCF7FFFDB0
:1075D0002B681868FCF7F6FD00222B681A605A60C9
:1075E000F7BDC04679C800006C070000F7B52D4F05
:1075F0000D003B6816001968002904D12A4B0A00C7
:1076000003201B6898473B681A6812680192082A91
:1076100015D81000FCF70CFC050505051C263044A8
:10762000440018212148FCF7B3FD0400002D04D1CB
:10763000102206303100FCF727FC002C25D13B68D6
:107640001868FCF7BFFD00223B681A605A60F7BD5E
:1076500028211648FCF79CFD0400002DEDD12122C5
:107660000630E7E710211148FCF792FD0400002DD9
:10767000E3D108220630DDE708210C48FCF788FD3D
:107680000400002DD9D133788371019BA58023603C
:107690003B681868FCF7B2FD2100FCF798FDCEE7C7
:1076A0005C68CAE76C0700005806000079C8000053
:1076B0000A6870B50B00040000200C2A0ED81000D8
:1076C000FCF7B6FB070D13191F252B31373D605C06
:1076D00066000820374A3849FFF786FB70BD354AF7
:1076E00036490820FFF787FBF8E7324A344908207B
:1076F000FFF788FBF2E72F4A32490820FFF789FBA2
:10770000ECE72C4A30490820FFF78AFBE6E7294AD4
:107710002E490820FFF78BFBE0E7264A2C4908207A
:10772000FFF78CFBDAE7234A2A490820FFF7A6FB7C
:10773000D4E7204A27490820FFF7A7FBCEE74821D6
:107740002548FCF725FD00240923010005000360FE
:10775000263184800630FFF7B5FB204E3368186869
:10776000FCF74CFD2900FCF732FD33681868FCF784
:1077700029FD33681C605C600020AFE71848FCF707
:10778000EDFEF9E7174A2431181DFCF707FFF3E770
:10779000081DFFF7ABFB210000220C2000F0B4F81D
:1077A0000E4C23681868FCF70DFD00202368186054
:1077B000586093E7ED750318197303185173031894
:1077C0008D730318C5730318117403184D740318CF
:1077D0007D740318AD74031879C800006C070000AD
:1077E0008D7503183D75031870B5082104000B480A
:1077F000FCF7CEFCE5B20100200A80B2022D07D8CA
:107800001422E4B25443064B1B681C190023236165
:1078100000230D710B60FCF7DAFC70BD7AC8000024
:107820006C070000F8B50B6807000D00142B03D09F
:10783000152B2FD00020F8BD08212348FCF7A8FC09
:10784000224B060018680469002C0BD0436A002BF9
:1078500007D0836B0224002B04D0B0230324DB0069
:107860000FE00124142223005343194AC118CA60AF
:107870003A02083322430A61C0186968FFF77AFBAD
:1078800000232A68310038003260B380B471FCF7FD
:107890009EFCCFE70879022812D80C4B1A681423F3
:1078A000584314182369002B0AD008301018FFF72A
:1078B000A3FB002222613900286800F025F8B9E70F
:1078C000C1225200F7E7C04679C800006C070000EB
:1078D000E977031810B50A4C002802D121604C202A
:1078E00010BD23681868002801D0FCF76BFC2368E2
:1078F0005868002801D0FCF765FC00232360EEE700
:107900006C0700004C20704770B506000C0006485C
:1079100008211500FCF73CFC066085800100200072
:10792000FCF755FC70BDC04679C80000F8B51F4B88
:107930000D001400984232D11D4F3A681668002E8F
:107940002BD12368152B06D8132B1DD80C2B0AD945
:10795000C122520012E01E3B062BF9D8210028005C
:10796000FFF706FC14E0146021002800FFF7A0FEDA
:1079700002000120002A0FD03B681E602900206809
:10798000FFF7C2FF002007E021002800FFF74AFFB1
:10799000020000208242F1D1F8BD064AEEE7064B14
:1079A0000A001B68010002209847EBE778C8000036
:1079B0006C070000820200005806000010B5024B60
:1079C0001B685B69984710BD7007000010B5034B3A
:1079D0005C221B685B6D984710BDC04670070000B5
:1079E00010B5034B61221B685B6D984710BDC04604
:1079F0007007000010B5034B5D221B685B6D984754
:107A000010BDC0467007000010B5034B62221B6812
:107A10005B6D984710BDC0467007000010B5041E8E
:107A200001D104F0F3FD034B20001B685B6898470D
:107A300010BDC0467007000010B5041E08D101201B
:107A4000064906F0E3FC002807D0200004F0DEFD24
:107A5000034B20001B685B68984710BD1D7A031814
:107A60007007000070B5040005F00EF8104E0028F5
:107A70001AD104F0D1FE851E6B425D41EDB2002C9F
:107A800006D102280AD113F079FB012004F0BEFDD3
:107A9000290033681B682000984770BD11F0F4FC82
:107AA0000028F2D00400F3E7336800211B68F2E7F6
:107AB0007007000010B5002843D00368002B40D0A9
:107AC0004368002B3DD08368002B3AD0C368002B5D
:107AD00037D00369002B34D04369002B31D0836940
:107AE000002B2ED0C369002B2BD0036A002B28D08B
:107AF000436A002B25D0836A002B22D0C36A002B57
:107B00001FD0036B002B1CD0C36B002B19D0036C50
:107B1000002B16D0436C002B13D0002911D00B681A
:107B2000002B0ED04B68002B0BD08B68002B08D09D
:107B3000CB68002B05D0074B18600020064B19605E
:107B400010BD0022054B012011001B689847C12081
:107B50004000F5E7700700007407000058060000B9
:107B6000084B10B51B68002B01D1074810BD04F06D
:107B7000D1FE0028F9D102000100044B06F024FCDC
:107B8000F4E7C0467007000082020000657A03181F
:107B9000074B10B51B68002B01D1064810BD04F03F
:107BA000B9FE0028F9D00449002006F02FFCF5E7C3
:107BB0007007000082020000397A031810B50A002D
:107BC00000230321FEF72CFE10BD10B5FEF704FFC5
:107BD00010BD13B504AC247800940BF0E1FB16BD86
:107BE000F0B585B00AAC0BAD0CAE0DAF24782D8886
:107BF00036783F7802960397019500940BF0DEFCEF
:107C000005B0F0BD7FB508AC09AD0AAE24782D787B
:107C100036880195029600940BF070FC04B070BD9C
:107C200010B50BF053FD10BDF7B504000D001600A4
:107C30001F0004F06FFE002808D1089B320000935B
:107C400029003B00200001F0D5FEFEBD0048FCE706
:107C50008202000010B5FF2804D0142902D803F0D6
:107C60008DFF10BDC1204000FBE710B5FF2804D0F8
:107C7000142902D804F00EF810BDC1204000FBE723
:107C800070B504000D0004F045FE002805D1290060
:107C90002000034A06F052F970BD0248FCE7C046D6
:107CA000BD7903188202000010B506F06BF910BD13
:107CB00010B506F02DF910BD10B5040004F0C0F9A0
:107CC0000100200005F088F810BD10B50EF050FB43
:107CD00010BD13B5049C00940EF052FB13BD10B5FB
:107CE0000EF084F910BD10B511F076FC10BD10B582
:107CF00011F08AFC10BD70B50D001600040004F0F0
:107D0000C3FE32002900002803D0200012F034FB0B
:107D100070BD200011F0F0FBFAE77FB508AC09ADAB
:107D20000AAE24782D78367801950296009409F0F1
:107D30003DFF04B070BD10B509F0A4FF10BD10B533
:107D400009F0E6FF10BD10B50CF00AFC10BD10B52F
:107D500001200CF02FFC10BD10B50222FF210CF009
:107D6000CBF810BD10B50CF071FA10BD10B50CF0C9
:107D700075FA10BD37B506AC07AD2D88247801958E
:107D800000940CF0BFFA3EBD10B503F09FF810BD93
:107D900010B5C0B203F0DCF810BD13B56B46DC1DA6
:107DA000210003F04DFB002803D10121207803F0CE
:107DB0005DF916BD73B56B469D1D0E00290003F0DD
:107DC0003FFB00280BD16B46DC1D2100300003F087
:107DD00071FD002803D12978207803F075FC76BD69
:107DE00013B56B46DC1D210003F02AFB002802D1ED
:107DF000207803F013FA16BD13B56B46DC1D210085
:107E000003F01EFB002802D1207803F031FA16BDE2
:107E100010B512F017FB10BD10B512F07FFB10BDAE
:107E200010B512F04DFB10BDF0B585B00AAC0BAD2E
:107E30000CAE0DAF24782D7836783F7802960397F4
:107E40000195009412F0FEFB05B0F0BD10B512F0E4
:107E50005BFC10BD10B5024B03F0A2F810BDC0468C
:107E6000CD79031873B56B46DE1D0C00310015008B
:107E700003F0E6FA002805D1290020003278024BF1
:107E800003F0C0FB76BDC046E179031837B56B46F9
:107E9000DD1D0C00290003F0D3FA002804D12100D5
:107EA0002878024A03F04AF93EBDC046F579031826
:107EB00073B56B46DE1D0C003100150003F0C0FAEF
:107EC000002805D1290020003278024B03F00AFD7A
:107ED00076BDC046097A031810B50EF05FFF10BDDD
:107EE00010B50EF071FF10BD10B50EF093FF10BD70
:107EF00010B50EF0D1FF10BD10B50FF041F810BD58
:107F000010B50FF089F810BD13B5049C00940FF064
:107F1000D5F816BD10B50FF05DF910BD37B506AC3C
:107F200007AD2D882488019500940FF0BFF93EBD60
:107F300010B50FF023FA10BD10B50FF05DFA10BDAB
:107F4000F0B589B0079312AB1B780EAC9C46139B1F
:107F50000FAD10AE11AF24782D7836783F780593A9
:107F60006346039704930296079B019500940FF0D4
:107F70008FFA09B0F0BD10B50FF0EEFB10BD10B5D3
:107F80000FF004FC10BD13B504AC247800940FF07E
:107F900033FC16BD37B506AC07AD2D8824780195A6
:107FA00000940FF05FFC3EBD044B10B5984202D820
:107FB00000F0A6FF10BD13F07FF9FBE759C80000E1
:107FC000F7B5150000222A4B04001A602A000F00A2
:107FD00006F09CF903260330B0433B1819002A0031
:107FE000200001930FF08EFC019B8019B0431B18F9
:107FF00019002A002000019301F0F6FA019B801974
:10800000B0431B1819002A002000019307F00AF85A
:10801000019B8019B0431B1819002A00200001930E
:108020000CF0FCFA019B8019B0431B1819002A00C0
:108030002000019312F0AAFF019B8019B0431B1886
:1080400019002A002000019313F00AF9019B8019FE
:10805000B0431E18002C07D12B68DB0304D52A007F
:108060003100200000F03EFFF01B80B2FEBDC04694
:108070007007000070B5050001F009FB040028003E
:10808000032606F05DF903348019B043B443241885
:10809000280006F089FF8019B043A4B224182800F4
:1080A0000FF062FC8019B043A4B2241828000CF031
:1080B000F8FA8019B043A4B22418280012F05AFF2D
:1080C0008019B043A4B22418280013F0E1F88019F5
:1080D000A4B2B0432B682418A4B2DB0302D5280055
:1080E00000F00CFF200070BD10B5024B1B689B69AF
:1080F000984710BD7007000010B5024B1B68DB6984
:10810000984710BD7007000010B5024B1B681B6834
:10811000984710BD7407000010B5024B1B685B68E0
:10812000984710BD7407000010B5024B1B689B6890
:10813000984710BD7407000010B5024B1B68DB6840
:10814000984710BD74070000F8B50D000231070014
:1081500089B209481600FCF71BF804002A00310018
:10816000077045700230FBF78FFEFCF741F82100E5
:10817000FCF72DF8F8BDC04620C8000010B5024B32
:108180001B681B6A984710BD7007000010B5024BB2
:108190001B685B6A984710BD7007000010B5024B62
:1081A0001B689B6A984710BD7007000037B5002513
:1081B00006AC6557024C24680095E46AA04737BDB9
:1081C0007007000010B5024B1B681B6B984710BD71
:1081D0007007000010B5024B1B685B6B984710BD21
:1081E0007007000010B5024B1B689B6B984710BDD1
:1081F0007007000010B5024C2468E46BA04710BD66
:108200007007000037B506AC2578034C246800954C
:10821000246CA04737BDC0467007000010B5024B64
:108220001B685B6C984710BD7007000010B5024BCF
:108230001B689B6C984710BD7007000010B5024B7F
:108240001B68DB6C984710BD70070000F0B587B065
:108250000CAC25780DAC26880EAC27780FAC2488A2
:108260000593A4466346054C246803930297019640
:108270000095246D059BA04707B0F0BD7007000076
:1082800010B502F01DF910BD10B502F023F910BDB4
:1082900070B506000D0006480821FBF779FF0400C1
:1082A00006604560FBF7A4FF2100FBF790FF70BD5F
:1082B0002CC8000070B5022105000548FBF768FFD7
:1082C00004000580FBF794FF2100FBF780FF70BDE1
:1082D0002BC80000F8B507000E0007480421150060
:1082E000FBF756FF040007808670C570FBF780FF20
:1082F0002100FBF76CFFF8BD29C8000070B5022112
:1083000005000548FBF744FF04000580FBF770FFFC
:108310002100FBF75CFF70BD28C80000F8B506001F
:108320000D00074808211700FBF732FF0400076023
:1083300086808571FBF75CFF2100FBF748FFF8BDE5
:1083400001C80000F0B587B001930CAB1B780600A4
:1083500002930DAB1B880F0003930EAB1B78142107
:1083600004930FAB1B880E4815000593FBF710FF15
:10837000C82304000360019BC7804372029B0671FF
:108380008372039B05728381049B8373059B038225
:10839000FBF72EFF2100FBF71AFF07B0F0BDC04628
:1083A00005C8000070B5042105000548FBF7F0FE84
:1083B00004000560FBF71CFF2100FBF708FF70BD00
:1083C00005C80000F8B507000E0008480C2115008C
:1083D000FBF7DEFE8423040003600771C68005817D
:1083E000FBF706FF2100FBF7F2FEF8BD04C8000012
:1083F00070B5082105000648FBF7CAFE8223040079
:1084000003600571FBF7F4FE2100FBF7E0FE70BD91
:1084100004C8000070B506000D0007480821FBF7EE
:10842000B7FEB423040003600671C580FBF7E0FECD
:108430002100FBF7CCFE70BD04C8000070B506003B
:108440000D0006480221FBF7A3FE040006704570EC
:10845000FBF7CEFE2100FBF7BAFE70BD46C8000058
:10846000F7B5009308AB1B7807000E005BB206213E
:10847000094815000193FBF78BFE0400009B078061
:108480000371019B8670C5704371FBF7B1FE21003B
:10849000FBF79DFEF7BDC0463CC8000070B5060066
:1084A0000D0006480421FBF773FE0400068045809A
:1084B000FBF79EFE2100FBF78AFE70BD3DC8000061
:1084C000F8B507000E00074804211500FBF760FE11
:1084D0000400C77006808570FBF78AFE2100FBF759
:1084E00076FEF8BD16C8000010B500210448FBF761
:1084F0004FFE0400FBF77CFE2100FBF768FE10BD79
:1085000015C8000070B5012105000548FBF740FEC5
:1085100004000570FBF76CFE2100FBF758FE70BDF0
:108520001EC8000070B5012105000548FBF730FEAC
:1085300004000570FBF75CFE2100FBF748FE70BDF0
:1085400014C8000070B506000C000648082115008C
:10855000FBF71EFE0660858001002000FBF737FE5A
:1085600070BDC04601C8000010B50400FBF740FE16
:10857000220001005020FFF7E5FF10BD10B50400F8
:10858000FBF736FE220001000120FFF7DBFF10BDE4
:10859000F8B507000E00074804211500FBF7F8FDA9
:1085A0000400077046804570FBF722FE2100FBF7B0
:1085B0000EFEF8BD35C8000010B500210448FBF7D9
:1085C000E7FD0400FBF714FE2100FBF700FE10BDE1
:1085D00033C8000070B506000D0006480421FBF703
:1085E000D7FD040006704580FBF702FE2100FBF773
:1085F000EEFD70BD32C8000070B506000D000748E2
:108600000821FBF7C5FD0023040003608680857107
:10861000FBF7EEFD2100FBF7DAFD70BD01C800009D
:1086200070B5082105000648FBF7B2FD6823040079
:1086300003608580FBF7DCFD2100FBF7C8FD70BD02
:1086400001C80000F7B51C0008AB1E780F00A11987
:1086500003310090890025480192FBF799FD9F2383
:108660000100077100270360009B099AC380019BEA
:10867000847203810500C672600013180C310093E8
:10868000A4B2009B9A420AD1A6190A98B6B2B44283
:1086900013D1FBF7ADFD2900FBF799FDF7BD13786A
:1086A0009C46604653788F701B0203430B701B0A75
:1086B0004B70CF7002320431E3E74378027881785F
:1086C0001B021343C2780904671C0B4303341206D0
:1086D0001A43A4002C19130A22706370130C120E93
:1086E000A370E2700430BCB2D1E7C04604C80000F9
:1086F000F0B587B001930CAB1B88060002930DAB5D
:108700001B880F0003930EAB1B88142104930FAB3F
:108710001B780E4815000593FBF73AFD9E230400D5
:108720000360019B07714381029BC6808381039B89
:108730000581C381049B0382059B8374FBF758FD6D
:108740002100FBF744FD07B0F0BDC04604C800009F
:10875000F7B506000F000A48102115000193FBF73A
:1087600017FD9C2304000360019B0771C6800581EF
:10877000C360FBF73DFD2100FBF729FDF7BDC046B7
:1087800004C80000F7B5009308AB1B8806000F0073
:108790000B48142115000193FBF7FAFC9A230400FF
:1087A0000360009B07714381099BC680C360019BE6
:1087B00005720382FBF71CFD2100FBF708FDF7BDE6
:1087C00004C80000F0B585B002930AAB019204CB57
:1087D0000F001D88060029000A31490089B214489B
:1087E0000392FBF7D5FC9923010004000360019B71
:1087F0000C9A0372029B05824381039B6D000771F3
:10880000C680C36012315519AA4206D1FBF7F0FCAD
:108810002100FBF7DCFC05B0F0BD537810781B029B
:1088200003430B701B0A4B7002320231ECE7C04667
:1088300004C80000F0B585B002930AAB019204CBE6
:108840000F001D88060029000A31490089B214482A
:108850000392FBF79DFC9823010004000360019B39
:108860000C9A0372029B05824381039B6D00077182
:10887000C680C36012315519AA4206D1FBF7B8FC75
:108880002100FBF7A4FC05B0F0BD537810781B0263
:1088900003430B701B0A4B7002320231ECE7C046F7
:1088A00004C80000F0B589B002930EAB1B88050028
:1088B00003930FAB1B880E00049310AB1B78202191
:1088C000059311AB1B781448069313AB1B780192E8
:1088D000079314AB1F78FBF75BFC9723040003603E
:1088E000019B06710372029BC5804381039B4776FF
:1088F0008381049BC381059B0374069B4374129B75
:108900004361079B0376159BC361FBF771FC210054
:10891000FBF75DFC09B0F0BD04C80000F7B500939B
:1089200008AB1B8806000F000A48102115000193B0
:10893000FBF72EFC962304000360009B0771438124
:10894000019BC68005728381FBF752FC2100FBF777
:108950003EFCF7BD04C80000F7B5009308AB1B78D8
:1089600006000F000A48102115000193FBF710FCC8
:10897000952304000360009B07714381019BC6801F
:1089800005720373FBF734FC2100FBF720FCF7BDF5
:1089900004C8000070B505000E0007480821FBF769
:1089A000F7FB9B23040003600671C580FBF720FCE6
:1089B0002100FBF70CFC70BD04C80000F7B5009364
:1089C00008AB1B7806000F000A4810211500019320
:1089D000FBF7DEFB942304000360009B07714381D7
:1089E000019BC68005720373FBF702FC2100FBF7B5
:1089F000EEFBF7BD04C80000F7B5019308AB1D8876
:108A00000F00290008314900060089B2124800927F
:108A1000FBF7BEFB9323010004000360009B099A4F
:108A20000372019B85816D000771C68043810E3101
:108A30005519AA4205D1FBF7DBFB2100FBF7C7FB69
:108A4000F7BD537810781B0203430B701B0A4B7061
:108A500002320231EDE7C04604C80000F7B5060057
:108A60000F000A480C2115000193FBF791FB92239C
:108A700004000360019B0771C68005724381FBF708
:108A8000B7FB2100FBF7A3FBF7BDC04604C80000FD
:108A9000F0B587B000930CAB1B88060001930DABBB
:108AA0001B780F0002930EAB1B78142103930FABBE
:108AB0001B781048049310AB1B7815000593FBF747
:108AC00067FB912304000360009B07714381019BB6
:108AD000C6808381029B05728373039BC373049BCF
:108AE0000374059B4374FBF783FB2100FBF76FFBCB
:108AF00007B0F0BD04C80000F0B587B000930CAB20
:108B00001B78060001930DAB1B780F0002930EAB90
:108B10001B78142103930FAB1B881048049310ABF0
:108B20001B8815000593FBF733FB902304000360BB
:108B3000009B07714381019BC6800373029B0572F2
:108B40004373039B8373049B0382059B4382FBF760
:108B50004FFB2100FBF73BFB07B0F0BD04C8000052
:108B6000F7B5009308AB1B7806000F000A480C21EC
:108B700015000193FBF70CFB8F2304000360009B9F
:108B800007714372019BC68005728372FBF730FB4D
:108B90002100FBF71CFBF7BD04C80000F7B5060079
:108BA0000F000A480C2115000193FBF7F1FA8E2300
:108BB00004000360019B0771C68005724372FBF7D6
:108BC00017FB2100FBF703FBF7BDC04604C80000FC
:108BD000F7B50F00991D4900060089B210481C0026
:108BE0000192FBF7D5FA8D23019A048164000500F8
:108BF00003600771C68014190A30A24205D1FBF741
:108C0000F7FA2900FBF7E3FAF7BD51781378090268
:108C100019430170090A417002320230EDE7C04683
:108C200004C80000F8B506000F0008480C21150024
:108C3000FBF7AEFA8C23040003600771C68005724F
:108C4000FBF7D6FA2100FBF7C2FAF8BD04C8000012
:108C5000F8B506000F0008480C211500FBF798FA3C
:108C6000A023040003600771C6800572FBF7C0FAF9
:108C70002100FBF7ACFAF8BD04C8000070B506008F
:108C80000C00064808211500FBF782FA0660858073
:108C900001002000FBF79BFA70BDC04603C800002E
:108CA000F7B51D0008AB1B78070000910F48202185
:108CB00016000193FBF76CFA812304000360009B0C
:108CC00031008780837110220730FBF7DDF8200028
:108CD000290006221730FBF7D7F8019B6377FBF7D3
:108CE00087FA2100FBF773FAF7BDC04604C80000FD
:108CF000F7B507000E000C481C211D000192FBF780
:108D000047FA802304000360019B2900837210222C
:108D1000476006810B30FBF7B7F8FBF769FA2100D3
:108D2000FBF755FAF7BDC04604C80000F8B50600C9
:108D30000D000C484421FBF72BFA2027AA2304003E
:108D40003A0008C03100FBF79FF820003A002900E4
:108D50002430FBF799F8FBF74BFA2100FBF737FAC1
:108D6000F8BDC04604C80000F7B50F0019000C316B
:108D7000060089B20B481D000192FBF709FA9D23FA
:108D800004000360019B2A00037208990771C680E2
:108D900045810C30FBF778F8FBF72AFA2100FBF746
:108DA00016FAF7BD04C80000F7B5019308AB1D78AB
:108DB0000F002900060010310C480092FBF7E8F97B
:108DC000A12304000360009B2A000372019B099900
:108DD00043810771C68005730D30FBF755F8FBF72B
:108DE00007FA2100FBF7F3F9F7BDC04604C80000FD
:108DF000F8B505000E0008480C211700FBF7C8F96C
:108E000004000570476006812800FFF73DFA210045
:108E1000FBF7DDF9F8BDC0460EC8000070B50500CF
:108E20000E0007480821FBF7B3F9040005704660FF
:108E30002800FFF729FA2100FBF7C9F970BDC046E9
:108E40000AC80000F0B587B002930CAB1B880191F3
:108E500003930DAB1B7816005BB204930EAB1B782B
:108E6000050005931789938839000C3189B20F48A2
:108E70003436F618FBF78CF90400029B3A00437075
:108E8000049B31008370059B0570C370019B478173
:108E90004360039B03810C30FAF7F6FF2800FFF7CD
:108EA000F3F92100FBF793F907B0F0BD0CC80000FF
:108EB000F7B505000F000A48042116000193FBF7DF
:108EC00067F90400019B0570438047702800FFF795
:108ED000DBF92100FBF77BF93000FEF776FEF7BDEA
:108EE0000DC8000010B503490348FEF7E3FD00205C
:108EF00010BDC046C8950318709503180020704730
:108F0000F0B51400954A03000D008BB0904200D1DB
:108F1000E6E217D8E0229201821892B20B2A1DD8FD
:108F20008F4A80180B2819D8FAF796FF1F001800EF
:108F30006802180018001800AB021800180018008A
:108F40001800D402874A904200D1D8E2864A904263
:108F500000D1D8E2854A904200D1C7E2844A190084
:108F6000146802202A00A047D0E12068842800D994
:108F700041E2FAF771FF85008900400240028C004F
:108F8000AB00B100400240024002400240024002F9
:108F90004002400240024002400240024002CC0037
:108FA00003014002400240024002400240024002EF
:108FB00040022F01400240024002400240024002B3
:108FC0004002400240023A01400240024002400298
:108FD0004002400240024002400249014002400279
:108FE00040024002400240024002400240024D0165
:108FF0005A016001640169014002400240024002DE
:1090000040026F017301800187014002400240026B
:10901000400240024002B600BD00C50040024002CE
:1090200040024002400240024002400240029301DE
:1090300099019E01A201A601AA01B101B801BD01D9
:10904000C20140024002C801400240024002400208
:109050004002CE01D301DA01E201E801F201F90197
:1090600004020A0211024002400240024002400291
:109070004002400240024002400225022C0235021A
:10908000FEF76EFD0600F2E0FEF782FDFAE709AF9B
:10909000627A217A0097374B6068FEF7C5FD061E9D
:1090A000079059D108213448FBF772F804002900D1
:1090B0003878FFF7E5F8042321002360079BA3809D
:1090C0003B78A3712800FBF782F81FE161792079D2
:1090D000FEF7C0FD020085E061792079FEF7C5FD4D
:1090E000F8E721006368083198B2FEF7C9FDC9E7C7
:1090F000FEF7DAFD290002005120FFF723FA05E10F
:109100006068FEF7D5FD290002005220F5E7BE2376
:10911000A2895B009A425AD20023032109A8FDF7D5
:109120007FFB061E18D1099B210018009B88343054
:109130000E31A289C018FAF7A7FEA3796279591EE9
:109140008B4120790093A168099BFEF742FD061E22
:1091500002D00998FEF739FD320043E01FC8000035
:109160000038FFFF34C8000036C800002AC80000DD
:1091700058060000D895031801C80000BE23228AB3
:109180005B009A4223D20023032109A8FDF748FB84
:10919000061EE1D1099B210018009B883430123152
:1091A000228AC018FAF770FEA37BA279591E8B4160
:1091B00020790393E379591E8B410293A38901938C
:1091C00063790093A168099BFEF70AFDBFE7C126FA
:1091D0007600C1E72300E279A179A0880833FEF781
:1091E00074FD00222900206887E74821B448FAF777
:1091F000CFFF010023680600036026310630FEF72A
:1092000076FD3100B0805DE72079FEF755FD61E71E
:10921000617CA37BA2890291217C0191E17B009179
:10922000A1686068FEF779FD54E7FEF784FD290028
:1092300002003D2061E7A088FEF781FD4AE7217A20
:109240006068FEF780FD45E7FEF781FD290002001A
:10925000402052E72079FEF77FFD3BE72079FEF7BB
:1092600081FD0600020029002068FFF76BF9002E3F
:1092700000D071E74AE02389A27961792079FEF76D
:1092800075FDEEE76389E288617920790193237A9D
:10929000009323000C33FEF76DFDE2E70022A08867
:1092A000A11DFEF7D7FDEDE6A088A11DFEF7EEFD9E
:1092B000E8E6A088FEF771FD0CE7A088FEF790FDB8
:1092C00008E7A088FEF798FD04E72200E188A0885F
:1092D0000832FEF7C7FDD5E62200E188A0880832F3
:1092E000FEF7E6FDCEE6E188A088FEF763FDF1E635
:1092F000A179A088FEF78CFDECE6627D2079611DE6
:10930000FEF78AFDE6E66F48FEF78AFD00200BB007
:10931000F0BDE1882079FEF7E7FDDBE62200E18879
:1093200020790832FEF7E4FDD4E623002289E188A3
:1093300020790A33FEF7E0FDCCE6E1882079A268C7
:10934000FEF7DEFDC6E622001032237BE18820799D
:109350000092A268FEF7D8FDBCE6E379A2796179B4
:109360002079FEF7D7FDB5E6E689A37A2289E18860
:10937000A0880196A6890096FEF7D0FDAAE622896C
:10938000E188A088FEF7D4FDA4E62289E18820794F
:10939000E368FEF7D1FD9DE6220026692389E18876
:1093A00020790596A67B16320496667B0396267B6B
:1093B0000296E67A0196A67A0096FEF7C1FD89E646
:1093C0002389E279A179A088FEF7D9FD82E6667A41
:1093D000237AE279A179A0880096FEF7D4FD79E698
:1093E0006689237AE279A179A0880196667A009647
:1093F000FEF7D0FD6EE6A8263601ADE62368652BA4
:109400000DD8592B0DD918005A380B2809D8FAF75E
:109410000FFD0D1F0808080808080808282C6E2BE7
:1094200029D0A82229001800120117E009AF3A003C
:10943000A18A201DFEF7A8FC060008212248FAF7A1
:10944000A7FE2368868003603B780100837139E6BC
:10945000A088FEF79DFC290002002068FFF70EFCA3
:1094600054E71A48FEF738FDF5E7E288617920797C
:10947000FEF736FDEFE709AF39001548FEF77BFD33
:10948000DAE72068C82804D0C92811D0A822120120
:10949000E4E7257B237AE288617920790395E57AF0
:1094A0000295A57A0195647A0094FEF7BDFC2DE73C
:1094B000220020792532611DFEF7C8FC26E7C04650
:1094C00001C800002186031803C80000189503187E
:1094D00068950318628820786168FEF7A1FB15E79C
:1094E00061782078A21CFEF7FAFB0FE763792279F6
:1094F0006188207806340094FEF7EBFB06E7200035
:10950000FEF7F1FB02E720786178431E9841A21C28
:10951000C0B2FEF7F0FBF9E6258C0318D18B0318D7
:109520009D8B0318618B0318F98A0318918A03181D
:109530005D8A0318F9890318BD89031895890318F2
:10954000598903181D890318A5880318358803183D
:10955000C58703188587031851870318698D031879
:10956000F186031845860318518C0318A98D03183A
:10957000F98503187D850318D5850318B985031867
:109580009185031869850318258503180585031837
:10959000E9840318C18403189D84031861840318A7
:1095A0003D840318158403182D8D0318F18C0318BE
:1095B000A18C0318F1830318C5830318A58303182E
:1095C000458303181D830318FD820318D5820318F1
:1095D000B582031891820318458E0318B18E0318C3
:1095E0001D8E0318F18D0318F7B5150004000F0048
:1095F00002F0CAFE03260330B0433B182A001900CC
:109600002000019300F0A8F9019B8019B0431B18BA
:109610002A0019002000019302F0ACFF019B801981
:10962000B0431B182A0019002000019304F01EFC0F
:10963000019B8019B0431B182A00190020000193D8
:1096400003F048FB019B8019B0431B182A00190046
:109650002000019303F0E6FC019B8019B0431B1826
:109660002A0019002000019303F062FD019B80197C
:10967000B0431B182A0019002000019303F068FE74
:10968000019B8019B0431818C01B80B2FEBD70B595
:10969000050001F0FDFB04002800032600F076F928
:1096A00003348019B043B4432418280002F094FF17
:1096B0008019B043A4B22418280004F025FC8019B6
:1096C000B043A4B22418280003F014FB8019B0435F
:1096D000A4B22418280003F0BDFC8019B043A4B242
:1096E0002418280003F040FD8019B043A4B22418C8
:1096F000280003F03FFE8019B043A4B2201880B2C6
:1097000070BD70B50400008A012805D1608B401A35
:10971000431E984180B270BD0028FCD00023451E36
:10972000ADB2EA1A52109A1892B216000C367600B0
:10973000A61976888E4217D0AB42ECD08E4211D358
:1097400015005A1C9542ECD10B325200A2185288D7
:109750008A420BD00D335B00E41863888B42DAD168
:109760002800D8E71300ECE71000D4E71800D2E790
:10977000184B10B51A68F0239B00D258131E21D045
:10978000002311899CB28B4210D300238C4219D143
:1097900053898B421BD90124CBB29B00D3189881EB
:1097A0009C7309191368118198470AE09C1CA40056
:1097B0001419A488844207D19B00D3189A7B0132E4
:1097C0009A730023180010BD0133DBB2DAE7B0232F
:1097D000DB00F7E7780700001C4B70B51A68F02330
:1097E0009B00D4580600002C2BD0002826D0002542
:1097F00021898D4225D2AB1C9B00E3189B88B34284
:1098000020D1AA00A218937B013BDBB29373002BFB
:1098100017D163683000984722896B1C934209DA9C
:10982000E91C521B0C258900601804316A43611839
:10983000FAF72AFB2389013B238102E063689847FA
:10984000268170BD0135EDB2D3E7C0467807000030
:10985000142310B558430D4C236818180C4BC2182C
:109860001378002B10D0013BDBB21370002B0BD10F
:10987000F1239B00C0180088FFF7AEFF8522216806
:10988000D2008B5C013B8B5410BDC04678070000B2
:10989000D6030000F8B50600002410270A4B1D6807
:1098A0000A4BED182B7C002B06D03A003100280023
:1098B000FAF7DCFA002805D00134E4B21435052C9F
:1098C000F0D1FA342000F8BD78070000C60300008C
:1098D000F7B5060008000D00FFF7DCFF1B4B1C6806
:1098E000FF2808D014234343E418194BE4182378C5
:1098F00001332370FEBD8523DB00E35C042BF9D824
:109900000022134BE718D3B2019314235343F95C9D
:10991000002903D00132052AF5D1EBE7F121E21845
:10992000890051180E800A49521801211170094A04
:109930002900981820181022FAF7A6FA8522D200DA
:10994000A35C01980133A354D4E7C0467807000014
:10995000D6030000C603000010B50A4C002806D14B
:109960000122094B2160CA548620C00010BDF0239B
:1099700022689B00D058002801D0FAF747FC00234A
:109980002360F1E7780700002A0400008620C00069
:1099900070470000024B1A68024BD05C7047C0460B
:1099A0007807000029040000F7B50F4B1D680F4B26
:1099B0002C00EB5C01930023019E9E4202D1A0206B
:1099C00080000BE0277E0A4EBC46AE5B66448642B2
:1099D00005D126688E4202D100201370FEBD0133EE
:1099E000DBB23034E8E7C046780700002904000005
:1099F0002C040000F7B506000C0000920193002B28
:109A000033D01B4B1B4F1D68EB5D132B01D91A483C
:109A1000FEBD1A4B089AE85A401880B23100FFF791
:109A2000C3FFA0239B009842F1D1EA5D089B0099F7
:109A30001A70531CEB55302353430022EB181A8243
:109A4000019A00985A6001221C761E601140104253
:109A500008D199750A4B0020EA5CA242D8D801349B
:109A6000EC54D5E702229A75F4E7C1204000CFE715
:109A70007807000029040000820200002C04000086
:109A80002A040000024B1A68302343439858704759
:109A900078070000094A030012680948105C9842E0
:109AA00009D9302058431018037E0648125A002066
:109AB0009B180B807047A0208000FBE77807000010
:109AC000290400002C040000074B084A1B689A5C1C
:109AD000824206D9302250431B1800205B680B607D
:109AE0007047A0208000FBE77807000029040000F1
:109AF000F0B587B001930CAB1B78059202930DABC8
:109B00001F780EAB1B78060003930FAB1B780D007C
:109B10000493334B1C6830234343E3189A7D910729
:109B20005AD5D20706D51A89920B022A02D1D87BC0
:109B3000FFF78EFEAB0B022B0BD128000599FFF728
:109B4000C7FE30237343E318D873FF280DD1B0202C
:109B500043E03023FF227343E318DA73002D04D16E
:109B60002F00049503950295019230227243A218AA
:109B70005368DB68002B17D0917DC90705D5118983
:109B8000A94202D1127BBA420ED03F22B909013953
:109B9000C9B264203A40022902D812488900085804
:109BA000424329003000984730237343E418019B57
:109BB000A27DA372029B0420E372049B3100A37375
:109BC000039B25816373012313432773A37504F05B
:109BD000DFF9002007B0F0BDF020C000FAE7C04672
:109BE00078070000E8A4031830B50400134805689E
:109BF0001348285CA0421AD9302044432D19AC7D6B
:109C0000E443A00716D100202C890C80E97B117059
:109C1000AA7A1A70EB7A039A1370AB7B069A1370C8
:109C20002B7B049A13706B7B059A137030BDA020B8
:109C30008000FBE7F020C000F8E7C046780700008E
:109C400029040000F7B530273B4B47431B6805004C
:109C5000DF193C8A01937B8A0E001B19092B00DD5A
:109C600067E03800FFF74DFD030000209C4227D835
:109C7000012C26D1788BB04280414042844209D0E9
:109C800018236B43621E92B201999B185B00CB189C
:109C9000824246D218236B4318180C30019B4000B7
:109CA000181830236B43019A0134D31846801C8264
:109CB0003000FFF75DFD0520290004F069F9002060
:109CC000FEBD002CE6D018226A439446611E89B27C
:109CD000020010008A1A52108218471C92B2B94230
:109CE00014D118236B431A18019F0C325200BA1872
:109CF0005288B242C2D85B180C335B00FB185B88F9
:109D00000800B342BAD8013080B2B7E76746BF183F
:109D1000019B0C377F00DF197F88B742D9D3110030
:109D2000D6E7598B023BD983002AB3D0013A92B2CD
:109D3000AEE7B020C000C3E7780700002B4BF7B5B3
:109D40001D6830234343EB185F8A1B8A0400DB192C
:109D500016000191092B02DDB020C000FEBD1000ED
:109D6000FFF798FD03008446FF281DD131000198BC
:109D7000FFF7AEFD0300FF28EED030206043281827
:109D8000428A013291B218226243521A16325200AC
:109D9000AA18418253800198FFF7EAFC05202100B0
:109DA00004F0F6F80020D9E786B218200A226043B2
:109DB000D71BBFB2013A974209D9614614224A43E0
:109DC0000B49AA185218117801311170D5E7811882
:109DD0000C31490069184988B14202D0013A92B267
:109DE000E9E700200A2AB9D1E7E7C0467807000072
:109DF000D6030000F8B53026144B46431D68040016
:109E0000AE1930000F00FFF77CFC328A82420FD976
:109E100018216143013A90420BDB30236343ED1874
:109E200038002A82FFF7D8FC2100052004F0B0F8A2
:109E3000F8BD0B181E000D367600AE190C3376886F
:109E40005B00EB1801305E8080B2E4E77807000029
:109E5000F7B5284B050008001F680192FFF71AFDAF
:109E60000023019A1380FF280CD018220A26092407
:109E700030336B43FB185B8A6A43F61AB6B281B281
:109E8000A64200D9F7BD13190C335B00FB185B88A1
:109E90008B4202D0013CA4B2F2E70A2CF2D0142388
:109EA000F12243439200FB189B181B88019A1380F0
:109EB000FFF7CEFCA6420AD330236B43FF187B8A00
:109EC0002900013B05207B8204F062F8DAE71822C2
:109ED0006A43013CE4B2B442EED3131919000C31C9
:109EE000490079180D3349885B00FB18013C598003
:109EF000E4B2F0E778070000154BF7B51E68302391
:109F00000A224343F318598A0400521A92B201926A
:109F10000022092518271A82019B9D420BD230236B
:109F200000206343F6187082FFF756FC21000520DD
:109F300004F02EF8F7BD3B0063435B190C335B0064
:109F4000F3189878013DFFF783FCEDB2E4E7C046D3
:109F50007807000030224243034B1B689B18188A85
:109F60005B8AC01880B270477807000030224243F5
:109F7000024B1B689B18588A7047C0467807000040
:109F8000F7B50C0030210700414318200092002251
:109F90001F4B78431E6871180B8A93420AD83023EE
:109FA00000257B43F31812330193019B1B88AB42BE
:109FB0000CD8F7BD83180C335B00F3185B880132B3
:109FC00023701B0A637092B20234E5E709235A1B1F
:109FD0000F3314217B439B18F1220C335B00F318E1
:109FE0009B789200594373189B181B8823701B0A97
:109FF0006370009B0234002B06D0064B1022C91858
:10A0000020007118F9F740FF0135ADB2CDE7C04629
:10A0100078070000C603000070B5234B04001D68DC
:10A02000224B0020EB5CA3421CD90BB283420BDB1A
:10A030001F4BE85A30235C432D192B7EC018401A61
:10A0400043425841C0B20DE08B0B9E03032B0AD153
:10A05000302044432D192800FFF753FB2B8A9842E8
:10A060008041404270BD80231B029E42FAD13023C2
:10A0700063431820EB18598A0A234443591A89B2BA
:10A08000013B96B2994205D90A23D8B20A38431E39
:10A090009841D7E7E2180C325200AA185288B2420F
:10A0A000F3D0013B9BB2EDE77807000029040000E4
:10A0B0002C040000104BF0B51D68F12306000027AA
:10A0C0009B00EC18A37CF8B2002B06D02388B34287
:10A0D00003D1002907D00139C9B201371434052F43
:10A0E000F0D1FF20F0BD002AFCD014237B430349AC
:10A0F0005B18EB181360F5E778070000C603000053
:10A100003022074B42431B6801009B1810B5002BFF
:10A1100005D0DA7D06200132DA7503F039FF10BD73
:10A12000780700007FB5174B04001D6830234343B8
:10A13000EB180E00002B24D0D97D002904D1124B3E
:10A140000A0003201B68984730236343EB181A89E1
:10A15000002A0CD09B7AB34209D10021FF230A00C8
:10A1600020000391029101910091FFF7C1FC30237F
:10A170006343ED18EB7D2100013B0620EB7503F0F6
:10A1800007FF7FBD780700005806000030224243D9
:10A19000024B1B689B18D87D7047C04678070000AB
:10A1A0003022094B42431B6864209B183F221B7BD3
:10A1B0001A409B09013BDBB2022B02D803499B00EA
:10A1C000585850437047C04678070000E8A4031869
:10A1D00010B5044B00211A68034BD052072003F03E
:10A1E000D7FE10BD780700002C040000024B1A684F
:10A1F000024BD05A7047C046780700002C0400007C
:10A2000010B5094B1A68094BD15A0023814207D86F
:10A21000074C125D52180121904200DB19000B001F
:10A220000120184010BDC046780700002C04000033
:10A230002A04000014234343024A9B18024A106870
:10A24000C0187047C603000078070000024B1A6868
:10A25000024BD05C7047C046780700002A0400001B
:10A260000023F0B53026104C104F24680B7013708B
:10A27000E55D9D4200D8F0BDFF2805D035005D4367
:10A2800065192D7E854207D135005D432D592D0C72
:10A2900005D01578013515700133DBB2E8E70D788C
:10A2A00001350D70F8E7C04678070000290400006A
:10A2B000144BF0B51D68302300249C46124BEB5C18
:10A2C000A34200D8F0BD63466343EE18367E864253
:10A2D0000BD15B591E0C3704002A09D1002F04D181
:10A2E0000B709BB21B0A4B7002310134E4B2E5E7FC
:10A2F000002FFAD00B701F0A1B0E4F708E70CB70A0
:10A300000431F2E77807000029040000F0B5F027D7
:10A31000354EBF00336885B0DC590190029103923D
:10A32000002C03D00027380005B0F0BD019BD81CDD
:10A330008000F9F766FF051E52D03368D851019BA3
:10A3400004814381029B0360039B43603368029353
:10A35000029A264BD35CA34201D800271BE00023BE
:10A36000019330336343029AD3180393039B019AFA
:10A370001B8A934202D80134E4B2E7E7182363430F
:10A38000019A9B180C33029A5B00D3185888FFF788
:10A39000EFF9071E11D0002485223368D2009A5CA1
:10A3A000A2420FD8002FBDD02800F9F72FFFF023CD
:10A3B000002132689B00D150B5E7019B0133DBB22D
:10A3C0000193D3E7142262439B18F12292009B1859
:10A3D0001888FFF7CDF9071EE6D10134E4B2DBE7B8
:10A3E000B027FF009FE7C04678070000290400005F
:10A3F00070B5F024054DA4002B681859002804D02E
:10A40000F9F704FF00222B681A5170BD780700008D
:10A41000064B1A68F0239B00D358002B03D01B89EE
:10A420000370002070470248FCE7C0467807000030
:10A43000820200000D4B1A68F0239B00D1580022C5
:10A4400091420DD10A487047931C9B00CB189B8802
:10A4500001325BBA9BB203701B0A4370D2B2023066
:10A460000B899342F0D80020EDE7C0467807000042
:10A47000820200007FB50500002430260E4B0F4AF3
:10A480001B689A5CA24200D87FBD320062439B18D1
:10A490001A89002A0CD09B7AAB4209D10021FF23F4
:10A4A0000A0020000391029101910091FFF720FB27
:10A4B0000134E4B2E2E7C046780700002904000056
:10A4C00030224243024B1B689B1899827047C0465A
:10A4D0007807000030224243024B1B689B18988A81
:10A4E0007047C04678070000E8030000102700000E
:10A4F000C027090010B58C24074BA4001B68185511
:10A500001800D43001601900D8310A6008220349CC
:10A51000585C02435A5410BD7C070000360200000C
:10A5200010B50824094B0A491B685A5CA2435A54C7
:10A530001A000021D4321160043212688A4203D01A
:10A540008C218900595C904710BDC0467C070000F3
:10A5500036020000F0B50F4B0F4D1C68625D16000F
:10A56000130077367600A619002B09D15B00E3189B
:10A570001E00F036F1330132317018706255F0BDB3
:10A580003778023E8F42F1D93771F778013B777106
:10A59000DBB2E9E77C07000031020000F8B5184B98
:10A5A0000100186800230400164DF134425D9A4200
:10A5B00013D1571E5C00BB4217DB002A03D1124B9C
:10A5C00003201B68984700220D4B1B681C19F034B0
:10A5D00022805A5D013A5A55F8BD0234A71E3F78D1
:10A5E0008F42E6D00133DBB2E1E7F026B44604192E
:10A5F000A4446646F234248801333480DBB2D9E7C0
:10A600007C0700003102000058060000174BF7B528
:10A610001C688E2301929B00E656E55A0323734380
:10A620009833FF33E31872B23700002A13DC032398
:10A630007B43E3181E009B36FF3631701900019AE8
:10A640009C319D33FF31FF3308701A708E23013522
:10A650009B00E552F7BD1A78013E033B8A42E6D9DA
:10A660001F799A71DF715F791F72DCE77C07000048
:10A67000264BF0B51C688E239B0005000326E05A8C
:10A680000023834202DB032201382DE032005A43CB
:10A69000A21817009C37FF373F78AF4204D19D3294
:10A6A000FF3212788A42EED001335BB2E9E7110043
:10A6B0005D1C694361180E0053439B36E318FF3657
:10A6C00037781E009B36FF3637700E009C36FF36FB
:10A6D00037781E009C36FF369D313770FF31097880
:10A6E0009D33FF3319706BB28342E0DB5343E318B1
:10A6F000190000229B319D33FF31FF330A704A70ED
:10A700001A708E239B00E052F0BDC0467C0700000B
:10A71000F7B5154B154E1C680191A35D00930323FB
:10A72000A5576B430233FF33E3186FB2002F0BDCE6
:10A7300003235D43019B6519FF35EB71009BAA71F3
:10A7400001336871A355F7BD1F78874203D8EFD155
:10A7500059789142ECD95978DF709F7819715F71FF
:10A76000013D033BE1E7C0467C07000032020000E8
:10A77000F7B5002403271F4B1F4E1D680090AA5DEC
:10A78000944203DB531E032101931DE03B0063430E
:10A79000EB18FF33587984460098844502D1DB7961
:10A7A0008B42EFD0013464B2EAE70B00671C7B43B5
:10A7B0004C43EB18FF3398792C19FF34A07158796A
:10A7C0006071DB79E3717CB2019B9C42EDDB002A76
:10A7D00004D10A4B03201B680099984703235C436C
:10A7E00000232C19FF34A3716371E371AB5D013B4E
:10A7F000AB55F7BD7C070000320200005806000090
:10A80000F7B50193274B00921D68274B0F00EB5CB7
:10A8100036339B00EB185C68002C3AD0631DDE7F5A
:10A82000DB7F5BB2002B31DAD0352A68002A04D1F5
:10A830001E4B310003201B6898477F232A681E4067
:10A84000B600B358002B24D06289A11DCA77E11D40
:10A85000120ACA7722890131CA772031120A0A7096
:10A86000E28802334A70120A8A70A2880020CA70F5
:10A87000120A0A71220001212D3211703B60009BE7
:10A8800025341C600923019A1370FEBDB60073596C
:10A89000D8E70022054B032011001B6898470448A5
:10A8A000F3E7C0467C0700003A02000058060000AB
:10A8B0008202000007480068D4300068002807D0F2
:10A8C0000230086004490020116001221A707047AC
:10A8D0000248FCE77C07000042C503188202000022
:10A8E000054B1B68D4331B68002B03D000200233B8
:10A8F0000B6070470148FCE77C0700008202000003
:10A9000010B5FFF7EDFF10BDF0B5714B85B01C68B9
:10A910000191029200297DD16E4FE35D36339B0099
:10A92000E3185D68002D75D06B1DD97F7F230B4028
:10A930000393203BDBB200934BB2002B3DDA2B6A32
:10A94000002B04D1644B03201B68019A9847009B9D
:10A950002A6A9B009E58002E06D16B1DD97F5E4B44
:10A96000320003201B6898473000102202991030F3
:10A97000F9F78AFA0299102230001031F9F784FAB7
:10A98000029A01360132D17FF1776E1DE25DF07FD0
:10A99000FFF73CFE2300D4331B68002B60D0E35D3F
:10A9A0000133E355E35D042B0DD94A4BE35C052BE2
:10A9B00035D10198FFF7B4FD31E0009B02339B00D5
:10A9C000EB185E68C7E71A0036329200A218566884
:10A9D000002EE5D08C237F259B00E35C721D1D407B
:10A9E000203DEDB2D3775BB2AD00002B19DB7519BA
:10A9F000EB68002B05D00022374B110003201B68A9
:10AA000098472120F9F7FDFBE8600420334A3449D8
:10AA1000FCF706FA2300D4331B68002BC5D105B020
:10AA2000F0BD376A002F07D11820F9F7EAFB18228A
:10AA300039003062F9F744FA336A5B59002B05D0CC
:10AA40000022254B110003201B6898472120376AFC
:10AA5000F9F7D7FB326A7851137D01331375D4E7C8
:10AA60001F22B256F37F002A23DB2A6A002A0BD06A
:10AA7000009989008A58002A06D080225242134346
:10AA8000F377009B052BC0D1039B1F3BDBB29A00E1
:10AA9000AA18042B11D9052BB7D10821114AFA3372
:10AAA000F377A35C8B43A3540021E05D2B689847A8
:10AAB000B0E77F221340F377E6E7D168043200293C
:10AAC00002D02033F377A0E70133DBB2E1E7C046E1
:10AAD0007C0700003A0200005806000009A903188C
:10AAE00001A8031836020000A84BF0B51F6887B014
:10AAF0003B00D4331C6816000291002C2DD08C230F
:10AB00009B00FD5C23780193012B06D0022B00D122
:10AB1000F9E0C1235B00029374E0607803380328F6
:10AB2000F7D8F9F785F9021C2836200031001022E9
:10AB30002230F9F7A9F9310020001022103112302B
:10AB4000F9F7A2F9230004200136F27F42331A708C
:10AB50008F49904A6070FCF75CF907B0F0BD2000A7
:10AB6000102231004530F9F78FF905230420894A76
:10AB700087496370EFE72000310010223230F9F787
:10AB800083F90623834A844963700420FCF74FF954
:10AB9000E3E72000082231005830F9F775F9230067
:10ABA000423319782800FFF7D5FC6BB205932300D8
:10ABB000563304936BB2002B28DB00238D22637085
:10ABC000AB00DC519200BB5C0133BB54049B1B887F
:10ABD000002B04D1714A0233B95C0B43BB540121F1
:10ABE000280010F03BFA2900002003F0D1F98E2351
:10ABF0009B00FB5A002B05D0002369497B547B5CEA
:10AC0000042B37D90298FFF78BFCA6E77F262E404E
:10AC10003D00B300DB59D03501932B680393002B23
:10AC200007D1D420F9F7EDFAD42203992860F9F777
:10AC300047F9019B049A56331B8800201380019B1F
:10AC4000310060331A78230060331A700123019AAF
:10AC500060705370130044331A78230044331A7021
:10AC60003B00D0331B68B200D450D0331A78013285
:10AC70001A70BAE71A0036329200BA185468002CDB
:10AC80003FD08C237F259B00FB5C621D1D40203D37
:10AC9000D377059BEDB2AD00002B13DB6419E3689D
:10ACA000002B05D000223F4B110003201B68984762
:10ACB0002120F9F7A6FAE0603B4A3C490420FCF762
:10ACC000AFF84AE7266A002E07D11820F9F799FA5B
:10ACD000182231002062F9F7F3F8236A5B59002B40
:10ACE00005D000222F4B110003201B68984721201C
:10ACF000266AF9F786FA226A7051137D01331375BB
:10AD0000DAE701337AE76378072B00D001E7002305
:10AD1000127863706BB2E274002B15DBAB00DC5170
:10AD2000A07D8300DB596033197801311970290047
:10AD3000FFF7EEFCA18A2A000120FDF727FA29007F
:10AD4000022003F025F95DE77F262E40B300019332
:10AD5000DB59D0379A8AA2829A7DA2759B7CA37414
:10AD60003968002904D10F4B0A0001201B6898475D
:10AD70003B68B2009C50D0331A78290001321A7017
:10AD8000E27CA07DFFF7C4FC3100D9E77C0700001E
:10AD9000B1AD0318E9AA0318E1A8031836020000B0
:10ADA0003A0200005806000009A9031801A8031878
:10ADB000124810B50068D430006800281BD0841CED
:10ADC000146010221A70029B0D4A1A600623039A1F
:10ADD00013704378042B08D0052B0AD00022094BAE
:10ADE000110003201B68984701E0074B0B6000200F
:10ADF00010BD064BFAE70648FAE7C0467C0700009C
:10AE00003CC50318580600002CC503181CC50318C0
:10AE10008202000070B57F2505402C00203CE4B282
:10AE2000042C2ED8184EAD003668AD59002D1BD01D
:10AE30003631890071184968002915D0002616603E
:10AE4000B34213D06B78022B05D10B6AB34202D008
:10AE5000A400E35803E00234A40009194B68002061
:10AE600013601368834200D1084870BD40B20028C7
:10AE700002DA0B6A002BEBD10234A4000C196368D0
:10AE8000EDE79020C000F0E77C070000820600009C
:10AE90008F2080007047000030B50A4B020019680F
:10AEA000094BCD5C0023D8B2854201D8FF2030BDCC
:10AEB0009C000C59002C02D0A48A9442F7D0013394
:10AEC000F1E7C0467C07000035020000F0B5184BE2
:10AED00085B01D68174B039102901600EA5C0023B1
:10AEE000291FD8B20190824203D8F820000105B092
:10AEF000F0BD0093013398000F58002FF1D11620B8
:10AF0000F9F77FF90400102202990230F8F7BCFF2C
:10AF1000039B2780A382009B9B005C51002E01D0E5
:10AF2000019B33700721080003F032F80020DEE7B0
:10AF30007C07000035020000034B1A68034BD35C0A
:10AF400098428041404270477C0700003502000073
:10AF500010B5094B1C68094BE35C834209D980009A
:10AF600024182068002804D0F9F750F90020206048
:10AF700010BDC8200001FBE77C070000350200007F
:10AF8000054B80001B68C358002B02D000200B60CB
:10AF900070470248FCE7C0467C07000082060000BC
:10AFA000F7B501932C4B00921A682C4B0E00D15C24
:10AFB00007000B074AD42023FF2598001058DCB265
:10AFC000002812D0040056342488BC4210D131002D
:10AFD00010220230F8F74AFF43425841D023204E56
:10AFE00040423040DB00C018FEBDFF2D00D12500DF
:10AFF0000133252BE1D14B0704D58D239B00D35C76
:10B00000012B26D0FF2D24D06220F9F7FAF8012376
:10B0100004003100037010220230F8F735FF2300DE
:10B020000026009A56339E721F80133B1A705E7082
:10B03000032321002800019A6370FFF75BFA0420C4
:10B04000084A0949FBF7ECFE3000CDE784204001B7
:10B05000CAE7B020C000C7E77C0700003602000046
:10B0600002060000E9AA0318B5A80318F7B5304B8B
:10B0700005001C682F4BE35C1B0751D47F20054063
:10B08000AF003E59002E4DD03378012B4AD18D238D
:10B090009B00E35C012B01D1002946D033006033D3
:10B0A0001B780193002B40D12800FFF777FA290085
:10B0B000012002F06DFF3000F9F7A8F88D22019B06
:10B0C0009200E351A35C5636013BA3543388002B16
:10B0D00004D102221749635C93436354D03423683C
:10B0E000002B17D0DE59002E14D080202843FFF704
:10B0F00055FA3000F9F78AF800232068C35103009D
:10B10000D0331E78013EF6B21E70002E02D1F9F740
:10B110007DF82660280000210FF0A0FF0020FEBD72
:10B120000548FCE79020C000F9E7C8200001F6E7D9
:10B130007C0700003602000082020000F7B57F2580
:10B1400005402B00203B0F000192042B55D82C4BBF
:10B150002C4A1B689A5C12074DD4AE00F0580028A8
:10B160004BD002780092012A47D14478002C22D09B
:10B17000012C1DD1D0331A681C00002A04D1224BA7
:10B18000290003201B68984723689A59002A04D194
:10B190001D4B290003201B689847236810229859EB
:10B1A00039000230F8F762FE002801D11748FEBDD1
:10B1B000B8200001FBE710220230F8F757FE002804
:10B1C000F4D06220F9F71DF8009B060003701022EE
:10B1D00039000230F8F758FE032380203100019A2D
:10B1E00073702843FFF786F90420094A0949FBF7E1
:10B1F00017FE2000DBE70848D9E79020C000D6E71B
:10B200007C0700003602000058060000820C000097
:10B21000E9AA0318B5A80318820200007F210140A3
:10B220000B00203B10B5042B14D80E4B0E4A1B68A4
:10B23000985C08220400144010420ED18A00D358B2
:10B240005A78012A0BD1013220005A7002F0A0FE78
:10B25000200010BD9020C000FBE70448F9E7B820AB
:10B260000001F6E77C0700003602000082020000C1
:10B27000F0B57F2606403300203B89B0DBB2039354
:10B28000042B00D9CEE06B4B1F686B4BFA5C082394
:10B29000110019401A4200D0C7E03B00D0331B68B0
:10B2A000002B00D1C3E0B200B818059000680090F0
:10B2B0004078022800D0BAE0D3580293009B59701E
:10B2C00060331B78002B3FD03C0025259434236845
:10B2D0000193002B34D09B7DB34231D13000E9B2D1
:10B2E000FFF746FA3B00D03304931B68AA0006938D
:10B2F000AB000793069BD358002B17D08021019AEF
:10B300002360927C49429A74EBB21943C9B230006F
:10B31000FFF72EFA0198F8F779FF0022049BA900A5
:10B320001B68CA50D0331A78013A1A70236830006B
:10B33000E9B2DA7CFFF7ECF92900022002F028FEDE
:10B3400001350434332DC2D10024029A059B30000C
:10B350001A605470FFF722F980233D003343180030
:10B360000493FFF71BF9029B300042331978FFF773
:10B37000F1F8D0350098F8F749FF2868B3001C5061
:10B380000300D0331C78013CE4B21C70002C02D1C5
:10B39000F8F73CFF2C60002300936B461B78009A63
:10B3A0000193244B36321B6892009B185C68002C7A
:10B3B0002CD0236A002B29D0039A95006719FA68CC
:10B3C000002A23D0EB58002B20D030000199FFF742
:10B3D0004FF901990498FFF74BF9F868F8F716FF51
:10B3E0000021226A300055192B68FB602960117D0D
:10B3F000013301391175D97F019AFFF707F9206AE6
:10B40000057D002D02D1F8F701FF2562009B013375
:10B410000093052BC1D10020310002F0B9FD0020BE
:10B4200009B0F0BD9020C000FAE70448F8E7B82062
:10B430000001F5E77C0700003602000082020000F0
:10B440000A4B30B51C6820239A00A258DDB2002AAE
:10B4500006D056321288824202D100200D7030BDD3
:10B460000133252BF0D19020C000F8E77C070000C5
:10B47000124B30B51C688D239B00E35C002B1AD067
:10B480007F22037813401A00203A042A00D920238F
:10B490002025037003789A001259002A04D0081E50
:10B4A00001D000200A6030BD0133DBB20370242BD1
:10B4B000F0D90570EEE79020C000F4E77C070000AB
:10B4C0007F23034070B50D0011001A00203A042AB2
:10B4D00024D8154A9B0016689C59002C21D062780C
:10B4E000002A14D000290CD0022A0DD1D03632689F
:10B4F0009C58002C08D10D4B02001B680320984774
:10B5000002E042B2002AF1DB00202C6070BD00296D
:10B51000FAD140B20028F7DA0548F7E7C120400029
:10B52000F4E79020C000F1E77C0700005806000017
:10B5300082060000164B8D22F0B51D6800232C00FA
:10B540002E00920019000127944680349436226818
:10B55000002A12D056321288394217D012031343F0
:10B5600003701A0A1B0C837000234270033062467A
:10B570000131AA5CC9B28A4202D00434A642E6D1A3
:10B58000CA0702D503701B0A4370F0BD1300EEE733
:10B590007C07000030B5114A0B001168104A040006
:10B5A0008D5C0022AA4207DA100078304000405C2F
:10B5B000A04201D00FD96AB29B185BB2FF209D4216
:10B5C00008DD5B00C9180B00F0331B78A34201D1E2
:10B5D000F131087830BD013252B2E3E77C07000058
:10B5E000310200007F22064B10401B688000C358C8
:10B5F000181E04D05633188843425841C0B27047D1
:10B600007C070000F7B50193294B0E001968294B00
:10B610000090CB5C1B0744D47F272523FF251740D0
:10B6200098000858DAB2002815D0828A009CA242FD
:10B6300014D17F22837D1340BB4234D131000230CC
:10B640006F3AF8F713FC434258411B4B40421840F5
:10B650007E33C018FEBDFF2D00D115000133342B01
:10B66000DED1FF2D22D01820F8F7CBFD02230400F5
:10B67000310003701022C018F8F706FC009B00266A
:10B68000A382072321002800019A6370A775A6747E
:10B69000FEF730FF0420094A0949FBF7CFFB3000D1
:10B6A000D8E70848D6E79020C000D3E7B020FBE7F2
:10B6B0007C0700003602000002060000E9AA031819
:10B6C00001A9031882020000F0B5514B85B01C6837
:10B6D000504BE25C082315001D401A4200D092E056
:10B6E0007F2738400F403B00203B0600042B05D944
:10B6F000494B2A00390003201B6898473300253B3B
:10B700000E2B05D9444B0022310003201B689847BB
:10B710007F22B3001B5901939B7D13409F4200D0B1
:10B7200073E0BB001B590393019B987C00280DD04C
:10B730003A4BE25C23005F33FF33AA4247D1131A2E
:10B740009C4665454BDB6246344BE2543100380081
:10B75000FFF70EF8019B3200998A0020FCF716FDD6
:10B760003100032002F014FC039B019860331A7827
:10B77000013A1A700022B3001A51D0340393F8F73B
:10B7800045FD23681D1E1FD0BA00D258151E019218
:10B790001AD00025B2009B580293AB4214D08021EE
:10B7A00038003143FEF7E4FF019E0298603633789B
:10B7B000013B337022681100D0310B78013B0B70D4
:10B7C000039BD550F8F722FD280005B0F0BD0233E9
:10B7D000991E0978B142B2D00135EDB2ADE72B1810
:10B7E0005B00E3180293AF23029A5B00D25C110066
:10B7F0006A00A218D1546021029BFF315B5C0135C5
:10B800005354EDB29DE7064DDEE79025ED00DBE7F2
:10B810007C070000360200005806000033020000DA
:10B82000820200007F23F0B5034085B001921A0028
:10B83000253A040003910E2A30D81B4A9B00166853
:10B8400002939D59002D2CD0AA7D93009F59002F63
:10B8500004D1164B01001B68032098477A78002A10
:10B8600014D0D036336802995B58002B09D0019967
:10B87000002903D0022A04D11D0002E064B2002C8A
:10B88000FADB0020039B1D6005B0F0BD019B002B7F
:10B89000F7D164B2002CF4DA0548F5E7C120400086
:10B8A000F2E7E0208000EFE77C0700005806000088
:10B8B000820600000A4B30B51C6825239A00A25866
:10B8C000DDB2002A05D0928A824202D100200D709A
:10B8D00030BD0133342BF1D1E0208000F8E7C046C1
:10B8E0007C070000F0B587B00393404B17001B683E
:10B8F0000E000193019A3E4BD35C1B0700D56BE011
:10B9000004ABDD1D2900FFF7D5FF041E47D17F22C0
:10B910002B78174013402B703B00203B042B05D99C
:10B92000344B0200390003201B6898472978019A9C
:10B930008B009D58002D04D12E4B2A0003201B683C
:10B9400098477F22AB7D13409F4247D1019BD03364
:10B950001B680293002B44D0019BBA00D358002BE4
:10B960003FD05B78012B3CD110223100A81CF8F7A6
:10B970007DFA002838D004ABDD1D2B78029A9B009D
:10B98000985800280ED0102231000230F8F76EFAD5
:10B99000431E984144421848184B0440E4182000C4
:10B9A00007B0F0BD1820F8F72CFC02230700310087
:10B9B00003701022C018F8F767FA072328787B7005
:10B9C00079333900039A1843FEF794FD0C4A0D4968
:10B9D0000420FBF733FAE2E70B4CE0E78C24640128
:10B9E000DDE7B8242401DAE7044CD8E77C0700003F
:10B9F0003602000058060000FEFEFFFF820C000029
:10BA0000E9AA031801A9031882020000F7B5019200
:10BA10007F221F4B10401B681E4A00259E5C5A1D4A
:10BA2000FF329446EAB296422ED9032467466C430D
:10BA30003F5DB84223D18000C0580634603005789D
:10BA40000020FF341C19854210D101985219121898
:10BA5000D2B2FF20964208D9FC3842439B18FF33EC
:10BA60009A79FC308A4200D1D879FEBD27788F427E
:10BA70000CD003348F42E8D80130C0B2E3E701357F
:10BA8000B842CFD2044A9A5C0025DEE70500DCE725
:10BA90007C0700003202000031020000F7B50024EC
:10BAA0001D4B1D6883005E591C4BEA5C6B1DFF3308
:10BAB000A24206D100200123603602009C46019676
:10BAC0001EE00333DF1E3F788742F3D00134E4B237
:10BAD000EEE70327A3187B436746EB18FF33DB79B8
:10BAE0009B005B599B8A3A420FD01B030343180A01
:10BAF0004870180C0B708870033118000132D2B2F4
:10BB0000019B1E789642E4D8F7BD013EB242F4D1C3
:10BB1000180A0B704870F0E77C0700003202000042
:10BB2000F0B50024134B1D6883005E59124BEA5C8C
:10BB30006B1DFF33A24205D130000022FF260327F0
:10BB4000603010E00333DF1E3F788742F4D00134C9
:10BB5000E4B2EFE7130033401B197B43EB18FF33CC
:10BB6000DB798B54013203789C46D3B29C45F1D8E3
:10BB7000F0BDC0467C07000032020000F7B57F220E
:10BB8000104002003D4B253A1B6800910E2A03D954
:10BB90003B4A9A5C824268D93A4A08249D5C2A0052
:10BBA000224025425FD18400E5580194002D5CD0ED
:10BBB000354C1C5D1E2C5BD06021FF31A24235DB71
:10BBC00059D166B23200AE3252009A1877B2002FC5
:10BBD0003ADCAF2276009E195200B0546022002059
:10BBE0000099FF32B154284A01349C54AA7C013296
:10BBF000AA746A78824218D0D03319681C00814236
:10BC000004D1224B0A001B68013098472368019A2F
:10BC10009C58002C05D11D4B2200210001201B68DF
:10BC200098470020A37C0133A374FEBDAF275600C4
:10BC30009E197F00F75D874203D1765C009FBE426C
:10BC400019D0013252B2B9E71778874205D8C0D16E
:10BC500051788C4600998C45BBD997705778013E36
:10BC6000D770023AB2E70A48DFE7E0208000DCE75D
:10BC7000D8200001D9E78C204001D6E77C070000DE
:10BC800035020000360200003302000058060000B2
:10BC900082020000344BF7B51A687F231840030076
:10BCA000253B00910E2B03D9304BD35C834257D9EF
:10BCB0002F4B0821D45C23000B400C424ED1810055
:10BCC0008C580191002C4BD06026FF36B446294D8C
:10BCD000515D8B4203DB3FD18C2040013BE0AF271D
:10BCE0005E0096197F00F75D874204D16746F65DD6
:10BCF000009FBE4230D001335BB2EAE7B026AF27E7
:10BD0000580010187600865B7F000133C6535BB283
:10BD10008B42F3DB00205155A37C013BA374637875
:10BD2000834218D0D03211681400814204D1124BE2
:10BD30000A001B68013098472368019A9C58002C20
:10BD400005D10D4B2200210001201B6898470020DF
:10BD5000A37C013BA374FEBD0139D9E70748FAE78C
:10BD6000E0208000F7E7C0467C07000035020000B5
:10BD70003602000033020000580600008202000074
:10BD8000104BF0B51D687F2318400F4BAF26EC5CBD
:10BD900000237600A34205DB0020A34201D18C20C2
:10BDA0004001F0BD5A00AA18975D874204D1602770
:10BDB000FF37D25D8A4202D001335BB2EAE700204E
:10BDC000EFE7C0467C07000033020000024B1A6810
:10BDD0008D239B00D05C70477C070000034B8000E4
:10BDE0001B68C358603318787047C0467C07000052
:10BDF000F7B50193204B00901C6800231E0018002B
:10BE00001E4D655D854201D98B4200D3F7BD602789
:10BE100045006519FF37EF5DBC46009FBC451AD150
:10BE2000AF277F00ED5D164FE75DAF4213D8AD0041
:10BE30002D59019FAD8A002F17D001273B420DD00D
:10BE40002D0335432E0A56702E0C15709670033252
:10BE50002E000133DBB20130C0B2D1E74E1EB34237
:10BE6000F6D12E0A15705670F2E715702D0A55702E
:10BE700035000232ECE7C0467C07000033020000C8
:10BE800035020000034B80001B68C35856331888E6
:10BE90007047C0467C07000010B50400022000F087
:10BEA00041FD0223002805D0034BA4001B68E35882
:10BEB00044331B78180010BD7C07000070B50400E7
:10BEC00002200D0000F02EFD002805D0034BA40039
:10BED0001B68E35844331D70002070BD7C070000D0
:10BEE000F0B50600202408271B4B85B01B68019184
:10BEF0000093D0330393A3000293009BA2009858B1
:10BF0000E5B2002806D03A0031005830F7F7AEFF0E
:10BF1000002810D0039B1B68002B15D0029A98585C
:10BF2000002811D03A0031005830F7F79FFF002861
:10BF30000AD180231D437F232B40242B09D80020C6
:10BF4000019B1D7005B0F0BD0134252CD3D1250017
:10BF5000F1E70248F6E7C0467C07000082060000D1
:10BF60007F22034B10401B688000C35858787047ED
:10BF70007C0700008B1E70B50400012B22D8134BE8
:10BF80001A687F2303409B009B585B78012B0CD1E0
:10BF9000022904D1FFF742F90025280070BDFFF700
:10BFA0003DF92000FFF764F9F6E70025022B04D1E4
:10BFB0000329F2D1FFF75CF9EFE70329EDD08335D0
:10BFC000FF35EAE7C1256D00E7E7C0467C070000C2
:10BFD000194BF7B50C0019687F2303409F000193AC
:10BFE0007B585E78B44665460126022D1BD1137836
:10BFF000D0311E4316700B68002B02D0FB58002B6B
:10C0000005D10E4B0100002203201B6898470A4B04
:10C010001B68D0331A68019B9B009B58002C01D0F1
:10C0200058332360F7BD1900433109783142F5D008
:10C0300011780E431670F1E77C07000058060000E7
:10C04000034B1A68034BD05C8007C00F7047C04693
:10C050007C07000036020000F8B51D4B05001E6885
:10C060007F2303409B000F009C59FFF7E9FF002846
:10C0700007D12200433204211378B80710D50B43AF
:10C0800013706BB2002B1BDA6378012B02D12800EE
:10C09000FFF7C4F8FB0702D42800FFF7E9F8F8BD62
:10C0A0000B42EED03200943680321368002B03D05E
:10C0B00043331878884318700432B242F5D1E0E770
:10C0C0000122433423781342E9D093432370E6E7F7
:10C0D0007C07000010B50400FFF7B2FF002809D16B
:10C0E000054B7F3004401B68A400E35843331878A5
:10C0F0004007C00F10BDC0467C070000042210B5E9
:10C100001400054B05491868435C1C43134201D0D9
:10C1100093431C00445410BD7C070000360200000D
:10C12000F0B589B006930EAB1B880190049105927F
:10C130000793042805D9644B0100002203201B68E3
:10C140009847624B019A1B68363292009B185B68D5
:10C15000002B05D05C4B002203201B6801999847F7
:10C160005A4F5B4B3C68E25C082311001940039175
:10C170001A4200D0A6E03020F8F743F8019E3D684F
:10C180003636B600A4196060AB195C68002C26D066
:10C1900023000C332422180003990293F7F790FE32
:10C1A000049B621DA380059BD035E380069B238101
:10C1B000079B63810F9B2360631D0493FF23D37749
:10C1C0002B68002B13D01820F8F71BF8051E2062EF
:10C1D00009D12000F8F71AF83B689E197560B02065
:10C1E000C00009B0F0BD18220399F7F769FE2025B9
:10C1F000364EAA003168EBB25258002A28D0049A71
:10C20000D27FFF2A01D1049AD3772B002120203B33
:10C210000393F7F7F6FF2300AA00743B9850002819
:10C2200029D0276A002F13D0284B1B68D0331B68F6
:10C23000D358002B0CD02120F7F7E3FF039B226A91
:10C240009B00F8509B58002B15D0137D01331375BC
:10C250000135252DCCD1336801991E4A1C489954CB
:10C260000822195C0A431A541B4904201B4AFAF796
:10C27000D7FD0020B5E72700029D20372868002859
:10C2800001D0F7F7C3FF0435AF42F7D1236A002B83
:10C290000DD00025226AAB009858002801D0F7F78E
:10C2A000B5FF0135052DF5D1206AF7F7AFFF200066
:10C2B000F7F7ACFF019B306836339B00C0180023B2
:10C2C00043608CE706488CE7580600007C070000B6
:10C2D000360200003A02000001A8031809A9031859
:10C2E00082040000F7B50400042805D9244B01009E
:10C2F000002203201B689847224B1B68002B3ED06E
:10C3000022003632019292009B185D68002D36D0D3
:10C310002B6A0093002B16D01E0020273368002BB9
:10C3200009D0802040423843C0B22100FEF7A0F976
:10C330003068F7F76BFF0137FFB20436252FEDD1D8
:10C340000098F7F763FF2F0020260C373B68002B7F
:10C3500006D030002100FEF78BF93868F7F756FF5A
:10C360000136F6B20437252EF0D12800F7F74EFF3C
:10C37000044B1A68019B9B00D31800225A60F7BD3A
:10C38000580600007C07000070B5244C00280AD134
:10C39000126820232160120300D41F3B204A8B54D3
:10C3A0008F20800070BD2368D4331868002801D026
:10C3B000F7F72CFF2368D0331B68002B11D0002522
:10C3C0002368AA00D0331B68D058002801D0F7F7A3
:10C3D0001DFF0135342DF3D12368D0331868F7F7EA
:10C3E00015FF00252268AB009858002801D0F7F708
:10C3F0000DFF0135342DF5D10020FFF773FF01202B
:10C40000FFF770FF0220FFF76DFF0320FFF76AFFC1
:10C410000420FFF767FF00232360C1E77C070000CB
:10C4200035020000174BF0B51C688E239B00E65ABE
:10C43000050000230327B34209D2380058432018CF
:10C440009B30FF300078A84201D018D9F3B25B18B6
:10C45000D9B2DBB2FF209E4210D903234B43E3182D
:10C4600019009B31FF310978A94207D119009D338A
:10C47000FF331B789C31FF3108781370F0BD013316
:10C48000DBB2D8E77C07000037B5150000221C009E
:10C4900006AB01921B7801AAFEF7BCFC002804D170
:10C4A000019B002D00D1103323603EBD13B5140055
:10C4B0000022019201AAFEF7ADFC002803D1019BE6
:10C4C0000133DB7F237016BD024B1A688E239B005D
:10C4D000D05A70477C07000070B58E2400220325D7
:10C4E0000D4BA40019680B5B934200D870BD2B0064
:10C4F0005343CB181E009B36FF3636780132067048
:10C500001E009C36FF3636789D334670FF331B780D
:10C5100092B283700330E6E77C070000EC3D3938C7
:10C5200067226E3F23C193B79A61242CF4195E24CD
:10C530006ED863F1E482F1AB1A5A79F801383231DE
:10C54000646900000A4B10B51B681A004B32107862
:10C550000138C0B21070002806D0FA210C33180040
:10C560008900FAF707FD10BDFBF7BEFDFBE7C046EB
:10C5700080070000154B002824D119600B000B30F8
:10C580004833187002309870114B10680B61114BD2
:10C590000340CB6390888B1CD887D0880B1DD8872D
:10C5A00010898B1DD88750890233D887927B4433FA
:10C5B000002A05D01A70FF2329310B7050207047D4
:10C5C0000122F7E700221A60F8E7C0468007000062
:10C5D00045C503180F000B0050207047014B1B6826
:10C5E0001860704780070000014B1B689860704717
:10C5F00080070000014B1B689868704780070000A7
:10C60000014B1B6858607047800700000421054BF0
:10C610001A68538F8B43411E884180000343538720
:10C620007047C0468007000010B5040003202300B7
:10C63000834304D0064B220001001B689847032265
:10C64000044B1B68588F90432043588710BDC04649
:10C65000580600008007000043B210B5002B0BDB2A
:10C66000012809D0064B01211B68483318700720A8
:10C6700001F08EFC002010BDC1204000FBE7C04649
:10C6800080070000082110B5074B1A68538F8B43B1
:10C69000411E8841C000034302210720538701F057
:10C6A00077FC0EF06BFD10BD80070000044B10B549
:10C6B0001B6803214A331870072001F069FC10BD84
:10C6C0008007000070B50A4D040028680C30FAF7A6
:10C6D00093FC286803004B331C70002C04D0FA2113
:10C6E0000C308900FAF746FC2000FBF7FDFC70BD1A
:10C6F0008007000070B504AC258805AC2678840B53
:10C70000022C41D00C00123CE4B2EC2C3FD9112A8F
:10C710003DD8012B3BD05CB2002C38DB1D4C24688B
:10C72000A084002803D000290DD1002D0BD10023B7
:10C7300023626362FF231B02A362236800201B683D
:10C740009847002070BD20000930C3770F231D409B
:10C750002300293365851E7000239A4202D0013AD6
:10C760000133934023620123FF2906D0002901D120
:10C77000E184E2E7112903D102235B42E384DCE791
:10C78000012301398B40F9E7C0204000DAE7C120DE
:10C79000FBE7C04680070000F7B56B460190140028
:10C7A00004229B5E0D00002B02DAC0204000FEBD7B
:10C7B0008B0B022BF9D0174F0BB23E68002B0EDD0E
:10C7C000FDF714FDA842F0D1112C0AD8019B002BD3
:10C7D0000BD0002C0CD0FE23DB03736308E0112C7C
:10C7E00001D9C120E2E70029F0D1002425000194FD
:10C7F000019B3586738600239C4202D0013C0133A5
:10C80000A340F3623B6801201B681B689847002027
:10C81000CDE7C04680070000024B1B68588F0323FA
:10C820001840704780070000024B1B684833187897
:10C830007047C04680070000024B1B68588F0007F6
:10C84000C00F704780070000024B1B684A331878FE
:10C850007047C0468007000010B50724064B1A68D1
:10C860004A3213782340013303701378DB08013315
:10C870001B010B8010BDC04680070000024B1B68E7
:10C880004B3318787047C04680070000024B1B6886
:10C890004C3318787047C0468007000030B50A4C0A
:10C8A0002468A51CED8F0580201DC08F0880A11D68
:10C8B000C98F118022000832D28F03990A800F217C
:10C8C000E26B0A401A8030BD80070000014B1868F7
:10C8D0002030704780070000014B18682C307047EB
:10C8E00080070000024B1B68588F0006C00F70477E
:10C8F00080070000014B1B68D86B70478007000061
:10C900000022034B1B68188F1A87C0B27047C046BD
:10C9100080070000024B1B68588F4007C00F70470C
:10C9200080070000034B1B68DB6B03405A1E9341DA
:10C93000D8B270478007000010B504000220FFF74E
:10C94000F1FF00281CD00F4B1A68538F5906C90FEE
:10C95000A14211D00221108F0143118740218B4346
:10C960002100481E814189010B43013C53876342EA
:10C970005C41E0B207F09EFB0521072001F008FBB7
:10C9800010BDC0468007000070B5040001200D00F6
:10C99000FFF7C8FF002818D00C4B01211A681300BC
:10C9A00049331D70538F18110840A04209D0108FD1
:10C9B0000143118710218B43611E8C4124012343C5
:10C9C00053870421072001F0E3FA70BD80070000BF
:10C9D00010B504000420FFF7A5FF002818D00D4B68
:10C9E0001A68538F9906C90FA1420DD00421108FE8
:10C9F0000143118720218B43611E8C416401234335
:10CA0000538753681B6898470621072001F0C0FA36
:10CA100010BDC04680070000022010B5FFF782FF5E
:10CA20000223002804D0034B1B685B8F5B06DB0FDF
:10CA3000180010BD8007000010B504000120FFF7AA
:10CA400071FF030002000220002B06D0054B1A687C
:10CA5000538F4932DB061278D80F002C00D0227099
:10CA600010BDC04680070000042010B5FFF75AFF34
:10CA70000223002804D0034B1B685B8F9B06DB0F4F
:10CA8000180010BD80070000802010B50003FFF7DC
:10CA900049FF10BD802010B50003FFF743FF0123BD
:10CAA0005840C0B210BD000010B5084B1B68DA8CAE
:10CAB000002A09D01A0029321278824204D10020BB
:10CAC000D8841B681B68984710BDC04680070000CB
:10CAD0000C4B10B519680C4C0A008B8E2C32A342FB
:10CAE00007D001339BB28B86012B02D19072D0729A
:10CAF00003E0937A834201D9907210BD8342FCD245
:10CB0000F5E7C04680070000FFFF0000044B054921
:10CB10001A68D38C013B9BB28B4200D8D3847047F8
:10CB200080070000FDFF000010B5084C23689A8CB8
:10CB3000002A0AD05A8D198F114206D01B68022094
:10CB40001B689847002223681A8710BD80070000E1
:10CB500010B50A4B1A68538F1906C90F81420CD0C1
:10CB600080218B43411E8841C00118430823118F47
:10CB700050870B431387FFF7D7FF10BD80070000D6
:10CB80000D4B10B5C0180023032809D8F7F750F94A
:10CB9000020A0D11FFF740FF431E5A425341DBB218
:10CBA000180010BDFFF760FFF6E70020FFF744FF15
:10CBB000F2E70123F4E7C0460400FFFF10B50821A7
:10CBC000072001F0E5F90022014B1B689A8410BD93
:10CBD0008407000010B50D4C23681800191DFAF7E2
:10CBE00045FA01212068C21DD37F08308B43D377DB
:10CBF000002307498361FAF7BDF910222368073340
:10CC0000D97F0A43DA77FFF7D9FF10BD8407000008
:10CC10000070991470B54024104D2868C21DD37F50
:10CC2000234204D0A343D377FFF7D4FF70BD102174
:10CC30000B42FBD01E008E43D677D907F6D5990656
:10CC400002D530218B43EEE705490830FAF792F917
:10CC50002B680733DA7F1443DC77E7E784070000AB
:10CC600000B84C0A70B50E4C050023681800191D59
:10CC7000FAF7FCF901222368D91DC87F0833024363
:10CC8000CA775D6107491800FAF774F91022236822
:10CC90000733D97F0A43DA77FFF790FF70BDC046AC
:10CCA000840700000070991410B5094B1968C81D5D
:10CCB000C27FD30701D4D30608D420231A4205D15A
:10CCC0001343C377C8690130FFF7CCFF10BDC046DE
:10CCD00084070000054B002804D11960044BCB6089
:10CCE0002820704700221A60FAE7C0468407000037
:10CCF00015CC031828207047054B1B68DA690123FF
:10CD00001340C31A591E8B41D21A10007047C046F7
:10CD100084070000014B1B68D86970478407000036
:10CD2000014B1B68D861704784070000014B1B68EA
:10CD30001862704784070000014B1B68186A70472F
:10CD400084070000F8B51D4C06002068C51DEF7F64
:10CD50000125036A2F409C46C369DB1B0B60002A38
:10CD600018D063461360036A154A5B191B021B0A3D
:10CD7000036293420FD9002E01D0FFF795FF22687E
:10CD8000938C01339BB29384FA229200934201D197
:10CD9000FFF714FFF8BD002BF1D1011DFAF766F97A
:10CDA0002368D91DCA7F2A4202D1DA690132DA61C9
:10CDB0000023CB77FFF702FFE1E7C04684070000BE
:10CDC000BEBDF000034B1B680733D87F012318401A
:10CDD0007047C0468407000070B5144D04002B68EE
:10CDE000DA1DD67F012230001040164205D1002CFA
:10CDF00002D0002904D10E4870BD00208442FBD12E
:10CE000008331800FAF7F8F850202A68D11DCB7FB4
:10CE10008343CB77002C05D0D0690130FFF722FF88
:10CE20000020E9E7FFF7D6FE2000E5E784070000D1
:10CE300082020000F7B50227244B01911E68F31D02
:10CE40009C46DB7FF2693B4217D0002490420DD311
:10CE5000BB431C0039420BD16346DC77904202D0C1
:10CE60000023F0613362FFF7A9FE01242000FEBD1C
:10CE7000012361462343CB77F0E701251C002C40BA
:10CE80002B420FD001992C003942EFD19042EDD1C5
:10CE90005A0702D4FFF79EFEE8E7082213436246D2
:10CEA000D377E3E79042E1D3811A2A29DED82C0018
:10CEB0009042DBD0019A3A4204D0DB06D6D4FFF789
:10CEC000D1FED3E7F061FFF785FECFE784070000CE
:10CED00010B50400FFF7B4F8002804D0024B9C42C0
:10CEE00001D9FFF7E1FE10BDBEBDF000042110B571
:10CEF0000A4B1A680732D37F8B4301004C1EA141B5
:10CF000089000B43D377002806D108210B4203D0B8
:10CF10008B43D377FFF75EFE10BDC0468407000049
:10CF200030B57125054B1B68DC1DE47F2C40047077
:10CF3000186808609B88138030BDC04684070000D5
:10CF400070B5144E0C003368150019609A800733D1
:10CF5000D877C30609D51048FAF78CF8011E06D019
:10CF600030680830FAF706F812E043060AD42A00BF
:10CF700021000A48FAF77EF8002805D00020FFF7C4
:10CF800049FE05E00648E7E7022233680733DA770F
:10CF900070BDC046840700000070991400E032297B
:10CFA00000B84C0AF7B51D4B00911C68019221880E
:10CFB000231D00291ED063888B422DD90026271DF2
:10CFC0000C237343FA5AB5B2824208D801360135B0
:10CFD000B3B2ADB29942F3D80C236B4308E0A94237
:10CFE000FAD90C220E004A43A2180C3AB5420AD1D3
:10CFF0000433E31818800020009A01319A60019AE6
:10D000005A602180FEBD9788013E1782D768B6B26C
:10D01000976197685761E8E70148F3E788070000E0
:10D020008202000010B50A4C00280CD19389002B15
:10D0300000D11433002221600A804B800C20584319
:10D04000043080B210BD002223685B882260F5E7BF
:10D05000880700008389002B00D114330C2058432B
:10D06000043080B270470000F7B505000E00009252
:10D07000FFF738FC041E54D12C4B19680B88019320
:10D08000002B48D0581E230080B20C27C21A521021
:10D090009A1892B25743BC468C446746BF88BD423B
:10D0A0002ED098422ED0BD4228D810005A1C904253
:10D0B000EBD10C2217005F43BC468C446746BF8807
:10D0C000AF4205D042438A189388AB421AD103007D
:10D0D000019A9A4216D90C22100058430818C568C4
:10D0E000B54220D803D18068009DA8421BD253438B
:10D0F000C918009BCE608B602000FEBD1300D5E7F1
:10D100001300E5E731002800009AFFF74BFF431EAC
:10D110009841C4B2F0E731002800009AFFF742FFBF
:10D12000EAE70024E8E70124E6E7C04688070000B4
:10D130000C4B002812D11960537C581E092800D9C5
:10D140000A238B76137C012B00D810234B76D37BDC
:10D15000002B00D15A330B761C20704700221A6036
:10D16000FAE7C0468C0700001C207047030010B58A
:10D17000064A800012688150907D01309075488980
:10D18000002219000FF01AFC10BDC0468C070000E9
:10D1900010B5064B01001B68DA7D0132DA7582009A
:10D1A000D358012258890FF009FC10BD8C070000EC
:10D1B000030070B50A4E850032680C00AA581900A9
:10D1C000508902220FF0FAFB00223368EA509A7D60
:10D1D000013A9A75002C02D0DA7D013ADA7570BDF9
:10D1E0008C0700000A4B30B51C6800239A00A25837
:10D1F000DDB2002A07D05289824204D101200029E1
:10D2000000D00D7030BD0133052BEFD10020F9E7C0
:10D210008C070000104B80001B680AB230B5C35861
:10D22000002A0CDA00200124DA7C52009A1893427A
:10D2300010D09D8A8D4200D120000233F7E75A8931
:10D2400000208A4206D89B7CC80F9B1800228B4284
:10D250005041C0B230BDC0468C070000024B800078
:10D260001B68C358186870478C070000014B1B6887
:10D27000987D70478C070000014B1B68D87D704774
:10D280008C070000194B70B51B688000C45815004E
:10D290009B7EE27C93420DD02000002314309A4202
:10D2A00009D1002D06D010000830400020180132AE
:10D2B0008180E27470BD0230861E36888E4202D0B4
:10D2C0000133DBB2EBE7002DF4D19A42F2D9190019
:10D2D0000A314900D21A6018023152006118F6F77B
:10D2E000D3FDE37C013BE374E4E7C0468C07000018
:10D2F000024B1B68988A421C9A8270478C07000078
:10D3000010B505F021FD10BD03000020042B03D84B
:10D31000024A9B00126898587047C0468C0700006C
:10D32000014B1B68988270478C070000014B1B68FB
:10D33000187E70478C070000014B1B68587E7047B1
:10D340008C070000014B1B68987E70478C0700001B
:10D3500010B5074C002802D12160042010BD2368BD
:10D360001868002801D0F6F751FF00232360F4E786
:10D370009007000004207047F8B50C4E0500376890
:10D380003C68002C0DD11020F6F73BFF3368386065
:10D390001868002807D010222900F6F775FD200034
:10D3A000F8BD0348FCE7B020C000F9E79007000093
:10D3B0008202000010B5064C2368002B07D01868C5
:10D3C000002804D0F6F722FF002223681A6010BD5F
:10D3D00090070000014B1B68186870479007000019
:10D3E00070B50D00FFF7C8FF041E06D1280004F039
:10D3F000EBFC041E01D0FFF7DDFF200070BD020032
:10D4000000235900515AD8B2142903D00133142BE8
:10D41000F7D1180070470000F0B595B006900028CD
:10D4200011D1AF4B05901B681B680793079BFE3318
:10D43000DB885E2B00D92DE2A94A12681468059A90
:10D44000002A0FD00692A64C069823681B681B681A
:10D45000984723681868F6F7D9FE002223681A60F7
:10D4600015B0F0BD2200FE32D7889E4A251D1268F5
:10D4700016009D4A1068082B5ED810220AAB1A804D
:10D4800039002A00B047002817D1954B1B681B684C
:10D49000FF33DA790132DA71082F0ED83800F6F747
:10D4A000C7FC0512171B1F24282C3C006079237928
:10D4B00000021843FCF78CFE0597079AFE32D388CA
:10D4C0000133D380B2E72079FFF7C6F80590F4E77F
:10D4D0002079FFF7D7F8F0E72079FFF7E7F8ECE7D6
:10D4E00061792079FFF750FAE7E72079FFF724FA0E
:10D4F000E3E72079FFF76CFADFE7162404ABE418C2
:10D50000220000212800FDF7E1FC031E0590D4D184
:10D5100019002078FEF732FBCFE76068FFF700FCC8
:10D52000FA22A36892009818FFF700FC228AA07CD8
:10D53000E168FFF705FDC0E70D2B1BD824220AABDD
:10D540001A80F9B22A00B0470028B6D1644B291DD1
:10D550001B681B68FF33DA790132DA71E088634BAC
:10D56000059AFDF71DFD624B9842A6D0002800D118
:10D570004BE169E11C2B1FD826220AAB1A80F9B2B5
:10D580002A00B047002898D11625554B1B681B6808
:10D59000FF33DA790132DA7104ABED182900E08843
:10D5A000FDF74EFF0028DED121002A782089514B5B
:10D5B0000A31FEF727F8D6E7302B47D820220AABEE
:10D5C0001A8039002A00B047002800D075E71526D8
:10D5D000434B1B681B68FF33DA790132DA7104AB05
:10D5E000F6183200E088A168FCF7DEF9002800D0C8
:10D5F0006CE7162504ABED182900E089FEF75AF90F
:10D60000A1893078059A8B0B022B01D122001432AC
:10D610002B78E57C0395A57C0295657C0195247C9F
:10D620000094FCF765FA002800D04FE72C4B04A9C2
:10D630001A6815235B1818783900030048335B001B
:10D640001D39995217377900885236E7442B53D841
:10D65000FF220AAB1A8039002A00B047002800D008
:10D660002BE71F4B1B681B68FF33DA790132DA7135
:10D67000162204ABE088A168D218FCF795F90028BF
:10D6800000D023E77F23A5880C341D401623013DDD
:10D6900004AA9B18EDB21878FF2D0AD1104B39005F
:10D6A0001A680300703331395B0099525C314900CC
:10D6B000CAE78022637821781B0219439B0BA61CC2
:10D6C0009B031202934206D13200FCF737FB12345F
:10D6D0000028DBD0FAE6FCF7B5FA3400F8E7C046DC
:10D6E00094070000A40700009C070000ADD80318B1
:10D6F00082060000FDD80318582B45D8FF220AAB3C
:10D700001A8039002A00B047002800D0D5E6634BC4
:10D710001B681B68FF33DA790132DA71152204AB1A
:10D72000D218E088A168FCF73FF9031E059000D0ED
:10D73000C3E6A5887F331D400C34013DEDB2FF2DBB
:10D7400014D0162604ABF61831002088FEF7B2F884
:10D7500000280AD104AB597D3078FEF70FFA04ABEC
:10D76000587DFCF7CDFC0234E7E705904B4B04A94C
:10D770001A6815235B1818783900030098335B008A
:10D78000453999523F375EE75E2B5FD0282204ABC4
:10D79000DA82162304AA9B1839002A00B047002811
:10D7A00000D08AE63D4E0AAD336821001B6818316F
:10D7B000FF33DA790FA80132DA71638AEB81E389EA
:10D7C0006B81238AAB81A389E27D2B81A368520000
:10D7D0000B9363680A93636915240E93F6F754FB61
:10D7E00004ABE418210028002D4AFFF789FD00282A
:10D7F00026D12078390002003368AC325939520002
:10D800005737D15279005B185880079BFE33DB886D
:10D810005F2B00D024E6214C23681B68FF33DB79A3
:10D82000002B02D00220FEF7FFFE2068C18A0029EB
:10D8300032D0FA239B0059430430F9F79BFB02E6F0
:10D84000184B984200D138E60690FCE5102204AB54
:10D85000DA82162304AA9B1839002A00B047002850
:10D8600000D02AE60D4B0AA81B680F491B68FF333E
:10D87000DA790132DA7163680A93A3898380238994
:10D88000C38063890381E3894381238A8381FFF70E
:10D89000A7FD68E6059869E60691D4E594070000BF
:10D8A00081D903188206000061D903180B0070B5F6
:10D8B00000281BD104250F4A146821688A882A424F
:10D8C00007D0AA438A8018000B4A1831FDF736FCAE
:10D8D00070BD7F22FE311340CA88173252001353A5
:10D8E000CA88143B5B001A530132CA80FFF794FDCB
:10D8F000EEE7C04694070000ADD8031873B50028C2
:10D9000026D10125144B1A681468A3882B4212D023
:10D910006B46DE1D3100E088FDF792FD002809D13D
:10D920002100A3883278AB43A38020890B4B1A31A6
:10D93000FDF7D8FF73BD7F23FE341940E38817330A
:10D940005B009952E388143949008B520133E3801C
:10D95000FFF762FDEEE7C04694070000FDD803180C
:10D9600010B5002806D1054B1B681B68FE33DA880A
:10D970000132DA80FFF750FD10BDC0469407000069
:10D9800010B5FFF7EDFF10BD0023F0B599B0079378
:10D99000079B5B0106930023089392E1079A08997D
:10D9A0005A3292009A185268CA4001210A4200D1A4
:10D9B0007EE1059ACF4C082A4CD8501E0EAD0728A0
:10D9C00005D8F6F735FA151A1D20272A2D39FCF748
:10D9D0000DFC2870000A68700223C74A0599166872
:10D9E0002A0020689BB2B047C44B1B6898475FE190
:10D9F000FEF71AFF01232870EFE7FEF71DFFF9E796
:10DA0000FEF722FFF6E7212006ABC018FFF714F857
:10DA10002870E1E7FFF700F8ECE7FFF725F8E9E702
:10DA20000DA90020FDF7ACFA0D9B10222800991CCF
:10DA3000F6F72AFA1023D0E7FFF76CF92860FFF712
:10DA40007BF968602E2006AB11AA10A9C018FFF759
:10DA500067FAEFE7059A0D2A41D8069A0CA9173202
:10DA600052009E5C00223000FDF72AFD021E00D00D
:10DA7000BFE10C990EAD0B00288056331B886B80DC
:10DA80004B78002B24D080200DA93043FDF718FDE2
:10DA9000002815D1042228880C9902432A804B784B
:10DAA000022B02D10A3303432B80102202310FA82C
:10DAB000F6F7EAF90D9B1022991C13A8F6F7E4F982
:10DAC00024238D4A059915689BB20EAA20684CE064
:10DAD000102202310FA8F6F7D7F91423F1E7059ABF
:10DAE0001C2A44D8069A0BA9173252009F5C0022C8
:10DAF0003800FDF797FE051E00D07AE10B9B2A0047
:10DB0000987D0CA9FDF7DCFC0C9E262033005633D3
:10DB10001B880B990EAC63808B8A1022A38006AB06
:10DB2000C01825800231F6F7AFF973781626002B5E
:10DB300014D080202A0038430DA9FDF773FE002879
:10DB40000CD1012223883630134323800D9B0F32E2
:10DB5000991C06ABC018F6F797F91036664A654867
:10DB60001568220005990068B3B2A8473CE7059AFA
:10DB7000302A47D82221069A0EAC173252009D5CFB
:10DB800006ABC9182800FBF785FF2800FBF77AFFD2
:10DB90006060000C431E98412F2306AA9B1820802A
:10DBA00003932E239B1802932D239B180BAF0193F5
:10DBB0000CAE11AB009332003B00280010A9FCF71B
:10DBC00013F838780023FF2805D000220DA9FDF7AF
:10DBD00029FE0D9B9B8A6381238910259B0B022BB9
:10DBE00008D13078FCF726FB2A00010012A8F6F7CE
:10DBF0004BF96D19404A3F481668059922000068A4
:10DC0000ABB2F0E6059A442A00D97DE0069A2B32A1
:10DC100052009D5C2800FCF79DF924226B46099078
:10DC20009B1828001E78FCF7A1F9C700301D3F188B
:10DC30007F00FFB2BFB23800F6F7E3FA0400811CA0
:10DC40002800FBF727FF2800FBF71CFF00237F229B
:10DC5000238033006060934305D0294B32007F213D
:10DC600003201B6898477F232088242298436B4613
:10DC70009B181B7821001843802398436368083160
:10DC80001B0C5A1E9341DB011843208001222800FF
:10DC9000FCF776F9184B174822001D6805993B00E0
:10DCA0000068A847154B1B6898472000F6F7AEFAA6
:10DCB000089B01330893069B01330693089B202B96
:10DCC00008D06B461B8B0593059A0E4B1B685F2A89
:10DCD00000D063E6079A0B4B5A321B6892009B18E0
:10DCE00000225A60079B01330793032B00D04FE6B5
:10DCF00019B0F0BD9C070000A8070000AC070000A9
:10DD00005806000094070000059A582A38D8069A49
:10DD10003F3252009E5C3000FCF738FA071D7F004E
:10DD2000FFB2BFB205003800F6F76BFA0400811CA1
:10DD30003000FBF7AFFE3000FBF7A4FE00237F228C
:10DD400023802B006060934305D03C4B2A007F2149
:10DD500003201B6898477F222388300093432B437E
:10DD6000013293436268120C511E8A41D20113435F
:10DD700022002380290000230832FEF739F889E7C2
:10DD8000059A5E2A3BD0069A573252009B18987823
:10DD9000FFF7BAFA051E2CD0C67C14367600F6B210
:10DDA000B6B23000F6F72DFA29000400EB891431E1
:10DDB000C3816B7C4374AB898381AB7C83742B6898
:10DDC00003602B7C0374EA7CC2746B68520043606E
:10DDD0002B8903811430F6F757F8194B19481D6841
:10DDE0002200330005990068A8472000F6F70EFAD4
:10DDF000FAE5154B05991B6820689847F4E5FFF78D
:10DE0000E9FA002815D003680EAA0E93C3885E2194
:10DE100093800389D38083881381837A9372C37A32
:10DE2000D372037B1373437B5373054B1D6810231D
:10DE30004CE6054B5E211B68DEE7C0465806000035
:10DE4000A80700009C0700009807000010B5FFF726
:10DE50009BFDFA21044B89001868C38A043059439A
:10DE6000F9F788F810BDC0469407000070B5244C3F
:10DE700000283CD1234BC88208000A000D00216015
:10DE80000C008B60142309306832B834FF309035B1
:10DE90002380238513801385023203800385023497
:10DEA0000230AA42F4D108000C00FF225F23183090
:10DEB0004034028503800230A042FAD1B1204000F4
:10DEC0000A520A380B520C300A520A380B520C30E4
:10DED0000A520A380B520C300A520A380B520C30D4
:10DEE0000A52B02252008B52BC20400070BD236801
:10DEF0001868002801D0F6F789F900232360F3E7BA
:10DF0000940700004DDE0318BC204000704700005D
:10DF10000100094B10B518688BB2C3820430002B86
:10DF200007D01900FA239B005943F9F723F8002082
:10DF300010BDF9F761F8FAE794070000F8B50F4E45
:10DF4000150037683C68002C13D184204000F6F798
:10DF500058F9336838601B68002B0CD01A001D601C
:10DF6000FE32FF332000D480DC71FFF755FA200029
:10DF7000F8BD0348FCE7B020C000F9E794070000B3
:10DF80008202000010B5FFF7FFFC002010BD00006A
:10DF9000F7B5834F0D003B681A68002A40D10B2863
:10DFA0003ED8F5F759FF0C0043000C004300540025
:10DFB00076009800BB00FB00FB00D300D300CAB280
:10DFC0000192203AD2B20C3200925200D25A5F2A09
:10DFD00027D15A3A002801D005200F323E33C6B26D
:10DFE000964208D35F2634006E4B002203201B6844
:10DFF000E9B2984707E001304100595AFF29EED1B4
:10E00000B4B25F2EF0D0009B3A685B009C52203681
:10E01000019B7600B3520934A4B25E2C00D882E092
:10E02000F7BDCDB2143D6D00EC5AF4E70A00203A7A
:10E03000FF21D2B20C325200D45A5F220D40143D5F
:10E040006D00EA52220020325200D152E3E7CEB2F4
:10E050003200483200925200D45A142C17D168333F
:10E060001800FFF7CCF96B4601909C88142C05D161
:10E070004C4B0022310003201B6898470198009BFD
:10E080003A6834305B004000EDB29C5285521D343A
:10E09000C2E7CEB23200703200925200D45A142C31
:10E0A00017D1B8331800FFF7AAF96B4601909C8886
:10E0B000142C05D13B4B0022310003201B689847EC
:10E0C0000198009B3A685C305B004000EDB29C52C6
:10E0D00085523134A0E7CEB232009832009252001D
:10E0E000D45A142C18D10933FF331800FFF787F9DD
:10E0F0006B4601909C88142C05D12A4B00223100DC
:10E1000003201B6898470198009B3A6884305B00A5
:10E110004000EDB29C52855245347DE7CCB2082CCC
:10E1200000D97DE7A4B21F21012263090C40A2405F
:10E1300038689B00C318FC33196F0A431A67C38AF7
:10E14000002B00D06CE7FFF71FFC69E7C9B20A009B
:10E15000AC3200925200D45AFF2C00D05DE700266A
:10E160006333FF331A88FF2A0BD00136F6B202332D
:10E17000052EF7D134000B4B002203201B68984773
:10E1800002E0B4B2052EF6D03B68009AB0367600B5
:10E1900052009E19EDB2D4527580C4E75E24C2E7E6
:10E1A000940700005806000070B5C6680500002EF0
:10E1B00029D00322437D1340012B2DD1007D04285B
:10E1C0002CD8F5F735FE032125212500300000F07D
:10E1D00045FB041E17D028000C30F4F7CBFA134B84
:10E1E0001A68F37C9B009B58002B03D02100300061
:10E1F0001B6898473000F8F7EFFBEB68002B0FD057
:10E200002800F6F731FB70BD300000F079FDE0E743
:10E21000300000F099FEDCE7054CDCE7054CDAE75E
:10E2200004226B7D93436B75EDE7C046B007000099
:10E23000820800008202000018220E4B42431B6835
:10E2400010B59B181A002D321278D2070FD52C3337
:10E250001B7802221C009443012C05D0002B06D110
:10E26000080000F039FB10BD00F002FDFBE702489A
:10E27000F9E7C046B007000082020000214BF7B565
:10E280001E68182301904F7C0D007B43F3181A0081
:10E2900003212D3212780A40012A31D12C3318780B
:10E2A00004282DD8F5F7C4FD0324282428002800CD
:10E2B00000F0BAFA041E19D1019B2800EB74F8F79C
:10E2C00077FB182047433800243029003018F4F732
:10E2D00009FA0422F3192D331978114206D13800B6
:10E2E0000A4318301A703018F6F7BEFA2000FEBD47
:10E2F000280000F0E9FCDDE7280000F009FED9E77E
:10E30000014CF3E7B0070000820200000A4B00282E
:10E310000FD10A001960FF236C3213701372074B80
:10E32000543A0B628B630B003033CA614B637C2021
:10E33000704700221A60FAE7B0070000A9E103184D
:10E340007C207047024B80001B6819507047C04604
:10E35000B007000070B50B4D14002B689B6C002BB0
:10E360000AD1FD22831E134208D100F093FD00283C
:10E3700001D12B689C6470BD0348FCE7C1204000BC
:10E38000F9E7C046B00700008202000070B50C4DEE
:10E390001C002B6806009B6C08001100002B0AD1A2
:10E3A000023EFD331E4208D100F098FD002801D145
:10E3B0002B689C6470BD0348FCE7C1204000F9E76E
:10E3C000B00700008202000070B50E4D1C002B68E3
:10E3D0009B6C002B10D1060002339E43012E08D007
:10E3E00000280BD100F0FAF9002801D12B689C64B9
:10E3F00070BD00F0E1FBF7E70348F9E7C1204000FA
:10E40000F6E7C046B00700008202000070B50E4D6E
:10E410000C002B689B6C002B10D1020002339A4336
:10E42000012A08D000280BD100F0B2FA002801D14F
:10E430002B689C6470BD00F001FCF7E70348F9E726
:10E44000C1204000F6E7C046B0070000820200008D
:10E450000020054B10B51A68936C9064834201D07C
:10E4600088B2984710BDC046B007000010B5FFF74E
:10E47000EFFF10BDF8B505000E000024094F3B6802
:10E4800079331A7801321A703A68A3009B58002B2E
:10E4900003D0310028009B6898470134062CF3D143
:10E4A000F8BDC046B0070000F7B5182747433A004B
:10E4B0000600154D24322B689A180192DF197C6AE8
:10E4C000002C10D12A68A3009B58002B02D03000EA
:10E4D000DB6898470134062CF4D12B6879331A781D
:10E4E000013A1A70F7BD0198F4F744F9C37C2A6821
:10E4F0009B009B580400002B02D01B6803499847DF
:10E500002000F8F769FADAE7B00700008208000097
:10E51000F7B50600182070431A4F00903C6824306D
:10E5200020180191F4F726F9051E20D0012E02D102
:10E530000221F8F713FAEB7C3A689B009B58002BFA
:10E5400003D028001B68019998472800F8F744FA7F
:10E5500018237343E3185A6A002A09D02D331B7815
:10E56000DB0705D5009818302018F6F77DF9F7BDC0
:10E57000182004224643A4192D3423789343237092
:10E58000F5E7C046B0070000F0B587B0050001917F
:10E590000392032942D8224A224F565CB2000292CB
:10E5A0003A68B1008A58002A38D09BB202930023FF
:10E5B000029A190005A8F8F733F900282ED1059C16
:10E5C000029A20000C99F8F779FA0123039A237430
:10E5D000E318DA77019B6574A3743B68E674B200B4
:10E5E000D358002B05D1104B3200290003201B68A3
:10E5F00098470C4FB4003B68E3585B68002B05D18B
:10E60000094B3200290003201B6898473B68059896
:10E610001B595B6898470598F8F7DEF907B0F0BD1D
:10E620002CE60318B00700005806000000010200A5
:10E630007DE2031839E203180A4A13B51268038908
:10E64000D16C0200808834321218009201228C684A
:10E6500010002021A047011E02D00120FFF758FF23
:10E6600013BDC046B0070000F0B589B01F000EAB67
:10E670001B781600109C0393012807D0274B0A0033
:10E680001B6801000320984709B0F0BD0029FBD1A9
:10E69000234B1B6830335A7D03231340012BF3D1E6
:10E6A000D306F1D4FEF7F0F90028EDD0FDF7A2FF74
:10E6B000051EE9D04368002BE6D02378022BE3D176
:10E6C0006378012BE0D1E378032BDDD12379032B91
:10E6D000DAD1A3796179134A1B020B439342D3D158
:10E6E000E279152AD0D1227A162ACDD1A27A617A7E
:10E6F00012020A439A42C7D1210010220B3104A80A
:10E70000F5F7C2FB207FE37E00021843039B310034
:10E7100000936C683B0004AAA047B5E758060000C8
:10E72000B00700002718000037B5069D012806D065
:10E73000134B0A001B6801000320984737BD0029CE
:10E74000FCD103200F4909683031497D0840012878
:10E75000F4D1C906F2D429784C1CA342EED1022B85
:10E76000ECD96C78293CE4B2022CE7D80139CBB261
:10E7700005490235095D0095FFF706FFDEE7C04653
:10E7800058060000B007000068EA031810B5012819
:10E7900019D0104B0A001B6801000320984710BDD8
:10E7A0000D4B1868020066321378002B0DD0013B28
:10E7B000137003000A2164331B8850301B0959432E
:10E7C000F8F7D8FBEBE70029EAD00120FFF7A0FE1D
:10E7D000E5E7C04658060000B007000070B50F4ED0
:10E7E0000125306804003034637D1A002A402B4232
:10E7F00012D1831DDA873C30F3F75EFF3368302196
:10E80000DB6C28001B68064A9847002803D10323C5
:10E81000627D1343637570BD0248FCE7B0070000DA
:10E8200070EA03188202000070B5837C0400022B9A
:10E830000FD8094A0221D55CF8F782F8002807D1E1
:10E840002300A28834339B1822895D70013A1A7024
:10E8500070BDA8200001FBE76BEA03187FB50E2509
:10E860000D26837C04006D446E44002B25D12900C5
:10E870003000FDF7F1FF164B2A8818681F2A21D8AF
:10E880001449337841650100013B663184650B70A2
:10E89000030064331A8020232B801F3B33702988A8
:10E8A000C56C20002389A488343000193278009088
:10E8B000AC680120A04704B070BD20232B801A3B18
:10E8C0003370D8E70300002266331A70E7E7C046CA
:10E8D000B007000039E603182A4B70B501001C6828
:10E8E000012819D0022830D0002813D1220001209D
:10E8F0003032557D05420DD02E00022386435675D9
:10E900001D4205D133435375E36C5B68984770BD76
:10E9100000F044F81C48FAE7200010233030427D14
:10E920001340150708D520218A43002B02D04275D9
:10E930000020ECE70A43FAE7002BEBD118331A4327
:10E940004275E36C08005B68E0E722003032537DDB
:10E9500010201D00082105400B4207D018318B43C1
:10E96000002D01D15375E3E70B43FBE7002DD1D018
:10E9700083430B435375E36C30211B68034A01202A
:10E980009847C4E7B00700008202000070EA03184D
:10E9900010B50020FFF7A0FF10BD00000A0010B561
:10E9A000012811D0124B01001B680320984710BDAD
:10E9B000980602D48B435375F9E728218B4353758E
:10E9C0000220FFF789FFF2E70A4B08211A6830326C
:10E9D000537D1C000C400B42EAD183432100537548
:10E9E000FFF762FD21002000FFF740FDDFE7C04692
:10E9F00058060000B007000010B50C00012814D024
:10EA0000144B0A001B6801000320984710BD9C06A8
:10EA100002D48B435375F9E728218B435375FFF7D5
:10EA20005BFFF3E7834353750EE008210A4B1A6836
:10EA30003032537D0B42EAD1002CF3D102218B43BB
:10EA400053752100FFF716FD0020E1B2FFF700FD2E
:10EA5000DCE7C04658060000B0070000014B1B6809
:10EA6000D8647047B00700000100022A292B00007B
:10EA7000F9E903189DE9031829E7031869E6031863
:10EA80008DE7031810B5002806D0054B0A001B6857
:10EA900001000320984710BDFFF73AFDFBE7C04691
:10EAA000580600000D4B70B51B68012218002D3070
:10EAB00001780C001440114202D0FF24200070BDE8
:10EAC0000225A9430A4302701A006C3211782C33D4
:10EAD00020001970FFF7CEFCF0E7C046B007000039
:10EAE0000100FF2210B5044BC9B21B686C331878C3
:10EAF0001A70FFF7BBFC10BDB007000010B5064B45
:10EB000001001B686C331878002901D0FF221A70AD
:10EB1000C9B2FFF79DFC10BDB0070000F7B50400B7
:10EB20000D0016001F00002805D0114B0A001B68BD
:10EB300001000320984718220E4B62431B689B1864
:10EB400003222D331B781A40012A0FD110211A00FD
:10EB50000A400B420AD1002E08D0032D06D8064BDE
:10EB60002000595D00973300FFF70EFDF7BDC0464A
:10EB700058060000B007000040ED03180A0010B569
:10EB8000002805D0094B01001B680320984710BDE1
:10EB90000121074B1A682D3213780B42F7D08B43B3
:10EBA00013700449FFF780FCF1E7C04658060000E7
:10EBB000B007000082080000F0B51B4D85B02B683F
:10EBC00003921A0002916C3212780400FF2A01D0DD
:10EBD000824226D19B6E002B23D0012C05D001262A
:10EBE000032C03D0A820000119E002260F4F104B80
:10EBF00038001B6898473B88191C9F2B00D8A02120
:10EC00002B680C4A9B6E00921F683000039B029A8F
:10EC100089B2B847002802D12B686C331C7005B04C
:10EC2000F0BD0548FBE7C046B0070000B80700008C
:10EC3000B407000048ED03188202000010B50A4C2A
:10EC400023681A006C321278FF2A0BD09B6E002BBF
:10EC500008D05B689847002803D1FF2223686C33F3
:10EC60001A7010BD0148FCE7B007000082020000E6
:10EC7000134B10B51B68012907D0022912D00029B7
:10EC80001CD19B6E9B68984710BD182250431B18DF
:10EC90002D331978083A0800104011420ED10A436A
:10ECA0001A70F1E71822102150431B182D331A78DF
:10ECB0000A4203D08A4300201A70E5E70148E3E7DF
:10ECC000B0070000820200001821837C407C0B4AC0
:10ECD0004143126852182C321278012A05D10020C3
:10ECE000012B0AD0A820000107E0032AFAD1002056
:10ECF000834202D0023B012BF4D87047B0070000DA
:10ED000010B5817C03290DD80200084C8388615C12
:10ED1000074C34322468D318A46E0289E468407C1E
:10ED2000A04710BDA8200001FBE7C04644ED031832
:10ED3000B0070000014B1B6898667047B0070000E1
:10ED40000002030100030102FDEA0318E1EA0318CF
:10ED5000A5EA03187DEB03181DEB031885EA0318D9
:10ED600010B5002806D0054B0A001B6801000320DF
:10ED7000984710BDFFF7CCFBFBE7C04658060000E4
:10ED80000D4B70B51B68012218002D3001780C0066
:10ED90001440114202D0FF24200070BD0225A94377
:10EDA0000A4302701A00743211782C332000197053
:10EDB000FFF760FBF0E7C046B00700000100FF224C
:10EDC00010B5044BC9B21B68743318781A70FFF77A
:10EDD0004DFB10BDB007000010B5064B01001B68CD
:10EDE00074331878002901D0FF221A70C9B2FFF7D6
:10EDF0002FFB10BDB0070000F7B504000D00160092
:10EE00001F00002805D0114B0A001B6801000320D9
:10EE1000984718220E4B62431B689B1803222D3320
:10EE20001B781A40012A0FD110211A000A400B4208
:10EE30000AD1002E08D0032D06D8064B2000595DBC
:10EE400000973300FFF7A0FBF7BDC046580600004F
:10EE5000B007000088EF03180A0010B5002805D09D
:10EE6000094B01001B680320984710BD0121074B87
:10EE70001A682D3213780B42F7D08B431370044974
:10EE8000FFF712FBF1E7C04658060000B00700008C
:10EE9000820800000E4A10B5126803001400743492
:10EEA0002078FF2801D0984210D1126F002A0DD08F
:10EEB000022B05D00120042B03D0A820000104E080
:10EEC000180023701368034A984710BD0248FCE7F6
:10EED000B007000090EF03188202000010B50A4C42
:10EEE00023681A0074321278FF2A0BD01B6F002B94
:10EEF00008D05B689847002803D1FF222368743349
:10EF00001A7010BD0148FCE7B00700008202000043
:10EF10001821837C407C0B4A4143126852182C32E2
:10EF20001278022A05D10020012B0AD0A820000166
:10EF300007E0042AFAD10020834202D0023B012BD1
:10EF4000F4D87047B007000010B5817C03290DD8B4
:10EF50000200084C8388615C074C34322468D31863
:10EF6000246F0289A468407CA04710BDA82000013E
:10EF7000FBE7C0468CEF0318B0070000014B1B688D
:10EF800018677047B0070000000203010003010288
:10EF9000D9ED0318BDED031881ED031859EE0318E0
:10EFA000F9ED031861ED031870B5060000F0FEFFDF
:10EFB00004003000032501F07FFE03344019A8430C
:10EFC000AC432418300002F09BF94019A843A4B2C6
:10EFD0002418300004F0DCF94019A843A4B2241826
:10EFE00003F0F6FF4019A843A4B2241802F0D0FDA4
:10EFF0004019A843A4B2241805F07EFA4019A8438A
:10F00000A4B2241803F092FE4019A843A4B2241815
:10F01000300004F05BFF4019A843A4B2201880B26E
:10F0200070BD0000F7B504001500009100F0B0FFBE
:10F030000326009BC71CB743DF193900200001F0ED
:10F04000E5FD8019B0433F183900200002F048F96F
:10F050008019B0433F183900200004F073F980197B
:10F06000B0433F183900200003F09EFF8019B043E1
:10F070003F183900200002F07BFD8019B0433F1893
:10F080003900200005F028FA8019B0433F183900F4
:10F09000200003F031FE8019B0433F1839002A00E8
:10F0A000200004F0E5FE8019B0433F182A00390023
:10F0B000200005F0A1F88019B0433B180193002C03
:10F0C00070D14348FFF7CAFCFDF7DEFC002800D1F1
:10F0D0006DE04048FFF752FF3F4C200000F068FF12
:10F0E00000203E49FFF72EF900213D4800F066FF61
:10F0F0003C4F380001F0E4FD3B4801F0E7FD3B48A0
:10F1000002F000F900213A4802F002F901213948E1
:10F1100002F0FEF8384E300003F05CFF3748FDF790
:10F120005DFA3748FDF76CFA0121364800F046FFDA
:10F13000354801F0D1FD0321344802F0E9F83800E8
:10F1400003F0FCFD300003F0F3FD03203049FFF72E
:10F15000F9F802212F4802F0DBF8300002F01AFD26
:10F16000200002F01DFD2C4800F036FF2B49052041
:10F17000FFF7E8F8200005F0A9F9FDF785FC02216A
:10F180002B68002817D00B4209D02548013100F028
:10F1900015FF380005F052F8200005F047F8300060
:10F1A00004F0F8F8019B009A981A80B2FEBD1D4841
:10F1B000FFF7C0FD90E70B42F1D01B4800F0FEFEC8
:10F1C000380004F091FE200004F086FEE7E7C04618
:10F1D000FC4B03185863031830E60318F8FF0318B4
:10F1E000E80C0418F4FF031828130418E40C04189E
:10F1F00038370418E02F041824130418E82F0418D3
:10F20000EC2D0418D42D0418D02D0418E42D041866
:10F21000581E0418781E0418681E04180C4604189A
:10F2200000440418345A03189C410418164B70B556
:10F230001C680C23050043430120E3188C331A7823
:10F2400002431A7000290AD12300B8331D70597087
:10F25000A368002B09D028009B68984705E0042983
:10F26000F6D12300B8331D7058700C204543641943
:10F270000834E36F002B05D00022044B11001B68FB
:10F280000938984770BDC046BC070000580600000A
:10F29000F7B504000D00637C666900932E4B1F6870
:10F2A000002E4BD00822337C1A40019208221342D0
:10F2B00019D109213000F7F751FB274B1B681A00C1
:10F2C000B9321178013A1278002931D1009882427E
:10F2D00000D0F17332002C32127829009200D358FA
:10F2E00030001B6898473000F7F776FB2000F7F7EF
:10F2F00073FB0C20009B022658433D188C352B785D
:10F300001A00B2432A70DB0711D584303818F3F79E
:10F3100031FA041E0BD02B7801001E430E4B2E70C9
:10F320001B6800205B691B689847051EB3D1F7BDB9
:10F3300000998A42CED1019AF273CBE7BB68002BC9
:10F3400006D00322E273290020001B689847CDE70E
:10F35000FB68002BF5D1C9E7BC070000F7B50C240A
:10F360002300050043430120164E3268D3188C3326
:10F370001978814319701300B8331978A94201D163
:10F38000FF2119706C432300141927008433D3180C
:10F3900001930837FB6F002B0CD102228C342378A9
:10F3A0009343237033689B68002B02D02800DB68EE
:10F3B0009847F7BD0198F3F7DDF90349FFF768FFB8
:10F3C000E8E7C046BC07000082080000F0B587B03F
:10F3D0000393384B02921B680E009C69A31D67695A
:10F3E000D97FE31CBD88D87FFF2951D0002301229B
:10F3F000009304ABFDF748F8002847D12D4B3900A6
:10F400001B68A07C1A0034314D19A832032849D159
:10F4100010801A00A878AA321070E8785070287905
:10F4200090706879D070A879107100205071907137
:10F430001800A269B13012BA150A02704570150C95
:10F44000120EC2708570BD884A19507808227F2834
:10F4500000D8043A601DC277049807353060A08850
:10F46000039E20183B3030600C9849190160002041
:10F470000299A8330B6023890D99073B9B1A0B80D7
:10F480000E9B1A700F9B1860109B187007B0F0BD90
:10F49000002205A9FCF714F80028F7D1059B1233C8
:10F4A0000493ABE7002010701A006878A93210703E
:10F4B000AFE7C046BC070000F0B5264F87B03B68F9
:10F4C0000E009C691500A38800220393A31DD97F19
:10F4D000E31CD87FFF2934D0009204ABFCF7D4FFA3
:10F4E00000282CD1039B0020E2183B683B32190016
:10F4F000B331087001310860A1691C000F0AAF34F4
:10F50000217067700F0C090EE1701900A770147854
:10F51000AE310C70547801390C70947801390C704C
:10F52000D47801390C70147901390C70547901398F
:10F530000C709279A8331A70049A32602B6007B06D
:10F54000F0BD05A9FBF7BCFF0028F8D1059B2233CD
:10F550000493C7E7BC070000F0B5294F87B03B68AC
:10F5600003929D690E00AC6AA38802932B7C687C91
:10F57000DB063BD52B1DD97FFF2937D00123002285
:10F58000009304ABFCF780FF00282DD1029B0020E4
:10F59000E4183B683B341A001900B3321070013292
:10F5A0001060AA69AF31150A0A704D70150C120E61
:10F5B000CA701A008D702178AE3211706178013AEC
:10F5C0001170A178013A1170E178013A1170217936
:10F5D000013A11706179013A1170A279A8331A7059
:10F5E000049A3260039A136007B0F0BD012205A9A6
:10F5F000FBF766FF0028F7D1059B22330493C5E78C
:10F60000BC070000F0B5534C8BB0079323680591FD
:10F6100099690692002904D14F4B0A0003201B6808
:10F620009847236808269C69621CD27F7F2A00D8ED
:10F63000043EB8331B7801220393237C607CDB06F5
:10F6400000D474E0231DD97FFF2900D16FE0009220
:10F6500008ABFCF719FF051E66D122890023921919
:10F66000022192B209A8F7F7DBF8051E5CD103006E
:10F67000228920000999F7F701FA227C354B7F2A6D
:10F680005ED903211B68A27CA833039219800491E0
:10F69000FF226069120407041740020CD2B23A43F9
:10F6A000FF272C4B3F021B68384002431800AA304A
:10F6B0000270170A120C47708270A28B1F0052BA98
:10F6C00092B2C270120A02711A000020AF3210709A
:10F6D0005070A269B13712BA110A3A707970110CE0
:10F6E000120EB970FA700899059AA8331160A288B1
:10F6F0000799A2183B320A60099A10999788D7197E
:10F700003B370F6006990B6023891199073B0B80EB
:10F71000129B1E70139B1860149B1870039BA262AF
:10F720005374049B5461937428000BB0F0BD09A975
:10F73000FBF7C6FE051EF7D1099B123308938CE731
:10F740001B681A00A8321570621CD27FA9331A7088
:10F7500004959DE7BC07000058060000F0B585B091
:10F7600000910400407C022932D1E37B032B2FD18E
:10F770000C27504D47432B68DE198C3601933378A4
:10F78000DB0700D493E02000F7F712F933780098F4
:10F79000009A1840134212D1134333702B68210092
:10F7A0005B691B689847051E06D03378009A2000D5
:10F7B00093433370F7F710F9280005B0F0BD380017
:10F7C000019B843021001818F2F78CFF0025F3E725
:10F7D000012203A9FBF774FE051EEDD1039B09214D
:10F7E00020000193F7F7ACF8051EE5D12600A388A9
:10F7F0003436F61802ABDF1C237C3870DB064CD5A0
:10F80000231DD97FFF2948D001233A00607CFCF7F3
:10F810004DFE002846D1FF21A3693A78DB0113434E
:10F820003370631CDB7F09047370626913040B403F
:10F83000110CC9B20B43FF2109020A401343B370F4
:10F840001A0A1B0CF2703371A38B5BBA9BB27371F3
:10F850001B0AB371E38B5BBA9BB2F3711B0A337261
:10F86000009B032B20D82300009A2C331A70200011
:10F87000F7F79EF800230F4EA3623068210018307E
:10F88000F2F730FF33689B699C4200D094E70A4A44
:10F890000A490320F7F7F2FA8EE7019B42331B78FF
:10F8A0003B70B8E7050087E704230093DBE7044DCE
:10F8B00082E7C046BC07000041FD031805F60318A7
:10F8C00082080000F0B507007F2683883437FB5C90
:10F8D00087B000931E40FF23821DC51CD377EB77B2
:10F8E0000400FCF7FFFF011E03D13000FBF752FEBE
:10F8F000E877EB7FFF2B54D00023A08821893818AC
:10F90000013905AFC51D4118EE5CC25C72405E4214
:10F910008E5D7240DA550133042BF5D12F4A002653
:10F9200015682A008332127802922A0082321278F5
:10F9300003930192029B9E423ED3019804221C3005
:10F94000800039002818F4F79FFA2A0082321378D1
:10F950000133DBB2042B00D10023137083352B78E5
:10F96000042B01D001332B702000F7F721F800237E
:10F9700001226361A31CDA77009BD809FDF7BCF96B
:10F98000164DA061286821001830F2F7ABFE2B68F5
:10F990009B699C420ED1124A12490320F7F724FAC0
:10F9A00008E02200002130002532FCF73BFDE8771B
:10F9B000FF28A1D107B0F0BD019B9B1B591E042954
:10F9C00000D9D91C1C318900039A691805A8F4F7DD
:10F9D0004DFA0028EED00136ACE7C046BC07000067
:10F9E000A1FB0318B9F403180A4B10B51B689B69F7
:10F9F000002B07D01B7CDB0705D40320064A0749F0
:10FA0000F7F73CFA10BD064A06490320F7F7ECF970
:10FA1000F8E7C046BC07000041FD031805F60318CF
:10FA2000A1FB0318B9F4031870B50400806A0D0037
:10FA3000002801D0F6F7D0FF237C1B070AD4084B1F
:10FA400029001A6823002C331B7820009B009B5848
:10FA50001B6898472000F6F7BFFFFFF7C5FF70BD92
:10FA6000BC070000F7B52F4F0D00386814001830A0
:10FA7000F2F780FE0600002D52D12200856A0F3277
:10FA8000AB8809343533EB1819781078013A4140C6
:10FA900019700133A242F7D16B7C0193FF2B3DD04B
:10FAA0003C68A368002B0FD02200B9321278002ADC
:10FAB0000AD12200B832127801998A4204D1022276
:10FAC000EA7328005B6898470C23019A5343E218B5
:10FAD0008C3201921278D10720D5022002211040E9
:10FAE0000A4213D1019B0A431A703B680C005B6900
:10FAF00029001B689847011E0DD0019B019A1B78B5
:10FB0000A34313703000FFF78FFF06E08433290012
:10FB1000E018F2F7E7FDFFF767FFF7BD0249F1E7ED
:10FB20002900EFE7BC07000082080000F8B58388D1
:10FB3000821DC31834331F787F23C51C1F408033B8
:10FB4000D377EB770400FCF7CDFEA61C002804D188
:10FB50003800F17FFBF71EFDE877EB7FFF2B05D028
:10FB6000F37F0133F377FFF73FFFF8BD2200380042
:10FB7000F17F2532FCF756FCE877FF28F0D1074BE0
:10FB800018681830F2F7F6FD6069002801D0F6F722
:10FB900023FF2000F6F720FFE5E7C046BC07000082
:10FBA000F0B5644F14003B6887B09D69002900D010
:10FBB000BBE06969002900D098E00B002A8905A8FC
:10FBC000F6F72EFE002800D0AFE0002307220599AB
:10FBD0002800F6F753FF2100059A0F316A619388D8
:10FBE00009343533D3181A780878013942401A702D
:10FBF00001338C42F7D1059C2200A3883432D218FD
:10FC0000EB1CDB7F211D6374AB1DDB7FCB770123F6
:10FC10005B4263825178631CD977D17890781379ED
:10FC2000090201431B040B43FF210902180C194070
:10FC30000143FF201B04000403400B4363619379DD
:10FC400051791B02AA690B435BBAA383A2616A1CA8
:10FC5000D27FA11CCA77012298B21BB22274002B5A
:10FC600063DDFAF7CDFA00285FD1059E3968B388C5
:10FC7000F31834331A787F231A400B000392813330
:10FC80001B7801930B0080331B780293019BB78B89
:10FC900098422DD3029B039ADB00CB18981DDF847A
:10FCA000C277B269581DC27772691A620B00029A54
:10FCB00080330132D2B20A2A00D100221A70019B8D
:10FCC0000A2B02D0013381310B70A08B6269A169CC
:10FCD000FDF7CAF9002828D16069FDF7F9F803207B
:10FCE000154A1649F7F7D1F807B0F0BD05916CE752
:10FCF000029B1B1A013B0A2B00D90A33DB00CB18ED
:10FD0000DA8CBA420FD19F1DFF7F039A97420AD126
:10FD10005F1DFA7F9446B269D7B2BC4503D11B6A16
:10FD20007269934201D00130B0E72800FFF7FEFE70
:10FD3000DAE7C046BC07000071FD0318CDF30318D5
:10FD400010B50C1E05D10320064A0749F7F74CF8F9
:10FD500010BD064B18681830F2F70CFD2100FFF7B4
:10FD600063FEF5E765FA031859F50318BC070000B0
:10FD7000F0B5854F85B038688569002900D0FFE06F
:10FD80006C691830F2F7F6FCA2882000A2183B320A
:10FD9000537811781B020B435BBA0921E383F6F712
:10FDA000DDFD6B1DD97F2000F6F7F4FDFCF79AFD11
:10FDB000002804D03B6820001B695B689847AB7C37
:10FDC000032B1BD13A68631C9168DB7FE68B00290B
:10FDD00046D05AB2002A11DA5B060FD1002E09D1A3
:10FDE0006B7CA3740023E3733B689B6820005B6813
:10FDF000984703E0FAF7FAF9B042F1D0E68B002E0B
:10FE000024D032B2002A06DA631CDB7FDB0902D081
:10FE1000B30B022B1AD03B68BA331B780093002B2C
:10FE200035D001230093584F3B689B68002B04D0CA
:10FE30000122EA7328005B689847009B002B00D1E1
:10FE400072E03B6820001B685B6898472000F6F76B
:10FE5000C3FD2800F6F7C0FDFFF7C6FD05B0F0BDF5
:10FE6000D268002ACAD05AB2002AC7DA7F22190003
:10FE7000114000911342C1D1FAF7B8F9B042BDD197
:10FE80006B7CA374009BE3733B68DB68AEE7002ADE
:10FE90003DDA0020FCF7D0FD06000128C3D1631C29
:10FEA000DB7F01937E23019A1A42BCD0E38822892A
:10FEB000A18803A8F6F7B4FC0028B4D1039F33004F
:10FEC000390020002289F6F7D9FD7F21019E0E40DE
:10FED000013EF6B233008B4304D02C4B320003209A
:10FEE0001B6898477F217A1CD37F03988B431E435E
:10FEF000D67701223B7C002193431A000823134349
:10FF00003B74FFF72BFC0398F6F766FD8BE7300098
:10FF1000FAF776F9002800D083E730000099FDF762
:10FF200061F90028B5D07CE71E22A35EE68B002B8A
:10FF300000DB8BE73B68BA331B78002B00D080E7EF
:10FF4000FCF792FD012800D17BE7FF2332009A43A2
:10FF5000FF231B029A4206D13000FCF711FE002855
:10FF600000D173E76DE7B30B022B00D069E7009A6D
:10FF700030001100FAF79EF8FF2800D166E760E72D
:10FF80002800FFF7D3FD69E7BC0700005806000012
:10FF9000054B002805D11960FF23B8310B80BC2028
:10FFA000704700221A60FAE7BC070000BC207047C7
:10FFB000014B1B6858617047BC070000032900D93A
:10FFC00004210022034B89001B68C850BA331A7001
:10FFD0007047C046BC070000014B1B6818617047A2
:10FFE000BC0700000122024B1B68BA331A7070472D
:10FFF000BC0700005DF7031891F20318C5F8031859
:020000041804DE
:100000002DF203185DF30318F7B5E826104C0193A1
:1000100025687600AC5D0B0AE700A337FF37EF19C0
:100020003970090CB970E100A6246918FF347B709F
:100030000A55D022019B5200885206328B54AB5D88
:100040000133DBB2052B01D8AB55F7BD0023FBE72D
:10005000C007000070B5056804001830F6F7CCFF43
:10006000AA69A88B69690023FFF7CEFF054B290019
:1000700018681430F2F788FB2800F6F7ADFC00236F
:10008000236070BDC0070000F0B5002787B0039360
:100090000CAB1B8804001600029101930597FCF736
:1000A000E3FC00970500012805D13000FAF7A8F815
:1000B0004540EBB20093FCF715FC002800D077E038
:1000C0000823072209212000F6F712FD071E33D16D
:1000D000FBF7B6FF22002100FF2514321831FCF790
:1000E00031FE029B65826374FCF79EFB80235B42BA
:1000F0000343621CD377039B2774E383231DDD77BF
:10010000009B002B1BD0FAF771F8A0830D9B227C7B
:100110001EBA1100202325001940343502911A42DD
:100120001BD003212000F6F719FCA0880422281810
:100130000DA90D96F3F7A8FE380007B0F0BD230017
:10014000009A2C33A6831A70019B2000A3841A4BBB
:100150001B685B681B689847D8E70098FF21431E1F
:100160009841019BC0059B0203431A0209040A40FF
:10017000FF21A08809021B0A2D180B40134305A973
:10018000032228000593F3F77FFE0DA90422E81C43
:100190000D96F3F779FE084B20001B6802999B68C7
:1001A0001B689847002805D12000F6F701FCC3E73B
:1001B000024FC1E70700BFE7C0070000820200004E
:1001C0000300F7B52E33009101921D780F4F0935CA
:1001D0003E686D010400281D3018F6F70DFF00235E
:1001E000AB51019B002B04D0386821001430F2F78A
:1001F000CBFA3B6800991B6820001B6898472000D9
:10020000F6F7EAFB0020FCF771FEF7BDC00700001F
:10021000027F0123202A0BD09340013B8269534087
:10022000C27F0020202A01D001389040184070473A
:100230005B42F3E7F0B58FB0AC4B1E68F568002D5C
:1002400002D07769002F01D10FB0F0BD01227B6988
:10025000DB04DB0C08933B7C134229D03B002D339D
:100260001C78FA8BBB8B797C3427380060433018BC
:10027000806C0190089800902800FFF705FF002887
:1002800010D13D00FCF7D0FA3221013465434143DF
:10029000751928009631F6F76DFE944B18680C30EE
:1002A000F2F768FA914B18681430F2F763FAC3E773
:1002B0003B001F242E331B7805931800BB880930A0
:1002C00009937B1C1C570823400130180493002C11
:1002D00001DB04330493FFF79BFF00230393030028
:1002E000039AD3400122134204D1039B9B1803932A
:1002F000202BF4D1049B0399039A59438BB20693A4
:1003000000230D93059B5B01F3183D33FF331B78EE
:10031000013B9A4204D13B89069A9B1ADBB20493B3
:10032000049B1A1D0823002C00DB043B0921280034
:10033000F6F7DEFB041E00D0BAE0390028002022C8
:1003400010311030F3F7A0FDFBF77AFE2A002900E8
:1003500014321831FCF7F6FC80217B696A69890147
:10036000D21A8A4200D3A2E02800039A3430D3186C
:100370006B61AB88C31807933B002C331A781306C4
:1003800005D5FE215A4B03201B68C90598473B0041
:100390002C331B781B060A933B7C9A0580231B0495
:1003A0001A40089B0B929B020893039B5C01E0237D
:1003B0005B011C4206D0F8214D4B03201B68039AB9
:1003C000890098470A9B089A1C430B9B1F212343D3
:1003D0001A43059B08925C0133193D33FF331A78A9
:1003E000013A13008B4303D0414B03201B6898470D
:1003F0003319802605933D33FF331C78089B013C5D
:100400001C4336062643042236BA0DA907980D96DA
:10041000F3F73AFD069A39009446099B079863441E
:100420003431C918049A0430F3F72EFD0120FCF78B
:100430005DFD2E4E0021336828009B681B6898479D
:10044000041E35D12800F6F7B3FA059D039B40350D
:10045000FF3501332B70336803933B002E331D7837
:100460002800093043010493049A039B944603989F
:1004700063440C300593F2F77DF90598FFF7C8FE49
:10048000002800D0D8E6039B6D015D192A003E329A
:10049000FF3213780133DBB213701E217A5E002A1B
:1004A00011DA022B04D84035FF352870C4E6114C10
:1004B0000E4B18681430F2F75DF900222100380065
:1004C000FFF77EFEB8E6306801371430F2F752F9D4
:1004D0007F23F97F04980B4032215943039B04305A
:1004E000C8311818F6F746FDA6E6C046C00700005A
:1004F0005806000082070000016810B500290AD0E4
:10050000054C20681430F2F7EDF82368DB68002B07
:1005100001D0FFF78FFE10BDC0070000030010B52B
:100520005A7F0068022A0FD800220A4CDA77236823
:10053000010014331800F2F7D5F82368DB68002BAC
:1005400001D0FFF777FE10BD00220349FFF738FE08
:10055000F9E7C046C00700008205000010B5037B24
:100560000400FE2B0BD10E4B210018680C30F2F763
:10057000B9F8FFF75FFE2000F6F72EFA10BD431C16
:10058000DB7F7F2B02D9C37C002B02D1A37CFF2B06
:10059000F1D0034B20001B681B681B689847EAE7F3
:1005A000C0070000F7B5451CEB7F04000B267F2B2E
:1005B00000D804362000F6F7FBF92389B34233D87C
:1005C000237C9B0754D4414E200033685B681B6832
:1005D0009847237C9B0606D500212000FFF7BEFF2D
:1005E00000252800FEBD27002500012120002C3712
:1005F000F6F7A6F9A3883A783435ED18130605D531
:10060000FE21334B03201B68C90598473B78002126
:100610002B70336820009B681B689847051EDFD04D
:100620002000F6F7D9F9DCE7EB7F7F2B02D9237C9A
:100630009B071DD4254E200033685B681B689847D4
:10064000237C9B06C8D4EB7F08217F2B00D8043184
:10065000376800233A002132FF325E019559D8B243
:100660000090002D07D00133042BF6D1194DD7E7A8
:10067000C1256D00D4E72200D8B209332E32BE194D
:100680005B011070DC5133003D332089FF3301934F
:100690004B1EC018C1F7BCFC019B009A18703300B8
:1006A0003800FC334036DD63FF3641331D705A702D
:1006B000210035701430F2F715F8044B1B68DB6825
:1006C000002B00D18CE7FFF7B5FD8AE7C0070000DB
:1006D00058060000820D00000300F0B5343393B0DB
:1006E0000C93838806000D930D9A0C9B94466344EB
:1006F00008930422431C089911A8DF7FF3F7C4FB79
:10070000119BFF091BBA03931193002B00DBA9E097
:100710005B02DB0C09931F23039A1A4001320592F6
:10072000039A52091A400292002F00D157E2173B58
:10073000079300230E9373690999DA04D20C8A4255
:1007400054D30A005B0B5B031A43954B04921B685E
:1007500006930023069A0A931C3234330A995943AC
:1007600055580B91002D4DD0A88BB18B884249D1A3
:100770000B9C069B1C341C19049A6B699A423BD94A
:100780002000FFF767FC864AB38B1268B06911003E
:1007900006920022A131FF31C4B20888984237D1B5
:1007A0004879A04234D1C8788D78000228430D7969
:1007B0002D042843049D85422AD106993432D20063
:1007C0008A189279002A1BD01E20315EF28B0029F4
:1007D00016DB0021012508002C008C40059F01310B
:1007E0002043CCB2A742F7D8717C34E06D4A9B1805
:1007F0005B0B099A5B03A7E7049A9A4200D351E185
:1008000013B0F0BD0A9901310A910529A6D1BAE7C2
:1008100001320831062AC0D1002306990A932E32EC
:100820001C310A9B53430B93CB58002B00D1BBE0E8
:100830000A9B01330A93052BF3D10023B269049973
:10084000B08BFFF7E1FB1E21735EF28B002BD7DB31
:100850000020B38B717C0190099800903000FFF765
:1008600013FCCDE7039B4E4D1C0E002F00D186E0FC
:10087000002C00D083E05F02F08BFF0CF9F7C0FC86
:1008800000286ED02B68190021310293FF316301DB
:10089000CE58002E09D07269D204D20CBA4204D1CB
:1008A0001E20325E002A00DBA0E10134042CEED1D0
:1008B000A6E79340013B089A0593089B1179DB78E2
:1008C00009021943130052799B79120411431B0644
:1008D0000B431BBA03932300093307935B01069371
:1008E000069A029B9818FFF793FC04900020FCF7EF
:1008F000FDFA039B002B26D0059B039A0027934209
:1009000023D0029B64011C192300FC330698DA6390
:1009100041331F70029B04301818F6F76DFB40340A
:10092000049BFF342770BB4200D069E72868310080
:100930001430F1F7D7FE2B68DB68BB4200D15FE7CC
:10094000FFF778FC5CE7B027FF00049A0298531E7B
:100950009A41079B39005B011858D2B2FFF730FC6F
:100960004EE733002C33187003213000B784F5F7BD
:10097000F5FF2B685B681B683000984740E7330041
:1009800001212C331C7030003174F5F7E7FF2B6820
:1009900030005B681B6898472B681B685B68EBE757
:1009A000C007000000E0FFFF03210B9C069A1C34E7
:1009B0001419059A05985143079A42432000F5F708
:1009C0002FFF0D90002800D037E7069B0B9A3100CF
:1009D0009F18FD6920222B00280034330C93AB882C
:1009E000103110300F93F3F74FFA049B029A6B61AA
:1009F0000C9B07981A707369049A08999B1A2A002D
:100A00009BB2353213701B0A53700D9B059ABB6461
:100A10003B004C331A7001225A70039B04319340FF
:100A20002A005B0E2C3213700E9B5A0005231343D1
:100A30002B74029B079A58430F9BC0180C9B1818E5
:100A4000F3F722FA059B029A013B9A4207D13189BA
:100A5000FB69079A0439891A1A89891819810B9830
:100A6000069B203018186749F6F784FA1E22B35EF9
:100A7000002B0BDB0B9D069B34355D19FBF7D4FE79
:100A80003221414328009631F6F774FA34230A9A4A
:100A900002995343069AD31801228A40996C0A435B
:100AA0009A646DE06B1CDB7FDB099F4200D0A7E6F8
:100AB0002B00039A2C331B7857007F0EBB4200D0CB
:100AC0009EE60B9A069B05999B181A004C321278E9
:100AD0008A4200D094E60A0002998A4200D88FE642
:100AE0009B6CCB40DB0700D58AE60B002F00079AF2
:100AF000A88853430D99C0180C9B343704315918FA
:100B00003818F3F7C1F9B31CDB7F02355BB2EB7722
:100B1000059B029A013B9A420CD1079B31890A9AA4
:100B2000591A34235343069A0431D318D86989B229
:100B3000F5F730FF0B98069B203018183149F6F76F
:100B400019FA34220A9B029D5A43069B9A181100F7
:100B500003234D3108785843C55508784343013382
:100B6000FF18049873691B1A9BB23B701B0A7B70B9
:100B70000123AB40906C034393640B7801330B70FB
:100B8000230030331A7801331B789A4200D037E6BD
:100B900020001830F6F730FA201DF6F72DFA1A4D1E
:100BA00020682B685B681B6898472B6820681B6867
:100BB0005B6898472068F5F70FFF00232360B26950
:100BC00004990133B08BFFF71FFA1E21735EF28B7D
:100BD000002B00DA14E6B38B717CE06A3BE6039BE2
:100BE0001B02DB0F0E930C230793A4E5029AD31884
:100BF0003D33FF331A780123202A00D059E65B42A7
:100C000059E6C04610270000C0070000F8B5254E81
:100C1000002843D10D000B004135FC33FF3508009F
:100C20001D6520351D67C6251F4A2130FF30DA6259
:100C3000DA64DA6618636D0084334B51C4230C0008
:100C40005B00CA500B00D534184D194A3160FF348F
:100C50001C331B62DD61DB609A6034339842F8D14B
:100C6000A131FF3108003022FF21F3F729F90025D7
:100C7000FE27202363810F4B3068236301236573B4
:100C8000013521002773A3730C30EDB2F1F72AFD73
:100C90005434042DEDD1C9208000F8BD0023336009
:100CA000F9E7C046C00700001D050418F904041840
:100CB00055000418A55A5AA5C920800070470000A5
:100CC000014B1B6898607047C0070000014B1B6810
:100CD00018607047C0070000014B1B6858607047E0
:100CE000C0070000A50504185D050418D9060418FE
:100CF000000000000000000070B5194C2068056A73
:100D0000002D09D02B002D331E78002E05D1012097
:100D1000144A1549F6F7B2F870BD2030F1F72AFDF4
:100D2000236828001B691B689847104B01009842F4
:100D30000CD1206829003030F1F7D4FC2068036A18
:100D4000002BE9D01430F3F78FFDE5E70028F5D04C
:100D50002368B600F35828001B689847EEE7C046A2
:100D6000C4070000710D0418ED0D0418820D000079
:100D7000F8B51C4D0C1E2868066A1BD12030776A16
:100D8000F1F7F8FC2B6838001B691B689847164B75
:100D9000040098420CD1286839003030F1F7A2FCE9
:100DA0002868036A002B02D01430F3F75DFDF8BD0C
:100DB0000028F5D0706A002801D0F5F70DFE2868EC
:100DC0002030F1F7D7FC33002D331B782A689B00C5
:100DD0009B58300021001B6898473000F5F7FCFD58
:100DE000DEE7C046C4070000820D0000F0B589B000
:100DF0000391042105935E4B04921D682C6A227CAA
:100E000023890191920704D508220192072B00D86B
:100E100001916A46928800270292019A9B189BB220
:100E20000F2B00D80A37A07CFAF786F80300A07CC5
:100E3000002B00D18EE007A9FAF7A2F8061E00D019
:100E400092E0029B228939009A1892B2030006A808
:100E5000F5F7E6FC061E00D086E0012302000699A5
:100E60002000F5F70BFE069F67627C62A07CFAF714
:100E700063F83300002803D1079BDA7C4023134337
:100E80003A002C321370019B082B03D13A7C063BAD
:100E900013433B74A07CFAF74FF82A00431E984195
:100EA000019B3832043B591E8B41290001301070E0
:100EB000FF20DB0139310B70616900040B04034032
:100EC000080CC0B20343FF20000201400B4329007D
:100ED0003A310B70180A1B0C48708B70A38B443589
:100EE0005BBA9BB2CB701B0A0B71E38B5BBA9BB2F4
:100EF0004B711B0A8B71A3691BBA180ACB7108725C
:100F0000180C1B0E48722B70079B039902330B6061
:100F10002300A18834335B1805990B6006990B00F8
:100F2000898834335B180E990B60049B1A602389FF
:100F30000F9A1380109B019A1A70E08B830B022B7F
:100F40000DD10021119AF9F7B5F81023FF2809D126
:100F5000084E09E0012207A9FAF764FC6EE70023B6
:100F6000119A1360129A1370300009B0F0BDC04698
:100F7000C407000082020000F0B587B002934E4B18
:100F800008271E680091B46A0192237C9B0700D455
:100F9000043FA07CF9F7D0FF05A90200A07C002A3D
:100FA00000D17EE0F9F7ECFF051E77D1BBB20393C9
:100FB00022890300D21B010092B204A8F5F730FC8D
:100FC000051E6BD10200049901232000F5F756FDA0
:100FD000049BA07C6362F9F7AFFF3200431E984187
:100FE0003B1F591E8B413100383201301070FF20F9
:100FF000DB0139310B70616900040B040340080CFC
:10100000C0B20343FF20000201400B4331003A31DC
:101010000B70180A1B0C48708B70A38B44365BBA9C
:101020009BB2CB701B0A0B71E38B5BBA9BB24B710B
:101030001B0A8B71A3691BBA180ACB710872180CB2
:101040001B0E48723370059B009902330B6023001E
:10105000A18834335B1802990B6004990B008988CE
:1010600034335B180C990B60019B1A602389BAB268
:101070009B1A0D9A13800E9B1F70E08B830B022B23
:1010800012D123002E3319780F9AF9F713F803348D
:10109000E077FF280DD01023109A1370280007B0B6
:1010A000F0BDFAF7BFFB7FE70F9B1D60109B1D7023
:1010B000F4E7024DF2E7C046C407000082020000D8
:1010C000002370B504004362032900D904212300E2
:1010D0002D3319702000F5F76BFC074D21002868AF
:1010E0002030F1F7FFFA2868036A9C4202D11430DD
:1010F000F3F7BAFB002070BDC4070000030070B511
:1011000004002C331878631CDB7F7F2B17D9431E18
:10111000092B0FD8234B02381B6808280BD8F2F78D
:1011200087FE0C0A0C0A0A0A0A0C05005B682000FC
:101130005B68984770BDDB68F9E79B68F7E7430693
:1011400026D53F2100220140607CFAF75FFCA074A5
:10115000A37CFF2BEED02000F5F72AFC2200002311
:1011600001212D32636211705370FF220D4DE31C7B
:101170002868DA7721002830F1F7B4FA2B689B6AE7
:101180009C42D7D1084A09490220F5F77EFED1E7F3
:10119000FBF77AFC002803D0A08BF9F77DFED6E799
:1011A000A074D8E7C40700003D120418790F041892
:1011B00070B5431CDB7F0400164D7F2B21D8466A97
:1011C000002E07D02B6830001B681B689847300042
:1011D000F5F702FC2000F5F7FFFB2868046B002CF4
:1011E0000ED03030F1F7C6FA2B6820001B691B685F
:1011F0009847002804D1286821003030F1F7A8FA78
:1012000070BD03002D331B782A689B009B581B6818
:101210009847DFE7C4070000054B10B51B689B6AC1
:10122000002B04D00220034A0349F5F72EFE10BD1F
:10123000C40700003D120418790F041870B5274D3B
:101240002868846A002913D1666AE31CDA7FF31CDC
:10125000DA772830F1F78EFA2B6830001B685B686C
:1012600098472000F5F7B8FB3000F5F7B5FB0FE025
:10127000E38B9B0B022B0ED1E31CDB7FFF2B0AD0F1
:1012800022002E32137801331370A37CFF2B19D068
:10129000FFF7C2FF70BDA07CF9F74EFE00280FD10A
:1012A000230026002C3319783F232D36194032783D
:1012B000607CFAF7ABFBA074337801333370E4E75A
:1012C000FF23A37428682830F1F754FA606A0028D5
:1012D00001D0F5F781FB2000C7E7C046C407000036
:1012E000054B002804D11960044BCB61482070479E
:1012F00000221A60FAE7C046C4070000F90C04187F
:1013000048207047014B1B6818617047C4070000F4
:10131000032903D8024B89001B68C8507047C04698
:10132000C4070000C1100418B1110418FD100418FE
:1013300010B5044B01211B68187C5B685B689847FB
:1013400010BDC046C807000010B5044B02211B6841
:10135000187C5B685B68984710BDC046C8070000F2
:10136000064A03001268D26812681068002800D18B
:101370007047828C9A42FBD00068F7E7C8070000EC
:1013800070470000034B1B681A7C824201D1FF2288
:101390001A747047C807000010B50B4C2368DB684F
:1013A000002B10D01868002801D0F2F72FFF002082
:1013B000FAF798FFFBF7FEFF2368D868F2F726FFDD
:1013C00000222368DA6010BDC80700003E42424494
:1013D000484248003E42003E48480000F0B50E2515
:1013E00087B01E0002ABED18140004902980032A78
:1013F0002CD0052A34D0012A2ED0012300270293B5
:1014000008230E2130002A88F5F70AFA03900028F5
:1014100019D1336818009B883430C018002F25D0AC
:10142000049910232A000097F0F7F0FE011E21D046
:10143000224B22001B68032098473068F5F7CCFA4E
:1014400084235B010393039807B0F0BD0A232B802C
:1014500000231B4F0293D3E71A4F2A800292CFE753
:1014600004232B800023184F0293C9E72A8804998C
:10147000F2F70AFDFBF7AEFF3568032C1AD0C388DC
:10148000FF26EB83EB1CDE7720236B740F4B6B8204
:10149000F8F7ACFE80226B1CA883DA770022029951
:1014A0002B332A741C702B1D914205D0DA77102340
:1014B0002B74C8E7064BE3E7DE77C4E75806000065
:1014C000CC130418D4130418D7130418FF03000016
:1014D000FDFF000010B5F5F77FFA10BD10B5040050
:1014E000FAF7AEFD2200210014321831FBF72AFC76
:1014F000034B02211B6820001B681B68984710BD26
:10150000C80700000E4B70B51B68DC686368002BD1
:1015100014D0E61CF37F062B10D1FBF75BFF050010
:10152000201DF1F727F9FFF7D9FF07232000F377F4
:10153000A97A0C30F5F71EFDFFF706FF70BDC04617
:10154000C807000013B5FBF745FF01226946437B3E
:10155000684613400B70002101ABFFF73FFF041EEC
:1015600008D1054B01991B68D8680430F1F7BAF827
:10157000FFF7C8FF200016BDC8070000114B70B56B
:101580001B680400DD68002D1AD0FBF723FF00283C
:1015900016D0EB1CDB7F062B12D9631CDB7F7F2B65
:1015A00007D97F22A388E418343423781340022B10
:1015B00006D0437B01334373034B6B84FFF7C2FFB9
:1015C00070BDC046C8070000060300002B4B70B575
:1015D0001B6886B0DE680023356802AC2370AA7DE4
:1015E000072113008B4303D0254B03201B6898472A
:1015F0000722182123789343AA7D134323706A7D21
:10160000D3008B4303D01E4B03201B68984718223E
:101610006021237893436A7DD200134323702A7D8F
:1016200053018B4303D0164B03201B68984760225D
:10163000237893432A7D520113432370EB7D63701B
:101640006B8A2381F8F702FEA072338C2000A381FD
:10165000AB6803226360002101ABFFF7BFFE041EED
:1016600009D10198FFF73AFF300064210C300336AE
:10167000F5F780FCF477200006B070BDC8070000C5
:1016800058060000344B70B51B68DC68E51CE97F28
:1016900008295AD80800F2F7CBFB050E58585858BD
:1016A0003C29310001232000FA21EB770C3089001E
:1016B000F5F760FC0BE0221DD37F013BDBB2D37753
:1016C000002B05D0238C01332384FFF77FFF70BDEF
:1016D00023681968002902D00223EB77F7E78420FA
:1016E000FF30F6F75BFDFFF757FEF0E7FBF772FE02
:1016F0000823EB77C17A20000C30D9E70623221D9E
:10170000EB77D37F013BDBB2D377002B04D0FFF71D
:101710001BFEFFF717FFDAE7FBF75CFE2468C188C2
:10172000002C0ED10D48F6F739FD2000FBF710FA1A
:1017300021000920FCF72CFCFFF72EFEFFF704FE2A
:10174000C5E70748F6F72AFDF6E7064B0022032017
:101750001B689847BBE7C046C80700008305000028
:101760008303000058060000094B70B51B68DB6856
:101770001D682B68002B00D170BD2800F0F7FAFF20
:1017800004001030F5F738FC2000F5F725F9F0E7F4
:10179000C807000070B5184E0D003368DC68002CD7
:1017A00012D00334E17F04290FD1FBF713FE134A53
:1017B000007B1349F8F7AAFD336805009B6898473A
:1017C000002D15D10523E37770BD032904D00D4BFF
:1017D000002203201B689847002D09D10623E377D8
:1017E000FFF7B0FE0028EFD029000748F6F7D6FC37
:1017F000FFF7D2FDE8E7C046C80700004D1B0418FC
:101800001D1B04185806000083020000224BF0B58F
:101810001B680600DF680D00FB1CDB7F85B0012B19
:101820001CD10378002B19D08B8B18000293FFF783
:1018300097FD002814D0028D3B8C9A420ED01030B8
:101840000400FA21B3882000E3823B8C89002383C3
:10185000B378A3763378E376F5F78CFB05B0F0BD6B
:101860003B6828000393029BAD61AB840B4B2C00BB
:101870006B61F5F79DF8B378317802930323F35643
:10188000A88B00937278029BF6F790FC29000398CE
:101890001034F0F727FFD4E7C807000081190418B7
:1018A000020010B5081E11D1094B1B68197CFF29D5
:1018B0000CD11A74DB68002B08D00333DA7F052AB9
:1018C00004D1023A0100DA77FFF764FF10BDC04689
:1018D000C80700003E4242424248003E424C42009D
:1018E0001F4BF0B51B680400DB6889B0002B2ED0BD
:1018F0001C22835E002B2ADBC58BF8F777FC854220
:1019000025D123002C331D787F231D40042D0AD0C0
:10191000092D1ED0022D1FD0124B002229000320BA
:101920001B68984713E01048104E0E221023210028
:101930006A441380A788343100902389C91904A808
:10194000F0F764FD0028E7D1210004A8B04709B0F2
:10195000F0BD0748074EE8E70748084EE5E7C046F0
:10196000C807000058060000D41804180D18041801
:10197000D413041881130418DB180418491A041826
:1019800070B505000C4B01001B68DC682668033449
:101990003000F0F7F9FE2800F5F71EF8E37F022B80
:1019A00008D13168002905D18420FF30F6F7F6FB15
:1019B000FFF7F2FC70BDC046C8070000F0B5460056
:1019C0000136B6B285B0040030000F000192F2F784
:1019D00018FC051E26D01A4B01301B68DB685A1D07
:1019E0000093D37F591CD1772B70002F25D0154A37
:1019F000013CA4B2944217D1019A310053425A419A
:101A00002800073203ABFFF7E9FC04002800F2F7D7
:101A1000FDFB002C06D1009803990430F0F762FE1C
:101A2000FFF770FD05B0F0BD3B8802375BBA9BB293
:101A300003701B0A43700230DAE7F8F7FBFCDBE7C0
:101A4000C8070000FFFF0000304BF7B51B68060019
:101A50000F00DC68FBF7BEFC0500002C3AD0BA8B07
:101A6000C3889A4236D1337A012B33D8E31CDB7F0B
:101A7000062B2FD9437B01334373254B63842368A3
:101A8000002B2FD027000C373800F5F7B5FA287B4C
:101A9000204A2149F8F73AFC061E1BD10120FBF72A
:101AA00057F83000E988F6F779FB31000820FCF799
:101AB0006FFA2068F2F7AAFB6B462660DC1D200057
:101AC000F8F7A6FC2078002805D00122310080B26A
:101AD000FFF774FFF7BD38002968F5F74BFAFFF7F9
:101AE00027FCF7E731787068FBF7A4F9002803D0EA
:101AF0003178787CFAF7B0FA337A002B02D0FFF70E
:101B000021FDE7E7200029680C30E6E7C807000060
:101B1000060300004D1B04181D1B041807B56B4677
:101B2000991D094B08801B68DB68002B0AD01A68D6
:101B3000002A07D10333DB7F042B03D001321000CE
:101B4000FFF73CFF07BDC046C807000007B56B465E
:101B5000991D064B08801B68DB68002B05D01A68AE
:101B6000002A02D10120FFF729FF07BDC8070000A6
:101B700010B5064C002804D1FF2321600B741420FB
:101B800010BDFFF709FC00232360F8E7C807000039
:101B900014207047014B1B6818607047C80700008D
:101BA000014B1B6858607047C8070000F0B587B04C
:101BB0001D000CAB1B782F4C02930DAB1B782768D4
:101BC00003930EAB1B78FE6800900591019204937D
:101BD000002E49D1092D49D9029B032B46D8039BDE
:101BE000032B43D8049B013B062B3FD80300224A1A
:101BF0000A3B93423AD86B4604229B5E002B35DBAE
:101C00002820F2F7FEFA2368F860DC68002C04D183
:101C1000B024E400FFF7C0FB23E01820F2F7F1FA4C
:101C200020600028F4D00623271D2684FB77631D3F
:101C3000DE77059BC575C360009B8360019B438273
:101C4000029B0375039B4375049B83750B4B2361B8
:101C5000F0F732FD3800F0F72FFDFFF7B7FC041E58
:101C6000D8D1200007B0F0BD054CFAE7C1246400CC
:101C7000F7E7C046C8070000F5BB34008516041816
:101C800082020000204B37B51B68DC68002C39D07D
:101C9000E31CDB7F032B35D020000C30F5F7ACF9CB
:101CA0006568002D25D1FAF71DFE002827D0FBF727
:101CB00091FB0400F8F79AFA6B466A461880A388ED
:101CC000290053806846052201ABFFF787FB0028F7
:101CD00002D10198FFF702FC00210920FCF758F916
:101CE0000020FAF735FFFFF757FBFFF72DFB002029
:101CF0003EBD201DF0F73EFDF4F76EFED0E7FFF786
:101D000033FDE9E70148F3E7C8070000820200005D
:101D1000284BF0B51B680700DE6889B0002E44D060
:101D2000F31C0393DB7F022B3FD8FFF719FB3168CD
:101D30000500002904D1204B0A0003201B689847A6
:101D4000002D34D0336804A8DA6804922A8DC78045
:101D50008280EA8C0281DB7D83722B002B331B781F
:101D6000C3722B002A331B78037300234373FBF7E2
:101D700003FB041E16D1F8F739FA104A2B8D019295
:101D8000EA8C0100009220003A00FAF7C9F9041E1B
:101D900008D130000C30F5F72FF9FFF7E5FC0323ED
:101DA000039AD377200009B0F0BD054CFAE7054C43
:101DB000F8E7C046C8070000580600009517041849
:101DC0008202000082060000F0B51F4D85B02B682E
:101DD0000390DE68002E32D1FBF7FCFA07002820C2
:101DE0002C68F2F70EFA2B68E060DC68002C28D033
:101DF0002000062340C0C377631DDE77134B2361A9
:101E0000F0F75AFC04230334E377F8F7EFF9010005
:101E10000F48BB88FA880190388900903000FAF7A3
:101E20007FF92B68041E04D1039A9A60200005B044
:101E3000F0BDD868F2F7EAF92B68DE60F6E7054CEA
:101E4000F4E7B024E400F1E7C807000085160418A1
:101E50009517041882020000000000000000000036
:101E6000A118041885130418000000007D1504183B
:101E70000000000000000000D5140418E118041848
:101E8000704710B5F4F7A8FD10BD0000F8B50700C5
:101E9000040000685B373D78002804D0F5F7ACF803
:101EA0002068F2F7B3F96668002E1AD120000C30D2
:101EB000F5F7A2F83878FAF715FA23000321593319
:101EC0001B783878994289414942FBF771F9200023
:101ED000F2F79CF9064B02351B68AD005D196E6088
:101EE000F8BD201DF0F746FCF4F776FDDBE7C046B1
:101EF000CC07000010B50024064BA21C1B68920002
:101F00009B185868002801D0FFF7C0FF0134052C4A
:101F1000F2D110BDCC0700000300144A023312684E
:101F20009B00D31870B55C680800002C06D0250013
:101F300059352B78002B02D102332B7070BD012B49
:101F4000FCD19368984704232B7023005B331878E7
:101F5000FBF71EF9616B228F206BF5F78BF8010000
:101F600020000C30F5F706F8E8E7C046CC07000083
:101F7000F0B5162489B01E000EAB1B8802900493A6
:101F800002ABE4180023B01E0391059223800728BA
:101F90003DD8F1F74DFF2E3C0433333C3C3806234B
:101FA0000025394F2380059808230E212288002818
:101FB00036D0F4F79DFD041E18D1059B162218009B
:101FC0009B8802A93430C018521810230399009737
:101FD000F0F71CF9011E36D02C4B320003201B6891
:101FE000984784240598F4F7F7FC6401200009B0B1
:101FF000F0BD06230125264F2380D4E704230025C6
:10200000244F2380CFE70125234F2580CBE70025F0
:102010001E4B0022310003201B6898472F00C2E7A7
:1020200005A8F4F7FDFBC6E702985B300278DA7783
:1020300010233B74194B03211B6805981B681B6810
:1020400098470400D2E7059F049BFB83029B5C3307
:102050001B787B74124B7B82F8F7C8F880227B1CBC
:10206000B883DA77F9F7ECFF3A0039001432183107
:10207000FAF768FE3B002C331E703C743B1D002DAC
:10208000D2D1FF22DA77D5E7D41804185806000019
:10209000DB180418D7130418D4130418CC07000055
:1020A000FF020000F0B50027456A89B004000697DA
:1020B000BD4200D016E10430F0F75CFB05000600DD
:1020C0006062007C04222300A762070010361740DC
:1020D0005A33691C104200D1C7E02A002D32107813
:1020E0001A78121A1A70CA7F08237F2A00D804337C
:1020F000A385230000222E3318705A70069B002BF4
:1021000000D09EE0B089F8F77BF823002F33002839
:1021100000D1FFE01B7800936B461B880393A38DCF
:102120000099019359438BB2049323002E331B78FB
:10213000009A013B9A4204D12B89049A9B1A9BB2C4
:102140000193019B317C1A1D92B208237F2900D88C
:10215000043B092106A8F4F763FB0290002800D095
:1021600080E0069F31003B00B88834331B183800EC
:10217000202210300593F1F787FE04223B7C934325
:102180003B74F9F75DFF3900029A1831FAF7DAFD6E
:102190007268039B944663447B61327F130605D5C6
:1021A000FE21634B03201B68C90598478022337FBB
:1021B00012041B060293337877689B051340039340
:1021C0005C4BBF021F40009B5E015B4B1E4206D072
:1021D000F821574B03201B68009A89009847230079
:1021E0002E331A781F21013A13008B4303D0504B32
:1021F00003201B68984723002E331B780422013BE1
:102200001E4337438026029B36061F43039B07A9C4
:102210001F43374305983FBA0797F1F735FE29006A
:10222000049AAB8805989B183431019AC918043078
:10223000F1F72AFE2200069B2F32A36213780133A6
:10224000137006985B342278031DDA771023027C22
:10225000012113430374394B1B685B681B68984763
:1022600000230293029809B0F0BD07972F001A7857
:102270002C37013A1A70CB7F3A787F2B25D9002A68
:1022800023D1AA8C2E4B9102194204D0284B032053
:102290001B68284998470327AB8C9B020793B9B268
:1022A0002800F4F74DFB2800079B34301BBA079336
:1022B000AB883A00C01807A9F1F7E6FD0223FF3307
:1022C000E3852B89A385069518E7130605D5FE211E
:1022D000174B03201B68C90598473B7801271B064D
:1022E0000793DCE72E00836A1036002B0BD0069391
:1022F000A88BF7F785FF002800D1FFE6069A5369FF
:1023000001335361FAE603002E331B78012B00D012
:10231000F4E6D8E71A7803235A432B003433995C48
:102320009B185A789B7800911B021343F6E6C0462F
:102330005806000000FC7F001FFCFFFFCC070000D8
:10234000FF0380FFF0B5040085B001912700FAF784
:10235000E1FC002102ABDD1C29705C3706002A007D
:102360003878F9F735FEFAF72DFD002803D002235F
:102370002A7813432B70019B002B08D1236AB342A8
:1023800005D123005D331A782B789A421FD0A368B9
:102390000393002B1DD01A7C52061AD55B7C022BAE
:1023A00017D1002303930399002910D02A784E6196
:1023B000CA74002B07D03B78201D8B7490239B00A0
:1023C0000B82F0F78FF92B7826625D34237005B00D
:1023D000F0BD08230622092103A8F4F721FA0123FE
:1023E000E1E70000F7B50024114F3B680C33A20071
:1023F0009A58E6B20192002A15D16020F1F701FF48
:10240000051E0AD060220199F1F75AFD02343B689B
:10241000A4001C1965605B352E703B680236B6005F
:102420009E197068FEBD0134052CE0D12600F4E74A
:10243000CC07000010B50400FAF718FF00280ED0F2
:10244000074B1A68130020320C331868002802D09A
:10245000418FA14203D004339A42F6D1002010BD2F
:10246000CC07000070B500880E00FFF7E3FF041EE4
:1024700013D0030059331B78032B0ED90568002DA8
:102480000BD0B28BAB8B9A4207D12800F4F7B4FD86
:102490002800F1F7BBFE0023236070BDF0B585B0C6
:1024A00003910500808BFFF7C5FF041E2DD00700A8
:1024B00059373B78032B28D92A89531ED20724D5B4
:1024C0002A00A9885B083432DBB252185B0011780D
:1024D0000133D318561C01910293029B9E4216D1E0
:1024E000019B2800AB7494231B012B82F4F760FA44
:1024F0002900201DF0F7F6F805233B70230020008B
:10250000403319780C30F4F735FD05B0F0BD737821
:1025100031781B020B435BBA99B202361B04DCD53F
:1025200023005B331878039AFAF7ACFED5E7000076
:10253000F0B5050085B0888B0E00FFF77BFF002803
:1025400008D0030059331B78032B01D9FFF79EFCF9
:1025500005B0F0BDFAF78AFE0428F9D86B684A4A3C
:102560000A3B9342F4D86B78092BF1D92A780723D8
:1025700014001C401A42EBD0FAF7DEFE0123A34000
:10258000DBB28342E4D8AB7A002BE1D0FFF72AFF1D
:10259000041EDDD0B38BB71C4387AB898387030050
:1025A000AA7A42331A706A78023B1A7064236A6806
:1025B000406153430363354B03610300FA7F583393
:1025C0001A70FAF795FE23002100E087727C5C33D5
:1025D0001A70013B039318783031FAF7C7FD0822CF
:1025E000AB5E2E89002B15DDF7F700FE864211D079
:1025F0002020F1F706FE061E20600BD020220021CD
:10260000F1F75EFC2B89B460B383FA239B007361FE
:102610001F4B73602E78FAF789FE1F230100FB56CB
:102620007209F708F60600D54100FE0702D54008FA
:10263000C0B20918CE1A910700D5F61AD20701D5F3
:102640005B10F61A2300002259331A70039B1F787F
:10265000638F0393F7F7CAFD0E4902000191E18FE2
:1026600038000091AB890399F9F75AFD002801D091
:1026700020006BE73100642E00D2642120000C3072
:10268000F4F778FC64E7C046F5BB3400692B041806
:10269000E92A0418191F0418F0B58BB00400FAF7E2
:1026A000E3F901282ED11C22A35E002B2ADB230094
:1026B0007F272C331A781740781E052834D8F1F775
:1026C000B7FB033323332B2F0123284D284E102231
:1026D00002A9CA81002B03D0631CDB7F5B0611D1EA
:1026E000032F2CD0E38B0393F7F780FD039B8342EA
:1026F00008D1002D25D10121072F00D00021200075
:10270000FFF7CCFE0BB0F0BDE28B1A4B9A420BD117
:102710000123194D194EDAE70023194D194ED6E75A
:102720000023174D184ED2E7002501232E00CEE7D7
:10273000164B0022390003201B689847E2E7002D62
:10274000DCD02100A288343189180E2202A8121888
:102750002389009506A8EFF759FE0028E8D1002E3E
:10276000D0D0210006A8B047CCE7C046D413041847
:10277000DF290418FDFF0000CC13041831250418CC
:10278000D7130418852C0418652404185806000073
:10279000F0B589B00400FAF767F90390012856D123
:1027A000FAF76AFD002852D0A08BF7F729FD0490B4
:1027B000002842D0631CDB7F7F2B4AD80023019383
:1027C0007B4B019A1B68023292009B185F68002FB6
:1027D0002DD03B0059331B78032B28D93B005B33AA
:1027E000E18B1878FAF716FD002820D00021380078
:1027F000FFF7A8FD631CDB7F7F2B4AD923002C3316
:102800001B78002B45D17D682A006B1C2C32002DD3
:1028100028D120000794F4F7CBF8039DFAF78CFD3C
:102820000590854200D87AE00798F4F7D5F8019B27
:1028300001330193052BC3D109E0E08BF7F7E0FCEE
:10284000002804D1631CDA7F7E231A42B2D109B07A
:10285000F0BD23007F222C331B781340013B082B53
:10286000F5D9ABE7D97F7F29D1D911780029CED10D
:10287000A08CA98C8842CAD12900381DEFF784FFAB
:102880003A005A3213782800013B1370F4F7A4F889
:10289000BFE7E3882289A18807A8F3F7C1FF0028D2
:1028A000D5D10123228907992000F4F7E7F8079E84
:1028B0000123327C110099430B00317404990029E3
:1028C0001BD17F25631CD87F711CCB7F2840AB4375
:1028D00001380343CB7704231A429ED030002100F5
:1028E000A28834313430F1F7CFFA0321A088BFF742
:1028F00087FBC5B22D36357090E7711CC97F3289D0
:102900007F2951D90B2A00DC87E7082104221343D1
:10291000337420894B1EC018BFF77AFBE9E77E6845
:102920003B005A3302931B78059A5B19381D93427A
:1029300014DC4022237C079993432374EFF7D2FEE3
:10294000029B18782D181D701E22A35E002B00DA42
:102950006DE72023227C1343237478E74022337CE5
:1029600013421FD1EFF706FF039A337C0292042231
:10297000134203D033002D331B7802933000F4F759
:102980002BF83B005A331978029B994204D2094B29
:1029900003201B68029A98473A005A32137802992A
:1029A0005B1A13703668BBE70C210F2AAEDC34E7E4
:1029B000CC070000580600001FB56A46438F046824
:1029C0009381838F03A9D381A38B002200930523D6
:1029D000FFF7CEFA20006169F4F7CCFA1FBDF7B516
:1029E000037806005B080D000193002B58D1888BFB
:1029F000FFF720FD041E53D001002700383134308A
:102A00005937F4F733FB3B78042B68D0062B48D0BA
:102A1000032B45D101333B7023005B331878FAF761
:102A2000B7FB2368002B02D02000FFF7C5FF23006F
:102A30003278260041331A705C363378AB749023B9
:102A40009B002B82FAF766F900212A00E97468617D
:102A500030781332F9F7BCFAFAF7B4F9002803D04A
:102A60000223EA7C1343EB746B6928002362230082
:102A7000EA7C5D331A70F3F79BFF2900201DEFF706
:102A800067FE23005B3319780A20FBF781FA0523E0
:102A90003B7023002000403319780C30F4F76AFAB9
:102AA000F7BD23004133327819789142E9D01A708A
:102AB000636A002BE5D0A06A002803D0F3F78CFFEF
:102AC000019BA36223002F331A78013B1B789A42A3
:102AD000D7D1606AF3F780FF00236362D1E7230058
:102AE000327841331A70CCE7F8B505680600002D3E
:102AF0001CD1124B5B362A00032031781B689847A3
:102B0000F8BDAB69326BE31864006C611C190027D7
:102B1000AB61944202D9D31A6B6101373000FFF7E1
:102B20004BFF002FECD000236B61E9E76C69002CB0
:102B3000E7D12800F1F76AFB3460E1E758060000AE
:102B40007FB50A00CB7C69460B73536904934368D5
:102B5000591E8B4169460B75438F03A900930223CD
:102B6000FFF706FA07B000BDF0B5050059352A7821
:102B7000040085B0062A00D97BE01000F1F758F96F
:102B8000047904756F286F00230058331B7802AE58
:102B9000F370FAF7CBFB3070FAF7CEFB7070FAF7F0
:102BA000D1FBB070E38F0022B380638F31000093BC
:102BB00020000423FFF7DCF9002856D12000FA2179
:102BC0000C308900F4F7D6F903232B7005B0F0BD63
:102BD000676A002F07D02000FFF764FA0623002859
:102BE0001BD0042319E06668002E2BD0337C5B06D3
:102BF000F1D5201DEFF7BEFD737C022B08D0092B09
:102C000016D01F4B3A00390003201B68984703E099
:102C100031002000FFF794FF06232B7023002000D3
:102C200040331978236B0C30591AF4F7A3F9CDE728
:102C3000B27C02A90A70628F200000923200FFF776
:102C400097F9E9E701212000FFF77CFB201DEFF752
:102C500091FD011EC5D02000FFF772FFC1E72300E0
:102C60005B330B201978FBF793F92000FFF70EF97F
:102C7000ACE7034B5B34032021781B689847A5E73A
:102C80005806000070B51C228B5E05000E009CB03B
:102C9000002B1DDB0088FFF7CDFB041E1AD00300BC
:102CA00059331B78032B13D96A88838FD31AFF2BD0
:102CB0000EDC418F6846B38B0182428204A90093E7
:102CC000002206232000FFF753F92000FFF7DEF86B
:102CD0001CB070BD2B8804A84387717C1BAA11709F
:102CE00069886D46B28BAB81E9810623009203A906
:102CF0002200FFF73DF9EBE770B50B4D002802D13C
:102D00002960202070BD00242A68A31C9B00D318D2
:102D10005868002801D0F1F779FA0134052CF3D175
:102D200000232B60EDE7C046CC0700002020704751
:102D3000014B1B6818607047CC070000014B1B68F3
:102D400058607047CC070000F0B585B003920500CD
:102D500040890E00FFF76EFB00282FD1FFF742FBE2
:102D600003005B3302931F7804003770060030368F
:102D7000282229003000F1F787F8114B3100236138
:102D800038006461FAF7F2F9012359342370029B89
:102D90006E891C78F7F72AFA0A4902000191E9893D
:102DA00020000091AB893100F9F7BAF9002803D16E
:102DB000054B039A1B689A6005B0F0BD0348FBE71A
:102DC000692B0418191F0418CC07000082020000A8
:102DD00091270418811E0418000000000000000064
:102DE00000000000831E041899260418F51E04181C
:102DF00010B5F3F7F1FD10BDF0B585B00190F9F70E
:102E000065FD06000020F9F717FE451E6B425D4187
:102E1000ADB2F9F701FE012801D102231D43F9F7F4
:102E200023FE012801D104231D43F9F75BFD00288F
:102E300001D008231D43082303220E2103A8F3F722
:102E4000EFFC071E32D1039C2300A28834339B1869
:102E5000327A58701A709D70737A637401235B42E2
:102E60006384164B6382F7F7C1F9A083B388E383C9
:102E70008023327A5B421343621CD3772774F9F7BD
:102E8000DFF82200210014321831F9F75BFF0A2322
:102E90002C3423700A4B01211B6803981B681B68A4
:102EA0009847002802D00398F3F796FD019B002B6A
:102EB00001D1F9F72BFE05B0F0BDC046FF010000BF
:102EC000D007000010B5F9F701FDC388012B08D920
:102ED000FA21036889005943044B18681830F4F745
:102EE00049F80020FFF788FF10BDC046D00700005A
:102EF00010B5012812D002281BD000280DD1F9F7F7
:102F0000E5FC0E4BC28818681830002A02D1F4F78D
:102F100073F802E01421F4F72DF810BDF9F7DCFC8A
:102F2000064B026818680430002AF0D0FA218900A4
:102F3000F1E70120FFF760FFEFE7C046D007000090
:102F400010B5F9F7C9FC0368013B0360002B06D0FC
:102F5000FA21034B890018680430F4F70BF810BD10
:102F6000D007000010B50400F9F7B6FCC288002AAB
:102F700019D08388002B16D00168002913D0A18BAB
:102F8000914210D1E28B9A420DD17F22A388E3189F
:102F9000343301341B78E07F13401040181A01309D
:102FA000C0B2F9F795FD10BD064B002806D1196097
:102FB000054B8B60054BCB612C20704700221A60BB
:102FC000FAE7C046D0070000412F0418C52E0418A8
:102FD0002C207047014B1B6818607047D007000019
:102FE000F12D0418652F0418F12E041873B53A4D0D
:102FF0002B689C69002C11D173BD6B469E1C2B68FD
:10300000310080331878F6F745FDA28B33889A4259
:103010000CD12B6880331A7801321A702B688033F8
:103020001E78F6F7B7FC8642E7D325E02B68A07C34
:1030300080331978F8F7A4FE0028EAD1E31CDA7F80
:103040002B68E18B80331878F6F7E6FF0028E0D094
:103050002B6801A980331878F6F736FD0028D8D1FF
:10306000019B9A68002AD4D01B68002BD1D02B6812
:10307000A1698033187890472B6880331E78F6F763
:1030800089FC8642B8D128681830EFF773FB237C9F
:103090005B060ED5E07C01A9F6F716FD031E17D1DD
:1030A000019A5668002E04D0A21CD17FE07C220039
:1030B000B0472000F3F790FC28688369002B9BD071
:1030C0000300002280331A700430F1F7CDFB93E740
:1030D0002000F3F781FCECE7D4070000F7B5446863
:1030E00006000122A07C01A9F8F79CFB204F051ED9
:1030F0002FD1019B9B7D6374F8F7A2FF2200210072
:1031000014321831F9F71EFE3B6829001B682000B5
:103110001B689847051E1CD1337F013BDBB2337718
:10312000002B06D100233868310073601030EFF7B0
:10313000D9FAF7BDA31CD97F019B22005B689C468E
:103140002B006546A8472000F3F746FC00233377A1
:10315000E8E7E07C01A9F6F7B7FC0300E07C002B70
:10316000E8D0044B01002A0003201B689847EAE7D7
:10317000D407000058060000F7B50A0A01AC6270D7
:103180000A0CCBB2A2700A0E050001262370E27071
:103190000A0606D53F229343803B1A00531E9A41EC
:1031A000961C2800B1B2F3F7CBFB071E07D128000D
:1031B000AB88343032002100C018F0F765FE3800CB
:1031C000FEBD0000244BF7B51B6805005A6A0E00CF
:1031D00090422ED05A6C90422DD05A6E00248242DA
:1031E00005D10234013464011C19002E2CD0E87C76
:1031F000FF2811D001A9F6F767FC00281DD1019B1B
:103200005B681F1E05D0AB1CD97F2A003300E87C09
:10321000B8472800F3F7E0FB002C09D0002E13D0AC
:10322000002363600C4B210018681030EFF75AFA46
:10323000F7BD0024D6E70124D4E7084B3200032071
:10324000E97C1B689847E4E720003221637F08305F
:103250005943F3F78FFEEBE7D40700005806000050
:1032600073B5002304000193A3883430C25CC118F5
:10327000C3560125002B05DA3F239A43803A531E9B
:103280009A41951C2A0001A8F0F7FEFD019BA9B206
:103290002000A361F3F762FB051E12D1094E210045
:1032A00030681830EFF71EFA2000F3F781FB306822
:1032B00083699C4205D10200803215700430F1F719
:1032C000D3FA73BDD4070000002373B504000800CF
:1032D0000D0016000193F6F793FF002819D12BB2C9
:1032E000002B2CDAFF232A009A43FF231B029A4269
:1032F00020D0012E0DD0E3882289A18801A8F3F700
:103300008FFA00281CD10123200022890199F3F7AC
:10331000B5FB019B002B04D1227C40331343019465
:1033200023740198FFF79CFF0198A04207D0F3F7A0
:1033300053FB04E02800F9F723FC0028D9D1002032
:1033400076BD000070B50F4D002817D1012429600B
:103350002868631E0C4A61015B01C3184118196398
:10336000DA6210300134EFF7BDF9042CF0D12B688C
:10337000064ADA6000229A60842070BD00232B6028
:10338000FAE7C046D4070000DD300418ED2F04181A
:1033900084207047014B1B6818607047D4070000F9
:1033A000F0B589B01C000EAB1B78060005910493A4
:1033B000002C00D198E0A31CE074DA77049B210074
:1033C0005A1E93415B0023741C31F6F763FB051E04
:1033D00000D082E0122702ABFF18112302AA9B182B
:1033E000029306AB019313239B1800932200230042
:1033F000210030000397123322321E31F6F7F4FB1E
:10340000051E00D073E0E38B002B00D16FE0082095
:10341000F9F788FA002863D03B78002B60D010239E
:10342000227C13432374231DDD7702ABD87CFF2855
:1034300001D1F9F7F9F9671CF8773100A07CF8F7AA
:103440009FFC051E49D10122A07C07A9F8F7EAF9E3
:10345000051E42D120000599FFF78EFE051E3CD1C6
:10346000049908222389002900D1043A9B18C0221C
:103470005200934238DC079B9B7D6374F8F7E0FDB4
:103480002200210014321831F9F75CFC2000FA7F89
:10349000E18BFFF719FF051E1FD1237C5B061CD4AF
:1034A0000726144F01003B6820001B681B689847E3
:1034B00002AB5B7C33420DD038680369002B09D026
:1034C0001030EFF757F902AB5B7C4460DA08334009
:1034D000427703772000F3F76BFA280009B0F0BDBC
:1034E000FF22231DDA77A0E7C1256D00F5E7024D25
:1034F000F3E7C046D407000082020000F0B585B0B3
:103500001C000AAB1E780BAB1B78050003930CABB9
:103510001F8801910292002C02D1C1256D0045E067
:103520003000F7F709FD0028F7D0002F41D0042321
:103530002374039BE574A6746374E783F9F774F945
:10354000029AA31C661CF077DA77012321005B4204
:10355000280063841C31F6F79DFA051E26D1200051
:103560000199FFF709FE051E20D1BE2322895B00C9
:103570009A42D2D8F8F764FD2200210014321831A3
:10358000F9F7E0FB2000F27FE18BFFF79DFE051EBF
:103590000CD1237C5B0609D4074B01001B6820007B
:1035A0001B681B6898472000F3F702FA280005B053
:1035B000F0BDC025B2E7C046D4070000F0B587B023
:1035C0001C000CAB1F780DAB060018880EAB1B78E7
:1035D000150001930FAB1A780291002C02D1C1257E
:1035E0006D0061E0002800D16BE0019BE674591E7C
:1035F0008B41590004230B43002123747BB2E083E9
:103600008B4200DB39000020A174824201D1F9F71E
:103610000BF9631CD8770393A31CDD7701232100EA
:103620005B42300063841C31F6F734FA051E3BD14F
:103630003100A07CF8F7A4FB051E35D1A07CF7F77C
:103640007BFC002833D07F233B4020000299637429
:10365000FFF792FD051E27D1019908222389002931
:1036600000D1043A9B18C02252009342B7DCF8F70D
:10367000E7FC2200210014321831F9F763FB631CC8
:103680002000DA7FE18BFFF71FFE051E0CD1237CA3
:103690005B0609D40C4B01001B6820001B681B68EB
:1036A00098472000F3F784F9280007B0F0BD012205
:1036B000A07C05A9F8F7B6F8051EF5D1059B9B7D02
:1036C000C3E7C0258CE7C046D4070000194BF0B50E
:1036D0001B6817009C6987B0002C29D01A00803223
:1036E0001578854224D1A6698E4221D1691C1170BA
:1036F000181DF1F7B9F8002F1AD1280005A9F6F71F
:10370000E3F9002814D17F21621CD27FA37C0A40F8
:103710000B4051424A410292A21CD27F310052B268
:103720000192A28B28000092059A17682200B847E0
:1037300007B0F0BDD4070000C53104186132041889
:103740000A4B10B51B68072418004730007820404A
:103750000138012808D81869002805D045300860CC
:1037600000204833136010BD0148FCE7E00700006B
:103770008202000070470000F7B5164F07263C682C
:103780000192230047331B780D003340013B012B8E
:103790001ED82369002B1BD0002919D1F6F726FD6E
:1037A0002300483318704934000A20703C6808220E
:1037B000200001994A30F0F767FB2000062229001B
:1037C0005230F0F77DFB3000034A0449F3F70CFB5D
:1037D000F7BDC046E0070000F93904184137041866
:1037E000F7B5344B009018680192030047331A78FC
:1037F00008230C0010251A4200D11D002F00C168BB
:10380000093700292BD02B4E162033680435DB688E
:1038100019009A88343103238A18282113705370B1
:103820001533D3709170917131685071D3714731F4
:1038300015710D78082128000840130084461000F7
:10384000093311300D4212D16146117200990731CE
:103850000C7801391C7001339842F9D11BE00B0040
:103860003A000C30F2F7DCFF0028CCD0F7BD012184
:103870001172010007342578013C1D700133834229
:10388000F9D11000019B193007331C78013B0C70F3
:1038900001318142F9D139000320074BFAF794FD39
:1038A0000028E3D03368D868F3F796F8002233682D
:1038B000DA60DBE7E00700004940041870B5264EE7
:1038C000072531680B0047331A7813002B40013B62
:1038D000012B3FD80B0046331B78002B3AD1080050
:1038E000443003781031D2060BD401221800F7F7C8
:1038F000E7FD041E26D128001849F3F7A7FA0400B3
:1039000020E001330370F7F7B3FD041E1AD13368CA
:103910001A0047321278120716D4186921002200C3
:103920005830FFF75DFF0E4D0E4B28001B6898477F
:103930002B88191C632B00D86421306889B2303081
:10394000F3F718FB200070BD443301211878F8F715
:10395000B5FAD0E7044CF5E7E00700007937041822
:10396000E4070000DC0700008202000070B50C4D87
:1039700007242B681A00473212782240032A0DD1FF
:10398000443300211878F8F799FA02222B6847335C
:103990001978A1430A431A70FFF790FF70BDC04623
:1039A000E007000010B506490320FAF72FFD054C8B
:1039B0002368D868F3F710F800222368DA6010BD96
:1039C000E1400418E007000010B5084B084C1B68E4
:1039D000200098472388191C632B00D86421054BCD
:1039E00089B218683030F3F7C5FA10BDDC07000063
:1039F000E4070000E007000070B50E4C0D00110058
:103A000022680720130047331B780340013B012B3A
:103A10000FD8106900280CD0002D0AD14A32583036
:103A2000FFF7DEFE236847331B78DB0601D5FFF77F
:103A3000CBFF70BDE0070000F8B51D4D04002B68FA
:103A4000002B23D003292ED11A4B1B78002B01D039
:103A5000FFF7A8FF2B68A61CB700FA58002A16D15A
:103A60003E20F0F7CEFB002303802B68B600F05019
:103A700046331A78200001321A7007F0D3FB2B6806
:103A800047331B781B0701D5FFF79EFFF8BD47336F
:103A90001A78094B21001B68032098472B68FB58B4
:103AA000002BECD1DCE70029F0D145331870EDE7AD
:103AB000E0070000D907000058060000F8B51A4DCD
:103AC00004002B6847331B789B0622D4012603276A
:103AD000002C22D0E269002A1CD000231100D9401A
:103AE000314202D10133202BF8D131009940637467
:103AF0002B68E7735B688A43200002211B68E26140
:103B000098470028E4D120222B68473319780A43CC
:103B10001A70F8BD2000F2F75FFF28681430EEF746
:103B200029FE041ED6D1F4E7E007000010B5C37BE0
:103B3000002B02D1F2F750FF10BD2021044B1B686F
:103B400047331A788A431A70FFF7B8FFF4E7C04684
:103B5000E007000070B5144E0C003368050099684A
:103B6000002904D1114B0A0001201B68984700224C
:103B7000336898684178914205D816000020002CDF
:103B800000D0267070BD8B185B10DEB25B00C318CE
:103B90005B88AB4205D002D20136F2B2EBE73100CE
:103BA000E9E70120EBE7C046E00700005806000007
:103BB000F7B51A4C060023689968002904D1184B00
:103BC0000A0001201B689847002E26D02368300089
:103BD0009C686B46DD1D2900FFF7BCFF00281CD147
:103BE00061781D2919D82D78481C4F1B022360705D
:103BF000FFB2A94202D3013BDB1B5B000022A942BA
:103C000000D37A0049004000C918C0186D0061183F
:103C100020186419F0F741F96680F7BDE00700004D
:103C20005806000073B5114C0500236899680029F7
:103C300004D10F4B0A0001201B6898472368280015
:103C40009C686B46DE1D3100FFF784FF002805D01D
:103C500062783378013A934201DB627073BD590098
:103C60006118888801334880DBB2F4E7E007000080
:103C700058060000F0B57A4D04002B6885B0002B83
:103C80006AD01A0046321278002A65D0C27B002A18
:103C900000D085E0827C002A5ED19A68002A5BD041
:103CA0000300818834335E5C5F18012E51D0022EF0
:103CB00063D0002E50D10389022B4DD17B78012B8C
:103CC0004AD8002353707B781370A38B677C0193D1
:103CD0002B689968002904D1624B0A0001201B68F7
:103CE000984708230422092103A8F2F799FD061E2C
:103CF00032D1039C2B68A1889A68230034335B1867
:103D0000032119701178597052789870DA70F8F7A9
:103D100097F92200210014321831F9F713F88023A3
:103D2000DB0063828023621C6774D3772374019B5A
:103D3000E383F6F75BFAA08303982B68C6735B688E
:103D400002211B689847002806D00398F2F744FE2A
:103D500002E0038933420CD105B0F0BDBB1958789D
:103D6000BA5D0002104340BA80B2FFF721FF02366D
:103D7000F6B22389B342F1D8A7E70126038933427B
:103D8000EAD02389B342A0D9BB195878BA5D0002A2
:103D9000104340BA80B20236FFF744FFF6B2F0E7B4
:103DA000511E0129D8D8FF21022A00D0417C666922
:103DB000002ED1D09F68002FCED000291CD13B7897
:103DC000002B13D1284B1B78002B0BD0274B1A78D4
:103DD000002A07D101321A703200FF201C32023152
:103DE000F4F7B2F9B08BFFF7E3FEB5E7012BB3D1DF
:103DF000B08BFFF717FFAFE70021F08BFFF7AAFEAC
:103E00003B78002B1BD10028A6D00221E388228911
:103E100003A8F2F705FD061E9ED10123200022898A
:103E20000399F2F72BFE002810D00E4B3200310020
:103E300001201B6898470020FFF740FE8CE7012B0C
:103E400000D089E7002800D086E7DEE70123039948
:103E500048612868CB611430EEF744FCEBE7C046BC
:103E6000E007000058060000D9070000D80700004E
:103E700010B5114C002813D11368104A1340022BBF
:103E80000ED10B00FF2245331A700D4B21601B78B9
:103E9000002B01D10B4B0B625C200B4B4B6310BD15
:103EA00020680028FBD08068002801D0F0F7AEF928
:103EB00000202060F3E7C046E00700000200080091
:103EC000D9070000753704186D39041803680020FD
:103ED0009B0700D55C307047024B1B68002B00D05D
:103EE00018607047E0070000024B1B68002B00D0F1
:103EF00058607047E0070000F7B504001500019115
:103F0000F8F78AFD012800D090E04B4B1B789C46C7
:103F1000002B06D1022C01D8042D06D9C12676002B
:103F20004AE0022CFAD8052DF8D8444F07203B6808
:103F3000190047310A781040002C3FD12600940721
:103F40003AD0013801280CD84024224234D118003C
:103F5000019F59305B330670477022431D700A7011
:103F60002AE0019AFF2A05D01A00443212780199FA
:103F70008A4221D11A00583215706246002A03D1B4
:103F80001C331800F3F738F838683030F3F734F89A
:103F90003B6807211800473002788A431100042249
:103FA0000A430270120704D5443300211878F7F74A
:103FB00085FFFFF7F7FC00263000FEBD04280CD17A
:103FC000402700263A42F7D1180059300470019C6E
:103FD0005B3344703A431D70C1E7002828D11800B4
:103FE000583005700F20013C82436042444152B278
:103FF000E40014431022023D94436A4255410120DB
:104000002D01019A2C43443304430C701A70FFF7BE
:1040100055FC094B06001B78002BCDD10028CBD1D5
:10402000386807491C30F2F7A5FFC5E7054EC3E71E
:10403000E8263601C0E7C046D9070000E0070000C7
:1040400060EA00008202000010B5194C23680028C5
:1040500026D11A004732127807301040012806D1C5
:10406000120700D4023058331978F4F7ABF82168FE
:1040700007200A00473213788343180003230343C1
:104080004020034201D1137010BD834313700B0015
:104090005A315B331A7809780020FFF72DFFF3E7D8
:1040A000D868F2F799FC00222368DA60ECE7C04692
:1040B000E007000010B5041E0DD10122FF21FFF71B
:1040C0001BFF064B1B689A68002A04D01B6821005E
:1040D00020005B689847002010BDC046E007000044
:1040E00010B5124C23681A0047321078082210408D
:1040F00042425041583319784000F4F763F8206881
:10410000020047321378590603D407218B431370FA
:1041100010BD47218B43137003005B331A7859306D
:10412000013B19780078FFF7E7FEF1E7E0070000B0
:1041300070B5174D04002B68002B1DD0002820D12E
:10414000986800281DD0F0F761F82B680720190047
:104150009C6046310A78013A0A700E4A14704A7817
:1041600082434A700C4A1278002A06D00522443352
:1041700019780638FFF7C0FE70BD0522FF21012027
:10418000F8E745331A78A242F6D1FF221A70F3E716
:10419000E0070000D8070000D90700002D3B0418F5
:1041A000753C0418393A04183141041810B5C37B22
:1041B000002B01D1F2F710FC10BD00000D4B10B523
:1041C0001B68002B15D0C37B002B12D1837C002BE6
:1041D0000FD1010083883431CA18CB5C032B08D17E
:1041E000D17890780902014349BA507889B2F3F73F
:1041F000F1FF10BDE8070000002808D11368064A47
:104200001340934206D10C30044B196070470021D3
:104210000800F9E70100FBE702000800E8070000DA
:10422000036800209B0700D50C307047024B1B68C9
:10423000002B00D018607047E8070000024B1B6895
:10424000002B00D058607047E807000010B501004F
:1042500000220420FAF77EF810BD0000F0B5264FCA
:1042600087B003933B680E0001900292002B40D070
:10427000224B1B78023B98423BDA012939D8029B3A
:10428000203B042B35D808230222092105A8F2F788
:10429000C7FA041E2AD1059D2B00AA8834339B1827
:1042A00018705E70F7F7CCFE2A002900143218311E
:1042B000F8F748FD029B6A1C6B74019BAB740423E6
:1042C000EB747C33D3772B74039BEB83F5F78EFF72
:1042D000059BA883DC733B6803215B6805981B681A
:1042E0009847041E02D00598F2F776FB200007B02D
:1042F000F0BD034CFAE7C046E807000005060000E1
:1043000082020000F0B589B003930EAB1B780E005B
:1043100004930FAB1B8817000593364B02901B6864
:10432000002B65D0344B1B78023B984260DA049B2B
:10433000203B042B5CD800239F4246D87B000133EE
:104340009BB2019309210823019A07A8F2F768FAA2
:10435000041E37D1079D2A00AB883432D21873422D
:104360005E41013616706300581C019EC1B2C0B296
:10437000B04201D2BC4230D3F7F762FE2A002900D6
:1043800014321831F8F7DEFC049B6A1C6B74029B34
:10439000AB740423EB747C33D3772B74059BEB83D2
:1043A000F5F724FF0023079AA883D373114B032149
:1043B0001B6810005B681B689847041E02D00798B2
:1043C000F2F70AFB200009B0F0BD03995A00525AD7
:1043D000002A0DD00133DBB2AEE7039851181B5A07
:1043E00001345BBA9BB20B701B0A4B70E4B2BAE7A4
:1043F000024CE7E7E8070000050600008202000023
:10440000AD410418BD410418000000000000000088
:10441000034B1B681A7A824201D1FF221A7270473D
:10442000EC07000010B5054C23685868002804D03C
:10443000EFF7ECFE002223685A6010BDEC07000085
:1044400070B5194D02242B685B68197F01290BD0C8
:104450000A00A24322D118005A7F0830002A10D146
:10446000012459681C7703E01C7719780833180079
:10447000F2F780FD2B682100187A1B685B6898476B
:1044800070BD0A4D6A702C70F2F7B6FDFFF7CAFFD7
:104490002A002100FE20F3F757FEF1E7044B00222B
:1044A00003201B689847EBE7EC070000F0070000CB
:1044B00058060000002905D1034B1B681A7AFF2A11
:1044C00000D118727047C046EC070000014B1B6812
:1044D00018607047EC07000010B5064C002804D1A6
:1044E000FF2321600B720C2010BDFFF79BFF002300
:1044F0002360F8E7EC0700000C20704710B50B4C68
:104500002368586800280ED00830F2F775FD23683C
:1045100000245868064B0477C36064210830F2F722
:1045200029FD200010BD0348FCE7C046EC07000051
:10453000414404188202000010B5084C23685B68EF
:104540001B7F022B08D1FFF7D9FF236801215A688E
:10455000FD201C32F3F7F8FD10BDC046EC0700004B
:10456000F7B5124E0D00376801907C68002C03D01F
:10457000FFF7C4FF0E48FEBD092914D92020EFF72C
:1045800040FE336878605B68002B04D1FFF74AFF78
:10459000B020C000EFE7019A1D705A605C77FFF70A
:1045A000ADFF2000E7E7C1204000E4E7EC07000092
:1045B0008202000010B50B4C23685B68002B0ED004
:1045C000587708331800F2F717FD23680649586832
:1045D000064B08304360F2F7CDFC002010BD0448C4
:1045E000FCE7C046EC07000010270000394504181E
:1045F00082020000044B1B685B68187F013843424D
:104600005841C0B27047C046EC07000000000000EF
:1046100000000000B544041811440418F8B5070060
:104620000D001600002828D1F8F72EFA32000400F9
:104630002900002812D0380002F09EFB0323C41C7E
:104640009C432C1938003200210003F075F8032335
:10465000C71C9F433C19641BA0B2F8BD01F0AAFC23
:104660000323C71C9F43EF1920003200390001F0DB
:1046700067FE0323C41C9C43ECE7012002F07CFB93
:1046800032002900012003F057F8320029000120F0
:1046900001F090FC32002900012001F051FE2C00B5
:1046A000D9E7036870B505001B030DD502F074FB54
:1046B0000400280003F04EF803230334C0189C4381
:1046C0009843201880B270BD01F08EFC04002800D1
:1046D00001F04CFEF0E780220300002012061100DA
:1046E000C1400B4202D101302028F8D170470000B0
:1046F000002808D0C3B2802B05D0044BC018431E3D
:10470000984100017047000AFCE7C0467EF3FFFFB6
:1047100003000320DA0705D5013B5B105843023044
:10472000C0B270475B085843FAE70000F7B50022B3
:10473000019001296BD9032969D0374C374B0C40C4
:104740000B40802B63D0A823354E1B010E409E42A8
:104750005DD0C8231B019C4259D0F8231B0199420C
:1047600055D00B0084252F4F6D013B40AB424ED0FE
:104770002D482E4D84460D40AC446046384246D00C
:10478000B4277F01BD4242D0C425294A6D010A40A9
:10479000009200980022A84239D08227254DBF01FF
:1047A0000D40BD4233D09227BF01BB422FD09E2780
:1047B000BF01B9422BD0204A9446204A60469F1838
:1047C00062463A40074222D0B6270022BF01BE42CD
:1047D0001DD0E226B601B54219D0FE25AD01A94291
:1047E00015D00135FF35AC4211D085240098E40185
:1047F000A0420CD08B24E401A34208D09B23DB0110
:10480000994204D00E4B994201D0A822120101987E
:10481000F3F706FAF7BDC046FFFEFFFFFFF6FFFF06
:10482000FFEFFFFFFFFDFFFF80ECFFFFFFF7FFFF44
:10483000FFFBFFFFFFFCFFFFFFDFFFFF80D6FFFF57
:1048400080F2000070B51D00084B14001B685B6906
:10485000934201D1F3F792FC054A064B29001068F8
:104860001B6898472000F2F7B7F870BDF807000002
:10487000F4070000FC07000010B50A000023022125
:10488000F1F7CEFF10BD0000002337B515891400E5
:1048900019002A0001A8F1F7C3FF002812D1012353
:1048A0002A0020000199F2F7E9F8074C01992068E5
:1048B000EDF718FF2068019B0268934202D108308F
:1048C000EFF7D2FF37BDC046F80700000A4A30B5FF
:1048D0001268030014680948A58B0160107F00224C
:1048E00085B00195802503920292647C2C4300944C
:1048F000F3F776F905B030BDF8070000F4070000C3
:10490000F0B58DB00793130C16001A04059105003D
:104910000C210692002B00D002310AA8FFF7ACFF51
:10492000071E5FD10A9BFF221C009B883434E418C9
:1049300008AB1A709C46EE3A04ABD21809A9107065
:10494000D8829874D87408701520C0180770002D8C
:104950000FD102911321C91801911221C918039096
:10496000009118001621634609180798F5F73CF9DD
:1049700005002800FFF7BCFE059B2070190A637034
:1049800008AB1878A170FF2805D000220BA9F6F714
:1049900049FF0B9B9F8A04ABDB8A04AAE3701B0AC6
:1049A000237115239B181878937C0003E371D37C43
:1049B0003843237209AB1B7800B26071069A80B24B
:1049C000000A6372F3B2A071A372002A0CD0330AFA
:1049D000E372330C360E23736673CC210A984901B7
:1049E000FFF774FF0DB0F0BDB2B2120AE272F4E745
:1049F00010B5074C2068EDF7BDFEF1F7EDFF20681C
:104A00000368002B02D00830EFF72EFF10BDC04620
:104A1000F80700003E4BF0B51B688FB019680029FD
:104A200000D16EE008008B883430C5186F78C35C05
:104A30003F021F431388EE7C0493AB7C36021E4377
:104A40002B7D2C7E05936B7D24020693AB7D22008B
:104A500007932B00E87D09890243140017331929B5
:104A600005D09C7824042243DC78240614433800C3
:104A7000F5F7C6FB002841D0162204AB2100380010
:104A8000D218F4F791FF00282CD11721300504AB80
:104A9000000DC918F6F70EFF002823D12B000AAA33
:104AA000113301351978013B11700132AB42F9D154
:104AB000172304AA9B18049A04A891048022890C45
:104AC00012021143162212181078079A1B780292CC
:104AD000069AF6040192059AF60F009203960AAA26
:104AE000F5F706F8162304AA9B18390022001B7854
:104AF000FFF706FFFFF77CFF0FB0F0BDC0204000BE
:104B0000F0E7044B0A0001201B689847F4E7C04611
:104B1000F807000058060000F0B5160C87B01F001B
:104B2000330401911500072102900393002E00D059
:104B3000023105A8FFF7A0FE00281DD1059B0298B1
:104B40001C009B883434E418FFF7D2FD019B2070D1
:104B5000190A63703B0A2371EBB2A170E77032044B
:104B600063710DD02B0A2D0EA371E6712572FC2105
:104B700005984901FFF7AAFEFFF73AFF07B0F0BD1D
:104B8000ADB22D0AA571F2E7F0B5314E8BB03368A6
:104B9000019119681700002953D00A008B8834321C
:104BA000D518D25C6B78A87C1B0213430393EA7C74
:104BB0000B8912020243142B2DD10024019B029277
:104BC000A34220D104ABDA1D02990398F4F7ECFE5E
:104BD00080233C881B02A404A40C1C4306AA2B00BF
:104BE0001700113301351978013B11700132AB42C6
:104BF000F9D18222336892019B69934219D08A22AB
:104C00009201934211D02300029A03990198FFF771
:104C100083FF0BB0F0BDEA7C2B7D120210436A7D4E
:104C20001B04034312061A43C7E704ABD879F5F710
:104C300063F904AB3A002100D879F5F77FF80190C9
:104C4000E1E7044B0A0001201B689847E1E7C046F2
:104C5000F80700005806000073B506000C0001A814
:104C60000421FFF709FE002812D1019B30001D002E
:104C70009B883435ED18FFF73BFDE0216C70230A6B
:104C8000240C2870AB70EC7001988900FFF71EFEB1
:104C9000FFF7AEFE73BD0000F0B5050089B00191CD
:104CA00083883435ED186E7829781700AA78214B5F
:104CB000360212040E431643808B1B68984702ABE2
:104CC0003005000DD91DF6F7BBFB041E12D1300BC9
:104CD000002F14D004A9F6F7EDFD00280AD102AB8D
:104CE000D979187AF6F7F0FC041E03D102AB187AD2
:104CF000F5F7C0FB31002000FFF7AEFF14E02B00FA
:104D000004AA123302351978013B11700132AB420B
:104D1000F9D1019902ABDA79074B002906D104A930
:104D2000F6F770FC041EE5D109B0F0BD04A9F6F752
:104D3000D9FDF7E700080000F54D041873B506002B
:104D40000C0001A80321FFF797FD002810D1019B5B
:104D500030001D009B883435ED18FFF7C9FC892110
:104D60006C70240A2870AC700198C901FFF7AEFD81
:104D7000FFF73EFE73BD73B506000C0001A80131BC
:104D80001500FFF779FD00280ED1019B29001800BE
:104D90009B883430C018067022000130EFF774F899
:104DA00002210198FFF792FDFFF722FE73BD00007C
:104DB000002210B5024B110001201B68984710BD5E
:104DC00058060000094870B500680068002809D03E
:104DD0008488074D001936300D60106010221A804B
:104DE000002070BDFFF7E4FFFAE7C046F8070000B7
:104DF000486004180B4B10B51B681B68002B0DD0C6
:104E00001A009B883432D2185378917814781B0298
:104E1000090423431943FFF71FFF10BDFFF7C8FF25
:104E2000FBE7C046F80700000A4B10B51B681B687B
:104E3000002B0BD09A889B181A003533197834321E
:104E4000127809021143FFF779FF10BDFFF7B0FF99
:104E5000FBE7C046F8070000F0B5B04F93B03B68E1
:104E60001D688223AC699B019C4200D183E100D97B
:104E70005CE1F8231B019C4201D100F0A7FE5AD847
:104E8000C0235B009C4201D100F094FD14D8032C98
:104E900001D100F039FC06D80022012C06D9FFF719
:104EA000A7FD00F0D9FC0122802CF8D121002800B8
:104EB000FFF7F2FE00F0D0FCA8231B019C4201D1B9
:104EC00000F062FE1BD888231B019C4201D100F038
:104ED000EEFE0133FF339C42E1D101210EA8FFF722
:104EE000CBFC0028DBD10E9B1C009B883434E418DB
:104EF000F7F7A2FCB8212070090100F092FDC8224A
:104F0000874B120123409342C9D1D8231B019C42F5
:104F100001D100F045FE01210EA8FFF7ADFC0028ED
:104F2000BDD10E9B1C009B883434E418F7F77CFC41
:104F3000E8212070E0E7C4235B019C4201D100F02E
:104F400048FC5DD89C235B019C4201D100F057FED8
:104F50001AD884235B019C4201D100F02DFE9423DA
:104F60005B019C429BD101210EA8FFF785FC002824
:104F700095D10E9B1C009B883434E418F7F74CFD48
:104F8000A421207000F033FE664B654AE3181342FB
:104F900000D084E72A001E27AB883432D1184D7820
:104FA000D35C2D021D4306ABFF18FF23059128009B
:104FB00039003B70F6F744FA061E01D100F052FEAC
:104FC0003B7804210EA80593FFF756FC071E00D07E
:104FD00065E70E9B30001C009B883434E418FFF713
:104FE00087FB65702D0A2070A5703800002E02D155
:104FF0000598F6F7B5FFBC21E070490100F011FDFE
:10500000E4235B019C420BD056D8D4235B019C4225
:1050100001D100F002FC0133FF339C4200D03EE797
:105020002A00AB883432D118D25C4B78CE781B0280
:10503000134306938B7836021E434B7908791B0283
:105040001A0002432889062801D000F007FC0592C7
:105050000698F5F7D5F8002801D100F016FC0EAF40
:105060003A0005990698F4F79FFC051E01D000F060
:1050700002FCB30B032B01D000F007FC2A4B9E422D
:1050800001D100F002FCE4235B019C4201D100F05D
:10509000EEFBF4235B019C4201D100F0F1FBDC2329
:1050A0005B019C4201D000F0E6FB31003878F4F758
:1050B000C9FD050000F0DFFBEC235B019C42AAD197
:1050C0002900AA8834318B185E788A5CDC78360235
:1050D000997816432A8924020C43042A06D0210019
:1050E0001C795B7924040C431B061C433000F5F744
:1050F00087F8002801D100F0E1FB0EAF3A00210053
:105100003000F4F751FC051E02D13878F4F7F4FEB4
:1051100000232200310000F0B1FBC046F807000078
:10512000FFFEFFFF80EAFFFFFFFF0000F6239B0169
:105130009C4200D15EE100D943E1AE239B019C4239
:1051400001D100F0BFFB00D97FE092239B019C427C
:1051500001D100F060FD54D88A239B019C420AD003
:105160000133FF339C4201D100F05BFD86239B019C
:105170009C4200D093E62A00AB883432D618D25C29
:1051800073781B02134306931E2306AA9B18002262
:105190001A80F27CB17C2B8912020A431500142B71
:1051A00008D0F27C337D757D120211431B040B4342
:1051B0002D061D430698F5F723F8002800D179E362
:1051C000290006980DAAF4F7EFFB059000280ED1F0
:1051D0008623B01C9B019C4200D059E31E2206ABE3
:1051E0001B7F06A9521801001800F4F731FE1E2398
:1051F00006AA9B182A001B8806990598FFF78CFCC5
:105200002AE39E239B019C4201D100F01DFDA623B1
:105210009B019C4200D155E39A239B019C4200D004
:105220003DE602210EA8FFF727FB002800D036E656
:105230000E9B1C009B883434E418601CF7F7FCFBC1
:10524000A2212070890100F0D3FCE6239B019C423F
:1052500001D100F0C5FD48D8B6239B019C4201D185
:1052600000F014FEE22300259B019C4200D016E6CC
:105270000A210EA8FFF700FB002800D00FE60E9BC6
:105280001C009B883434E418002D01D000F0EBFDA5
:10529000F7F71CFB8388060063701B0AA370438921
:1052A000A3711B0AE371C788002F01D000F0BBFD7A
:1052B000E57000233068984204D0FFF70CFA2023F1
:1052C0001B1ADBB22371337A6371707A0023FF28D3
:1052D00002D0F6F7D7FD030023721B0A6372280081
:1052E000FFF706FA062120709BE3EA229F4B92010A
:1052F0002340934200D0D2E5EE2300229B01079287
:105300009C4214D12B00AA8834339B18D978987802
:105310000902014358781D7800021A792843F7F7EB
:105320003BFAC02307905B00984200D1B7E5092102
:105330000EA8FFF7A1FA002800D0B0E5F7F7CCFAE5
:105340000E9BEA221D009B883435ED180700C388A8
:105350009201944208D11C1E01D100F090FD848876
:10536000002C01D100F08BFD1C00BB883868059330
:1053700000230693984205D0FFF7ADF920231B1AAE
:10538000DBB2069300263889B04204D0FFF7A3F9B8
:1053900020231B1ADEB2BB7A0893FF7A0798FFF727
:1053A000A7F9059B6C70EB701B0A2B71069B240AF6
:1053B0006B71089BF2212870AC70AE71EB712F728B
:1053C00077E08F23DB019C4200D17EE000D9CFE063
:1053D0008523DB019C4200D198E36CD88122634B8A
:1053E000D2012340934200D11DE3FE239B019C4246
:1053F00000D054E52E00AB883436F6182B89082BE4
:1054000000D09CE3736830880593F4F7F9FE002818
:1054100000D1A3E3059B002B00D1A2E31E2706AB1E
:10542000FF183A0030880599F4F7BEFA051E16D128
:1054300070880EA9F6F73EFA051E10D1202206ABA1
:105440009B181878F62339789B019C4200D078E3AA
:10545000F6F794FB051E02D13878F4F751FE059B50
:1054600007211B0C1F04002B00D002310EA8FFF7F0
:1054700003FA002800D012E50E9B28001C009B8830
:105480003434E418FFF734F92070338863701B0A52
:10549000A3707388E3701B0A2371002F00D163E3AC
:1054A00073681A0A6371A2711A0C1B0EE2712372DF
:1054B000FA218901B5E28B23DB019C4200D1B2E2E3
:1054C0000133FF339C4200D0E9E42A001E27AB8859
:1054D0003432D1184E78D35C36021E4306ABFF1827
:1054E000FF230591300039003B70F5F7A9FF051E39
:1054F0001ED18F23DB019C421AD1059B9C78012C85
:1055000000D9CCE40220F7F70DFA002810D02100D2
:105510003878F6F7D3FC051E0AD10322200039782B
:10552000FEF7EAFC051E03D000213878F6F7C6FC2A
:1055300004210EA83F78FFF79FF90590002800D0BE
:10554000ADE40E9B28001C009B883434E418FFF760
:10555000CFF86670360A2070A670FF2F00D192E354
:105560003800F6F799FCE0709121E6E2FFFEFFFFBC
:105570009B23DB019C420AD06CD89323DB019C4225
:1055800000D183E39723DB019C4200D087E42E0007
:10559000AB883436F618F478B2782B892402144399
:1055A000042B06D0220034797379240414431B069B
:1055B0001C433088F4F724FE1E2506ABED180028A6
:1055C00000D1D6E22A0021003088F4F7EDF9070077
:1055D0003388002605932B780693B74203D1180031
:1055E000F4F7D4FD06003000FFF792F8230C1B04FB
:1055F000079381B2230C00D0BEE2053189B20EA818
:10560000FFF73AF9002800D049E40E9B38001D004E
:105610009A883435AD18FFF76BF8059B079A6B70C5
:105620001B0AAB70E3B22870EB70002A00D1A5E230
:10563000230A2B71230C240EAC719D246B71EA1D7F
:10564000E401002E00D193E1012331000698F6F722
:10565000CFFB8DE1D34B9C4201D0FFF720FC2B0008
:10566000AA88343399189A5C4B7805911B0213432E
:1056700007938B785F000337FFB2CA1954780693FB
:10568000C95D2B8924020C43DB1B022B06D02100B1
:105690009478D37824040C431B061C430798F4F732
:1056A000AFFD002801D100F041FC210007980EAAAF
:1056B000F4F77AF9061E1DD12B897A1C9A4201DB78
:1056C00000F034FC0437BB4201DD00F02FFC202247
:1056D000C02706AB9B181878F4F70EFC059B3F0219
:1056E000DD1C069B5B005B190893089BAB4201D055
:1056F00000F005FCB023DB009E4201D000F018FC56
:105700000023069300F014FC2B00AA8834339B1866
:105710009A790592803AD2B27E2A01D8FFF7BFFB70
:105720005E781A7836021643DA78997812020A43BC
:1057300009925A79197912020A430692DA799C7A07
:1057400007921A7A2402597A08921A0023000B430E
:1057500029891C0009320B2905D0947824041C43A4
:10576000D3781B061C433000F4F74AFD00282DD0E7
:105770001E2506ABED182A0021003000F4F714F9BD
:10578000002819D1069B0EAF18053900000DF6F759
:1057900091F8002810D1069A2D78D204D20F3B78C8
:1057A0000392089A09990292079A0192059A009227
:1057B00002002800F4F79CF91E2306AA9B1831006A
:1057C00022001B78FFF79CF8FFF769FBC020400020
:1057D000F2E72E00AB883436F618F478B2782B89CD
:1057E00024021443042B06D0220034797379240454
:1057F00014431B061C433088F4F702FD0EAD00284D
:1058000008D02A0021003088F4F7CEF822002B7847
:105810003188D7E7C0204000F8E72B00AA8834334E
:105820009B181A7D803AD2B27E2A01D8FFF737FB47
:105830001A000EAC2100981C113201331578013A80
:10584000257001349342F9D11022EEF71DFB564A20
:1058500000205649F1F7CFFA13B0F0BD8B791B0445
:105860001343CA7912061A430592FFF7F1FB310080
:105870003878F4F7BFFA3300059A06992800BDE49A
:105880003878F4F739FBFFF710FCC0256D00F2E71C
:1058900033000EAA1100113301361D78013B15703B
:1058A0000132B342F9D11022EEF7EEFA3B68404ADA
:1058B0009C61CDE7C0235B00059398E4C0256D0093
:1058C000FFF726FC29001E27AA8834318B185E7842
:1058D0008A5C3602164306AABF18FF223A70DC78AB
:1058E00099782A8924020C43042A06D021001C79C5
:1058F0005B7924040C431B061C433000F4F780FC46
:10590000002837D1C0233F785B0006930590059BA4
:10591000220C12045B000792D91D220C00D1591DE4
:105920000EA8FEF7A9FF002801D0FFF7B8FA0E9BDA
:1059300006981D00998834356D18FEF7D9FE079A30
:105940006E70E3B2360A2870AE70EB70002A22D077
:10595000230A2B71230C240EAC71B2246B71E91D48
:10596000059BA401002B03D000223800F4F708FBAC
:10597000210056E03A0021003000F4F715F800232A
:105980003F78069005930028C1D13800F4F7E2FA79
:10599000C3B20593BBE7A4B2240A2C71691DAA24E3
:1059A000DEE7C04680F20000154A0418C54D041811
:1059B000894B04182A001E24AB883432D118059173
:1059C00006A964182100D05AF5F73AFD0025060013
:1059D0002778A84203D13800F6F700FA050028001E
:1059E000FEF796FE033081B20EA8FEF745FF0028B1
:1059F00001D0FFF754FA0E9B30001C009988343414
:105A00006418FEF775FE059B20701B8863701B0AE7
:105A1000A370002D03D03800E11CF6F73FF8A02159
:105A200089000E983FE12A00AB883432D5186E7891
:105A3000D35C36021E438123DB019C4213D12B0031
:105A40000EAA1100113301351878013B1070013294
:105A50009D42F9D100223000C54BF5F7A1FA00288C
:105A600000D1F9E64EE01E2706ABFF1839003000E2
:105A7000F5F7E6FC8B230590DB019C4211D1002851
:105A800040D12B000EAA1100113301351878013BCB
:105A900010700132AB42F9D13878B54AF5F74EFBB8
:105AA000DDE7059B002B29D13878F6F797F90690AA
:105AB000002814D038780EA9F6F732F80EAD3978F0
:105AC0002878F5F701FE2878F4F7D4FC059801351D
:105AD0000130C3B20593059A069B9342EFD1002192
:105AE0003878F5F7C3FA002808D13878F6F7DCFFE4
:105AF00083230020DB019C4204D0ADE6C8231B01B8
:105B00009842F5D13100FFF719F9A5E6F6F75EF9ED
:105B10000400FEF7FDFD81B20EA8FEF7ADFE0028E1
:105B200001D0FFF7BCF9002C06D00E9B18009B8813
:105B30003430C018F5F7FEFC8721C90171E7B3883E
:105B400061E4F6F7A7F8051E00D088E4202206AB32
:105B50009B1819783878F4F7E5FA80E4C0256D00D1
:105B60007DE4D8252D017AE4B38863711B0AA37103
:105B70009EE4C0277F002BE507313FE5A4B2240A4D
:105B80002C716A1D99245BE5AB88ED1834352878B3
:105B9000012801D9FFF783F9F6F774FDFFF79DF9A6
:105BA000AB88ED1834352878F6F756FD002801D07B
:105BB000FFF775F9FFF7AFF9AB88ED1834352878A2
:105BC000012801D9FFF76BF9F6F702FF01210EA8B2
:105BD000FEF752FE002801D0FFF761F90E9B1C0072
:105BE0009B883434E418F6F73FFF8C21207049017C
:105BF0000E98FEF76BFEF6F797FFFFF750F9AB88AC
